:0401BB00AA82AB83E6
:0E01BF008A828B83E493FCA3AA82AB83ECFDBF
:0E01CD00600F8D82C002C00312187CD003D0D8
:0301DB000280E1BE
:0101DE0022FE
:0601DF00903C340201BB5C
:0B01E500121908E5826006903C3812F9
:0201F00001BB51
:0401F2007808E4F2B3
:0D01F6001218C51218E0AA82BA0802800390
:03020300BA7F16A9
:0C0206007808E260EB121908E582600342
:030212001201DFF7
:070215007808E214F280DA20
:03021C00BA1516FA
:0C021F007808E260D2121908E582600342
:03022B001201DFDE
:07022E007808E214F280EAF7
:05023500BA0D027A0A77
:0E023A00BA0A0F121908E582603775820A129F
:04024800187C802F6F
:06024C007808E2B42E0068
:0A02520050A27808E2FB780804F2DD
:0A025C00EB2436F582E434F0F5835C
:0E026600EAF0C002121908E582D00260838A15
:070274008212187C0201F662
:0A027B007808E2FA780804F2EA2499
:0A02850036F582E434F0F583740AC4
:0A028F00F07808E2FA780804F2EAB9
:0A0299002436F582E434F0F583E426
:0602A300F07809E4F222EC
:0802A9007806740AF278097965
:0B02B10008C3E3F5F0E295F050177869
:0902BC0009E2FA780904F2EA24CF
:0A02C50036F582E434F0F583E0FA28
:0302CF007806F2BC
:0602D2007806E2F582222D
:0502D800AA82BA0A0031
:0A02DD00500874302AF58202187CE4
:0802E70074572AF58202187C0D
:0E02EF001218E0AA82C3EA648094B040117431
:0E02FD00B98AF063F08095F04006EA24D0F54F
:02030B0082224C
:0E030D00C3EA648094E1401174E68AF063F064
:0B031B008095F04006EA24A9F582223C
:0E032600C3EA648094C1401174C68AF063F08B
:0B0334008095F04006EA24C9F5822203
:09033F0078077401F275820022B6
:0E034800AA82AB838B82C002C00312035ED078
:0803560003D0028A8202035E5B
:0E035E00E582FAC4540FFB740F5BF582C002F7
:0D036C001202D8D002740F5AF5820202D896
:080379007806E2B42002800CBA
:080381007806E2B409028004D1
:040389007A00800274
:02038D007A01F3
:03038F008A82223D
:0C039200120379E58260051202A980F4D4
:01039E00223C
:0E039F00AA82C3EA648094B0401174B98AF057
:0D03AD0063F08095F04006EA24D0F582222E
:0E03BA00C3EA648094E1401174E68AF063F0B7
:0B03C8008095F0400674A92AF58222FF
:0E03D300C3EA648094C1401174C68AF063F0DE
:0B03E1008095F0400674C92AF58222C6
:0403EC007582FF22F5
:0B03F0007800E4F208F21203927A0099
:0303FB00BA020043
:0C03FE0050477806E2F582C00212039F0F
:0C040A00AB82D002EB30E70678077402EA
:02041600F222D0
:0C0418007800E2FC08E2C454F0CCC4CC34
:0E0424006CCC54F0CC6CFDEB3395E0FEEB425B
:0C04320004EE42057800ECF208EDF2C088
:09043E00021202A9D0020A80B4E6
:010447002292
:0B0448007A017800E4F208F2C0021212
:040453000392D0023E
:0C0457007806E2F582C00212039FAB821F
:0C046300D002EB20E7307800E2FC08E259
:0E046F00C454F0CCC4CC6CCC54F0CC6CFDEB7F
:0C047D003395E0FEEB4204EE42057800EF
:0E048900ECF208EDF27A00C0021202A9D002D5
:0204970080BE25
:07049900EA60047807EAF2B3
:0104A0002239
:0A04A100C01EE581F51E2404F5815C
:0C04AB007A017802E4F208F208F208F28C
:0704B700C002120392D00203
:0B04BE007806C3E2648094B050030293
:0204C9000542EA
:0C04CB007806C3E2F5F074B963F0809588
:0A04D700F040687802E2F55008E2F8
:0904E100F55108E2F55208E2F5BC
:0B04EA005390000AE4F5F012355BA807
:0C04F5001E08A68208A68308A6F008F6E0
:0C0501007806E2FFE23395E0FBEF24D027
:0C050D00FFEB34FFFB3395E0FCFDA81E63
:0E05190008EF26FFEB0836FBEC0836FCED0879
:0C05270036FD7802EFF208EBF208ECF26F
:0D05330008EDF27A00C0021202A9D0020207
:0205400004BEF7
:07054200EA60047807EAF209
:0A05490078027900E2F308E209F3FA
:06055300851E81D01E226E
:04055900AA82AB8344
:0C055D008A828B83E493FC60237806E222
:05056900B50402800949
:09056E0078077402F27582002284
:050577000ABA00010BAF
:0D057C00C002C0031202A9D003D00280D437
:040589007582012254
:09058D001204487807E270467878
:0C05960012C2D575F007E230E704B2D5C0
:0205A200F4045F
:0E05A400A430D50AF42401C5F0F43400C5F0EB
:0A05B2002432FA74F735F0FB7406EA
:0C05BC002AF582E43BF5837800E2B400ED
:0A05C8000908E2B400047401800188
:0105D200E444
:0405D300FAB4010075
:0405D700E433FAF01F
:0105DB0022FD
:0705DC00120392903C3B1258
:0705E3000559E582700122B9
:0D05EA001218C5900064121C5475C90B90C6
:0B05F70000C8121C5475820802174D4A
:0D0602009000A4E493C0E0740193C0E07484
:0A060F0004C0E07444C0E07480C031
:0A061900E074F4C0E07443C0E07424
:0A06230080C0E07441C0E0743CC0E8
:0E062D00E07480C0E0123616E58124F5F581F8
:0A063B0074ECC0E07443C0E074806A
:0A064500C0E0747EC0E0743CC0E029
:0E064F007480C0E0123616E58124FAF581228F
:04065D00780BE4F240
:0A066100780B790AC3E3F5F0E29587
:04066B00F040012238
:0A066F00780BE225E02466F582E432
:0A06790034F0F583E0FBA3E0FC7809
:030683000CE4F292
:0C068600780CE275F004A4FEAFF02BF538
:0E06920082EF3CF583E493FAA3E493FD4A70F3
:0406A0000302072D1D
:0E06A400EE2BFEEF3CFF8E828F83A3A3E49328
:0806B200F508A3E493F50985A6
:0A06BA000882850983C003C0041202
:0506C40001BBAE08AF10
:0C06C900097A808E828F838AF0123BC475
:0E06D500AA82D004D0038A057E000DBD00016C
:0106E3000E08
:0706E400ED2508F508EE35D5
:0806EB0009F509742DC39AFA08
:0E06F3008A051AED6014758220C002C003C093
:0C0701000412187CD004D003D00280E663
:0A070D00850882850983C003C0043B
:0E0717001201BB75820A12187CD004D0037840
:080725000CE22401F202068639
:09072D00780BE22401F2020661DE
:080736007807E2B4010280061D
:06073E007807E2B4020A94
:07074400903C931201BB7809
:03074B0007E4F2CE
:01074E002288
:0A074F00AA82AB83780AE2B40B0023
:0E075900400E758206C002C00312174DD00379
:02076700D002BE
:0A076900780AE2FC780A04F2EC2C96
:0A0773002466F582E434F0F583EA11
:05077D00F0A3EBF022E7
:070782001201E51202A912A9
:0907890003927806E2FAC00212A4
:0907920002A9D002BA0D0280E7B1
:05079B00BA0A0280E231
:0A07A00090F07CE4F0A3F0750A006D
:0A07AA00780AC3E2F5F0E50A95F0C5
:0507B4004003020836BD
:0507B900E50A250A24F9
:0A07BE0066F582E434F0F583E0FCF8
:0507C800A3E0FD7E002E
:0A07CD00EE75F004A4F50B85F00CA6
:0C07D7002CF582E50C3DF583E493FFA3B4
:0B07E300E493FB4F603DE50B2CFBE5B1
:0C07EE000C3DFF8B828F83A3A3E493FBE0
:0E07FA00A3E493FF8B828F83E493FBB5021B75
:0A080800E50B2CF582E50C3DF583AD
:0E081200E493FBA3E493FF90F07CEBF0A3EFE4
:03082000F0800362
:030823000E80A79D
:0C08260090F07CE0FBA3E0FC4B700505AB
:040832000A0207AA05
:0708360090F13A12168D90BB
:0E083D00F07CE0FAA3E0FB4A6011C002C003A9
:0D084B008A828B8312008BD003D0028005BF
:0508580078077402F2B4
:07085D0012073690F13A1278
:0508640016EB02078203
:07086900903CA112074F743F
:08087000B9C0E0743CC0E07463
:0808780082C0E07407C0E090AB
:0C088000F07E121948E58124FCF581226D
:043C3400082008005C
:033C38003E20002B
:063C3B0065626F6F74006A
:0E3C41006D616E756661637475726572202028
:0E3C4F0020202025730A70726F647563742044
:0E3C5D0020202020202020202025730A7365BF
:0E3C6B007269616C2D6E756D6265722020208D
:053C79002025750A0082
:0E3C7E00736F6674776172652D766572736977
:073C8C006F6E2025730A0092
:0E3C930053796E746178206572726F720A0048
:023CA1005D06BE
:023CA300BD3C26
:023CA500A91C58
:023CA700C43C1B
:023CA9008D0587
:023CAB00CC3C0F
:023CAD00DC0534
:023CAF00E13CF6
:023CB100020609
:063CB300F03C00000000DF
:043CB900636D6400D3
:073CBD003F0048656C700038
:083CC40054005461736B73009E
:0E3CCC0045203C30206F66662C2031206F6E44
:073CDA003E004563686F0026
:0E3CE100722065626F6F74005265626F6F74BF
:013CEF0000D4
:0A3CF000760056657273696F6E006E
:0E088C0090F108E0FAA3E0FBA3E0FCA3E0FD7E
:0E089A0090F127E0FEA3E0FFA3E0F8A3E0F951
:0E08A800C002C003C004C0058E828F8388F09A
:0E08B600E9121D53AA82AB83ACF0FDE581244C
:0E08C400FCF58190F112EAF0A3EBF0A3ECF04A
:0408D200A3EDF02280
:0608D600780DE260012232
:0A08DC0090F0F5E0FABA0102803C4A
:0C08E60090F0F57401F090F0F6E4F09052
:0C08F200F0F774FAF0A3E4F07550007504
:0608FE005109E4F55290DF
:06090400F0FC122E727AD5
:04090A00FA7B3C8AAE
:04090E00508B517544
:060912005206E4F55390CB
:06091800F0FC122E3D90E0
:04091E00F0FBE4F016
:0B09220090F0F6E0FABA1703020A0694
:03092D00BA01000C
:07093000500590F105E4F011
:03093700BA020001
:0E093A00500E90F0F9E4F0A3F090F106E4F016
:02094800A3F01A
:03094A00BA0300ED
:0E094D0050209000A6E493FB740193FC74020A
:0E095B0093FD740393FE90F108EBF0A3ECF013
:06096900A3EDF0A3EEF087
:03096F00BA0500C6
:07097200500590F110E4F0C4
:03097900BA0600BB
:07097C00500590F111E4F0B9
:03098300BA0800AF
:08098600500690F1167401F017
:03098E00BA0900A3
:0A0991005013755000755110E4F585
:07099B005290F117C0021297
:0409A2002E72D002DF
:0309A600BA0A008A
:0E09A900502E90F0FBE075F064A4FBE5F0FC2E
:0E09B7003395E0FDFE74762BFB74A13CFC74BE
:0E09C500063DFDE43EFE90F127EBF0A3ECF0C2
:0609D300A3EDF0A3EEF01D
:0309D900BA0B0056
:0909DC00500790F12BE4F0A3F0A8
:0309E500BA0D0048
:0909E800500790F12DE4F0A3F09A
:0309F100BA140035
:0709F400500590F12FE4F023
:0B09FB0090F0F67417F0780E7401F213
:090A060012088C780D7401F22233
:070A0F0090F13012168D0278
:020A160008D600
:090A1800780E7401F290F1300235
:020A210016EBD2
:070A2300120A0F90F13002EE
:020A2A0016EBC9
:0A0A2C0074FCC0E074F0C0E0E4C008
:0A0A3600E07401C0E0743DC0E074FC
:0D0A400080C0E0123616E58124FAF581220F
:080A4D00755000755109E4F534
:050A55005290F1311286
:070A5A002E721203927A00D4
:080A61007806E2B40A028026C7
:030A6900BA0800C8
:0C0A6C0050138A030AEB2431F582E434B5
:090A7800F1F5837806E2F0800537
:050A810078077401F28A
:090A8600C0021202A9D00280D2C4
:060A8F007807E26001227D
:050A9500120A0F75506C
:030A9A0031755162
:060A9D00F1755209E4F5B9
:050AA3005390F0FC126D
:050AA8002E3D020A18BA
:0E0AAD0090F127E0FAA3E0FBA3E0FCA3E0FD3C
:0C0ABB00C002C003C004C0057411C0E0FC
:0C0AC700743DC0E07480C0E0123616E5FB
:060AD3008124F9F58122E7
:090AD9001204A17807E260012279
:070AE200120A0F90F12778C2
:0C0AE90002E2F0A308E2F0A308E2F0A390
:0A0AF50008E2F012088C120A180241
:020AFF002B6A60
:0E0B010090F108E0FAA3E0FBA3E0FCA3E0FD06
:0C0B0F00C002C003C004C0057421C0E097
:0C0B1B00743DC0E07480C0E0123616E5A6
:060B27008124F9F5812292
:090B2D001204A17807E260012224
:070B3600120A0F90F108788C
:0C0B3D0002E2F0A308E2F0A308E2F0A33B
:090B490008E2F012088C020A18FF
:0C0B520090F12FE0FA7B00C002C0037499
:0A0B5E0031C0E0743DC0E07480C0B7
:0B0B6800E0123616E58124FBF5812227
:090B73001204A17807E2600122DE
:0C0B7C007800C3E2F5F0740295F008E286
:0C0B8800F5F0E495F0500678077401F2D7
:010B9400223E
:070B9500120A0F7800E29044
:070B9C00F12FF0120A18020C
:020BA3002B6ABB
:0C0BA50090F116E0FA7B00C002C003745F
:0A0BB10045C0E0743DC0E07480C050
:0B0BBB00E0123616E58124FBF58122D4
:090BC6001204A17807E26001228B
:070BCF00120A0F7800E2900A
:060BD600F116F0020A18FE
:0A0BDC001203927806E2FAC002123A
:060BE60002A9D0027B0011
:0E0BEC00EB75F006A4FCFD903D5793CDA3934E
:090BFA00FEBD0005BE00028032C0
:0C0C03008D828E83E493FDB50225EC2465
:0A0C0F0057FCE4343DFD8C828D8318
:0E0C1900A3A3E493FCA3E493FDC004C0058CE8
:0B0C2700828D8312008BD005D00422C8
:030C32000B80B77D
:060C350078077402F222B0
:020C3B007A003D
:0E0C3D00EA75F006A4FBFC903D5793CCA39300
:080C4B00FDBC0004BD00012204
:0E0C530074012CFEE43DFF78808C828D838836
:0E0C6100F0C002C003C006C007123BC4AC8244
:0E0C6F00AD83D007D006D003EC2EFEED3FFF84
:0E0C7D007C80EB903D5793CBA393FD7880C015
:0C0C8B0006C007C004C003C005C0007410
:0A0C970087C0E0743DC0E07480C027
:0E0CA100E0123616E58124F7F581D0020A0232
:020CAF000C3DFA
:0B0CB100120A2390F0F6E0FA7B00909E
:0E0CBC00F0F5E0FC7D00C002C003C004C005DE
:0A0CCA007491C0E0743DC0E0748036
:0D0CD400C0E0123616E58124F9F5817A00A2
:0E0CE100EA75F006A4FBFC903D5793CCA3935C
:080CEF00FDBC0004BD00012260
:0A0CF700EB2457FBE4343DFC8B8234
:0E0D01008C83A3A3A3A3E493FBA3E493FC4B76
:0D0D0F006013C002C003C0048B828C8312ED
:080D1C00008BD004D003D002CB
:030D24000A80BA88
:060D2700903DA802074FF9
:073CFA004E3043414C4C0029
:0E3D010043616C6C7369676E3A202225732251
:023D0F000A00A8
:0E3D11004672657175656E63793A20256C64A3
:023D1F000A0098
:0E3D2100526164696F2063616C3A20256C6406
:023D2F000A0088
:0E3D310054656C656D657472792072617465FD
:063D3F003A2025640A0091
:0E3D4500526164696F20656E61626C653A20A0
:043D530025640A00D9
:023D5700B03D7D
:023D5900D90A85
:023D5B00AD0AAF
:023D5D00C93D5E
:023D5F004D0A0B
:023D61002C0A2A
:023D6300E83D39
:023D6500C60B8B
:023D6700A50BAA
:023D6900193E01
:023D6B002D0B1E
:023D6D00010B48
:023D6F00443ED0
:023D7100730BD2
:023D7300520BF1
:023D7500733E9B
:043D7700B10C00008B
:023D7B007A3E8E
:0A3D7D003B0C0000000000000000F5
:0A3D8700252D3230732025730A0049
:0E3D9100436F6E6669672076657273696F6EA8
:093D9F003A2025642E25640A0077
:023DA800DC0B32
:063DAA00813E0000000054
:0E3DB00046203C667265713E00467265717574
:0B3DBE00656E637920286B487A2900AD
:0E3DC90063203C63616C6C3E0043616C6C7364
:0E3DD70069676E2028382063686172206D6174
:033DE5007829003A
:0E3DE80065203C302064697361626C652C209C
:0E3DF6003120656E61626C653E00456E616253
:0E3E04006C652074656C656D65747279206163
:073E12006E642052444600DB
:0E3E190066203C63616C3E00526164696F205C
:0E3E270063616C6962202863616C203D20722B
:0E3E3500662F287874616C2F325E3136292991
:013E4300007E
:0E3E440054203C726174653E0054656C656DDF
:0E3E52006574727920726174652028303D33EA
:0E3E6000382E342C20313D392E362C20323DA8
:053E6E00322E34290092
:073E7300730053686F770034
:073E7A003F0048656C700079
:0E3E810063203C7661723E203C76616C756574
:0E3E8F003E0053657420636F6E6669672028DD
:0E3E9D003F20666F722068656C702C207320C9
:093EAB00746F2073686F77290021
:0A0D2D00C01E85811EC082C083E550
:0C0D3700812408F581A81E08740626FC23
:0E0D4300E40836FD8C828D83E0FE30E4047FF0
:030D51006C800AA9
:080D5400EE30E5047F7580021A
:020D5C007F65B1
:0E0D5E0053060F7A00EF3395E0FBC004C0058A
:0C0D6C00C006C002C007C00374B4C0E0A1
:0C0D7800743EC0E07480C0E0123616E546
:0E0D84008124F9F581D005D0048C828D83E0A6
:070D9200FA20E403020FD573
:0C0D9900A81E08740F26F582E40836F549
:0C0DA50083A81E080808E0F6A3E008F68A
:0C0DB100A81E08740B26F582E40836F535
:0C0DBD0083E51E2405F8E0F6A3E008F62C
:0C0DC900A3E008F6A3E008F6A81E0874DA
:0E0DD5000726F582E40836F583E0FAA3E0FB7A
:0C0DE300A3E0FEA3E0FFC004C005A81EB2
:0C0DEF00080808E6C0E008E6C0E0E51EC9
:0E0DFB002405F8E6C0E008E6C0E008E6C0E027
:0D0E090008E6C0E0C002C003C006C00774C8
:0A0E1600C1C0E0743EC0E07480C06B
:0E0E2000E0123616E58124F3F581D005D004EA
:0E0E2E008C828D83E0FA30E658C004C005A81F
:0C0E3C001E088682088683A3A3E0FA7BD0
:0C0E480000A81E088682088683A3E0FE36
:0C0E54007F00A81E088682088683E0FC50
:0E0E60007D00C004C005C002C003C006C0076C
:0A0E6E00C004C00574DBC0E0743E50
:0E0E7800C0E07480C0E0123616E58124F7F564
:090E860081D005D004D005D00490
:0C0E8F00A81E088682088683A3A3A3A3E4
:0C0E9B00A3E0FA7B00A81E0886820886EF
:0C0EA70083A3A3A3A3E0FEE51E2405F82E
:0C0EB300A606087600A81E0886820886A5
:0E0EBF0083A3A3A3E0FE7F00C004C005C00211
:0C0ECD00C003E51E2405F8E6C0E008E6BE
:0B0ED900C0E0C006C00774F1C0E07468
:0C0EE4003EC0E07480C0E0123616E581CC
:0C0EF00024F7F581A81E08741426F58272
:0E0EFC00E40836F583E075F002A4FAABF0C00E
:0A0F0A0002C0037407C0E0743FC08A
:0E0F1400E07480C0E0123616E58124FBF58102
:0E0F2200D005D0048C828D83E0FC20E7030212
:020F30000FD5DB
:0C0F3200A81E08741326F582E40836F5AA
:0C0F3E0083E0FAE4CA25E0CA33FBA81ED9
:0E0F4A0008741126F582E40836F583E0FCA356
:0C0F5800E0FDA81E08741526F582E408D0
:0C0F640036F583E51E2405F8E0F6A3E056
:0C0F700008F6A81E08741926F582E40893
:0C0F7C0036F583A81E080808E0F6A3E084
:0C0F880008F6A81E08741726F582E4087D
:0E0F940036F583E0FEA3E0FFC002C003C004F8
:0C0FA200C005E51E2405F8E6C0E008E6E6
:0C0FAE00C0E0A81E080808E6C0E008E645
:0B0FBA00C0E0C006C0077410C0E07467
:0C0FC5003FC0E07480C0E0123616E581E9
:040FD10024F3F5818F
:060FD500851E81D01E22E2
:0A0FDB00C01EE581F51E2404F58117
:0C0FE500AA82AB83E0FCA81E08A604A8AA
:080FF1001E08E670030210DD8A
:0C0FF90074012AFCE43BFFA81E080876E7
:07100500008C058F067F003F
:0C100C00A81E08C3EF9650168D828E833C
:08101800E06005A81E080806AF
:0A10200074022DFDE43EFE0F80E295
:0C102A00A81E080886077D00C002C00355
:0A103600C007C0057436C0E0743F27
:0E104000C0E07480C0E0123616E58124FBF596
:0D104E0081D003D00274012AFCE43BFFA80E
:0B105B001E080876008C038F057E0045
:0C106600A81E08C3EE96506F8B828D838D
:0E107200E0FF605DC0068B828D83A3E0FEA8C8
:0A1080001E080808A606087600A85E
:0C108A001E080886047A007E00C003C027
:0C10960005C006A81E080808E6C0E00817
:0E10A200E6C0E0C004C002C007C006C004C023
:0A10B00002743EC0E0743FC0E0741B
:0E10BA0080C0E0123616E58124F5F581D006DF
:0B10C800D005D003A81E080806D006C3
:0A10D30074022BFBE43DFD0E808942
:0610DD00851E81D01E22D9
:0D3EB4006720256320675F6E2025642000D5
:0E3EC100675F6E7320256C6420675F65772055
:0C3ECF00256C6420675F612025642000E2
:0E3EDB00675F5920256420675F4D2025642015
:083EE900675F442025642000FE
:0E3EF100675F6820256420675F6D20256420D0
:083EFF00675F732025642000B9
:093F0700675F6864202564200056
:0E3F1000675F686520256420675F7665202561
:0E3F1E006420675F7620256420675F6720259A
:0A3F2C006420675F63202564200015
:083F3600735F6E20256420007A
:0E3F3E00735F76256420256420735F6325641D
:053F4C002025642000A7
:0710E300E50D6003122B6A0A
:0910EA00E50E6005750D00800C97
:0610F300E5106005851008
:0310F9000D800364
:0310FC00850F0D50
:0B10FF007A0D7BFF8A828B83021BAA04
:06110A00E4B50D028007B0
:071110007401B50D13800D01
:0C1117007A0D7BFF8A828B83121B6C8098
:01112300E6E5
:041124007A61800B61
:09112800E50D247F5003750D80D4
:02113100AA0D05
:0A1133000A0AE51175F082A4243BBE
:0C113D00F58274F135F0F583E4C0E0C0E9
:0E11490002122A84AA8215811581EA60B4E59B
:0711570011045407F5117AA1
:0C115E00117BFF8A828B83121BAA80A0E9
:0C116A007A117BFF8A828B83121B6C744D
:0E1176000AC0E0E4C0E07582021224B91581BF
:04118400158180E26F
:03118800851114BA
:0A118B00E510700D7B107CFF8B82D5
:071195008C83121B6C80EF3C
:06119C00E511B51411E598
:0A11A20010600D7B117CFF8B828C26
:0611AC0083121B6C80EAB7
:0A11B200E51060D5E51475F082A485
:0511BC00243BF5157451
:0611C100F135F0F516E522
:0811C70014045407F514E4B50B
:0511CF000D030215B143
:0711D4007401B50D02800358
:0311DB000214BE3D
:0A11DE00851582851683A3A3A3A341
:0A11E800E0FD745F2515F582E43583
:0C11F20016F583E0A2E713FE3395E0FF42
:0A11FE00EE24B6F512EF34FFF513EE
:08120800743E2515F550E43594
:0412100016F5517509
:061214005208E4F55390BE
:0E121A00F5C2C005122E3DD005ED24F650029F
:021228007D093E
:0A122A0074602515F582E43516F511
:0912340083E0F820E7030214A294
:0A123D0074152515F582E43516F549
:0C12470083E0F8A3E0F9ED75F003A424A7
:0A1253007EF582744035F0F583E467
:0C125D0093FDA3E493FEA3E493FF85152A
:0A12690082851683A3A3E0F517A306
:07127300E0F51885158285E6
:0C127A001683E0FCA3E0FAC000C001C035
:0A12860005C006C007C012C013C067
:0812900017C018C004C002746D
:0A129800C2C0E074F5C0E0E4C0E05D
:0C12A2007404C0E0E4C0E07461C0E074BB
:0C12AE003FC0E07480C0E0123616E581FD
:0B12BA0024EDF58174152515FAE435CC
:0C12C50016FB740C2AF582E43BF583E074
:0E12D100FCA3E0FD740A2AF582E43BF583E0FD
:0E12DF00FEA3E0FF74082AF582E43BF583E0ED
:0A12ED00F517A3E0F51874062AF5C2
:0B12F70082E43BF583E0F519A3E0F56D
:0C1302001A8A828B83A3A3A3A3E0F8A3A4
:0E130E00E0F98A828B83A3A3E0FAA3E0FBC080
:0A131C0004C005C006C007C017C0DA
:0413260018C019C012
:0A132A001AC000C001C002C0037425
:0A1334008BC0E0743FC0E07480C07D
:0D133E00E0123616E58124F1F581741325C7
:0A134B0015F582E43516F583E0FA8B
:0B135500A3E0FB74112515F582E435C0
:0B13600016F583E0FCA3E0FD740F25F0
:0A136B0015F582E43516F583E0FE67
:0A137500A3E0FF851582851683A30F
:0E137F00A3A3A3A3A3A3E0F8A3E0F9C002C0B8
:0E138D0003C004C005C006C007C000C0017444
:0A139B00B6C0E0743FC0E07480C0EB
:0D13A500E0123616E58124F5F58174092566
:0A13B20015FAE43516FB8A828B83DE
:0E13BC00A3A3E0FCA3E0FDBC004FBD804C8568
:0A13CA001582851683A3A3A3A3A335
:0E13D400E0FCA3E0FD8A828B83E0FAA3E0FB3D
:0A13E200740D2515F582E43516F5AB
:0E13EC0083E0FEA3E0FFC004C005C002C00302
:0A13FA00C006C00774D3C0E0743FC2
:0E140400C0E07480C0E0123616E58124F7F5D2
:0314120081805F77
:0A141500740D2515F582E43516F577
:0A141F0083E0FAA3E0FB8515828547
:0C1429001683A3A3A3A3A3A3A3A3A3E083
:0C143500FCA3E0FDA3E0FEA3E0FF851592
:0C14410082851683A3A3A3A3A3E0F8A355
:0E144D00E0F9C002C003C004C005C006C0071D
:0A145B00C000C00174E9C0E0743F56
:0E146500C0E07480C0E0123616E58124F5F573
:0114730081F7
:0A14740074232515F582E43516F502
:0C147E0083120D2D74462515F582E4350F
:0A148A0016F583120FDB75820A12BB
:06149400187C8512828520
:06149A0013831217FB0290
:0214A00015B184
:0514A200C012C013742C
:0A14A70000C0E07440C0E07480C093
:0D14B100E0123616E58124FBF5810215B12D
:0714BE0090F13A12168D7443
:0A14C50016C0E07440C0E07480C05F
:0D14CF00E012361615811581158174022575
:0B14DC000DC4540F903F5193F5821295
:0914E700187C7402250D540F90CD
:0C14F0003F5193F58212187C7A5A7B0061
:0C14FC00AC0D7D0074022CFCE43DFD8B67
:0E150800067F00C3EE9CEF64808DF063F080E0
:0B15160095F05036EB2515F582E4350A
:0C15210016F583E0FC2AFAECC4540F908D
:0E152D003F5193F582C002C003C00412187C27
:0E153B00D004740F5C903F5193F58212187C1F
:07154900D003D0020B80ACBF
:0D155000EAC4540F903F5193F582C002127F
:0E155D00187CD002740F5A903F5193F5821201
:09156B00187C75820A12187C90AC
:06157400F13A1216EBE54E
:08157A000D042515F582E4358E
:0A15820016F583E0FA30E727E50DC7
:0A158C002515F582E43516F583E01D
:0C159600A2E713FA3395E0FBEA24B6F557
:0715A20012EB34FFF5138585
:0615A9001282851383127B
:0215AF0017FB28
:0615B10012337D02118BD4
:0615B70085820F0210E323
:0515BD00050E0210E321
:0515C200150E0210E30C
:0715C7001204487800E2F570
:0A15CE00107A107BFF8A828B8312D3
:0B15D8001BAA7A117BFF8A828B831212
:0515E3001BAA0210E349
:0715E80090401D12074F7433
:0815EF0025C0E07440C0E07467
:0815F70088C0E07411C0E0900F
:0C15FF00F5CB121948E58124FCF581743D
:08160B0031C0E07440C0E0743E
:081613000AC0E07411C0E09070
:0C161B00F642121948E58124FCF58174A8
:081627003DC0E07440C0E07416
:08162F006AC0E07411C0E090F4
:0C163700F54B121948E58124FCF58122D6
:0E3F51003031323334353637383961626364CB
:023F5F00656695
:0E3F610056455253494F4E20256420632025BB
:0E3F6F0073206E2025642066202564207220B9
:0E3F7D00256420732025732074202564200005
:0E3F8B00725F6120256420725F622025642031
:0E3F9900725F7420256420725F7620256420FC
:0E3FA700725F6420256420725F6D2025642007
:013FB500000B
:0E3FB600635F6120256420635F622025642024
:0E3FC400635F7020256420635F6D20256420FC
:013FD20000EE
:0E3FD3006B5F68202564206B5F7320256420DF
:083FE1006B5F612025642000E4
:0E3FE900615F6120256420615F7320256C6498
:093FF70020615F622025642000B6
:0E40000043524320494E56414C4944205253EE
:08400E005349202533640A0028
:0740160054454C454D20000C
:02401D00C715C5
:06401F004B400000000010
:0C4025006D6F6E69746F725F70757400CF
:0C4031006D6F6E69746F725F67657400DC
:0E403D006D6F6E69746F725F626C696E6B00FE
:0E404B006D203C30206F66662C2031206F6C9B
:0E405900642C203230207374643E0053657472
:0E40670020726164696F206D6F6E69746F72F4
:04407500696E670009
:0A164300C01E85811EAA82AB83E061
:0C164D00FCA81E181818E6B5040E7582E3
:0C16590003C002C00312174DD003D002E2
:07166500D21010AF02C21009
:0B166C008A828B83E060047C00800D0C
:0C1677008A828B83A81E181818E6F07CED
:011683000165
:09168400A21092AF8C82D01E224C
:0A168D00AA82AB83E0FC852482856D
:0C1697002583A3A3A3A3A3E0FDECB505ED
:0E16A3000E758203C002C00312174DD003D093
:0116B1000236
:0716B200D21010AF02C210BC
:0E16B9008A828B83E060158A828B83C002C018
:0716C70003C022121B6CD0CE
:0716CE0022D003D00280E4EA
:0A16D500852482852583A3A3A3A327
:0C16DF00A3E08A828B83F0A21092AF225D
:0A16EB00AA82AB83E0FC852482850F
:0C16F5002583A3A3A3A3A3E0FDECB5058F
:0317010002800E55
:0E170400758203C002C00312174DD003D0023D
:07171200D21010AF02C2105B
:0C1719008A828B83E4F08A828B83C022DA
:06172500121BAAD022A253
:04172B001092AF2247
:06172F00AA827B007C0091
:081735008A051AED60118C0514
:07173D001DEDFC60F38B04BD
:081744001CECFB60F40080F8CE
:01174C00227A
:04174D00AA82C2AFFB
:0E175100758214C00212172FD002EA30E61C77
:0E175F00758201C00212248875822812172F8D
:0E176D0075820112249175820A12172FD00284
:06177B00743F5AFB7C00E4
:0E178100C3EC9B50CB758201C002C003C004B4
:0D178F0012248875820A12172F758201122C
:0E179C00249175820A12172FD004D003D002B8
:0317AA000C80D4DC
:0E17AD00122ED8AA82AB8390F6B9E0FCA3E01E
:0E17BB00FDEAC39CFAEB9DFBC3742C9A74816B
:0D17C9008BF063F08095F0500890F6B91297
:0417D6001B6C80D335
:0C17DA00740AC0E0E4C0E07811E2F5827F
:0C17E6001224B915811581780FE2F582FC
:0917F20008E2F583121C5480B2D8
:0E17FB00AA82AB83C3E49A74808BF063F08003
:0818090095F050047A007B0009
:0A181100C3E49AF550E49BF55190F2
:0C181B00000512353EAA82AB8375500A0E
:0C182700E4F5518A828B83123BF8E582C5
:0B1833008583F0780FF208E5F0F21258
:0E183E002ED8E5828583F090F6B9F0A3E5F090
:07184C00F090F6B9021BAA9F
:0A185300AA827811EAF2780FE4F29D
:0A185D0008F27479C0E07440C0E0A6
:0918670074ADC0E07417C0E090FC
:0C187000F6BB121948E58124FCF581222A
:05407900727373690081
:03407E009C4080E3
:03408100A44080D8
:03408400A94080D0
:03408700AD4080C9
:03408A00B34080C0
:03408D00B84080B8
:03409000BE4080AF
:03409300C54080A5
:03409600CA40809D
:03409900D1408093
:08409C00737461727475700009
:0540A40069646C650079
:0440A90070616400DE
:0640AD00626F6F737400E6
:0540B30066617374005A
:0640B800636F61737400E8
:0740BE0064726F6775650075
:0540C5006D61696E0051
:0740CA006C616E6465640087
:0840D100696E76616C69640000
:0E187C00AA82BA0A2490F734E0FBA3E0FCC075
:0A188A0002C003C004749FC0E074A4
:0B18940018C0E0C003C00475820D22E4
:06189F00D004D003D002CA
:0D18A50090F734E0FBA3E0FCC003C0047426
:0A18B200C0C0E07418C0E0C003C01D
:0418BC00048A8222F6
:0518C000D004D003225A
:0E18C50090F736E0FAA3E0FB4A600FC002C0C5
:0C18D300038A828B8312008BD003D002AA
:0118DF0022E6
:0218E000C2AF95
:0D18E20090F732E0FAA3E0FB8A828B8312BC
:0D18EF00008BAA82AB83BAFF0BBBFF0890F1
:0718FC00F739121B6C80DFBD
:05190300D2AF8A822230
:0719080090F738E0F58222A0
:0A190F00C01E85811EAA82AB8390E2
:0B191900F732EAF0A3EBF090F734E5A2
:0B1924001E24FCF8E6F0A308E6F0909B
:0C192F00F736E51E24FAF8E6F0A308E6FF
:0C193B00F090F7387401F0758200D01EA7
:01194700227D
:0A194800C01E85811EAA82AB8374C5
:0C19520010B5230E758201C002C0031204
:06195E00174DD003D0027A
:021964007C0104
:05196600EC60347D007F
:0A196B00C3ED95235023ED2D243A1F
:0C197500F582E434F7F583E0FEA3E0FF08
:0E1981008E828F83A3A3A3A3A3E0FEB504026E
:02198F008003D3
:031991000D80D7EF
:06199400EDB52302800303
:03199A000C80C9F5
:0E199D008A828B83A3A3A3A3A3ECF074062A73
:0C19AB00F582E43BF583E51E24FAF8E623
:0E19B700F0A308E6F08A828B83E4F0A3F074BC
:0C19C500082AFCE43BFDE51E24FCF8862B
:0E19D10006088607C002C0038E028C828D833A
:0E19DF00EAF0A3AC82AD838F068C828D83EE7E
:0E19ED00F0A3E4F0A37480F0A3AC82AD83D02D
:0519FB0003D0027E0D87
:0E1A00008C828D83E4F0A3AC82AD83DEF38A8A
:0C1A0E00828B83A3A3A3A37411F0D21059
:051A1A0010AF02C21034
:051A1F00E5232523244E
:0A1A24003AF582E434F7F583EAF0A6
:0A1A2E00A3EBF00523A21092AFD045
:021A38001E226C
:0E1A3A00C0E0C0A8C082C083C0F0C002C003DC
:0E1A4800C004C005C006C007C000C001C0D069
:0A1A560075D000C01E74FFB526070E
:071A6000E52314F526802C9C
:0A1A6700E5812471FA8524828525AB
:0C1A710083A3A3A3A3EAF074082524FBC0
:061A7D00E43525FC789021
:0E1A83008605088B828C83EDF0A3AB82AC83CA
:021A9100DAF089
:0B1A930075818FE5276004D2AF800250
:021A9E00C2AFD5
:021AA000AA2674
:051AA2000526E523B557
:051AA700260375260076
:051AAC00E526252624BB
:0A1AB1003AF582E434F7F583E0F51E
:061ABB0024A3E0F52585DF
:0A1AC1002482852583E0FBA3E0FCEE
:081ACB00BB0005BC00028044D1
:0A1AD300852482852583A3A3E0FB90
:0E1ADD00A3E0FC4B6022C002122ED8AB82ACFC
:0A1AEB0083D002852482852583A3A1
:0E1AF500A3E0FDA3E0FEEBC39DFBEC9EFC30E6
:021B0300E712E7
:0A1B0500EAB52699E5277095D2AFE6
:081B0F00758701C2AF021AA2A2
:0A1B1700852482852583A3A3A3A3E0
:0C1B2100E0FA748F2AF58174082524FB7B
:061B2D00E43525FC789070
:0E1B33008B828C83E0FDA3AB82AC83A60508F9
:0C1B4100DAF0D01ED0D0D001D000D007C8
:0E1B4D00D006D005D004D003D002D0F0D08353
:0C1B5B00D082D0E020E705C2AF021B6979
:021B6700D2AFFB
:031B6900D0E022A7
:0A1B6C00AA82AB83852482852583BD
:0C1B7600EAF0A3EBF0121A3A85248285F5
:0B1B82002583E0FAA3E0FB4A601A850F
:0A1B8D002482852583E4F0A3F0858F
:0A1B97002482852583A3A3E4F0A3B4
:051BA100F07582012235
:041BA6007582002222
:061BAA00AA82AB837C005F
:0A1BB000C3EC9523502CEC2C243AD2
:0C1BBA00F582E434F7F583E0FDA3E0FEC3
:0E1BC6008D828E83E0FFA3E0F8EFB5020CE8FD
:0B1BD400B503088D828E83E4F0A3F0BF
:031BDF000C80CEA9
:011BE20022E0
:0A1BE300AA82AB83E528452960497A
:0A1BED0074022524FCE43525FDC038
:0E1BF70002C003C004C005122ED8E58285830B
:0C1C0500F0D005D004D003D0022528FE4A
:0A1C1100E52935F0FF0EBE00010FBB
:0E1C1B008C828D83EEF0A3EFF0EE4F700E85FD
:0A1C29002482852583A3A37401F033
:031C3300A3E4F037
:0C1C36008A828B83121B6CAA82E5284571
:071C420029600C8524828556
:081C49002583A3A3E4F0A3F03E
:031C51008A822262
:0B1C5400AA82AB83EA4B70037A01FB0D
:051C5F008A288B29908A
:051C6400F75A021BE32A
:071C6900C2AF1523AA267586
:021C700026FF4D
:0A1C7200C3EA95235029EA2A243A18
:0B1C7C00FBE434F7FCEA04FD25E02443
:0A1C87003AF582E434F7F583E0FE3D
:0E1C9100A3E0FF8B828C83EEF0A3EFF08D02B8
:021C9F0080D1F2
:061CA100E4F524F5250224
:021CA7001A3AE7
:081CA900122ED885822A8583E2
:031CB1002B7C0089
:071CB400C3EC95234001225F
:0A1CBB00EC2C243AF582E434F7F52E
:0E1CC50083E0FDA3E0FE74062DF582E43EF5FB
:0E1CD30083E0FFA3E0F879808D828E83A3A3C7
:081CE100E0F52CA3E0F52DE570
:061CE9002C452D600FE503
:051CEF002CC3952AF54D
:041CF4002CE52D9519
:051CF8002BF52D800614
:061CFD00752C0F752D2768
:0E1D03008D828E83E0FAA3E0FB8D828E83A397
:0E1D1100A3A3A3A3E0FD7E00C004C007C00092
:0A1D1F00C001C02CC02DC002C0039B
:0A1D2900C005C00674D9C0E0744084
:0E1D3300C0E07480C0E0123616E58124F4F59D
:071D410081D0040C021CB468
:071D48007526FFE4F524F508
:041D4F0025021A3A15
:0E40D9002532643A20776368616E2025303806
:0E40E7007820616C61726D2025356420257390
:0240F5000A00BF
:0A1D5300C01E85811EC082C083C03F
:0C1D5D00F0C0E07813E4F208F208F2088D
:0A1D6900F27817E4F278187445F2DE
:0D1D73000874AFF20874FCF20874FFF2A8C7
:0C1D80001E08E6248AFE08E6345EFF0818
:0C1D8C00E634F9FA08E634FFFBA81E0854
:0E1D9800A60608A60708A60208A603EB30E779
:0A1DA6001878177401F2A81E08C394
:0E1DB000E496F608E496F608E496F608E49643
:011DBE00F62E
:0C1DBF00A81E0886020886030886040897
:021DCB0086058B
:0C1DCD007818C3E2F5F0E495F008E2F5A8
:0E1DD900F0E495F008E2F5F0E495F008E2F58C
:0C1DE700F0748063F08095F0502C7818A8
:0E1DF300E2248AF208E2345EF208E234F9F2E9
:0C1E010008E234FFF27813E22401F2083A
:0E1E0D00E23400F208E23400F208E23400F29F
:021E1B0080B095
:0A1E1D007818E51E24FAF9E227F216
:0E1E270008E20937F208E20937F208E209374B
:0E1E3500F21ABAFF091BBBFF051CBCFF011D02
:071E4300ED20E703021DCDB5
:0A1E4A007817E2601A7813E2D3F46F
:0E1E54003400F208E2F43400F208E2F4340044
:071E6200F208E2F43400F283
:0A1E6900E51E24FAF87913E326FAC7
:0E1E730009E30836FB09E30836FC09E30836EC
:0A1E81008A828B838CF0851E81D0CD
:021E8B001E2215
:0A1E8D00C01E85811EE582FAF4FBF9
:0C1E9700E5905203A81E181818E652022D
:091EA300EA4BF5900000D01E226C
:0A1EAC00AA8243902043FE207B0829
:081EB6007C00EA30E7027C2009
:0E1EBE00EA2AFA74104CFDC002C003C004C032
:0D1ECC0005758230121E8D15817582301251
:0E1ED9001E8D1581D003D002DBD353FEDF2215
:041EE7007A007B08FA
:0E1EEB00EA2AFAC002C0037410C0E07582102B
:0E1EF900121E8D1581D003D0023095034302D6
:011F070001D8
:0E1F0800C002C003E4C0E0758210121E8D15E9
:0A1F160081D003D002DBCE8A8222C4
:0E1F2000AA82758255C002121EACD0028A82BF
:061F2E00121EAC021EE7CA
:0A1F3400C01E85811EAA8275825628
:0D1F3E00C002121EACD0028A82121EACA896
:0A1F4B001E1818188682121EAC1230
:051F55001EE7D01E2272
:0A1F5A00C01E85811EAA8275825701
:0D1F6400C002121EACD0028A82121EACA870
:0A1F71001E1818188682121EACE537
:0A1F7B001E24FCF88682121EAC1230
:051F85001EE7D01E2242
:0E1F8A00AA82AB83758200C002C003121F2022
:0C1F9800E582781CF274D0C0E07582E590
:0C1FA400121F34AC821581781DECF27421
:0E1FB00082C0E07582E5121F34AC8215817884
:0B1FBE001EECF27483C0E07582E51297
:0C1FC9001F34AC821581781FECF2748488
:0D1FD500C0E07582E5121F34AC82158178E2
:0B1FE20020ECF27485C0E07582E5126F
:0C1FED001F34AC821581D003D002782193
:0E1FF900ECF28A048B02C004C00275829012C2
:072007001F5A15811581220B
:0C200E00781EE2C0E07482C0E0758275AC
:0C201A00121F5A15811581781FE2C0E0EA
:0E2026007483C0E0758275121F5A15811581F2
:0C2034007820E2C0E07484C0E075827582
:0C204000121F5A158115817821E2C0E0C2
:0E204C007485C0E0758275121F5A15811581CA
:0C205A00781DE2C0E074D0C0E075827513
:0C206600121F5A15811581781CE2C0E0A1
:09207200758274121F34158122DD
:0E207B00AA82C002758274121F34158175820C
:0A208900F0121F207582A3021F2031
:0C2093007582E0121F207582A3021F203E
:0E209F0053F4C743F62043901843FE1853FE37
:0220AD00DF2230
:0220AF007A14A1
:0420B10000DAFD2232
:0C20B500AA82C0021220AFD002C01B8A19
:0720C10082121E8D15812221
:0C20C800AA82C00212209F751B3875828E
:0C20D400381220B5D00274204AFB8B1B90
:0E20E000758238C002C0031220B590000A12AB
:0E20EE001C547430C0E0758238121E8D1581AE
:0B20FC00D0038B1B7582381220B575D5
:0C2107001B307582381220B5D0027428FD
:0C2113004AF51B7582381220B590000AB6
:03211F00021C544B
:062122007582000220C8D6
:062128007582100220C8C0
:0A212E001203927806E2B40A0122BF
:092138001204487807E2700A78ED
:0921410000E2F582121EAC80E4FC
:01214A002272
:09214B001204487807E260012249
:0C2154007800E2FA08E2FBC3E49A740190
:092160009B500678077402F2227C
:042169007C007D0079
:0E216D00C3EC9AED9B5042EC4D601BEC540706
:0E217B00701675820AC002C003C004C00512AF
:0A218900187CD005D004D003D0026A
:0E219300C002C003C004C005121EE712035EA6
:0E21A10075822012187CD005D004D003D00225
:0721AF000CBC00BA0D80B763
:0621B60075820A02187C8C
:0C21BC001204487800E2FA08E2FBC002BE
:0C21C800C003120448D003D0027800E2EB
:0A21D400FC08E2FD7807E26001223A
:0E21DE008C828D83C002C003121F8AD003D0F2
:0321EC00027C0072
:0921EF008A058B061ABAFF011BD8
:0E21F800ED4E602E8C050CED540770127582B2
:0E2206000AC002C003C00412187CD004D0032A
:02221400D002F6
:0E221600C002C003C00412209312035ED00465
:06222400D003D00280C5CA
:09222A0012200E75820A02187CD4
:0C2233001204487800E2FA08E2FBC00246
:0C223F00C003120448D003D0027800E273
:0A224B00FC08E2FD7807E2600122C2
:0E2255008C828D83C002C003121F8AD003D07A
:012263000278
:092264008A048B051ABAFF011B64
:0E226D00EC4D6032C002C0031202EFE582C4E5
:0E227B0054F0FCC0041202EFAD82D004D00378
:0B228900D002ED42047807E260012261
:0E2294008C82C002C00312207BD003D00280D7
:0122A200C17A
:0322A30002200E08
:0622A6009040F702074F13
:0240F700222184
:0240F900134171
:0240FB004B2157
:0240FD0022415E
:0240FF00BC21E2
:02410100354146
:02410300332265
:024105005E4119
:024107002E2167
:024109008841EB
:02410B00282169
:06410D009E4100000000CD
:0E4113004400456E61626C65206465627567EC
:01412100009D
:0E41220047203C636F756E743E004765742045
:054130006461746100F0
:0E41350049203C636F756E743E203C616464EB
:0E414300723E00496E707574203C636F756E9D
:0D415100743E206174203C616464723E0085
:0E415E004F203C636F756E743E203C616464BC
:0E416C00723E004F7574707574203C636F7561
:0E417A006E743E206174203C616464723E00ED
:0E41880050203C627974653E202E2E2E005091
:0841960075742064617461007E
:08419E005200526573657400C4
:0C22AC00AA82AB837405B52E0E75820269
:0B22B800C002C00312174DD003D0027B
:0822C300AC2E052EEC2CFD24CD
:0A22CB0083F582E434F7F583EAF0AE
:0E22D500A3EBF0EC701FF5D1C2C043B8017A44
:0622E3005B7BF78BD57A4E
:0622E9005B7BF78AD47A4A
:0622EF00637BF78BD37A3C
:0522F500637BF78AD2B3
:0322FA008C8222B1
:0C22FD00AA828AF005F07B017C008006BC
:06230900EB2BFBEC33FCA2
:0E230F00D5F0F7ADD67E00ED5203EE5204EB92
:0D231D004C600A758202C00212174DD002FA
:0C232A00EAC40354F8FA245BF582E434A2
:06233600F7F583AB2FACAC
:0A233C00308C05EDF0EA245BFAE4B2
:0C23460034F7FD8A828D83A3EBF08A82BD
:0A2352008D83A3A3AB31AC328C06DF
:0E235C00EEF08A828D83A3A3A3EBF08A828D1C
:0C236A0083A3A3A3A3E534F08A828D8333
:0C237600A3A3A3A3A3E533F074062AF58B
:0C23820082E43DF583E535F074072AF590
:0B238E0082E43DF58374084536F02220
:0A239900AA828AF005F074018002A8
:0223A30025E033
:0E23A500D5F0FBFBF4FC52D1EB55D6600D7465
:0C23B300804BF5D6000000000000000088
:0A23BF00EA2A2483F582E434F7F5DE
:0E23C90083E0FAA3E0FC8A828C83E4F08BD6DA
:0A23D70000000000000000000022DA
:0A23E100AA828AF005F07401800260
:0223EB0025E0EB
:0623ED00D5F0FB42D722EF
:0A23F300AA828AF005F0740180024E
:0223FD0025E0D9
:0E23FF00D5F0FBFA74804AF5D6EAF452D122EA
:0C240D00C022C0E0C0F0C082C083C0024A
:0E241900C003C004C005C006C007C000C0015B
:0B242700C0D075D0007A017B007C0063
:0C243200C3EC952E5033EA55D16026C251
:0C243E00C0EAF4F5D1EB2B2483F582E416
:0C244A0034F7F583E0FDA3E0FE8D828EE8
:0D245600837401F08D828E83121BAA800812
:08246300EA2AFA0C8C0380C781
:0E246B00D0D0D001D000D007D006D005D004CC
:0D247900D003D002D083D082D0F0D0E0D0CC
:02248600223200
:09248800AA827822E25A42902255
:0C249100AA827822E25202EAF452902261
:0C249D00AA827822E2F4FBE5905203785A
:0724A90022E25A4BF59022DC
:0924B000AA827822E25A6290220D
:0A24B900C01E85811EAA82C0021217
:0C24C3002488E51E24FCF886820886832D
:0B24CF00121C54D0028A82122491D00B
:0224DA001E22C0
:0C24DC00AA827822EAF2EAF4FB52F4EB48
:0624E8005290EA42FE22C0
:0C24EE007582011224887825E260369087
:0724FA00F7DCE070307550C3
:03250100277551EA
:05250400F87825E2F566
:05250900527553009023
:06250E00F7DF122E3D90E4
:07251400F7DC7825E2F090EE
:0B251B00F7DDE0FA0A90F7DDEAF07847
:0725260025E4F290F82712F2
:02252D001BAAE7
:0E252F00744CC0E090F7DB122A0D1581758206
:04253D0001022491E2
:0E254100AA82AB83758202C002C003122488F6
:0E254F00D003744EC0E090F78D122A84AA8249
:0E255D0015811581758202C002122491D002F0
:06256B00EA7003F5822274
:0C25710090F7DAE0FA20E70475820022FF
:08257D00740724F5F550E43465
:04258500F0F55175A7
:062589005208E4F5539036
:0A258F00F7D1122E96E582601C7A47
:04259900A67B418A52
:04259D00508B517599
:0625A1005207E4F553901F
:0D25A700F0FC122E96E58260047582002281
:0E25B40090F78EE0FABAFF1890F78FE0FB78F0
:0825C20026F290F790E0FC9076
:0A25CA00F7DDF090F7DEEBF0805A29
:0C25D400EA605790F78FE0FB7826E224C5
:0825E00001FCEBB504028007C9
:0725E80090F91FE0FB603FCA
:0A25EF0078247923E2F5F0E3B5F05B
:0925F900347404248DF550E4341F
:04260200F7F5518A0D
:05260600527553009025
:06260B00F867122E3D7875
:0826110024E4F290F78EE0785A
:0826190023F290F78FE0FA783C
:0826210026F290F7DEEAF090CA
:05262900F739121BAAA5
:0B262E0090F91FE4F090F790E0FA90A4
:0E263900F7DDE0FBEAB5030B90F7DCE4F09070
:05264700F7DB121BAAE5
:04264C007582012270
:0C2650007825E2600D90F920E0FA6006A9
:06265C0090F920021BAA08
:012662002255
:02266300AA8249
:0C2665007825E2B4401690F91EE0FB60FE
:0A2671000FC00212265090F8271245
:06267B001B6CD00280E49C
:0C26810090F91EE0FB60147825E2FB7865
:0A268D002504F2EB2427F582E43463
:05269700F8F583EAF0F4
:01269C00221B
:0B269D0090F91EE0FA700490FFFF228D
:0A26A80078247923E2F5F0E3B5F0A1
:0526B2000490FFFF226F
:0A26B7007824E2FA782404F2EA2401
:0A26C10067F582E434F8F583E0FACF
:0726CB007B008A828B832251
:0741A6004E3043414C4C0078
:0E26D20012269DAA82AB838A048B05BAFF22D2
:0E26E000BBFF1F90F91EE0FA601890F920E091
:0926EE00FA600690F920121BAA03
:0726F7001218C590F739121B
:0426FE001B6C80D001
:052702008C828D832292
:0E27070090F91EE0FA60161226D2AA82AB8369
:08271500BAFF05BBFF0280EAD8
:07271D008A8212187C80E3A0
:03272400021C692B
:0E27270090F998740AF0E4A3F0122ED8E5821F
:0C2735008583F090F99AF0A3E5F0F02203
:0E27410090F998E0FAA3E0FBBA0A31BB002E33
:0E274F00122ED8AA82AB8390F99AE0FCA3E088
:0E275D00FDEAC39CFAEB9DFBC374C89A74801E
:0E276B008BF063F08095F0500990F99874643B
:04277900F0E4A3F0F5
:01277D002239
:0D277E00120A239000A4E493FA74019390D2
:0B278B00F7DBEAF090F7DC74FFF012BF
:0E2796002ED8E5828583F090F99AF0A3E5F045
:0A27A400F090F998740AF0E4A3F035
:0A27AE0090F91EE0FA700302283AC9
:0827B800740724F5F550E43428
:0427C000F0F551756A
:0627C4005208E4F55390F9
:0627CA00F81F122E3D1263
:0927D00024EE90F7DCE060031236
:0227D9002727B0
:0E27DB0012274190F12FE0FAE4CA25E0CA333C
:0A27E900FB8AF005F090000A800B57
:0B27F300E5822582F582E58333F58343
:0C27FE00D5F0F2122541E58260A6782596
:09280A00E2600690F7DCE0609B3F
:0928130090F78EE0600312272704
:0B281C0090F9207401F090F998E0F5AD
:0628270028A3E0F5299052
:06282D00F920121BE390EC
:07283300F920E4F00227AEDA
:03283A00021C6914
:0B283D0090F91E7401F07825E4F212FF
:0628480003921218C512F4
:07284E0015BD74ADC0E0747C
:0828550041C0E0747EC0E07494
:07285D0027C0E090F8A7126C
:0C2864001948E58124FCF58174B4C0E043
:092870007441C0E07407C0E0747B
:0728790027C0E090F92112D5
:082880001948E58124FCF581F3
:0C2888001218E0AA828A03BA7E02800CBB
:05289400BB0D027B0AF0
:072899008B8212266380E828
:0228A0007A00BC
:0B28A2007825E2700690F7DCE060157E
:0E28AD00C3EA6480948A500D90000AC00212A3
:0728BB001C54D0020A80E06A
:0528C20090F91EE4F096
:0E28C70090F921E0FAA3E0FB4A700B90F8A70D
:0828D500E0FAA3E0FB4A6011E8
:0728DD00122B6A90F739127B
:0A28E4001BAA900001121C5480D9B9
:0328EE000215C20E
:0E28F10090F9A1E0FA3395E0FBC002C0037439
:0A28FF00B9C0E07441C0E07480C06D
:0B290900E0123616E58124FBF5812268
:062914009041C302074FD1
:0741AD006D6173746572007F
:0541B4006563686F0067
:0A41B900525353493A2025640A00CE
:0241C3003D2895
:0241C500CF41E8
:0241C700F128DD
:0641C900E54100000000CA
:0E41CF00700052656D6F7465207061636B65E2
:0841DD0074206C696E6B2E006A
:0E41E50073005265706F7274207369676E61AB
:0C41F3006C20737472656E6774682E0097
:0C291A00C022C0E0C0F0C082C083C00238
:0E292600C003C004C005C006C007C000C00149
:0E293400C0D075D000539BFCE5E930E50812D9
:072942002B6A53E9DF80144A
:0E294900E5E930E40F90F99E7401F090F99EDC
:06295700121BAA53E9EF78
:0E295D00D0D0D001D000D007D006D005D004D5
:0D296B00D003D002D083D082D0F0D0E0D0D5
:02297800223209
:02297A007A00E1
:03297C00BA0A0094
:0D297F005018EA90425D93FB7CDFEA049063
:0D298C00425D93FD8B828C83F00A0A80E38C
:01299900221B
:09299A0090DF3BE0FABA010122D2
:0E29A30075E104121A3A90DF3BE0FABA01F235
:0129B1002203
:0B29B200AA82C002120A2390F9A012B2
:0D29BD00168D12299AD00290DF06E4F090EA
:0D29CA00F112E0FBA3E0FCA3E0FDA3E09010
:0E29D700DF09EDF090DF0AECF090DF0BEBF083
:0D29E50090DF02EAF090F12FE025E0FA907B
:0C29F20042679390DF0CF0EA2467FAE4DF
:0B29FE003442FB8A828B83A3E4939099
:042A0900DF11F022C7
:0A2A0D00C01E85811EAA82AB83A8BB
:0B2A17001E1818188682C002C00312AF
:0C2A220029B2D003D00290F99EE4F0909D
:0A2A2E00F99CE0FCA81E1818188699
:052A3800337534008A33
:042A3D002F8B307536
:062A410031D97532DF758A
:082A470035137536428C821232
:092A4F0022FD90F99CE0F58212D1
:0B2A5800239975E103D21010AF02C2F9
:012A63001062
:0B2A640090F99EE0FA700C90F99EC003
:052A6F0022121B6CD0D7
:032A74002280EDD0
:082A7700A21092AF90F9A01229
:052A7F0016EBD01E2241
:0A2A8400C01E85811EAA82AB83905C
:0C2A8E00F99FE4F0A81E181818E624FEBA
:0E2A9A00F582C002C0031229B2D003D0029010
:0A2AA800F99CE0FCA81E181818861F
:052AB2003375340075CE
:062AB7002FD97530DF8A03
:042ABD00318B3275B2
:0A2AC10035137536128C82C002C076
:0B2ACB00031222FD90F99CE0F582123E
:0C2AD6002399D003D00275E102D2101049
:042AE200AF02C2106D
:0E2AE60090F99DE0FC702790F99FE0FC7020B5
:082AF400E51E24FCF88628759C
:0A2AFC00290090F99DC002C003C03C
:072B060022121BE3E582D05F
:072B0D0022D003D00260D2C8
:0C2B1400A21092AF90F99DE0FC701390AD
:092B2000F99CE0F5821223F31286
:092B2900299A90F9A1E4F0802939
:0C2B3200A81E18181886047D00EC24FE74
:0E2B3E00FCED34FFFDEC2AF582ED3BF583E063
:0E2B4C00A2E713FA3395E0FBEA24B690F9A154
:012B5A00F08A
:072B5B0090F9A01216EB90A7
:082B6200F99DE0F582D01E226E
:0A2B6A0090F99F7401F090F99D02AC
:022B74001BAA9A
:0C2B760090F99FE4F075827D1229B29066
:062B8200F99EE4F07A0068
:032B8800BA0E0082
:0D2B8B005018EA90424F93FB7CDFEA049063
:0D2B9800424F93FD8B828C83F00A0A80E38C
:012BA500220D
:0D2BA60090F99CE0F58212239975E103D2AD
:062BB3000010AF02C20099
:0E2BB90090F99EE0FA700F90F99FE0FA700814
:082BC70090F99E121B6C80EADC
:0C2BCF00A20092AF90F99EE0FA700C900A
:092BDB00F99CE0F5821223F312CB
:022BE400299A2C
:072BE60012297A90F9A00208
:022BED0016EBE5
:092BEF00122B7690F99CE0FA7BB0
:042BF8006D7C428B23
:042BFC002F8C307575
:062C000031D97532DF75C9
:062C0600337DE4F5347596
:082C0C0035137536028A8212AD
:052C140022FD022BA6C9
:0E2C1900AA82C002122B76D00290F99CE0FB3A
:0C2C27007403C39AC42354E0246FFAE441
:062C33003442FC8A2F8CE4
:052C3900307531D97572
:072C3E0032DF753378E4F585
:052C4500347535137524
:082C4A0036428B821222FD02CA
:022C52002BA6AF
:0A2C540090F99F7401F090F99E02C0
:022C5E001BAAAF
:0E2C6000E582FA602190F9A2E0FAA3E0FB4AB7
:0E2C6E0070341215BD7582FF1229B275E10394
:0A2C7C0090F9A27401F0E4A3F02225
:0E2C860090F9A2E0FAA3E0FB4A601312299A2B
:072C940090F9A01216EB906D
:092C9B00F9A2E4F0A3F00215C255
:012CA400220D
:0C2CA5007A02C002120392D0027806E20C
:052CB100B40A028007D7
:072CB6001204A17802E2FA0A
:0E2CBD000AEA30E10A758201C002122C60D0D2
:012CCB000206
:0A2CCC00BA0325C0027427C0E074AB
:0C2CD60043C0E07480C0E0123616158187
:0E2CE200158115811218C51218E075820A12AC
:042CF000187CD0027A
:0A2CF400EA30E006758200022C6051
:012CFE0022B3
:082CFF001204487800E2FA78A3
:052D070007E26001225B
:0E2D0C00C002120448D0028A827583DFE0FB09
:0E2D1A007C008A057E00C002C003C004C00514
:0A2D2800C0067442C0E07443C0E02E
:0E2D32007480C0E0123616E58124F9F581D0D8
:0C2D4000027807E2702B8A827583DF782E
:0C2D4C0000E2F08A827583DFE0FA7B0071
:0A2D5800C002C003744CC0E07443D5
:0E2D6200C0E07480C0E0123616E58124FBF557
:012D700081E1
:092D71007807E4F27453C0E07429
:0C2D7A0043C0E07480C0E01236161581E2
:052D86001581158122FA
:022D8B007A00CC
:032D8D00BA500039
:0D2D90005018EA9041FF93FB7CDFEA0490AD
:0D2D9D0041FF93FD8B828C83F00A0A80E3D6
:0A2DAA0012297A90F99D7401F012CD
:0E2DB40022ACE58290F99CF075E90075913033
:092DC200439A0190435502074FAA
:0E41FF0027C028C029C02AC02BC02CC02DC04C
:0E420D002EC0070608000DA30E110FA21011FF
:0E421B0006001B101A561CE91D0A1E001F1F6C
:0E42290023812435250900D301910324044488
:0E423700050012071330141815001660170347
:0A424500180019002F0030003100AE
:0E424F000CD60D5E0E900F0211160300040037
:0A425D000DA30E110FA20324044468
:06426700DA36F816F6003D
:02426D005500FA
:0E426F00000000000000000000000000000041
:0E427D000000000000000000000055555555DF
:0E428B005555555500000000000000000000D1
:0E429900000000000000000000000000000017
:0E42A700555555555555555500000000000061
:0E42B5000000000000000000000000000000FB
:0E42C300000000005555555555555555000045
:0E42D1000000000000000000000000000000DF
:0E42DF000000000000000000000000000000D1
:0E42ED000000000000000000000000000000C3
:0E42FB000000000000000000000000000000B5
:0E4309000000000000000000000000000000A6
:0E431700000000000000000000000000000098
:02432500000096
:0E432700486974206120636861726163746587
:0D4335007220746F2073746F702E2E2E0096
:0A43420052465B25785D20257800C7
:07434C00202D3E2025780022
:024353000A005E
:02435500A52C95
:024357006143C0
:02435900FF2C37
:06435B0093430000000086
:0E43610043203C312073746172742C20302094
:0E436F0073746F702C206E6F6E6520626F7419
:0E437D00683E00526164696F2063617272696C
:08438B00657220746573740073
:0E43930056203C6F66667365743E203C766172
:0E43A1006C75653E0053657420726164696F2F
:0A43AF00207265676973746572007F
:0B2DCB001204487800E2FA08E2FB78EE
:052DD60007E26001228C
:0C2DDB00C3747E9AE49B500678077402D3
:022DE700F222D6
:022DE9007C006C
:0E2DEB008C057E00C3ED9AEE9B5036C002C0F0
:0E2DF90003C0041202EFE582C454F0FDC005D1
:0E2E07001202EFAE82D005D004D003D002EE4E
:082E150042057807E26001228A
:0A2E1D00EC24A6F582E434F9F583F5
:052E2700EDF00C80BF7E
:0B2E2C00C00290F9A6122A0D158122A9
:062E37009043B902074FB1
:0243B900CB2D0A
:0643BB00C14300000000F8
:0E43C10053203C6C656E3E0053656E642070A8
:0E43CF0061636B65742E2044617461206F6E13
:0B43DD00206E657874206C696E65002E
:0200A00002005C
:0200A200FDFF60
:0200A40000005A
:0400A600331B1200F6
:082E3D00AA82AB83AC52AD5335
:092E45008C068D071CBCFF011D69
:0A2E4E00EE4F601FAE50AF518E82B0
:0E2E58008F83E0F88A828B83F00ABA00010BA8
:0A2E660074012EF550E43FF5518091
:012E7000D48D
:012E7100223E
:082E7200AA82AB83AC51AD5202
:092E7A008C068D071CBCFF011D34
:0C2E8300EE4F600E8A828B83E550F00A4F
:062E8F00BA00E80B80E52B
:012E9500221A
:082E9600AA82AB83AC52AD53DC
:092E9E008C068D071CBCFF011D10
:0C2EA700EE4F60298A828B83E0FEAF5062
:0C2EB300A8518F828883E0F9EEC399FEDD
:052EBF0060038E822279
:052EC4000ABA00010B39
:0A2EC90074012FF550E438F5518034
:012ED300CA34
:042ED40075820022E1
:052ED800D310AF01C39F
:0A2EDD00C0D0851C82851D83D0D073
:032EE70092AF2285
:0C2EEA00C0E0C0D075D0007401251CF5BC
:052EF6001CE4351DF590
:062EFB001DD0D0D0E03232
:0E2F010075DB7575DA3075E50475E60075E769
:0C2F0F000075E200D2DED2B975E40622A3
:042F1B007A007B00BD
:052F1F001ABAFF011BBE
:072F2400EA4B60030080F49A
:012F2B002283
:0E2F2C0053BEFBAAC674BF5AF5F0744045F0C0
:022F3A00F5C6DA
:0B2F3C00E5BE30E5FB122F1B53C6BFA3
:0B2F4700E5BE30E6FB43BE0453C6C0ED
:082F5200E5C6543F600280F85F
:012F5A002254
:0D2F5B0090DE077421F090DE097410F090F4
:062F6800DE0B7404F022F0
:0C2F6E00C022C0E0C0F0C082C083C002DE
:0E2F7A00C003C004C005C006C007C000C001EF
:0D2F8800C0D075D000C2E890DE02E0FA78FB
:0A2F950029E24AF27829E2540160B3
:072F9F000690FA26121BAA9E
:0B2FA6007829E25420600690FA9D128A
:022FB1001BAA59
:0E2FB30090DE04E0FA30E40690F739121BAA13
:0B2FC10090DE06E0FA30E203122F5B06
:0E2FCC00D0D0D001D000D007D006D005D00460
:0D2FDA00D003D002D083D082D0F0D0E0D060
:022FE700223294
:0E2FE90090DE0EE4F090DE11E0FA30E10122FD
:0A2FF700782FE2FB24DF50027B205C
:073001007A02BB20028006E9
:063008007A0A782BE4F2C5
:06300E00782FE2C39BF2E3
:0C3014008B041BEC6028782CE2FC08E226
:0E302000FD08E2FE8C828D838EF0123BDCFFF9
:0C302E00782C74012CF2E43D08F208EE4E
:08303A00F290DE20EFF080D2DD
:0B30420090DE0EE4F090DE11EAF022B8
:08304D00AA82AC837BAA7D007E
:0E3055008B828D83E493FE60408B828D83A37B
:0E306300E493FFB504278A071AEF7021BC0220
:0C3071000E8B828D83A3A3E493FF782FC5
:03307D00F28004DA
:04308000782FEEF2C5
:0C308400782CEBF208EDF2087480F222C8
:0E3090008B828D83E493FE2BFBE43DFD80B725
:01309E00220F
:0C309F0090DE0EE4F090DE16E0FA7832CD
:0930AB00C3E29A50047832E2FA03
:0630B4007832E2C39AF23B
:0C30BA008A031AEB601D7833E2FB08E289
:0C30C600FC90DE20E0FD8B828C83F07813
:0B30D2003374012BF2E43C08F280DDB7
:0130DD0022D0
:0A30DE00AA82782FE2FB782F04F29B
:0730E800EB2430F8EAF222AC
:0C30EF00AA82782A7401F290DE00EAF058
:0130FB0022B2
:0D30FC0090DE0E7405F090DE107408F09068
:0D310900DE12E04401F090DE0E7404F09040
:0C311600DE137408F090DE157401F02246
:07312200783374A1F2087478
:08312900FAF278327408F21288
:08313100309F7832E2600122B8
:0A313900782C7430F208E4F20874F8
:0C31430060F2782FE4F290FAA1E0FA7438
:0B314F00605AFB6009BB20030232172E
:03315A00023247F7
:08315D0053021FBA0002800FAB
:06316500BA01030231DE95
:06316B00BA02030232006B
:03317100023247E0
:0C31740090FAA2E0FA6017BA0502802170
:05318000BA0602802BDD
:05318500BA08028038C9
:05318A00BA0902803EBD
:03318F00023247C2
:0D3192007582001230DE7582001230DE0200
:02319F003247B5
:0D31A10090FAA3E0FAA3E08A821230EF0258
:0231AE003247A6
:0D31B00090FAA3E0FAA3E0FB8A828B831261
:0531BD00304D02324715
:0931C2007835E2F5821230DE02DC
:0231CB00324789
:0C31CD0090FAA3E0FAA3E07835EAF212D1
:0531D90030FC0232474A
:0C31DE0090FAA2E0FA6005BA0A5F800EC9
:0E31EA007582001230DE7582001230DE804FDA
:0831F8007582001230DE8047F1
:0932000090FAA2E0FA6002803E9F
:0E3209007582001230DE7582001230DE8030D9
:0A32170090FAA2E0FABA2002800546
:05322100BA212380101A
:0832260078327407F27833746A
:08322E00A9F20874FAF2801104
:08323600782F7407F2782C7464
:09323E00A9F20874FAF208E4F2A6
:0B32470090DE0EE4F0782FE2602778A4
:0B3252002B7401F290DE117440F0902C
:0C325D00FAA7E0FAA3E0FB782FE2FC7D6A
:0C32690000C3EA9CEB9D5004782FEAF2B1
:03327500022FE93C
:0A3278007832E2600C782B7402F249
:0732820090DE117440F02200
:0C32890090FAA7E0FAA3E0FB4A600C7882
:0B3295002B7403F290DE117460F02235
:0B32A000782BE4F290DE117448F0225D
:0432AB00782BE4F2A6
:0732AF00D20110AF02C201C1
:0A32B6007829E2540160087829E24B
:0532C00054FEF280083D
:0832C50090FA26121B6C80E94F
:0C32CD00A20192AF90DE0EE4F090DE1142
:0C32D900E0FA30E40A90DE117480F07816
:0332E5002BE4F2E5
:0C32E800EA30E20990DE11E4F0782BE4FB
:0132F400F2E7
:0C32F500782BE2B4010BEA20E107C002D4
:05330100122FE9D002CB
:0C330600EA30E0A5782BE2B40002800859
:08331200782BE2B4029780055C
:05331A00123122809039
:0C331F0012309F90DE0EE4F07832E27075
:0C332B000D782BE4F290DE117448F002E3
:0233370032AFB3
:0933390090DE117440F00232AF85
:0E33420090DE0E7405F090DE11E0FA30E00827
:0833500090FA9D121B6C80EA4B
:013358002252
:0E33590090DE0E7405F090DE11E04401F0905D
:0C336700FA9DE0FAA3E0FB7827EAF208E8
:0A337300EBF290FA9DE4F0A3F022C3
:05337D00D310AF01C3F5
:09338200C0D0782AE2700280201C
:0C338B0090FA9DE0FAA3E0FB4A700F7876
:0C33970027E2B4400708E2B40002800204
:0233A3008006A2
:0633A500123342123359FD
:0533AB00D0D092AF221A
:0533B000D310AF01C3C2
:0B33B500C0D0AA82782AE270028029B2
:0D33C000C002123342D00290DE2AEAF090E3
:0E33CD00FA9DE02401F0A3E03400F090FA9D98
:0E33DB00E0FAA3E0FBBA4006BB000312335930
:0533E900D0D092AF22DC
:0E33EE0090FA9FE0FAA3E0FB4A704290DE0ED8
:0E33FC007404F090DE14E0FA20E00490FFFF6D
:01340A00229F
:0E340B0090DE17E0FB7A0090DE16E0FC7D00FC
:0E3419004202ED420390FA9FEAF0A3EBF0EAC4
:0E3427004B701190DE0E7404F090DE14E05431
:06343500FEF090FFFF22F3
:0D343B0090FA9FE024FFFAA3E034FFFB901D
:0D344800FA9FEAF0A3EBF090DE28E0FA9086
:0E345500FA9FE0FBA3E0FC4B700E90DE0E74BD
:0A34630004F090DE14E0FB54FEF0CC
:07346D007B008A828B8322A1
:02347400C2AFE5
:0E3476001233EEAA82AB838A048B05BAFF0BD9
:0B348400BBFF0890F739121B6C80E7BB
:05348F00D2AF8C822287
:0D34940043BE801230FC122F5B439A029061
:0D34A100DE06E4F090DE04F090DE02F02282
:0E34AE0090DE07E4F090DE09F090DE0BF053A4
:0E34BC009AFD90DE06E4F090DE04F090DE0251
:0534CA00F053BE7F225B
:0834CF0012349474E8C0E074AB
:0834D70043C0E074ABC0E074D7
:0734DF0032C0E090FA261252
:0C34E6001948E58124FCF581747DC0E0EC
:0934F2007433C0E074B0C0E07452
:0734FB0033C0E09033EE1234
:09350200190FE58124FCF581227A
:0443E8007573620087
:07441F0000C20100000008CB
:0400000002015F3268
:01000B0032C2
:0100130032BA
:01001B0032B2
:0100230032AA
:01002B0032A2
:03003300022F6E2B
:01003B003292
:0300430002240D87
:03004B00022EEA98
:01005300327A
:01005B003272
:01006300326A
:01006B003262
:01007300325A
:01007B003252
:0300830002291A35
:0301B800020086BC
:0500860012350B80FEA5
:0D350B00122F2C7582031224DC7582011230
:063518002488122F0112AD
:06351E0008691234CF120F
:0935240015E8758201121853121A
:06352D002D8B122914127F
:063533002E371222A61241
:053539000D27021D48F2
:0843EC00312E382E35000000CF
:0E43F400616C7475736D657472756D2E6F72E9
:02440200670051
:0E44040054656C65446F6E676C652D76302EC6
:02441200320076
:0E00AA001201100102000020FEFF0C000001F8
:0E00B8000102030109024300020100C03209E7
:0E00C6000400000102020100052400100105E3
:0E00D400240101010424020205240600010794
:0E00E2000581030800FF09040100020A000066
:0E00F0000007050402400000070585024000DD
:0E00FE000004030904200361006C0074007507
:0E010C000073006D0065007400720075006DD8
:0E011A00002E006F0072006700200354006585
:0E012800006C00650044006F006E0067006C04
:0E0136000065002D00760030002E0032000E15
:0E014400033000300030003000300031000089
:06018E00E478FEF6D8FD46
:08016C007907E94400601B7AE9
:050174000190441F781A
:03017900A97593D2
:0A017C00FAE493F2A308B8000205AC
:0801860093D9F4DAF27593FF3E
:0B353E00E5828550F0A4C582C0F08536
:0A35490051F0A4D0F025F0C58385F1
:0835530050F0A42583F583224A
:0C355B00AAF0FBE5828550F0A4FCADF066
:0C356700E5838550F0A42DFDE435F0FE56
:0C357300E5828551F0A42DFDE5F03EFE40
:0C357F00E433FFEA8550F0A42EFEE5F0D6
:0C358B003FFFE5838551F0A42EFEE5F023
:0C3597003FFFE5828552F0A42EFEE5F017
:0B35A3003FFFEB8550F0A42FFFEA85EE
:0A35AE0051F0A42FFFE5838552F0D1
:0C35B800A42FFFE5828553F0A42F8EF0B5
:0535C4008D838C8222C2
:080194007836E84400600A79A6
:03019C0000759358
:06019F00F0E4F309D8FCB6
:0801A5007873E8440A600C794C
:0B01AD000B90F036E4F0A3D8FCD9FA68
:0535C9007A10E4FBFC98
:0E35CE00E58225E0F582E58333F583EB33FBE0
:0A35DC00EC33FCEB9550F5F0EC9594
:0935E600514006FCABF0438201E8
:0335EF00DADD2200
:02008B00E4731C
:0635F200C01E85811E12BF
:0535F800187CD01E222A
:0835FD0085824685834785F0B5
:0536050048E4F543F567
:04360A0044F54585B9
:03360E001F4990C1
:0536110035F20236D67F
:06361600C01E85811EE5C7
:07361C001E24FBF549E4F553
:0436230043F544F532
:0736270045E51E24FBF886B7
:06362E00460886470886ED
:05363400489035F21280
:0536390036D6D01E2270
:07363E00AA82C039C03AC0A6
:063645003B7455C0E07467
:06364B0036C0E0C037C0EC
:04365100388A82220F
:0A3655001581158115810541E4B5CA
:04365F0041020542DD
:013663002244
:0E366400AA8274302AFA24C6500A74072AFA81
:06367200300203430220B8
:053678008A8202363ECB
:0E367D00E582FAC4540FF582C002123664D002
:09368B0002740F5AF58202366444
:06369400858250AB3CAC46
:04369A003DAD3EAE56
:04369E003FAF407585
:0236A2005120B5
:0E36A400EF2FFFEE235401FA4207EB2BFBEC55
:0C36B20033FCED33FDEE33FEC3EF95500A
:0A36BE004008EFC39550FF430301DD
:0636C800D551D98B3C8CAA
:0436CE003D8D3E8E62
:0436D2003F8F4022C4
:0736D60085823785833885EA
:0336DD00433985E9
:0336E000443A85E4
:0436E300453BE4F58A
:0336E70041F54268
:0536EA00AA46AB47AC4D
:0C36EF00488A828B838CF0123BDCFD7457
:0936FB00012AF546E43BF5478C79
:0837040048EDFA7003023BBD21
:05370C00BA2502800354
:03371100023BB5C3
:05371400C203C204C263
:0437190005C206C21D
:04371D0007C208C215
:0437210009C20A755A
:083725004A00754B007DFFAE68
:04372D0046AF47ABB1
:01373100484F
:0E3732008E828F838BF0123BDCFAA3AE82AF47
:06374000838E468F478BCB
:0B37460048BA25078A8212363E80999F
:053751008A04BC3000F9
:0D375600402A8A04EC24C64023BDFF13E581
:0B3763004B75F00AA4FCEA24D02CF502
:07376E004B70C1D20480BDC5
:0D377500ED75F00AA4FCEA24D02CFD80B014
:0A378200BA2E07BDFFAA7D0080A645
:05378C008A04BC61008D
:0D379100400E8A04EC248540075302DFD26D
:03379E00028002A4
:0237A100C20262
:0537A300BA2002805570
:0537A800BA2B02804B6A
:0537AD00BA2D0280416D
:0537B200BA4202804B49
:0537B700BA430280503E
:0637BC00BA440302396764
:0637C200BA460302397D46
:0637C800BA490302396753
:0537CE00BA4C0280343A
:0637D300BA4F0302396E3B
:0637D900BA50030238FEA5
:0537DF00BA5302804C0A
:0637E400BA55030239731F
:0637EA00BA580302397811
:0337F0000239811A
:0537F300D20302373291
:0537F800D2050237328A
:0537FD00D20602373284
:05380200D2080237327C
:05380700D20902373276
:08380C0030080AE54914F888B0
:05381400498602800F4F
:0A381900E54924FEF88849860308FB
:053823008604188B0271
:083828008A8212363E02398A41
:0A383000E54924FDF88849860308E5
:0A383A00860408860618188B3C8CE3
:043844003D8E3E85F2
:063848003C82853D8385F2
:0C384E003EF0C005123BC4AB82AC83D03E
:06385A0005BDFF028B0515
:0A38600020032CC3EB954B5026E526
:06386A004BC39BF54BACC3
:013870004B0C
:0C3871008C061C8C4BEE6014758220C08D
:0E387D0003C004C00512363ED005D004D003AF
:02388B0080E4D7
:02388D008C4B62
:02388F008D04A6
:07389100853C82853D838523
:0C3898003EF0123BDCFDFA602F8C051C9A
:0E38A400C374808DF063F08095F050208A820E
:0C38B200C003C00412363ED004D003ADA9
:0438BE003CAE3DAF30
:0638C2003E0DBD00010EE9
:0538C8008D3C8E3D8FD8
:0338CD003E80C179
:0638D00020030302398A07
:0938D600C3EB954B400302398A53
:0738DF00E54BC39BF54BAC68
:0138E6004B96
:0B38E7008C051C8C4BED70030239882F
:0C38F200758220C00412363ED00480E92C
:0A38FE00E54924FDF8884986050815
:0A390800860608860718188D3C8E0D
:043912003D8F3EADFA
:043916003EBD800032
:06391A0040047A43801412
:03392000BD600087
:0639230040047A50800B05
:03392900BD40009E
:06392C0040047A4980020C
:023932007A58C1
:0E3934008A82C00212363E75823A12363E7505
:0E394200823012363E75827812363ED002BABE
:043950004902800B9D
:05395400BA50028006DC
:06395900853D8212367D5F
:08395F00853C8212367D8023B5
:07396700D207754A0A801C1B
:05396E00754A088017F6
:05397300754A0A8012F4
:05397800754A10800DEE
:04397D00D20A8009E1
:073981008A8212363E80022B
:023988008C4B66
:09398A00300A5AE54924FCF888D2
:0C39930049860408860508860608860799
:08399F001818188C3C8D3D8EB8
:0439A7003E8F3F759B
:0339AB003C147554
:0339AE003D447520
:0239B1003E8056
:0439B300853C4D857D
:0339B7003D4E85FD
:0539BA003E4F740125E1
:0739BF004DFFE4354EFCADA5
:0439C6004F8F3C8C57
:0439CA003D8D3E856C
:0639CE004D82854E838549
:0A39D4004FF0123BDCFCFA70030216
:0239DE0036EAC7
:0739E0008A8212363E80CC02
:0739E700E54A70030236EA15
:0439EE00754C59308B
:0739F200082BE54914F888D9
:0A39F90049E6FD3395E0FEFFFC8D6A
:043A03003C8E3D8F29
:043A07003E8C3F2092
:0A3A0B00075EAC3C7D007E007F00EA
:053A15008C3C8D3D8E8C
:053A1A003E8F3F804CCF
:093A1F0030091FE54924FCF88878
:0C3A280049860408860508860608860703
:083A34001818188C3C8D3D8E22
:053A3C003E8F3F802ACF
:0A3A4100E54924FEF88849860408D0
:0C3A4B00860518ED3395E0FEFF8C3C8DE5
:043A57003D8E3E8FD3
:053A5B003F20070CAC48
:083A60003CAD3D7E007F008EAD
:033A68003E8F3F4F
:0A3A6B00300722E53F30E71BC3E4FB
:093A7500953CFCE4953DFDE4954F
:073A7E003EFEE4953FFF8CC2
:043A85003C8D3D8EA9
:053A89003E8F3F8002AA
:023A8E00C2076D
:063A9000D20BA84C7C00E3
:0A3A9600754000854A82C004C0009C
:0B3AA000123694D000D004200B0DE57E
:0A3AAB0040C4FDE6FE4DF618884CFD
:023AB50080028D
:023AB700A64027
:083AB9000C8C03B20BE53C4547
:043AC1003D453E45FC
:083AC5003F70CE884C8C03E534
:063ACD004B7003754B0174
:0A3AD300200424200321EB04FCADC5
:013ADD004B9D
:0E3ADE00C3EC9D5015758220C003C004C005C6
:0C3AEC0012363ED005D004D0031D80E649
:023AF8008D4BF4
:0C3AFA0030070E75822DC00312363ED03E
:053B060003154B8023B4
:0C3B0B00EB602030050E75822BC0031209
:083B1700363ED003154B800F70
:0C3B1F0030060C758220C00312363ED028
:033B2B0003154B34
:053B2E00200324AC4B54
:0B3B33008C051C8C4BC3EB9D502B300D
:063B3E0004047D3080024A
:023B44007D20E2
:0E3B46008D82C003C00412363ED004D003802E
:013B5400DE92
:0A3B5500C3EB954B5008E54BC39BF2
:043B5F00F54B80079B
:053B6300754B0080021B
:023B68008C4B84
:023B6A00A84C65
:0A3B6C008B041BEC6026B20B200B4B
:0B3B76000A08E6C4540FFC8C408007D6
:073B81008604740F5CF5409F
:0C3B8800854082C003C000123664D000EB
:043B9400D00380D406
:063B98002003030236EADF
:023B9E00AB4B2F
:093BA0008B041BEC70030236EAF1
:0C3BA900758220C00312363ED00380EB72
:083BB5008A8212363E0236EA54
:073BBD00854182854283224D
:0B4414003C4E4F20464C4F41543E00F0
:043BC400AA82AB83A3
:083BC800123BDC6003A380F84E
:0C3BD000C3E5829AF582E5839BF5832211
:03015F007581594E
:0A016200123C30E5826003020086C3
:0E3BDC0020F71430F6148883A88220F507E63F
:063BEA00A8837583002290
:033BF000E280F779
:033BF300E4932236
:023BF600E022CB
:0E3BF800C2D5E58330E70DD2D5E4C39582F542
:063C060082E49583F583C2
:0A3C0C00E55130E70DB2D5E4C39591
:053C160050F550E4959B
:033C1B0051F5510F
:0E3C1E001235C930D50BE4C39582F582E495CA
:033C2C0083F5839A
:013C2F002272
:043C30007582002277
:00000001FF
