:0401CB00AA82AB83D6
:0E01CF008A828B83E493FCA3AA82AB83ECFDAF
:0E01DD00600F8D82C002C00312169DD003D0A9
:0301EB000280E1AE
:0101EE0022EE
:0601EF0090713C0201CBFF
:0B01F500121788E5826006907140122E
:0202000001CB30
:040202007808E4F2A2
:0D020600121708121736AA82BA08028003E8
:03021300BA7F1699
:0C0216007808E260EB121788E5826003B4
:030222001201EFD7
:070225007808E214F280DA10
:03022C00BA1516EA
:0C022F007808E260D2121788E5826003B4
:03023B001201EFBE
:07023E007808E214F280EAE7
:05024500BA0D027A0A67
:0E024A00BA0A0F121788E582603775820A1211
:04025800169D802F40
:06025C007808E2B42E0058
:0A02620050A27808E2FB780804F2CD
:0A026C00EB24F4F582E434F0F5838E
:0E027600EAF0C002121788E582D00260838A87
:070284008212169D02020622
:0A028B007808E2FA780804F2EA2489
:0A029500F4F582E434F0F583740AF6
:0A029F00F07808E2FA780804F2EAA9
:0A02A90024F4F582E434F0F583E458
:0602B300F07809E4F222DC
:0802B9007806740AF278097955
:0B02C10008C3E3F5F0E295F050177859
:0902CC0009E2FA780904F2EA24BF
:0A02D500F4F582E434F0F583E0FA5A
:0302DF007806F2AC
:0602E2007806E2F582221D
:0502E800AA82BA0A0021
:0A02ED00500874302AF58202169DB5
:0802F70074572AF58202169DDE
:0E02FF00121736AA82C3EA648094B0401174CC
:0E030D00B98AF063F08095F04006EA24D0F53E
:02031B0082223C
:0E031D00C3EA648094E1401174E68AF063F054
:0B032B008095F04006EA24A9F582222C
:0E033600C3EA648094C1401174C68AF063F07B
:0B0344008095F04006EA24C9F58222F3
:09034F0078077401F275820022A6
:0E035800AA82AB838B82C002C00312036ED058
:0803660003D0028A8202036E3B
:0E036E00E582FAC4540FFB740F5BF582C002E7
:0D037C001202E8D002740F5AF5820202E866
:080389007806E2B42002800CAA
:080391007806E2B409028004C1
:040399007A00800264
:02039D007A01E3
:03039F008A82222D
:0C03A200120389E58260051202B980F4A4
:0103AE00222C
:0E03AF00AA82C3EA648094B0401174B98AF047
:0D03BD0063F08095F04006EA24D0F582221E
:0E03CA00C3EA648094E1401174E68AF063F0A7
:0B03D8008095F0400674A92AF58222EF
:0E03E300C3EA648094C1401174C68AF063F0CE
:0B03F1008095F0400674C92AF58222B6
:0403FC007582FF22E5
:0B0400007800E4F208F21203A27A0078
:03040B00BA020032
:0C040E0050477806E2F582C0021203AFEE
:0C041A00AB82D002EB30E70678077402DA
:02042600F222C0
:0C0428007800E2FC08E2C454F0CCC4CC24
:0E0434006CCC54F0CC6CFDEB3395E0FEEB424B
:0C04420004EE42057800ECF208EDF2C078
:09044E00021202B9D0020A80B4C6
:010457002282
:0B0458007A017800E4F208F2C0021202
:0404630003A2D0021E
:0C0467007806E2F582C0021203AFAB82FF
:0C047300D002EB20E7307800E2FC08E249
:0E047F00C454F0CCC4CC6CCC54F0CC6CFDEB6F
:0C048D003395E0FEEB4204EE42057800DF
:0E049900ECF208EDF27A00C0021202B9D002B5
:0204A70080BE15
:0704A900EA60047807EAF2A3
:0104B0002229
:0A04B100C04EE581F54E2404F581EC
:0C04BB007A017802E4F208F208F208F27C
:0704C700C0021203A2D002E3
:0B04CE007806C3E2648094B050030283
:0204D9000552CA
:0C04DB007806C3E2F5F074B963F0809578
:0A04E700F040687802E2F57008E2C8
:0904F100F57108E2F57208E2F56C
:0B04FA007390000AE4F5F01269B5A849
:0C0505004E08A68208A68308A6F008F69F
:0C0511007806E2FFE23395E0FBEF24D017
:0C051D00FFEB34FFFB3395E0FCFDA84E23
:0E05290008EF26FFEB0836FBEC0836FCED0869
:0C05370036FD7802EFF208EBF208ECF25F
:0D05430008EDF27A00C0021202B9D00202E7
:0205500004CED7
:07055200EA60047807EAF2F9
:0A05590078027900E2F308E209F3EA
:06056300854E81D04E22FE
:04056900AA82AB8334
:0C056D008A828B83E493FC60237806E212
:05057900B50402800939
:09057E0078077402F27582002274
:050587000ABA00010B9F
:0D058C00C002C0031202B9D003D00280D417
:040599007582012244
:09059D001204587807E270467858
:0C05A6000FC2D575F007E230E704B2D5B3
:0205B200F4044F
:0E05B400A430D50AF42401C5F0F43400C5F0DB
:0A05C20024B7FA74F235F0FB74065A
:0C05CC002AF582E43BF5837800E2B400DD
:0A05D8000908E2B400047401800178
:0105E200E434
:0405E300FAB4010065
:0405E700E433FAF00F
:0105EB0022ED
:0705EC001203A290714312FB
:0705F3000569E58270012299
:0D05FA00121708900064121D4B75C90B907C
:0B06070000C8121D4B7582080215F19F
:0E0612007401C0E0E4C0E090F3E4E0C0E0A3B7
:0E062000E0C0E09000A4E493C0E0740193C039
:0A062E00E074BFC0E0747DC0E0740A
:0A06380080C0E074AFC0E0747DC024
:0A064200E07480C0E07449C0E07469
:0C064C0071C0E07480C0E0126AE8E58133
:0A06580024F1F58174A7C0E0747D61
:0B066200C0E07480C0E074AEC0E07423
:0C066D0071C0E07480C0E0126AE8E58112
:0506790024FAF58122C6
:04067E00780BE4F21F
:0A068200780B790AC3E3F5F0E29566
:04068C00F040012217
:0A069000780BE225E02424F582E453
:0A069A0034F1F583E0FBA3E0FC78E7
:0306A4000CE4F271
:0C06A700780CE275F004A4FEAFF02BF517
:0E06B30082EF3CF583E493FAA3E493FD4A70D2
:0406C1000302074EDB
:0E06C500EE2BFEEF3CFF8E828F83A3A3E49307
:0806D300F508A3E493F5098585
:0A06DB000882850983C003C00412E1
:0506E50001CBAE08AFDF
:0C06EA00097A808E828F838AF01270964D
:0E06F600AA82D004D0038A057E000DBD00014B
:010704000EE6
:07070500ED2508F508EE35B3
:08070C0009F509742DC39AFAE6
:0E0714008A051AED6014758220C002C003C071
:0C0722000412169DD004D003D00280E623
:0A072E00850882850983C003C0041A
:0E0738001201CB75820A12169DD004D00378F0
:080746000CE22401F20206A7F7
:09074E00780BE22401F20206829C
:080757007807E2B401028006FC
:06075F007807E2B4020A73
:070765009071C31201CB7873
:03076C0007E4F2AD
:01076F002267
:0A077000AA82AB83780AE2B40B0002
:0E077A00400E758206C002C0031215F1D003B6
:02078800D0029D
:0A078A00780AE2FC780A04F2EC2C75
:0A0794002424F582E434F1F583EA31
:05079E00F0A3EBF022C6
:0707A3001201F51202B91268
:0907AA0003A27806E2FAC0021273
:0907B30002B9D002BA0D0280E780
:0507BC00BA0A0280E210
:0A07C10090F13AE4F0A3F0750A008D
:0A07CB00780AC3E2F5F0E50A95F0A4
:0507D50040030208577B
:0507DA00E50A250A24D8
:0A07DF0024F582E434F1F583E0FC18
:0507E900A3E0FD7E000D
:0A07EE00EE75F004A4F50B85F00C85
:0C07F8002CF582E50C3DF583E493FFA393
:0B080400E493FB4F603DE50B2CFBE58F
:0C080F000C3DFF8B828F83A3A3E493FBBE
:0E081B00A3E493FF8B828F83E493FBB5021B53
:0A082900E50B2CF582E50C3DF5838C
:0E083300E493FBA3E493FF90F13AEBF0A3EF04
:03084100F0800341
:030844000E80A77C
:0C08470090F13AE0FBA3E0FC4B700505CB
:040853000A0207CBC3
:0E08570090F13AE0FAA3E0FB4A6011C002C043
:0E086500038A828B8312008BD003D0028005A1
:0508730078077402F299
:060878001207570207A35E
:07087E009071D112077074A4
:08088500E5C0E07471C0E074ED
:08088D00A3C0E07407C0E09075
:0C089500F13C121A3FE58124FCF58122A1
:04713C00082008001F
:037140003E2000EE
:0671430065626F6F74002D
:0E7149006D616E7566616374757265722020EB
:0E71570020202025730A70726F647563742007
:0E71650020202020202020202025730A736582
:0E7173007269616C2D6E756D62657220202050
:0E7181002025750A63757272656E742D666C3A
:0E718F006967687420202025750A6C6F672DD3
:0E719D00666F726D6174202020202020202556
:0371AB00750A0062
:0E71AE00736F6674776172652D766572736912
:0771BC006F6E2025730A002D
:0E71C30053796E746178206572726F720A00E3
:0271D1007E0638
:0271D300E97160
:0271D5009D0516
:0271D700F07155
:0271D900EC05C3
:0271DB0005723B
:0271DD00120698
:0671DF0014720000000024
:0471E500636D640072
:0771E9003F0048656C7000D7
:0E71F00045203C30206F66662C2031206F6EEB
:0771FE003E004563686F00CD
:0E720500722065626F6F74005265626F6F7465
:01721300007A
:0A721400760056657273696F6E0014
:0C08A10012634378E4E2F58208E2F5837C
:0E08AD0008E2F5F008E2126744743BC0E0E494
:0A08BB00C0E074B3C0E074F1C0E0C7
:0C08C50078E4E2F58208E2F58308E2F531
:0E08D100F008E2121852E58124FCF5817582D0
:0708DF00001228FF0267353B
:0708E60090F1EE1215311232
:0608ED0008A190F1EE02EB
:0208F300158F5F
:0E08F50090F1C6E0FAA3E0FBA3E0FCA3E0FD57
:0E09030090F1E5E0FEA3E0FFA3E0F8A3E0F929
:0E091100C002C003C004C0058E828F8388F030
:0E091F00E9123B54AA82AB83ACF0FDE58124C3
:0E092D00FCF58190F1D0EAF0A3EBF0A3ECF022
:04093B00A3EDF02216
:06093F00780DE2600122C8
:0C094500126343743BC0E0E4C0E074B3F4
:0A095100C0E074F1C0E078E4E2F5C4
:0E095B008208E2F58308E2F5F008E212181BAC
:0E096900E58124FCF58190F1B3E0FABA0102B9
:02097700803CC2
:0C09790090F1B37401F090F1B4E4F09040
:0C098500F1B574FAF0A3E4F07570007591
:060991007109E4F572900B
:06099700F1BA12502C7AA7
:04099D001E7B728AC1
:0409A100708B717571
:0609A5007206E4F57390F8
:0609AB00F1BA124FF790B3
:0409B100F1B9E4F0C4
:0B09B50090F1B4E0FABA1703020AA2A6
:0309C000BA010079
:0709C300500590F1C3E4F0C0
:0309CA00BA02006E
:0E09CD00500E90F1B7E4F0A3F090F1C4E4F006
:0209DB00A3F087
:0309DD00BA03005A
:0E09E00050209000A6E493FB740193FC740277
:0E09EE0093FD740393FE90F1C6EBF0A3ECF0C2
:0609FC00A3EDF0A3EEF0F4
:030A0200BA040033
:0E0A0500500E90F1CAE4F0A3F0A37403F0A326
:020A1300E4F00D
:030A1500BA05001F
:070A1800500590F1CEE4F05F
:030A1F00BA060014
:070A2200500590F1CFE4F054
:030A2900BA080008
:080A2C00500690F1D47401F0B2
:030A3400BA0900FC
:0A0A37005013757000757110E4F59E
:070A41007290F1D5C0021212
:040A4800502CD0025C
:030A4C00BA0A00E3
:0E0A4F00502E90F1B9E075F064A4FBE5F0FCC8
:0E0A5D003395E0FDFE74762BFB74A13CFC7417
:0E0A6B00063DFDE43EFE90F1E5EBF0A3ECF05D
:060A7900A3EDF0A3EEF076
:030A7F00BA0B00AF
:090A8200500790F1E9E4F0A3F043
:030A8B00BA0D00A1
:090A8E00500790F1EBE4F0A3F035
:0B0A970090F1B47417F0780E7401F2B7
:090AA2001208F5780D7401F2222E
:070AAB0090F1EE121531027B
:020AB200093FFA
:090AB400780E7401F290F1EE02DB
:020ABD00158F93
:070ABF00120AAB90F1EE02F8
:020AC600158F8A
:0A0AC80074BAC0E074F1C0E0E4C0AD
:0A0AD200E07425C0E07472C0E07407
:0D0ADC0080C0E0126AE8E58124FAF581226D
:080AE900757000757109E4F558
:050AF1007290F1EF120C
:070AF600502C1203A27A004C
:080AFD007806E2B40A0280262B
:030B0500BA08002B
:0C0B080050138A030AEB24EFF582E4345A
:090B1400F1F5837806E2F080059A
:050B1D0078077401F2ED
:090B2200C0021202B9D00280D217
:060B2B007807E2600122E0
:050B3100120AAB757013
:030B3600EF7571E7
:060B3900F1757209E4F5FC
:050B3F007390F1BA12F1
:050B44004FF7020AB4A6
:0E0B490090F1E5E0FAA3E0FBA3E0FCA3E0FDE1
:0C0B5700C002C003C004C0057435C0E03B
:0C0B63007472C0E07480C0E0126AE8E523
:060B6F008124F9F581224A
:090B75001204B17807E2600122CC
:070B7E00120AAB90F1E578CB
:0C0B850002E2F0A308E2F0A308E2F0A3F3
:0A0B910008E2F01208F5120AB4029F
:020B9B004C0A02
:0D0B9D0090F1B5E0FAA3E0FBC002C00374C4
:0A0BAA0045C0E07472C0E07480C022
:0B0BB400E0126AE8E58124FBF58122D5
:090BBF001204B17807E260012282
:070BC800120AAB90F1B578B1
:0A0BCF0000E2F0A308E2F0020AB40D
:0E0BD90090F1C4E0FAA3E0FB90F1B7E0FCA3BA
:0C0BE700E0FDC002C003C004C005745D46
:0B0BF300C0E07472C0E07480C0E0122B
:090BFE006AE8E58124F9F5812281
:0A0C0700C04EE581F54E2405F5818D
:0D0C1100AA82AB83ACF0C002C003C0047423
:0A0C1E0078C0E07472C0E07480C07A
:0E0C2800E0126AE8E58124FAF581121708123D
:090C3600173690729D75F08012D2
:060C3F006A75121708900F
:090C450072A075F080126A7512AC
:0C0C4E0017087A007D04A84E08E4F608A0
:0B0C5A00F608F608F6E54E2405F8A6A3
:010C65001C72
:070C6600EA4D7003020CE3EC
:0C0C6D007B1C7CFF8B828C83C002C005C6
:0B0C7900121C63D005D0028A038D041A
:0B0C8400EB4C60DEE54E2405F8E6B501
:040C8F001C0280D3F0
:0B0C9300E54E2405F8E675F00EA424E1
:0A0C9E0081FD74F535F0FE8D828EA5
:0E0CA80083A3A3E0FDA3E0FE3395E0FFFAA8CE
:0C0CB6004E08ED26F6EE0836F6EF083684
:0C0CC200F6EA0836F6E54E2405F8E604D4
:0C0CCE00FAE54E2405F8741F5AF61BBB13
:030CDA00FF011CFB
:060CDD008B028C0580A1D2
:0C0CE300A84E0808860208E6C313CA13D6
:0E0CEF00CAC313CA13CAFB08E6030354C04B62
:0E0CFD00FBE6A2E713A2E7133395E08A828B91
:070D0B0083854E81D04E22CA
:090D12001204B17807E26001222D
:0C0D1B007800E2F5F008E245F07024904A
:0D0D270072AF75F080120C07AA82AB8390AA
:0E0D340072B275F080C002C003120C07AC82D0
:080D4200AD83D003D00280272D
:0C0D4A007800E2FE08E2FF8E028F03C07A
:0C0D560002C0031204B1D003D0027807E1
:040D6200E260012228
:0B0D66007800E2FE08E2FF8E048F051B
:0E0D7100C3EA9CEB64808DF063F08095F04047
:0C0D7F001EC004C005C002C00374B7C051
:0C0D8B00E07472C0E07480C0E0126AE8FE
:070D9700E58124F9F581223A
:0E0D9E00C002C003C004C005120AABD005D0CD
:0E0DAC0004D003D00290F1B7EAF0A3EBF09070
:0A0DBA00F1C4ECF0A3EDF0020AB45E
:0C0DC40090F1C3E0FA7B00C002C0037491
:0A0DD000D9C0E07472C0E07480C066
:0B0DDA00E0126AE8E58124FBF58122AD
:090DE5001204B17807E26001225A
:070DEE00120AAB7800E2904D
:060DF500F1C3F0020AB494
:0D0DFB0090F1E9E0FAA3E0FBC002C0037430
:0A0E0800F3C0E07472C0E07480C013
:0B0E1200E0126AE8E58124FBF5812274
:090E1D001204B17807E260012221
:070E2600120AAB90F1E9781C
:0A0E2D0000E2F0A308E2F0020AB4AC
:0E0E370090F1C6E0FAA3E0FBA3E0FCA3E0FD0F
:0C0E4500C002C003C004C005740FC0E070
:0C0E51007473C0E07480C0E0126AE8E531
:060E5D008124F9F5812259
:090E63001204B17807E2600122DB
:070E6C00120AAB90F1C678F9
:0C0E730002E2F0A308E2F0A308E2F0A302
:090E7F0008E2F01208F5020AB4C1
:0E0E880090F1CAE0A3E0FBA3E0FCA3E0FD8B29
:0E0E960002ECC313CA13CAC313CA13CAFBED7E
:0E0EA400030354C04BFBED0303543FC002C0D8
:0A0EB20003741FC0E07473C0E07405
:0D0EBC0080C0E0126AE8E58124FBF5812288
:0C0EC90078E1E2FA08E2C313CA13CAC3BE
:0E0ED50013CA13CAFB08E2030354C04BFBE22E
:0C0EE3000303543F78E5E2FC08E2C3136F
:0E0EEF00CC13CCC313CC13CCFD08E203035488
:0E0EFD00C04DFDE20303543FC002C003C00419
:0E0F0B00C0051204B1D005D004D003D0027886
:050F190007E260012267
:0E0F1E00C002C003C004C005122ECFE582D071
:0C0F2C0005D004D003D00260167436C05B
:0C0F3800E07473C0E07480C0E0126AE84E
:070F440015811581158122C2
:0E0F4B00C3E49A74049B502FEA24FFFEEB349B
:0C0F5900FFFF7800E2520608E25207EEAB
:0C0F65004F601AC002C0037466C0E07444
:0C0F710073C0E07480C0E0126AE8E58103
:050F7D0024FBF58122B8
:0C0F82007800C3E2F5F0EC95F008E2F511
:0C0F8E00F0ED95F0501AC004C0057491FD
:0B0F9A00C0E07473C0E07480C0E0127F
:090FA5006AE8E58124FBF58122D4
:0C0FAE00120AAB7800E2FA08E2FBE4FC57
:0E0FBA00EB2BCC33CC25E0CC33FDEA2A25E02E
:0E0FC800FBEA232354034CFC7A0090F1CAEAA2
:0D0FD600F0A3EBF0A3ECF0A3EDF0020AB4E1
:0C0FE30090F1CEE0FA7B00C002C0037465
:0A0FEF00A7C0E07473C0E07480C076
:0B0FF900E0126AE8E58124FBF581228C
:091004001204B17807E260012238
:07100D00120AAB7800E2902B
:06101400F1CEF0020AB467
:0C101A0090F1CFE0FA7B00C002C003742C
:0A102600B8C0E07473C0E07480C02D
:0B103000E0126AE8E58124FBF5812254
:09103B001204B17807E260012201
:0C104400120AAB7800E25401F208E4F25A
:0C10500090F1CFE0FA7B007800E2B502DE
:08105C000708E2B5030280322F
:0E10640090F1B7E0FAA3E0FB90F1C4E0FCA32A
:0E107200E0FD74FFC39CFC747F9DFD90F1B700
:0E108000ECF0A3EDF074FFC39AFA747F9BFBB3
:08108E0090F1C4EAF0A3EBF0BD
:081096007800E290F1CFF002B6
:02109E000AB492
:0C10A00090F1D4E0FA7B00C002C00374A1
:0A10AC00CDC0E07473C0E07480C092
:0B10B600E0126AE8E58124FBF58122CE
:0910C1001204B17807E26001227B
:0710CA00120AAB7800E2906E
:0610D100F1D4F0020AB4A4
:0A10D7001203A27806E2FAC002122A
:0610E10002B9D0027B0001
:0E10E700EB75F006A4FCFD9073DF93CDA39390
:0910F500FEBD0005BE00028032C0
:0C10FE008D828E83E493FDB50225EC2466
:0A110A00DFFCE43473FD8C828D835A
:0E111400A3A3E493FCA3E493FDC004C0058CE8
:0B112200828D8312008BD005D00422C8
:03112D000B80B77D
:0611300078077402F222B0
:021136007A003D
:0E113800EA75F006A4FBFC9073DF93CCA39342
:08114600FDBC0004BD00012204
:0E114E0074012CFEE43DFF78808C828D838836
:0E115C00F0C002C003C006C007127096AC823D
:0E116A00AD83D007D006D003EC2EFEED3FFF84
:0E1178007C80EB9073DF93CBA393FD7880C057
:0C11860006C007C004C003C005C0007410
:0A11920039C0E07474C0E07480C03E
:0E119C00E0126AE8E58124F7F581D0020A022C
:0211AA001138FA
:0B11AC00120ABF90F1B4E0FA7B009043
:0E11B700F1B3E0FC7D00C002C003C004C0051F
:0A11C5007443C0E07474C0E074804D
:0D11CF00C0E0126AE8E58124F9F5817A009C
:0E11DC00EA75F006A4FBFC9073DF93CCA3939E
:0811EA00FDBC0004BD00012260
:0A11F200EB24DFFBE43473FC8B8276
:0E11FC008C83A3A3A3A3E493FBA3E493FC4B77
:0D120A006013C002C003C0048B828C8312ED
:08121700008BD004D003D002CB
:03121F000A80BA88
:0D1222007A0090F1EEC002121531D0027872
:08122F000EE260091208A1782B
:051237000EE4F27A0153
:0E123C0090F1EEC00212158FD002EA60099008
:08124A00745A75F080026A7508
:0912520090746075F080026A7569
:06125B00907470020770A0
:07721E004E3043414C4C00CF
:0E72250043616C6C7369676E3A2022257322F8
:027233000A004F
:0E7235004672657175656E63793A20256C644A
:027243000A003F
:0E7245004D61696E206465706C6F793A20258A
:0A72530064206D65746572730A0013
:0E725D00416363656C2063616C202B31673ADE
:0D726B00202564202D31673A2025640A009B
:0E7278004F7269656E7420616E74656E6E6192
:0E72860020257320616E642070726573732082
:0972940061206B65792E2E2E009D
:03729D000D0A00D7
:0E72A00043616C6962726174696E672E2E2EF6
:0172AE0000DF
:0372AF00757000F7
:0572B200646F776E001F
:0E72B700496E76616C696420616363656C3AB0
:0E72C500207570202825642920646F776E20C4
:0672D300282564290A00D1
:0E72D90041706F6765652064656C61793A20CD
:0C72E7002564207365636F6E64730A00F9
:0E72F30041706F676565206C6F636B6F75741B
:0E7301003A202564207365636F6E64730A0082
:0E730F00526164696F2063616C3A20256C64E2
:02731D000A0064
:0E731F004D617820666C69676874206C6F673A
:09732D003A202564206B420A009D
:0E73360053746F72616765206D757374206209
:0E7344006520656D707479206265666F7265F4
:0E735200206368616E67696E67206C6F67204C
:0673600073697A650A0062
:0E736600466C69676874206C6F672073697AE3
:0E73740065206D757374206265206D756C74F4
:0E73820069706C65206F66202564206B420ADE
:0173900000FC
:0E739100466C69676874206C6F67206D6178C8
:08739F00202564206B420A0066
:0E73A70049676E697465206D6F64653A202534
:0373B500640A0067
:0E73B800506164206F7269656E746174696F54
:0773C6006E3A2025640A0065
:0E73CD00526164696F20656E61626C653A20E2
:0473DB0025640A001B
:0273DF007874C0
:0273E100BF0BE0
:0273E3009D0B00
:0273E50093749F
:0273E700E50DB2
:0273E900C40DD1
:0273EB00AE747E
:0273ED001D0E73
:0273EF00FB0D94
:0273F100D47452
:0273F300750B18
:0273F500490B42
:0273F700ED7433
:0273F900E90A9F
:0273FB00C80ABE
:0273FD000C750D
:0273FF00C110BB
:02740100A010D9
:027403003D75D5
:02740500630E14
:02740700370E3E
:027409006875A4
:02740B00120D60
:02740D00D90B99
:02740F008D7579
:027411003B102E
:027413001A104D
:02741500BE7542
:02741700C90E9C
:02741900880EDB
:02741B00DC751E
:02741D00041059
:02741F00E30F79
:027421000676ED
:04742300AC110000A8
:027427000D76E0
:04742900221200002B
:02742D001F76C8
:0A742F00361100000000000000000C
:0A743900252D3230732025730A0060
:0E744300436F6E6669672076657273696F6EBF
:097451003A2025642E25640A008E
:06745A0053617665640039
:0E7460004E6F7468696E6720746F20736176DA
:02746E006500B7
:02747000D71033
:0674720026760000000078
:0E7478006D203C6D65746572733E004D616958
:0D7486006E206465706C6F7920286D290000
:0E74930064203C64656C61793E0041706F6757
:0D74A10065652064656C6179202873290001
:0E74AE004C203C7365636F6E64733E0041704A
:0E74BC006F67656520646574656374206C6F8E
:0A74CA00636B6F75742028732900AE
:0E74D40046203C667265713E00467265717519
:0B74E200656E637920286B487A290052
:0E74ED0063203C63616C6C3E0043616C6C7309
:0E74FB0069676E2028382063686172206D6119
:03750900782900DE
:0E750C0065203C302064697361626C652C2040
:0E751A003120656E61626C653E00456E6162F7
:0E7528006C652074656C656D65747279206108
:077536006E64205244460080
:0E753D0066203C63616C3E00526164696F2001
:0E754B0063616C6962202863616C203D2072D0
:0E755900662F287874616C2F325E3136292936
:017567000023
:0E75680061203C2B673E203C2D673E004163B6
:0E75760063656C2063616C69622028302066BA
:097584006F72206175746F29001B
:0E758D006F203C3020616E74656E6E6120755B
:0E759B00702C203120616E74656E6E6120646C
:0E75A9006F776E3E00506164206F7269656EF0
:0775B700746174696F6E003E
:0E75BE006C203C73697A653E00466C69676814
:0E75CC0074206C6F672073697A6520286B420B
:0275DA00290086
:0E75DC0069203C30206475616C2C20312061E8
:0E75EA00706F6765652C2032206D61696E3E02
:0E75F8000049676E69746572206D6F646500EE
:07760600730053686F770069
:0E760D007700577269746520746F2065657090
:04761B00726F6D001D
:07761F003F0048656C70009C
:0E76260063203C7661723E203C76616C756597
:0E7634003E0053657420636F6E666967202800
:0E7642003F20666F722068656C702C207320EC
:09765000746F2073686F77290044
:0A126100C04EE581F54E2407F5812B
:0C126B00AA82E583FB30E7047A007B00D8
:0A127700A84E08A603A84E0808A61A
:0C12810002087600A84E08E675F002A4F2
:0A128D002459F582747635F0F583DC
:0D129700E493FDA3E493FE3395E0FFFCA873
:0C12A4004E0808E4C396FA74010896FB9B
:0912B0008A70EBF5713395E0F54D
:0A12B90072F5738D828E838FF0ECC6
:0C12C3001269B5A84E08080808A68208A9
:0C12CF00A68308A6F008F6A84E08E60466
:0A12DB0075F002A42459F582747620
:0E12E50035F0F583E493FEA3E493FF3395E028
:0A12F300FAFBA84E08088670088672
:0812FD0071E63395E0F572F58E
:0C130500738E828F838AF0EB1269B5AA08
:0C13110082AB83ACF0FDE54E2404F8EA4A
:0E131D0026FAEB0836FBEC0836FCED0836FD30
:0E132B0074802AE43BFBE43CFCE43D8B828CA6
:0713390083854E81D04E2296
:0E765900DB3DE43B143A6338CE365135EA335C
:0E766700963253312030FB2EE32DD72CD62B3C
:0E767500DF2AF029082926284B277626A6258D
:0E768300DB24152454239722DE212A217920AE
:0E769100CC1F221F7B1ED81D381D9A1C001C0A
:0E769F00681BD31A401AAF19211996180C183F
:0E76AD008417FF167B16F9157915FB147F1450
:0E76BB0004148B1313139D122812B5114311E2
:0E76C900D3106410F60F890F1E0FB40E4B0E77
:0E76D700E30D7D0D170DB20C4F0CEC0B8B0B61
:0E76E5002A0BCB0A6C0A0E0AB2095609FA08E3
:0E76F300A0084708EE0796073F07E906930632
:0E7701003E06EA0596054305F104A0044F0478
:0E770F00FF03AF0360031203C40277022A02D5
:0E771D00DE0193014801FE00B4006A00220064
:0E772B00D9FF91FF4AFF03FFBDFE77FE32FE3D
:0E773900EDFDA8FD64FD20FDDDFC9AFC58FC72
:0E77470016FCD4FB93FB52FB12FBD2FA93FA12
:0677550053FA14FAD6F904
:021340007A0031
:0E13420090FB1AE0FBFC700C90FB1AC002122C
:061350001C63D00280ECDA
:0E13560090FB1BC002C004121531D004D0025F
:08136400EC30E01A75701C75F5
:03136C0071FB759D
:06136F007220E4F573900A
:0D137500F200C002C004124FF7D004D002F5
:08138200EC30E11A75703C75B6
:03138A0071FB757F
:06138D007220E4F57390EC
:0D139300F220C002C004124FF7D004D002B7
:0D13A00090FB1AE4F090FB1BC002C0041289
:0D13AD00158FD004D002EC20E0030214AF35
:0B13BA0090F205E0FB20E4030214AFFA
:0C13C50090F1FA7892E2F0A308E2F090B8
:0A13D100F1F87447F090F213E09079
:0813DB00F1FCF090F214E09027
:0813E300F1FDF090F215E0901D
:0913EB00F1FEF090F1FFEBF0902F
:0A13F400F1F8C002C0041229FA90BB
:0E13FE00F1F8744EF090F208E0FBA3E0FDA3BE
:0E140C00E0FEA3E0FF90F1FCEBF0A3EDF0A3F7
:0C141A00EEF0A3EFF090F1F81229FA9028
:0E142600F1F87457F090F20CE0FBA3E0FDA388
:0E143400E0FEA3E0FF90F1FCEBF0A3EDF0A3CF
:0C144200EEF0A3EFF090F1F81229FA9000
:0E144E00F1F87448F090F206E0FBA3E0FD9088
:0E145C00F1FCEBF0A3EDF090F1FE74FFF0A3B5
:0E146A00F090F1F81229FAD004D002EA70379F
:0E14780090F205E0FB30E62F90F1F87459F089
:0914860090F210E090F1FCF090EE
:08148F00F211E090F1FDF09074
:08149700F212E090F1FEF0906A
:0A149F00F1FFE4F090F1F8C0041230
:0614A90029FAAA82D0041A
:0714AF00EC20E103021342EF
:0B14B60090F225E0FBFC7003021342E3
:0814C10090F1F87456F07B0075
:0814C900C3EB9C400302134237
:0A14D100EB2BFD2426F582E434F233
:0E14DB00F583E0FE7F0090F1FCEEF0A3EFF051
:0A14E900EE4F6024ED2426FDE434EC
:0C14F300F2FE8D828E83A3E090F1FFF0EA
:0E14FF0090F1F8C002C003C0041229FAD00414
:04150D00D003D00235
:031511000B80B597
:09151400745BC0E07477C0E07460
:08151D0040C0E07413C0E0902F
:0C152500F240121A3FE58124FCF58122FF
:0B775B006770735F7265706F727400DE
:0A153100AA82AB83E0FC850E8285E0
:0C153B000F83A3A3A3A3A3E0FDECB50560
:0E1547000E758203C002C0031215F1D003D04E
:011555000293
:07155600D21010AF02C21019
:0E155D008A828B83E060158A828B83C002C075
:07156B0003C022121C63D033
:0715720022D003D00280E447
:0A157900850E82850F83A3A3A3A3B0
:0C158300A3E08A828B83F0A21092AF22BA
:0A158F00AA82AB83E0FC850E828582
:0C1599000F83A3A3A3A3A3E0FDECB50502
:0315A50002800EB3
:0E15A800758203C002C0031215F1D003D002F9
:0715B600D21010AF02C210B9
:0C15BD008A828B83E4F08A828B83C02238
:0615C900121CA1D022A2B9
:0415CF001092AF22A5
:0615D300AA827B007C00EF
:0815D9008A051AED60118C0572
:0715E1001DEDFC60F38B041B
:0815E8001CECFB60F40080F82C
:0115F00022D8
:0415F100AA82C2AF59
:0C15F500758214C0021215D3D0027B05D1
:0E16010075824BC002C003123E357582011285
:0C160F0015D3758296123E3575820112CB
:0E161B0015D3D003D002DBDE758200C00212B0
:0E1629003E357582021215D3D002EA30E62853
:0E163700758201C00212473B75824B123E3590
:0E1645007582281215D37582011247447582F2
:0C16530000123E3575820A1215D3D00239
:06165F00743F5AFB7C0001
:0E166500C3EC9B508B758201C002C003C00411
:0D16730012473B75825E123E3575820A12E9
:0C16800015D375820112474475820012D8
:0E168C003E3575820A1215D3D004D003D00269
:03169A000C80C8F9
:0C169D00AA82BA0A35780FE275F007A4A3
:0A16A90024B7FBE434F2FC8B828CC2
:0E16B30083A3A3E0FBA3E0FCC002C003C004BD
:0A16C10074D1C0E07416C0E0C0034D
:0616CB00C00475820D222F
:0616D100D004D003D0029A
:0A16D700780FE275F007A424B7FBBA
:0C16E100E434F2FC8B828C83A3A3E0FBBA
:0C16ED00A3E0FCC003C0047403C0E07460
:0A16F90017C0E0C003C0048A82227B
:05170300D004D0032218
:0A170800780FE275F007A424B7FA89
:0C171200E434F2FB8A828B83A3A3A3A320
:0E171E00E0FAA3E0FB4A600FC002C0038A821B
:09172C008B8312008BD003D00264
:011735002291
:06173600C2AF780FE2FAD9
:0B173C00EA75F007A424B7F582E4343E
:0C174700F2F583E0FBA3E0FCC0028B8203
:0E1753008C8312008BAB82AC83D002BBFF1ED6
:0C176100BCFF1B0A7810E2B502027A00FF
:0C176D00780FE2B502C990F2C5C002126C
:061779001C63D00280BDDC
:09177F00780FEAF2D2AF8B82224E
:0A178800780FE275F007A424B7FA09
:0C179200E434F2FB74062AF582E43BF517
:05179E0083E0F582224A
:0A17A300C04E85814EAA82AB837808
:0C17AD0010E2B4020E758207C002C003F7
:0717B9001215F1D003D0026C
:0A17C0007810E275F007A4FC24B7CE
:0C17CA00F582E434F2F583EAF0A3EBF0C2
:0A17D600EC24B7FCE434F2FA8C8234
:0C17E0008A83A3A3E54E24FCF8E6F0A3E6
:0C17EC0008E6F08C828A83A3A3A3A3E587
:0C17F8004E24FAF8E6F0A308E6F07406B0
:0C1804002CF582E43AF5837401F07810B2
:0A181000E2FA781004F28A82D04E4A
:01181A0022AB
:0A181B00C04E85814EAA82AB83AC5B
:0C182500F0FDE54E24FAF8E6C0E008E60D
:0C183100C0E0E54E24FCF8E6C0E008E64C
:0E183D00C0E08A828B838CF0ED12669FE581FD
:07184B0024FCF581D04E22C0
:0A185200C04E85814EAA82AB83AC24
:0C185C00F0FDE54E24FAF8E6C0E008E6D6
:0C186800C0E0E54E24FCF8E6C0E008E615
:0E187400C0E08A828B838CF0ED1265D9E5818D
:0718820024FCF581D04E2289
:0A188900C04EE581F54E2405F581FF
:091893001204587807E260030218
:02189C00194EE3
:05189E00A84E087600D1
:0A18A3007800E2FB08E2FC7D00A8DB
:0C18AD004E0808080808A60518A6041834
:0C18B900A603187600A84E0886077A00E7
:0C18C5007B007C00A84E0808EF26FFEA1C
:0E18D1000836FAEB0836FBEC0836FC7408C04B
:0A18DF00E0E4C0E074C6C0E074F25B
:0E18E900C0E08F828A838BF0EC12181BAA825B
:0C18F700E58124FCF581EA603CA84E0865
:0D19030086027B008A828B831203587A00D3
:03191000BA080012
:0E1913005021758220C00212169DD002EA24D7
:0A192100C6F582E434F2F583E0F528
:0B192B0082C00212036ED0020A80DAB4
:0619360075820A12169DE5
:08193C00A84E08B6F802800A6B
:0A194400A84E08740826F60218A346
:06194E00854E81D04E22FF
:091954001204587807E260012238
:0C195D007800E2FA08E2FB7C008C058BAD
:0D196900048A037A008A828B838CF0ED02E1
:021976006744C4
:071978001203A29077661232
:07197F000569E582700122F9
:081986007A007B007C007D006B
:0C198E0078E4C3E2F5F0EA95F008E2F519
:0E199A00F0EB95F008E2F5F0EC95F008E2F5C0
:0E19A800F0ED95F0502D8A828B838CF0EDC00F
:0E19B60002C003C004C005126744D005D0046F
:0C19C400D003D00278E0E22AFA08E23BEF
:0B19D000FB08E23CFC08E23DFD80B398
:0119DB0022E9
:0C19DC0012634378DCE2FA08E2FB08E248
:0D19E800FC08E2FDC002C003C004C005748D
:0A19F5006BC0E07477C0E07480C09E
:0C19FF00E0126AE8E58124F9F58178E047
:0E1A0B00E2FA08E2FB08E2FC08E2FDC002C0BD
:0A1A190003C004C005747EC0E07431
:0C1A230077C0E07480C0E0126AE8E58142
:071A2F0024F9F5810267A50F
:071A3600126855907797023A
:021A3D00077030
:05776600446F497400AE
:0E776B0053746F726167652073697A653A2006
:05777900256C640A000C
:0E777E0053746F7261676520657261736520D8
:0B778C00756E69743A20256C640A00D9
:02779700DC19FB
:02779900AB77CC
:02779B0089184B
:02779D00BA77B9
:02779F0054197B
:0277A100CF77A0
:0277A300781953
:0677A500E7770000000080
:0E77AB00660053686F772073746F72616765B4
:0177B90000CF
:0E77BA0065203C626C6F636B3E0044756D7021
:0777C80020666C617368008C
:0E77CF007A203C626C6F636B3E004572617302
:0A77DD0065203C626C6F636B3E0098
:0E77E7005A203C6B65793E0045726173652047
:0E77F500616C6C2E203C6B65793E2069732020
:0E780300646F69742077697468204426490018
:0A1A3F00C04E85814EAA82AB83746D
:0C1A490010B50D0E758201C002C0031222
:061A550015F1D003D002E0
:021A5B007C010C
:051A5D00EC60347D0087
:0A1A6200C3ED950D5023ED2D244631
:0C1A6C00F582E434F3F583E0FEA3E0FF14
:0E1A78008E828F83A3A3A3A3A3E0FEB5040276
:021A86008003DB
:031A88000D80D7F7
:061A8B00EDB50D02800321
:031A91000C80C9FD
:0E1A94008A828B83A3A3A3A3A3ECF074062A7B
:0C1AA200F582E43BF583E54E24FAF8E6FB
:0E1AAE00F0A308E6F08A828B83E4F0A3F074C4
:0C1ABC00082AFCE43BFDE54E24FCF88603
:0E1AC80006088607C002C0038E028C828D8342
:0E1AD600EAF0A3AC82AD838F068C828D83EE86
:0E1AE400F0A3E4F0A37480F0A3AC82AD83D035
:051AF20003D0027E0D8F
:0E1AF7008C828D83E4F0A3AC82AD83DEF38A93
:0C1B0500828B83A3A3A3A37411F0D21061
:051B110010AF02C2103C
:051B1600E50D250D2482
:0A1B1B0046F582E434F3F583EAF0A6
:0A1B2500A3EBF0050DA21092AFD063
:021B2F004E2244
:0E1B3100C0E0C0A8C082C083C0F0C002C003E4
:0E1B3F00C004C005C006C007C000C001C0D071
:0A1B4D0075D000C04E74FFB51007FC
:071B5700E50D14F510802CD0
:0A1B5E00E5812471FA850E82850FDF
:0C1B680083A3A3A3A3EAF07408250EFBDE
:061B7400E4350FFC78903F
:0E1B7A008605088B828C83EDF0A3AB82AC83D2
:021B8800DAF091
:0B1B8A0075818FE5116004D2AF80026E
:021B9500C2AFDD
:021B9700AA1092
:051B99000510E50DB58B
:051B9E001003751000AA
:051BA300E510251024EF
:0A1BA80046F582E434F3F583E0F51E
:061BB2000EA3E0F50F8513
:0A1BB8000E82850F83E0FBA3E0FC22
:081BC200BB0005BC00028044D9
:0A1BCA00850E82850F83A3A3E0FBC4
:0E1BD400A3E0FC4B6022C0021251C6AB82ACF3
:0A1BE20083D002850E82850F83A3D5
:0E1BEC00A3E0FDA3E0FEEBC39DFBEC9EFC30EE
:021BFA00E712F0
:0A1BFC00EAB51099E5117095D2AF1B
:081C0600758701C2AF021B99B2
:0A1C0E00850E82850F83A3A3A3A314
:0C1C1800E0FA748F2AF5817408250EFB99
:061C2400E4350FFC78908E
:0E1C2A008B828C83E0FDA3AB82AC83A6050801
:0C1C3800DAF0D04ED0D0D001D000D007A0
:0E1C4400D006D005D004D003D002D0F0D0835B
:0C1C5200D082D0E020E705C2AF021C6089
:021C5E00D2AF03
:031C6000D0E022AF
:0A1C6300AA82AB83850E82850F83F1
:0C1C6D00EAF0A3EBF0121B31850E82851B
:0B1C79000F83E0FAA3E0FB4A601A852D
:0A1C84000E82850F83E4F0A3F085C3
:0A1C8E000E82850F83A3A3E4F0A3E8
:051C9800F0758201223D
:041C9D00758200222A
:061CA100AA82AB837C0067
:0A1CA700C3EC950D502CEC2C2446E4
:0C1CB100F582E434F3F583E0FDA3E0FECF
:0E1CBD008D828E83E0FFA3E0F8EFB5020CE805
:0B1CCB00B503088D828E83E4F0A3F0C7
:031CD6000C80CEB1
:011CD90022E8
:0A1CDA00AA82AB83E51245136049AE
:0A1CE4007402250EFCE4350FFDC06C
:0E1CEE0002C003C004C0051251C6E582858302
:0C1CFC00F0D005D004D003D0022512FE69
:0A1D0800E51335F0FF0EBE00010FD9
:0E1D12008C828D83EEF0A3EFF0EE4F700E8505
:0A1D20000E82850F83A3A37401F067
:031D2A00A3E4F03F
:0C1D2D008A828B83121C63AA82E5124597
:071D390013600C850E82858A
:081D40000F83A3A3E4F0A3F05C
:031D48008A82226A
:0B1D4B00AA82AB83EA4B70037A01FB15
:051D56008A128B1390BE
:051D5B00F366021CDA32
:071D6000C2AF150DAA1075BA
:021D670010FF6B
:0A1D6900C3EA950D5029EA2A24462A
:0B1D7300FBE434F3FCEA04FD25E0244F
:0A1D7E0046F582E434F3F583E0FE3D
:0E1D8800A3E0FF8B828C83EEF0A3EFF08D02C0
:021D960080D1FA
:061D9800E4F50EF50F0258
:021D9E001B31F7
:071DA0007510FFE4F50EF5DC
:041DA7000F021B31DB
:071DAB001223F77811E4F2A6
:0C1DB200122311E58260F97811C3E2F5FC
:0C1DBE00F0740795F040ED7811E275F02C
:061DCA0003A4901DD0737C
:071DD000021DE80221C70219
:061DD7001ED9021F60028C
:061DDD001FD3021FF702F4
:051DE30020DC02212BB1
:0E1DE80090F1B7E0FAA3E0FB4A7003021E7A06
:0E1DF60090F1C4E0FCA3E0FD4C7003021E7AE5
:0C1E0400C004C0057827E2FE08E2A2E757
:0E1E100013CE13CEA2E713CE13CEFFEAC39E6D
:0C1E1E00FCEB9FFD7825C3E29C08E26409
:0E1E2A00808DF063F08095F0D005D00440422A
:0C1E3800EE2CFCEF3DFD7825C3E2F5F038
:0E1E4400EC95F008E2F5F0ED648063F0809517
:0C1E5200F040257823C3E2941808E264F5
:0C1E5E0080947C40177823C3E2F5F074F8
:0E1E6A005895F008E2F5F0749B63F08095F057
:021E7800500A0E
:0A1E7A0078117409F21249A980479B
:0C1E84007816E27034EE2AFAEF3BFB788F
:0C1E900025C3E29A08E264808BF063F046
:0B1E9C008095F0501C78117402F212C7
:0C1EA70057C2758201123B1790006412B4
:0A1EB3003A56758201124744800E72
:0C1EBD0078117401F21249A9758201121B
:021EC90047448C
:0C1ECB007A117BFF8A828B83121CA1021B
:021ED7001DB23A
:0C1ED9007844C3E2F5F0741495F008E2C0
:0C1EE500F5F0748063F08095F0403478D4
:0C1EF10048C3E2F5F0744095F008E2F5FB
:0D1EFD00F0748163F08095F04003021DB287
:0C1F0A007846C3E2F5F0745095F008E250
:0E1F1600F5F0748063F08095F04003021DB278
:0A1F240078117403F27817E2FA084E
:0C1F2E00E2FB7812EAF208EBF2122EBB84
:0D1F3A0090000A123A56758200123B179073
:091F4700FB1A7403F090FB1A125E
:0B1F50001CA17A117BFF8A828B831298
:051F5B001CA1021DB2F3
:0C1F60007848C3E294D808E26480947FC3
:0C1F6C0050177844C3E2F5F0746495F05F
:0D1F780008E2F5F0748063F08095F04027DA
:0A1F850078177912E3F5F0C3E29536
:0E1F8F00F0FA09E3F5F008E295F0FBC374DC0C
:0D1F9D009A74858BF063F08095F04003028C
:021FAA001DB266
:091FAC0078117404F27848E2F5A2
:061FB5001A08E2F51B789A
:0B1FBB0014E22401F208E23400F27A84
:0B1FC600117BFF8A828B83121CA1029A
:021FD1001DB23F
:0C1FD3007846C3E2948008E26480948F9A
:051FDF00400302206236
:0A1FE40078117405F27A117BFF8A70
:091FEE00828B83121CA1021DB2BA
:0C1FF70090F1E9E0FAA3E0FB4A603578C5
:0A200300177912E3F5F0C3E295F03F
:0C200D00FC09E3F5F008E295F0FD8A7094
:0C2019008B71900064C004C00512694B7C
:0E202500AA82AB83D005D004C3EC9AED9B5089
:0420330003021DB2D5
:0C2037007847E230E725758200124485EE
:0D204300900064123A56758201123B177826
:0A205000117406F27A117BFF8A82F8
:08205A008B83121CA1021DB2D0
:0A206200AA1AE51BA2E7CA33CA332D
:0E206C00A2E7CA33CA33CA540330E10244FC6F
:0A207A00FBE51AC39AFAE51B9BFB75
:0C2084007848E2FC08E2A2E7CC33CC3341
:0E209000A2E7CC33CC33CC540330E10244FC45
:0A209E00FDEC2AF51AED3BF51BC31B
:0A20A8007440951A7481851BF063E3
:0920B200F08095F04003021DB21C
:0A20BB007817E2FA08E2FB7812EA57
:0A20C500F208EBF278117403F27ACE
:0B20CF00117BFF8A828B83121CA10290
:0220DA001DB235
:0C20DC0090F1B5E0FAA3E0FB7844E2FCD0
:0D20E80008E2FDC3EA9CEB9D5003021DB20F
:0C20F5007582011244857817E224E8F59A
:082101001408E23403F5159007
:0A210900F3E0E0FAA3E0FB8A188B74
:04211300198A168B84
:072117001778117407F27A3A
:0B211E00117BFF8A828B83121CA10240
:022129001DB2E5
:0C212B0090F3E0E0FAA3E0FBC3EA951695
:0C213700EB64808517F063F08095F05099
:05214300048A168B1751
:0C21480090F3E0E0FAA3E0FBC3E5189A76
:0C215400E51964808BF063F08095F0507A
:05216000048A188B1930
:0A2165007817E2C39514FA08E2951A
:08216F0015FB30E703021DB26D
:07217700E518C39516FAE517
:0A217E00199517FBC374049A7480CE
:0C2188008BF063F08095F0401678117425
:0C21940008F275820012522C7A117BFFB9
:0721A0008A828B83121CA14F
:0B21A70090F3E0E0FAA3E0FB8A188B45
:0421B200198A168BE5
:0721B600177817E224E8F599
:0821BD001408E23403F51502D9
:0221C5001DB249
:0321C700021DB244
:0921CA007811E4F27411C0E07414
:0821D30078C0E074ABC0E074B9
:0721DB001DC0E090F3671244
:0921E2001A3FE58124FCF581227D
:07781100666C6967687400F2
:0C21EB00781FE2FA08E2FBE23395E0FC0A
:0C21F700FD7834E22AF208E23BF208E234
:0C2203003CF208E23DF27819E2FA08E231
:0C220F00FBE23395E0FCFD7830E22AF29F
:0D221B0008E23BF208E23CF208E23DF278F6
:0B2228002EE22401F208E23400F22252
:0C2233007837E23395E0E2A2E71318E2EE
:0C223F0013FB18E2137825F208EBF2788C
:0A224B0034E4F208F208F208F27819
:0C22550033E23395E0E2A2E71318E21335
:0C226100FB18E213FA7821F208EBF28A75
:0C226D00828B83121261E5828583F07879
:0A22790023F208E5F0F27830E4F2F9
:0C22830008F208F208F2782EE4F208F2EB
:01228F00222C
:0C229000782EC308E2940250030221EBF8
:0E229C0090F1C4E0FAA3E0FB90F1B7E0FCA3E0
:0C22AA00E0FDEAC39CFAEB9DFB7827EAFC
:0A22B600F208EBF28A70EBF57133C9
:0A22C00095E0F572F57390D01475E7
:0E22CA00F0397401126A23AA82AB83ACF0FDD6
:0C22D8007829EAF208EBF208ECF208EDBD
:0922E400F2122233782DE4F222FB
:0C22ED00782EC308E2940250030221EB9B
:0A22F900782EC308E29404500C781C
:0B2303002EE22401F208E23400F22276
:03230E0002223375
:0C2311007A1C7BFF8A828B83121CA17A4D
:0A231D001E7BFF8A828B83121C6373
:06232700E51EB51C0302D7
:02232D0023EC9F
:0A232F00E51C75F00EA42481FA7479
:0C233900F535F0FB8A828B83E0FCA3E00A
:0C234500FD7817ECF208EDF274022AFC9F
:0E235100E43BFD8C828D83A3A3E0FCA3E0FDA2
:0C235F007819ECF208EDF28C828D83C03E
:0E236B0002C003121261AC82AD83D003D00217
:0A237900781BECF208EDF27823D394
:0C238300E29CF4B3FCB308E29DF4FD788A
:0C238F001DECF208EDF274022AFAE43BA7
:0C239B00FB8A828B83E0FCA3E0FD781F2E
:0C23A700ECF208EDF290F1CFE0600C7851
:0B23B3001F74FFC39CF2747F9D08F2B2
:0C23BE008A828B83781FE2F0A308E2F013
:0A23CA00782DE26005122290800ECB
:0623D4007811E2B40300E1
:0523DA0050031222ED8A
:0323DF001227F7CB
:0823E200E51C04541FF51C0268
:0223EA002327A7
:0623EC00782DE2B40100AF
:0523F200E433F5822236
:0A23F700120ABF782EE4F208F27813
:0A24010030E4F208F208F208F27865
:0A240B0019E4F208F27834E4F20854
:0C241500F208F208F2781FE4F208F285E9
:032421001E1C7806
:052424002D7401F222FD
:082429007846E2F57008E2F5C7
:0824310071E23395E0F572F54C
:0C2439007390028FE4F5F01269B5858203
:062445002385832485F0CD
:04244B0025F52678D5
:07244F0048E2F52708E2F561
:0824560028E23395E0F529F5B9
:03245E002A8527A5
:032461007085285B
:0324640071852956
:0324670072852A51
:0C246A0073900003E4F5F01269B5AC8239
:0B247600AD83AAF0FBEC2523FCED3544
:0824810024FDEA3525FAEB35D4
:0C24890026FBEDC4CCC4540F6CCC540FE7
:0E249500CC6CCCFDEAC454F04DFDEBC4CAC4BF
:0E24A300540F6ACA540FCA6ACA30E30244F0EA
:0C24B100FB7838E22CF208E23DF208E271
:0A24BD003AF208E23BF28527708531
:0324C700287185F4
:0324CA00297285EF
:0924CD002A7390028FE4F5F0126D
:0C24D60069B5AA82AB83ACF0FD783CE253
:0E24E2002AF208E23BF208E23CF208E23DF288
:0124F00022C9
:0A24F100783AE2FA08E2FB781DE2F7
:0C24FB00C39AFA08E29BFB784EEAF20854
:08250700EBF27811E2B40600CA
:03250F0040012266
:0C251200781BE22420FA08E234D1FB78A8
:0C251E0046E22480FC08E234F0FDC423F7
:0E252A00CCC423541F6CCC541FCC6CCC30E4BA
:032538000244E07A
:0E253B00FDC374A09C74808DF063F08095F059
:0625490050047CA07D009F
:0E254F00C3EA9CEB64808DF063F08095F05041
:05255D00048C028D0357
:0E256200C3E49A74808BF063F08095F0504BC8
:0E257000C3E49A74818BF063F08095F0500400
:04257E007A007B0163
:0C258200784EE2FC08E2FDE23395E0FE3A
:0C258E00FFE4C39AFA74019BFB8A70EB17
:08259A00F5713395E0F572F5CF
:0C25A200738C828D838EF0EF1269B5AA55
:0C25AE0082AB83ACF0FD784EEBF208EC41
:0125BA00F22E
:0125BB0022FD
:0725BC001224F1784EE2F554
:0A25C3002B08E2F52CE23395E0F559
:0425CD002DF52E8535
:0325D1002B7085E7
:0325D4002C7185E2
:0325D7002D7285DD
:0925DA002E73900789E4F5F0125C
:0C25E30069B5AE82AF83AAF0FB7838E245
:0E25EF002EF208E23FF208E23AF208E23BF276
:0425FD00852B708535
:032601002C7185B4
:032604002D7285AF
:092607002E7390B40FE4F5F012FB
:0C26100069B5AA82AB83ACF0FD783CE217
:0E261C002AF208E23BF208E23CF208E23DF24C
:04262A00852B708507
:03262E002C718587
:032631002D728582
:092634002E73908682E4F5F01289
:0C263D0069B5AA82AB83ACF0FD7840E2E6
:0E2649002AF208E23BF208E23CF208E23DF21F
:012657002260
:0C26580090F1B7E0FAA3E0FB781FD3E29A
:0E2664009AF4B3FAB308E29BF4FB3395E0FC62
:09267200FD7829E2F57008E2F59B
:08267B007108E2F57208E2F5B6
:0C268300738A828B838CF0ED1269B5AA7B
:0C268F0082AB83ACF0FD7840D3E29AF4FB
:0E269B00B3B308E29BF4B3B308E29CF4B3FCC3
:0C26A900B308E29DF4FD7850ECF208ED5F
:0226B500F2220F
:0726B7001224F112265878ED
:0726BE004EE2F52F08E2F5E2
:0826C50030E23395E0F531F538
:0326CD0032852F24
:0326D000708530E2
:0326D300718531DD
:0326D600728532D8
:0C26D9007390028BE4F5F01269B5858265
:0626E5003385833485F00B
:0426EB0035F5367813
:0726EF0050E2F53708E2F5A7
:0826F60038E23395E0F539F5F7
:0326FE003A8537E3
:03270100708538A8
:03270400718539A3
:0327070072853A9E
:0C270A0073900005E4F5F01269B5AE8292
:0B271600AF83AAF0FBEE2533FEEF3589
:0827210034FFEA3535FAEB350F
:0A27290036FB7838E22EF208E23F9A
:0B273300F208E23AF208E23BF2852FC8
:03273E0070853073
:032741007185316E
:0327440072853269
:0C27470073901460E4F5F01269B585820F
:062753003385833485F09C
:0427590035F5368597
:03275D003770854D
:0327600038718548
:0327630039728543
:092766003A73900274E4F5F012DC
:0C276F0069B5AE82AF83AAF0FBEE253303
:0A277B00FEEF3534FFEA3535FAEBC6
:0A2785003536FB783CE22EF208E244
:0C278F003FF208E23AF208E23BF2852F2C
:03279B0070853016
:03279E0071853111
:0327A1007285320C
:0C27A4007390014AE4F5F01269B58582DB
:0627B0003385833485F03F
:0427B60035F536853A
:0327BA00377085F0
:0327BD00387185EB
:0327C000397285E6
:0927C3003A73901082E4F5F01263
:0C27CC0069B5AE82AF83AAF0FBEE2533A6
:0A27D800FEEF3534FFEA3535FAEB69
:0A27E2003536FB7840E22EF208E2E3
:0B27EC003FF208E23AF208E23BF22262
:0C27F7001224297811C3E2F5F074059556
:08280300F040051226B7800326
:03280B001225BCD7
:0A280E00783AE2FA08E2FB7844EAA7
:0A281800F208EBF2783C794608085C
:0A282200E2F308E209F37840794878
:0E282C000808E2F308E209F390F3DEE0FCA3F3
:0C283A00E0FD7844C3E2F5F0EC95F008F6
:0E284600E2F5F0ED648063F08095F0500890AC
:07285400F3DEEAF0A3EBF054
:0E285B0090F3E0E0FAA3E0FB3395E0FCFD789B
:0A2869004AE2C39AF53B08E29BF532
:0A2873003C08E29CF53D08E29DF5EB
:0A287D003E781DE2FE08E2FFE233A0
:0A28870095E0FAFBEE253BFEEF356D
:082891003CFFEA353DFAEB358E
:0A2899003EFB784AEEF208EFF20869
:0C28A300EAF208EBF2784AE2243FFA085F
:0E28AF00E23400FB08E23400FC08E23400FDD5
:0E28BD00EBA2E7CA33CA33CA5401FBEC2C4B22
:0E28CB00FBEDA2E7CC33CC33CC540130E0025D
:0228D90044FEBB
:0928DB0090F3E0EAF0A3EBF02217
:0328E40002673553
:0E28E700E58275F003A42480FAE435F0FB339B
:0A28F50095E0FC8A828B838CF022B0
:0E28FF00AA8290F3E6E4F090F3E4E0FBA3E09D
:0E290D00FC90F3E7EBF0A3ECF08A821228E7CF
:0C291B00AA82AB83ACF0FD78E4E22AFA5B
:0E29270008E23BFB08E23CFC08E23DFD7403C5
:0A293500C0E0E4C0E074E6C0E07406
:0B293F00F3C0E08A828B838CF0ED1265
:0B294A001852E58124FCF5810267357E
:0C2955001228E7AA82AB83ACF0FD78E406
:0E296100E22AFA08E23BFB08E23CFC08E23DF9
:0C296F00FD7403C0E0E4C0E074E6C0E0CA
:0C297B0074F3C0E08A828B838CF0ED12B4
:09298700181BE58124FCF58122F6
:042990007A007B004E
:03299400BB100075
:0E299700503A8B82C002C003122955D003D0E3
:0E29A5000290F3E6E0FC701990F3E7E0FDA36A
:0E29B300E0FE90F3E4E0FFA3E0F8EDB50705C9
:0529C100EEB50001224B
:0829C600EC60058A820228FF83
:0529CE000B8B0280C12B
:0329D3000208E611
:0829D600AA82AB837C5A7D004C
:0329DE00BD080031
:0E29E10050118A828B83E0FEA3AA82AB83EEA4
:0529EF002CFC0D80EA44
:0629F400C3E49CF5822201
:0E29FA00AA82AB837C0074012AFDE43BFE8DB3
:0E2A0800828E83E4F08A828B83C002C003C0FA
:0E2A160004C005C0061229D6AF82D006D00536
:0E2A24008D828E83EFF090F3E2121531D00414
:0A2A3200D003D00278527956C3E3B6
:0E2A3C00F5F0E295F009E3F5F008E295F009F7
:0E2A4A00E3F5F008E295F009E3F5F008E295F7
:0E2A5800F0401690F3E3E0FD600FC002C003F3
:0B2A6600C004122EC7D004D003D00221
:0E2A710090F3E3E0FD603E7C01C0047408C0F9
:0C2A7F00E0E4C0E0C002C0037852E2F5C1
:0E2A8B008208E2F58308E2F5F008E212185224
:0C2A9900E58124FCF581D0047852E22491
:0E2AA50008F208E23400F208E23400F208E21F
:032AB3003400F2FA
:0D2AB60090F3E2C00412158FD0048C822230
:0E2AC30090F3E91229D6E582600475820022A4
:042AD10075820122E7
:082AD5007AE97BF37C007D002F
:032ADD00BD080031
:0E2AE000501B8A828B838CF01270AEFEA3AA6C
:082AEE0082AB83BEFF028004ED
:042AF60075820022C3
:032AFA000D80E06C
:042AFD0075820122BB
:0E2B0100AA82C002122BACAB82AC83ADF0FEF8
:0C2B0F007408C0E0E4C0E074E9C0E074A9
:0B2B1B00F3C0E08B828C838DF0EE1283
:0E2B2600181BAB82E58124FCF581D002EB7018
:092B3400128A03FC0BBB00010C2A
:0A2B3D00C3E49BF582E49CF58322BB
:0E2B4700C002122AD5E582D002600490000080
:012B5500225D
:0E2B5600C002122AC3E582D002600A90F3E9A1
:072B6400E0FBBB46028011FB
:072B6B007B000ABA00010B18
:0A2B7200C3E49AF582E49BF5832288
:0C2B7C0090F3EFE0FAA3E08A82F58322D8
:092B880090F1CAE0F570A3E0F53C
:082B910071A3E0F572A3E0F569
:0A2B99007378E4E2F58208E2F583A8
:092BA30008E2F5F008E20268E620
:0B2BAC00AA8290F1CAE0F570A3E0F5EA
:082BB70071A3E0F572A3E0F543
:0C2BBF00737B007C007D008A828B838C7D
:052BCB00F0ED0269B508
:0E2BD0007A007B00C002C003122B88AC82D0BA
:052BDE0003D0027D00A0
:0E2BE300C3ED9C50418D82C002C003C004C0EF
:0E2BF10005122B01AE82AF83D005D004D003B5
:0E2BFF00D002C3E49E74808FF063F08095F0E6
:0E2C0D005017EA4B600FC3EA9EEB64808FF015
:072C1B0063F08095F0500406
:042C22008E028F038C
:032C26000D80BA64
:052C29008A828B83226A
:0A2C2E00C04EE581F54E2404F58147
:0E2C3800AA82C002122990D0028A82122BAC0E
:0C2C4600AA82AB83ACF0FDA84E08A602E9
:0E2C520008A60308A60408A60590F1CAE0FE35
:0C2C6000A3E0FFA3E0FAA3E0FBA84E08ED
:0E2C6C00EE26FEEF0836FFEA0836FAEB0836D1
:052C7A00FB8E048F0534
:0C2C7F00A84E08C3E69C08E69D08E69AF3
:082C8B0008E69B4003022D4204
:022C93007E00C1
:032C9500BE10006E
:0E2C98005069C004C005C002C0038E077A0058
:0C2CA6007B007C00A84E08EF26FFEA0827
:0E2CB20036FAEB0836FBEC0836FCC003C00413
:0C2CC000C005C0067401C0E0E4C0E07470
:0A2CCC00F1C0E074F3C0E08F828ACB
:0E2CD600838BF0EC12181BAA82E58124FCF51A
:0E2CE40081D006D005D004D003EAD003D00280
:0E2CF200D005D004600890F3F1E0FFBFFF03AF
:032D00000E8092B0
:052D0300BE1002803A41
:0C2D0800A84E0886820886830886F00822
:0E2D1400E6C002C003C004C005126744D0052B
:0A2D2200D004D003D002A84E0879B7
:0C2D2C00E0E326F609E30836F609E308A8
:0A2D380036F609E30836F6022C7F98
:062D4200854E81D04E22F7
:022D48007A10FF
:0E2D4A008A031AEB60478A82C002122955D014
:0E2D58000290F3E6E070EB90F3E4E0FAA3E003
:0E2D6600FB4A601D90F3E7E0FCA3E0FDECC328
:0E2D74009AFAED9BFBC3E49A74808BF063F037
:052D82008095F05010E7
:0E2D870090F3E7E0FAA3E0FB90F3E4EAF0A398
:022D9500EBF061
:0E2D970090F3E4E0FAA3E0FB4A700990F3E445
:062DA5007401F0E4A3F04C
:012DAB002205
:0A2DAC00C04EE581F54E2404F581C8
:0B2DB600120ABF122BD0AA82AB839040
:0E2DC100F3E4EAF0A3EBF0EA4B60240ABA0058
:022DCF00010BF6
:0E2DD10090F3E4EAF0A3EBF0C3E49A74808B75
:0E2DDF00F063F08095F0400990F3E47401F089
:032DED00E4A3F06C
:0C2DF000122D487856E4F208F208F208B0
:0C2DFC00F27852E4F208F208F208F21239
:0E2E08002B88AA8290F3E4E0FBA3E0FC1BBB46
:032E1600FF011C9D
:0A2E19008A707571008B828C83C0F3
:0A2E2300021270CAAB82D0028B04C9
:0E2E2D008C82C002C003C004122B01E5828516
:0E2E3B0083F0D004D003D00245F070548C8296
:0C2E4900122BACAA82AB83ACF0FD7852D7
:0E2E5500EAF208EBF208ECF208EDF290F1CA96
:0C2E6300A84E08E0F6A3E008F6A3E00883
:0C2E6F00F6A3E008F6A84E08E62AF608D4
:0C2E7B00E63BF608E63CF608E63DF6A84B
:0A2E87004E087956E6F30809E6F359
:0A2E91000809E6F30809E6F38011D2
:082E9B000CC3EC9A40027C001C
:062EA300ECB50302800300
:032EA900022E2DC9
:0A2EAC0090F3E4121CA1758200856A
:052EB6004E81D04E2208
:0A2EBB0090F3E37401F090F3E302DA
:022EC5001CA14E
:082EC70090F3E3E4F00228E4BB
:0E2ECF00122BD0AA82AB83E4BA0004BB000130
:012EDD0004F0
:042EDE00FAB4010041
:052EE200E433F582223B
:0A2EE70078527956E2F5F0E3B5F0F9
:0E2EF1001F08E2F5F009E3B5F01608E2F5F06F
:0E2EFF0009E3B5F00D08E2F5F009E3B5F004C3
:042F0D0074018001CA
:012F1100E4DB
:032F1200F5822223
:0A2F1500C04E85814E05810581053F
:0B2F1F0081122B88AA82A84E087600C1
:0B2F2A00A84E08C3E69A4003022FB82F
:0C2F3500A84E088682C002122B01AC825C
:0C2F4100AD83D002A84E0808A60408A624
:0C2F4D0005A84E0808E60846605AC002BD
:0C2F5900A84E08E604F582122BACAF83F2
:0C2F6500AAF08F068A07A84E088682C0DA
:0E2F710006C007122BACAC83ADF0D007D00623
:0E2F7F008C028D04C002C006C007C002C00450
:0C2F8D00A84E0808E6C0E008E6C0E074AA
:0A2F990018C0E07478C0E07480C036
:0E2FA300E0126AE8E58124F7F581D002D00241
:072FB100A84E0806022F2ABA
:0A2FB8007433C0E07478C0E0748048
:0C2FC200C0E0126AE815811581158185B8
:052FCE004E81D04E22EF
:0E2FD3007A017B00C002C0031203A2D003D01B
:0C2FE100027806E2B42D0F7AFF7BFFC0DF
:0A2FED0002C0031202B9D003D002A3
:0C2FF700C002C0031204B1D003D0027865
:0530030007E26001225C
:083008007800E2F57008E2F522
:0C301000718A828B8312694BAC82AD8305
:0E301C008C028D03C002C003122B88AC82D040
:0B302A0003D002EA4B60477D007E00EF
:0E303500C3EE9C503EC0058E82C002C003C098
:0E30430004C006122B01AF82AD83D006D0046C
:0E305100D003D002EFB50206EDB503028004F5
:04305F00D005801008
:0E306300D0058D82122C2E90783975F08002E7
:023071006A757E
:053073000E8E0580BD7A
:0A307800C002C0037440C0E0747889
:0E308200C0E07480C0E0126AE8E58124FBF52E
:0230900081229B
:0B30920090F3E3E4F0785E7409F29024
:06309D0078541207707464
:0830A30060C0E07478C0E07425
:0830AB00BFC0E07430C0E090EA
:0C30B300F3F2121A3FE58124FCF58122A3
:0E781800666C69676874202564207374617261
:0D7826007420257820656E642025780A0006
:06783300646F6E650A009F
:0778390045726173656400F4
:0E7840004E6F207375636820666C696768740C
:06784E003A2025640A0047
:02785400152FEE
:02785600647854
:02785800D32F2C
:06785A0070780000000040
:047860006C6F6700E2
:0C7864006C004C697374206C6F6773003B
:0E78700064203C666C696768742D6E756D62ED
:0E787E0065723E0044656C65746520666C6939
:04788C0067687400B5
:0630BF00126343122DAC68
:0B30C50090F3E3E0FA700890F3E312D0
:0430D0001C6380F10C
:0A30D40090F3E97446F090F3EB78F6
:0B30DE0017E2F0A308E2F090F3ED7899
:0C30E90025E2F0A308E2F090F3E4E0FA26
:0E30F500A3E0FB90F3EFEAF0A3EBF090F3E919
:093103001229FAE51C04541FF521
:0A310C001D75F00EA42481F58274F5
:0C311600F535F0F583E0FAA3E0FB8A0435
:063122008B05785EE4F26B
:06312800E51CB51D0302C9
:02312E0032F07D
:0C313000C002C003E51D75F00EA4FEAF48
:0A313C00F02481F582EF34F5F583ED
:0E314600E0FAA3E0FB90F3EBEAF0A3EBF090CD
:0E315400F3EBE0FAA3E0FBEAC39CEB9DD00393
:08316200D00230E7030231EF57
:0C316A00C002C00390F3E97441F0EE24B1
:0A31760081FAEF34F5FB8A828B83A7
:0E318000A3A3E0FAA3E0FB90F3EDEAF0A3EBCB
:0A318E00F0EE2481FEEF34F5FF742B
:0E319800022EFEE43FFF8E828F83A3A3E0FA97
:0E31A600A3E0FB90F3EFEAF0A3EBF090F3E967
:0C31B400C002C0031229FAD003D0027838
:0C31C0005EC3E2F5F0740595F0D003D07A
:0E31CC0002401190F3EBE0FEA3E0FF74012E31
:0631DA00FCE43FFD800F44
:0E31E00090F3EBE0FEA3E0FF740A2EFCE43F48
:0131EE00FDE3
:0E31EF0090F3EBE0FEA3E0FFEEC39AFEEF9B31
:0731FD00FF30E7030232E698
:0C320400C004C00590F3E97454F0E51D0F
:0C32100075F00EA4FEAFF02481FCEF343A
:0C321C00F5FD74022CFCE43DFD8C828D5D
:0E32280083A3A3A3A3E0FCA3E0FD90F3EDECD1
:0A323600F0A3EDF0EE2481FEEF346A
:0C324000F5FF74022EFEE43FFF74062E22
:0E324C00F582E43FF583E0FCA3E0FD90F3EF94
:0D325A00ECF0A3EDF090F3E9C004C0051204
:0D32670029FAD005D00490F3E97444F0E595
:0A3274001D75F00EA4FCADF02481DE
:0C327E00FEED34F5FF74022EFEE43FFF6D
:0E328A0074082EF582E43FF583E0FEA3E0FF1A
:0C32980090F3EDEEF0A3EFF0EC2481FCCD
:0C32A400ED34F5FD74022CFCE43DFD74DB
:0E32B0000A2CF582E43DF583E0FCA3E0FD90DE
:0E32BE00F3EFECF0A3EDF090F3E9C004C005CF
:0E32CC001229FAD005D00490F3EBE0FCA3E049
:0C32DA00FD74202CFAE43DFBD005D0046C
:0832E600E51D04541FF51D0253
:0232EE00312885
:0A32F0007811795EE2F5F0E3B5F025
:0332FA00028058F7
:0832FD007811E2FE785EF29008
:09330500F3E97453F090F3EB7846
:0C330E0017E2F0A308E2F07F0090F3ED5E
:0D331A00EEF0A3EFF090F3EFE4F0A3F090DD
:0E332700F3E9C002C003C004C0051229FAD0A9
:0C33350005D004D003D002785EE2B4089A
:0E33410013C002C003C004C005122EC7D00581
:06334F00D004D003D002FF
:0E33550090000AC002C003C004C005121D4B48
:08336300D005D004D003D00214
:0A336B0090F3E3E0FE600302312856
:0E33750090F3E3C002C003C004C005121C6345
:0A338300D005D004D003D00280DE94
:0C338D007811E290789093FA74075AFBD4
:04339900EA700122B3
:0E339D008B041BEC604CEA30E31BC002C00343
:0E33AB007414C0E0E4C0E075825E123E561558
:0933B900811581D003D0028019B6
:0E33C200C002C0037406C0E0E4C0E075825E85
:0B33D000123E5615811581D003D0027B
:0E33DB00900006C002C003121D4BD003D002AA
:0633E900EAC313FA80AEF6
:0633EF00900024021D4BBA
:0E33F500E582FA70197432C0E0E4C0E075821F
:0E3403005E123E5615811581900014121D4B6D
:02341100802316
:0E3413008A031AEB601DC0027414C0E0E4C00E
:0E342100E075825E123E5615811581900014F2
:07342F00121D4BD00280DDED
:0634360090001E021D4B78
:0C343C00AA82E583FB30E7047A007B00E5
:023448007C0006
:0A344A008C050CED2469FDE434F458
:0A345400FE75700AE4F5718A828BA0
:0E345E0083C002C003C004C005C0061270CABD
:0E346C00AF82D006D005D004D003D0028D82EE
:0A347A008E83EFF075700AE4F5711F
:0E3484008A828B83C004127100AA82AB83D0AF
:0734920004EA4B70B38C0249
:0A3499001AEA2469F582E434F4F520
:0E34A30083E0F582C0021233F5D002EA70E831
:0134B10022F8
:0D34B20090F3DEE0FAA3E0FB8A828B830238
:0234BF00343C9B
:0C34C1001244A3AA82BA01047A0180021E
:0234CD007A0083
:0334CF008A8222CC
:0E34D2007582001234C1AA82758201C00212F6
:0C34E00034C1AB82D002EB2B4AF58222F3
:0834EC001234D2E582FA6023DC
:0E34F4008A031AEB604DC0027402C0E0E4C00F
:0E350200E075824B123E561581158190000A2D
:07351000121D4BD00280DD0B
:023517007A0533
:0E3519008A031AEB6028C0027402C0E0E4C00E
:0E352700E075824B123E56158115817402C06C
:0E353500E0E4C0E0758296123E5615811581C5
:04354300D00280D260
:0E354700122EE7E582605890000A121D4B7AA2
:013555000273
:0E3556008A031AEB604AC002740AC0E0E4C0A7
:0E356400E0758296123E5615811581740AC0DC
:0E357200E0E4C0E075825E123E5615811581C0
:0E358000740AC0E0E4C0E075824B123E56159E
:0E358E00811581740AC0E0E4C0E075825E120F
:0A359C003E5615811581D00280B063
:0135A6002202
:0735A7007811E2785FF212D7
:0935AE00338D785FE2B4080B12C2
:0A35B70034B29001F4121D4B80E6BF
:0935C100785FE2B401031234EC5E
:0B35CA007811E2B4021D1234EC7A32DA
:0C35D5008A031AEB60EF7811E2B402E9FF
:0C35E10090000AC002121D4BD00280E8CE
:0A35ED00785F7911E2F5F0E3B5F024
:0C35F700AF7A117BFF8A828B83121C6369
:0236030080E85D
:09360500749AC0E07478C0E0740E
:08360E00A7C0E07435C0E09094
:0C361600F473121A3FE58124FCF58122B8
:0A7890000302340C242C0B1A144CD4
:07789A007265706F7274004B
:0401B8007862E4F293
:0D3622007420C0E090F4EA124AED1581908A
:05362F000001021D4B2B
:0A363400E51C14541F75F00EA424C9
:0A363E0081FA74F535F0FB8A828BE7
:0E36480083E0FCA3E0FD90F4ECECF0A3EDF0C9
:0A36560090F4EE7401F090F4EF78A8
:0C36600011E2F08A828B83A3A3E0FCA39C
:0E366C00E0FD90F4F0ECF0A3EDF074022AFA09
:0E367A00E43BFB8A828B83A3A3E0FCA3E0FD6C
:0E36880090F4F2ECF0A3EDF08A828B83A3A302
:0E369600A3A3E0FCA3E0FD90F4F4ECF0A3EDA0
:0E36A400F074062AF582E43BF583E0FCA3E017
:0E36B200FD90F4F6ECF0A3EDF074082AF5821A
:0E36C000E43BF583E0FCA3E0FD90F4F8ECF0B1
:0E36CE00A3EDF0740A2AF582E43BF583E0FADE
:0E36DC00A3E0FB90F4FAEAF0A3EBF090F4FC0C
:0C36EA007848E2F0A308E2F090F4FE78CB
:0B36F60046E2F0A308E2F090F5007837
:0B37010044E2F0A308E2F090F502782B
:0B370C0021E2F0A308E2F090F5047841
:0C37170025E2F0A308E2F090F1B7E0FA20
:0E372300A3E0FB90F506EAF0A3EBF090F1C4F2
:0E373100E0FAA3E0FB90F508EAF0A3EBF0024B
:02373F00362230
:0A3741007866E214F27866C3E2F540
:0B374B00F0748063F08095F0500122C4
:0D37560090F4EE7404F090F4EF740BF0901A
:0B376300F4F07867E2F0A308E2F090B9
:0C376E00F4F27401F090F4F37417F09082
:0E377A00F1C3E0FA7B0090F4F4EAF0A3EBF068
:0E37880090F1B5E0FAA3E0FB90F4F6EAF0A3AE
:0E379600EBF090F1CAE0A3E0FBA3E0FCA3E09F
:0E37A400FD8B02ECC313CA13CAC313CA13CAA7
:0E37B200FBED030354C04BFBED0303543F90AB
:0C37C000F4F8EAF0A3EBF0740724B3F572
:0537CC0070E434F1F58A
:0637D10071757208E4F5B9
:0537D7007390F4FA12EA
:0537DC004FF77AA77B06
:0437E1007D8A708BE2
:0637E50071757208E4F5A5
:0537EB007390F50212CD
:0637F0004FF77865E27856
:0537F60066F20236221C
:0A37FB00786AE214F2786AC3E2F57E
:0E380500F0748063F08095F0403D90F4EE7416
:0B38130005F090FB1B1215317405241A
:05381E001CF570E4340C
:04382300FBF57175CB
:06382700721BE4F5739032
:06382D00F4EF124FF790CA
:0B383300F4EC7892E2F0A308E2F090C1
:06383E00FB1B12158F7840
:0638440069E2786AF2025D
:02384A00362224
:01384C002259
:0A384D00786BE214F2786BC3E2F529
:0E385700F0748063F08095F0403A90F4EE74C7
:0938650006F090FB1B12153190D6
:0A386E00FB41E090F4EFF074062433
:053878003CF570E43492
:04387D00FBF5717571
:063881007218E4F57390DB
:06388700F4F0124FF7906F
:06388D00FB1B12158F78F1
:0638930069E2786BF2020D
:023899003622D5
:01389B00220A
:0A389C00786DE214F2786DC3E2F5D6
:0E38A600F0748063F08095F0405090F4EE7462
:0E38B40007F090FA84E0FAA3E090F4EFEAF057
:0938C20090FA88E090F4F0F09017
:0838CB00FA89E090F4F1F0909D
:0638D300FAA21215317586
:0338D900708A757D
:0338DC0071FA90EE
:0B38DF00FA89E075F002A4F57285F094
:0538EA007390F4F212DE
:0638EF004FF790FAA2124F
:0638F500158F786CE278EB
:0538FB006DF20236220F
:0139000022A4
:0A390100120ABF90F1D4E070031227
:02390B001D603D
:0E390D0090F3E4E0FAA3E0FB4A700890F3E4C4
:05391B00121C6380EDA9
:0C3920007867EAF208EBF2122EE7E5826D
:08392C0060067867E4F208F27E
:0E3934009000A4E493FA740193FB90F4EAEA85
:04394200F0A3EBF013
:0C3946007860E2F5F008E245F0700890AF
:07395200F4EA121C6380ED92
:0C3959001251C6AA82AB837863EAF20820
:02396500EBF283
:0C3967007860E2F5F008E245F060D41250
:0A39730051C61251C6AC82AD837834
:0C397D0060E22CFA08E23DFBC002C0032F
:0C398900123634D003D0027891E2600BBB
:0B399500C002C00312389CD003D00217
:0B39A000C002C0031237FB12384D12AA
:0C39AB003741D003D0027862E2606CC0AB
:0E39B70002C0031251C6AC82AD83D003D00211
:0C39C5007863D3E29CF4B3FCB308E29DED
:0E39D100F4FD20E74CC002C0031251C6E5828F
:0C39DF008583F0D003D002786324F4F25A
:0C39EB00740135F008F27811E2B40220FB
:0E39F700C002C0031234D2AC82D003D002EC66
:0E3A0500FD600F8D82C002C003124CB9D003C9
:043A1300D002800B52
:0B3A1700C002C003124C8FD003D0028D
:0E3A2200C002C0031251C6AC82AD83D003D0E7
:0E3A300002EAC39CFAEB9DFBC3E49A74808B00
:0B3A3E00F063F08095F0400302396750
:053A49008A128B1390AE
:063A4E00F4EA121CDA028A
:023A54003967D0
:0C3A5600AA82AB837C007860EAF208EBE7
:0D3A6200F290FA88E0700690FA887464F023
:0A3A6F0090FA88E0FD7E008A708B5B
:0C3A7900718D828E83C002C003C0041255
:0D3A850068BDAD82AE83D004D003D00278BE
:0C3A92006CEDF2C374808DF063F0809541
:053A9E00F050027C0164
:073AA300786DECF28A708BD4
:0B3AAA0071900064C002C003C0041251
:0D3AB50068BDAD82AE83D004D003D002788E
:0C3AC20069EDF2C3EC64808DF063F080CD
:053ACE0095F050010C11
:0C3AD300786AECF2C3EC64808DF063F0C4
:063ADF008095F050010C7F
:073AE500786BECF28A708B94
:0C3AEC00719001F4C0041268BDAA82AB06
:0C3AF80083D0047865EAF2C3EC64808A95
:093B0400F063F08095F050010C13
:083B0D007866ECF290F4EA0284
:023B15001CA1F1
:0C3B1700AA827862EAF2EA7003024CF421
:0C3B23001251C6E5828583F0786324F41B
:083B2F00F2740135F008F222E6
:093B370074A1C0E07478C0E074D0
:083B400001C0E07439C0E090FF
:0C3B4800F50A121A3FE58124FCF58122E9
:0A78A10074656C656D657472790002
:0A3B5400C04E85814EC082C083C0C0
:0C3B5E00F0C0E0786EE4F208F208F20813
:0A3B6A00F27872E4F278737445F209
:0D3B74000874AFF20874FCF20874FFF2A8A8
:0C3B81004E08E6248AFE08E6345EFF08C9
:0C3B8D00E634F9FA08E634FFFBA84E0805
:0E3B9900A60608A60708A60208A603EB30E75A
:0A3BA7001878727401F2A84E08C3EA
:0E3BB100E496F608E496F608E496F608E49624
:013BBF00F60F
:0C3BC000A84E0886020886030886040848
:023BCC0086056C
:0C3BCE007873C3E2F5F0E495F008E2F52E
:0E3BDA00F0E495F008E2F5F0E495F008E2F56D
:0C3BE800F0748063F08095F0502C78732E
:0E3BF400E2248AF208E2345EF208E234F9F2CA
:0C3C020008E234FFF2786EE22401F208C0
:0E3C0E00E23400F208E23400F208E23400F280
:023C1C0080B076
:0A3C1E007873E54E24FAF9E227F26C
:0E3C280008E20937F208E20937F208E209372C
:0E3C3600F21ABAFF091BBBFF051CBCFF011DE3
:073C4400ED20E703023BCE77
:0A3C4B007872E2601A786EE2D3F49A
:0E3C55003400F208E2F43400F208E2F4340025
:073C6300F208E2F43400F264
:0A3C6A00E54E24FAF8796EE326FA1D
:0E3C740009E30836FB09E30836FC09E30836CD
:0A3C82008A828B838CF0854E81D07E
:023C8C004E22C6
:043C8E0075B6B02235
:0A3C9200E51C14541F75F00EA42465
:043C9C0081F57074CA
:063CA000F535F0F5717529
:063CA600720EE4F573024A
:023CAC004FF7D0
:0C3CAE00C022C0E0C0F0C082C083C00291
:0E3CBA00C003C004C005C006C007C000C001A2
:0E3CC800C0D075D000740F55B5FABA0E027A4E
:013CD60002EB
:0A3CD700E51E75F00EA42481FB74B5
:0C3CE100F535F0FC74022BFBE43CFC8A7F
:0E3CED0005E4CD25E0CD33FEED2BFBEE3CFCD7
:0E3CFB000A8B828C83E5BAF08B828C83A3E562
:053D0900BBF0BA06004A
:0A3D0E00500FBA020575B63E80059D
:053D180074B04AF5B68D
:023D1D008038EC
:0A3D1F00E51E75F00EA42481FA746D
:0C3D2900F535F0FBC002C0031251C6AC1F
:0E3D350082AD83D003D0028A828B83ECF0A390
:0A3D4300EDF0E51E04541FF51E7A92
:0A3D4D001E7BFF8A828B83121CA1EB
:0E3D5700D0D0D001D000D007D006D005D004C7
:0D3D6500D003D002D083D082D0F0D0E0D0C7
:023D72002232FB
:0A3D7400C04EE581F54E2408F581EC
:073D7E0090F741123C929006
:0E3D8500F74DE0FAA3E0FB90F74BE0FCA3E063
:0C3D9300FD90F749A84E080808E0F6A3D0
:0C3D9F00E008F690F747A84E08E0F6A3F5
:0C3DAB00E008F690F745E54E2405F8E02E
:0C3DB700F6A3E008F690F743E54E240761
:0E3DC300F8E0F6A3E008F690F741E0FEA3E07A
:0C3DD100FFC002C003C004C005A84E08DB
:0C3DDD000808E6C0E008E6C0E0A84E08B8
:0C3DE900E6C0E008E6C0E0E54E2405F866
:0C3DF500E6C0E008E6C0E0E54E2407F858
:0C3E0100E6C0E008E6C0E0C006C00774A0
:0A3E0D00ABC0E07478C0E07480C020
:0C3E1700E0126AE8E58124EFF581854E99
:043E230081D04E22DA
:0E3E270075F23BC28D43A8029078F502077039
:0E78AB007469636B3A2025357520616363654F
:0E78B9006C3A2025356420707265733A2025E4
:0E78C70035642074656D703A202535642062AA
:0E78D5006174743A202535642064726F677503
:0E78E300653A20253564206D61696E3A2025D6
:0478F10035640A00F0
:0278F500743DE0
:0678F700FD780000000016
:0E78FD00610043757272656E74204144430051
:0E3E3500E582FA7009C2A053F5FE75EB00227B
:0E3E4300ABF574FE5BF5F0740145F0F5F58A01
:053E5100ED75EBB2224B
:063E5600C04E85814E12F2
:0C3E5C003E35E54E24FCF8868208868383
:0A3E6800121D4B758200123E35D08A
:023E72004E22DE
:0E3E7400C2A053F5FEAAF174EF5AF5F07410D7
:083E820045F0F5F175EC142286
:0A3E8A00C04E85814EE582FAF4FB7C
:0C3E9400E5905203A84E181818E65202E0
:093EA000EA4BF5900000D04E221F
:0A3EA900AA8243902043FE207B080C
:083EB3007C00EA30E7027C20EC
:0E3EBB00EA2AFA74104CFDC002C003C004C015
:0D3EC90005758230123E8A15817582301217
:0E3ED6003E8A1581D003D002DBD353FEDF22DB
:043EE4007A007B08DD
:0E3EE800EA2AFAC002C0037410C0E07582100E
:0E3EF600123E8A1581D003D00230950343029C
:013F040001BB
:0E3F0500C002C003E4C0E0758210123E8A15AF
:0A3F130081D003D002DBCE8A8222A7
:0E3F1D00AA82758255C002123EA9D0028A8285
:063F2B00123EA9023EE473
:0A3F3100C04E85814EAA82758256AB
:0D3F3B00C002123EA9D0028A82123EA9A83F
:0A3F48004E1818188682123EA912C6
:053F52003EE4D04E2208
:0A3F5700C04E85814EAA8275825784
:0D3F6100C002123EA9D0028A82123EA9A819
:0A3F6E004E1818188682123EA9E5CD
:0A3F78004E24FCF88682123EA912C6
:053F82003EE4D04E22D8
:0E3F8700AA82AB83758200C002C003123F1DE8
:0C3F9500E5827877F274D0C0E07582E518
:0C3FA100123F31AC8215817878ECF2748C
:0E3FAD0082C0E07582E5123F31AC821581784A
:0B3FBB0079ECF27483C0E07582E5121F
:0C3FC6003F31AC821581787AECF27484F3
:0D3FD200C0E07582E5123F31AC82158178A8
:0B3FDF007BECF27485C0E07582E512F7
:0C3FEA003F31AC821581D003D002787CFE
:0E3FF600ECF28A048B02C004C00275829012A5
:074004003F571581158122D1
:0C400B007879E2C0E07482C0E075827534
:0C401700123F5715811581787AE2C0E055
:0E4023007483C0E0758275123F5715811581B8
:0C403100787BE2C0E07484C0E07582750A
:0C403D00123F5715811581787CE2C0E02D
:0E4049007485C0E0758275123F571581158190
:0C4057007878E2C0E074D0C0E07582759B
:0C406300123F57158115817877E2C0E00C
:09406F00758274123F31158122A3
:0E407800AA82C002758274123F3115817582D2
:0A408600F0123F1D7582A3023F1DDA
:0C4090007582E0123F1D7582A3023F1DE7
:0E409C0053F4C743F62043901843FE1853FE1A
:0240AA00DF2213
:0240AC007A1484
:0440AE0000DAFD2215
:0C40B200AA82C0021240ACD002C01F8ADB
:0740BE0082123E8A158122E7
:0C40C500AA82C00212409C751F38758250
:0C40D100381240B2D00274204AFB8B1F52
:0E40DD00758238C002C0031240B290000A1271
:0E40EB001D4B7430C0E0758238123E8A15817C
:0B40F900D0038B1F7582381240B27597
:0C4104001F307582381240B2D0027428BF
:0C4110004AF51F7582381240B290000A78
:03411C00021D4B36
:06411F007582000240C59C
:064125007582100240C586
:0A412B001203A27806E2B40A012292
:094135001204587807E2700A78C0
:09413E0000E2F582123EA980E4C2
:014147002255
:094148001204587807E26001221C
:0C4151007800E2FA08E2FBC3E49A740173
:09415D009B500678077402F2225F
:044166007C007D005C
:0E416A00C3EC9AED9B5042EC4D601BEC5407E9
:0E417800701675820AC002C003C004C0051292
:0A418600169DD005D004D003D0022E
:0E419000C002C003C004C005123EE412036E5C
:0E419E0075822012169DD005D004D003D002E9
:0741AC000CBC00BA0D80B746
:0641B30075820A02169D50
:0C41B9001204587800E2FA08E2FBC00291
:0C41C500C003120458D003D0027800E2BE
:0A41D100FC08E2FD7807E26001221D
:0E41DB008C828D83C002C003123F87D003D0B8
:0341E900027C0055
:0941EC008A058B061ABAFF011BBB
:0E41F500ED4E602E8C050CED54077012758295
:0E4203000AC002C003C00412169DD004D003EE
:02421100D002D9
:0E421300C002C003C00412409012036ED0041B
:06422100D003D00280C5AD
:0942270012400B75820A02169D7B
:0C4230001204587800E2FA08E2FBC00219
:0C423C00C003120458D003D0027800E246
:0A424800FC08E2FD7807E2600122A5
:0E4252008C828D83C002C003123F87D003D040
:01426000025B
:094261008A048B051ABAFF011B47
:0E426A00EC4D6032C002C0031202FFE582C4B8
:0E42780054F0FCC0041202FFAD82D004D0034B
:0B428600D002ED42047807E260012244
:0E4291008C82C002C003124078D003D002809D
:01429F00C15D
:0342A00002400BCE
:0642A30090790B02077088
:02790B001F411A
:02790D002779D8
:02790F004841ED
:027911003679C5
:02791300B94178
:027915004979AE
:027917003042FC
:02791900727981
:02791B002B41FE
:02791D009C7953
:02791F00254100
:06792100B2790000000035
:0E7927004400456E61626C65206465627567A0
:017935000051
:0E79360047203C636F756E743E0047657420F9
:057944006461746100A4
:0E79490049203C636F756E743E203C6164649F
:0E795700723E00496E707574203C636F756E51
:0D796500743E206174203C616464723E0039
:0E7972004F203C636F756E743E203C61646470
:0E798000723E004F7574707574203C636F7515
:0E798E006E743E206174203C616464723E00A1
:0E799C0050203C627974653E202E2E2E005045
:0879AA00757420646174610032
:0879B200520052657365740078
:0C42A900AA82AB837405B53F0E7582023B
:0B42B500C002C0031215F1D003D002BC
:0842C000AC3F053FEC2CFD248E
:0A42C80077F582E434F7F583EAF09D
:0E42D200A3EBF0EC701FF5D1C2C043B8017A27
:0642E0004F7BF78BD57A3D
:0642E6004F7BF78AD47A39
:0642EC00577BF78BD37A2B
:0542F200577BF78AD2A2
:0342F7008C822294
:0C42FA00AA828AF005F07B017C0080069F
:06430600EB2BFBEC33FC85
:0E430C00D5F0F7ADD67E00ED5203EE5204EB75
:0D431A004C600A758202C0021215F1D0023B
:0C432700EAC40354F8FA244FF582E43491
:06433300F7F583AB40AC7E
:0A433900418C05EDF0EA244FFAE490
:0C43430034F7FD8A828D83A3EBF08A82A0
:0A434F008D83A3A3AB42AC438C06A0
:0E435900EEF08A828D83A3A3A3EBF08A828DFF
:0C43670083A3A3A3A3E545F08A828D8305
:0C437300A3A3A3A3A3E544F074062AF55D
:0C437F0082E43DF583E546F074072AF562
:0B438B0082E43DF58374084547F022F2
:0A439600AA828AF005F0740180028B
:0243A00025E016
:0E43A200D5F0FBFBF4FC52D1EB55D6600D7448
:0C43B000804BF5D600000000000000006B
:0A43BC00EA2A2477F582E434F7F5CD
:0E43C60083E0FAA3E0FC8A828C83E4F08BD6BD
:0A43D40000000000000000000022BD
:0A43DE00AA828AF005F07401800243
:0243E80025E0CE
:0643EA00D5F0FB42D722D2
:0A43F000AA828AF005F07401800231
:0243FA0025E0BC
:0E43FC00D5F0FBFA74804AF5D6EAF452D122CD
:0C440A00C022C0E0C0F0C082C083C0022D
:0E441600C003C004C005C006C007C000C0013E
:0B442400C0D075D0007A017B007C0046
:0C442F00C3EC953F5033EA55D16026C223
:0C443B00C0EAF4F5D1EB2B2477F582E405
:0C44470034F7F583E0FDA3E0FE8D828ECB
:0D445300837401F08D828E83121CA18008FD
:08446000EA2AFA0C8C0380C764
:0E446800D0D0D001D000D007D006D005D004AF
:0D447600D003D002D083D082D0F0D0E0D0AF
:024483002232E3
:0C448500AA82C2AFEA75F003A42481F5FE
:0C44910082E434F7F5837401F090F781A9
:06449D00121CA1D2AF22A7
:0944A300AA82D20010AF02C2008F
:0E44AC0090F787C002123C92D002EA75F0032E
:0A44BA00A4FB2481F582E434F7F539
:0A44C40083E0FCEB2481FBE434F7F5
:0E44CE00FD8B828D83A3E0FE8B828D83A3A3E2
:0C44DC00E0FBA20092AFEB7006EC600762
:0344E800EE70046F
:0444EB0075820222B2
:0944EF007BAC7C0DBA00028005D3
:0544F800BA0114800A66
:0A44FD0090F791E0FBA3E0FC8008BB
:0845070090F793E0FBA3E0FC38
:0E450F00C3EB94E8EC6480948350047582033F
:01451D00227B
:0E451E00C374589B749B8CF063F08095F05032
:05452C0004758201226C
:04453100758200226D
:0C453500E582FA75F003A4FB2481FCE48D
:0C45410034F7FD8C828D83A3A37401F07D
:0C454D0090F1CEE0FC600ABC0102802F5F
:05455900BC0270804D62
:05455E00BA0002800517
:05456300BA01668010A2
