:04014500AA82AB835C
:0E0149008A828B83E493FCA3AA82AB83ECFD35
:0E015700600F8D82C002C0031224DDD003D0E1
:030165000280E134
:010168002274
:06016900904BA1020145CC
:0B016F00122569E5826006904BA51286
:02017A0001453D
:04017C007808E4F229
:0D018000122526122541AA82BA080280032A
:03018D00BA7F1620
:0C0190007808E260EB122569E58260034C
:03019C00120169E4
:07019F007808E214F280DA97
:0301A600BA151671
:0C01A9007808E260D2122569E58260034C
:0301B500120169CB
:0701B8007808E214F280EA6E
:0501BF00BA0D027A0AEE
:0E01C400BA0A0F122569E582603775820A12A9
:0401D20024DD802F79
:0601D6007808E2B42E00DF
:0A01DC0050A27808E2FB780804F254
:0A01E600EB2476F582E434F0F58393
:0E01F000EAF0C002122569E582D00260838A1F
:0701FE00821224DD020180E2
:0A0205007808E2FA780804F2EA240F
:0A020F0076F582E434F0F583740AFA
:0A021900F07808E2FA780804F2EA2F
:0A0223002476F582E434F0F583E45C
:06022D00F07809E4F22262
:080233007806740AF2780979DB
:0B023B0008C3E3F5F0E295F0501778DF
:0902460009E2FA780904F2EA2445
:0A024F0076F582E434F0F583E0FA5E
:030259007806F232
:06025C007806E2F58222A3
:05026200AA82BA0A00A7
:0A026700500874302AF5820224DDED
:0802710074572AF5820224DD16
:0E027900122541AA82C3EA648094B040117439
:0E028700B98AF063F08095F04006EA24D0F5C5
:020295008222C3
:0E029700C3EA648094E1401174E68AF063F0DB
:0B02A5008095F04006EA24A9F58222B3
:0E02B000C3EA648094C1401174C68AF063F002
:0B02BE008095F04006EA24C9F582227A
:0902C90078077401F2758200222D
:0E02D200AA82AB838B82C002C0031202E8D066
:0802E00003D0028A820202E849
:0E02E800E582FAC4540FFB740F5BF582C0026E
:0D02F600120262D002740F5AF582020262F9
:080303007806E2B42002800C30
:08030B007806E2B40902800447
:040313007A008002EA
:020317007A0169
:030319008A8222B3
:0C031C00120303E582600512023380F436
:0103280022B2
:0E032900AA82C3EA648094B0401174B98AF0CD
:0D03370063F08095F04006EA24D0F58222A4
:0E034400C3EA648094E1401174E68AF063F02D
:0B0352008095F0400674A92AF5822275
:0E035D00C3EA648094C1401174C68AF063F054
:0B036B008095F0400674C92AF582223C
:040376007582FF226B
:0B037A007800E4F208F212031C7A0085
:03038500BA0200B9
:0C03880050477806E2F582C002120329FB
:0C039400AB82D002EB30E7067807740261
:0203A000F22247
:0C03A2007800E2FC08E2C454F0CCC4CCAB
:0E03AE006CCC54F0CC6CFDEB3395E0FEEB42D2
:0C03BC0004EE42057800ECF208EDF2C0FF
:0903C80002120233D0020A80B4D3
:0103D1002209
:0B03D2007A017800E4F208F2C0021289
:0403DD00031CD0022B
:0C03E1007806E2F582C002120329AB820C
:0C03ED00D002EB20E7307800E2FC08E2D0
:0E03F900C454F0CCC4CC6CCC54F0CC6CFDEBF6
:0C0407003395E0FEEB4204EE4205780065
:0E041300ECF208EDF27A00C002120233D002C1
:0204210080BE9B
:07042300EA60047807EAF229
:01042A0022AF
:0A042B00C052E581F5522404F5816A
:0C0435007A017802E4F208F208F208F202
:07044100C00212031CD002EF
:0B0448007806C3E2648094B050030209
:0204530004CCD7
:0C0455007806C3E2F5F074B963F08095FE
:0A046100F040687802E2F56D08E251
:09046B00F56E08E2F56F08E2F5F8
:0B0474007090000AE4F5F012441AA892
:0C047F005208A68208A68308A6F008F622
:0C048B007806E2FFE23395E0FBEF24D09E
:0C049700FFEB34FFFB3395E0FCFDA852A6
:0E04A30008EF26FFEB0836FBEC0836FCED08F0
:0C04B10036FD7802EFF208EBF208ECF2E6
:0D04BD0008EDF27A00C002120233D00202F4
:0204CA000448E4
:0704CC00EA60047807EAF280
:0A04D30078027900E2F308E209F371
:0604DD00855281D052227D
:0404E300AA82AB83BB
:0C04E7008A828B83E493FC60237806E299
:0504F300B504028009C0
:0904F80078077402F275820022FB
:050501000ABA00010B25
:0D050600C002C003120233D003D00280D423
:0405130075820122CA
:090517001203D27807E270467865
:0C05200051C2D575F007E230E704B2D5F7
:02052C00F404D5
:0E052E00A430D50AF42401C5F0F43400C5F061
:0A053C002407FA74F335F0FB74068F
:0C0546002AF582E43BF5837800E2B40063
:0A0552000908E2B4000474018001FE
:01055C00E4BA
:04055D00FAB40100EB
:04056100E433FAF095
:010565002273
:0705660012031C904BA812C8
:07056D0004E3E582700122A6
:0D057400122526900064122AD975C90B903B
:0B05810000C8122AD975820802207FF2
:0E058C007402C0E0E4C0E090F1F7E0C0E0A32C
:0E059A00E0C0E09000A4E493C0E0740193C0C0
:0A05A800E07410C0E07455C0E07468
:0A05B20080C0E07400C0E07455C082
:0A05BC00E07480C0E074AEC0E0748B
:0C05C6004BC0E07480C0E012454DE581A0
:0A05D20024F1F58174F8C0E07454C0
:0B05DC00C0E07480C0E07413C0E07445
:0C05E7004CC0E07480C0E012454DE5817E
:0505F30024FAF581224D
:0405F800780BE4F2A6
:0A05FC00780B790AC3E3F5F0E295ED
:04060600F04001229D
:0A060A00780BE225E024A6F582E457
:0A06140034F0F583E0FBA3E0FC786E
:03061E000CE4F2F7
:0C062100780CE275F004A4FEAFF02BF59D
:0E062D0082EF3CF583E493FAA3E493FD4A7058
:04063B00030206C8E8
:0E063F00EE2BFEEF3CFF8E828F83A3A3E4938D
:08064D00F508A3E493F509850B
:0A0655000882850983C003C0041267
:05065F000145AE08AFEB
:0C066400097A808E828F838AF0124AFB94
:0E067000AA82D004D0038A057E000DBD0001D1
:01067E000E6D
:07067F00ED2508F508EE353A
:0806860009F509742DC39AFA6D
:0E068E008A051AED6014758220C002C003C0F8
:0C069C00041224DDD004D003D00280E65C
:0A06A800850882850983C003C004A1
:0E06B20012014575820A1224DDD004D00378AF
:0806C0000CE22401F202062104
:0906C800780BE22401F20205FCAA
:0806D1007807E2B40102800683
:0606D9007807E2B4020AFA
:0706DF00904C281201457840
:0306E60007E4F234
:0106E90022EE
:0A06EA00AA82AB83780AE2B40B0089
:0E06F400400E758206C002C00312207FD003A4
:02070200D00223
:0A070400780AE2FC780A04F2EC2CFB
:0A070E0024A6F582E434F0F583EA36
:05071800F0A3EBF0224C
:07071D0012016F12023312FA
:09072400031C7806E2FAC002127F
:09072D000233D002BA0D0280E78C
:05073600BA0A0280E296
:0A073B0090F0BCE4F0A3F0750A0092
:0A074500780AC3E2F5F0E50A95F02A
:05074F0040030207D188
:05075400E50A250A245E
:0A075900A6F582E434F0F583E0FC1D
:05076300A3E0FD7E0093
:0A076800EE75F004A4F50B85F00C0B
:0C0772002CF582E50C3DF583E493FFA319
:0B077E00E493FB4F603DE50B2CFBE516
:0C0789000C3DFF8B828F83A3A3E493FB45
:0E079500A3E493FF8B828F83E493FBB5021BDA
:0A07A300E50B2CF582E50C3DF58313
:0E07AD00E493FBA3E493FF90F0BCEBF0A3EF0A
:0307BB00F08003C8
:0307BE000E80A703
:0C07C10090F0BCE0FBA3E0FC4B700505D1
:0407CD000A020745D0
:0E07D10090F0BCE0FAA3E0FB4A6011C002C049
:0E07DF00038A828B8312008BD003D002800528
:0507ED0078077402F220
:0607F2001206D102071DF2
:0707F800904C361206EA7472
:0807FF004EC0E0744CC0E07430
:080807001DC0E07407C0E09081
:0C080F00F0BE1227CDE58124FCF581220B
:044BA10008200800E0
:034BA5003E2000AF
:064BA80065626F6F7400EE
:0E4BAE006D616E7566616374757265722020AC
:0E4BBC0020202025730A70726F6475637420C8
:0E4BCA0020202020202020202025730A736543
:0E4BD8007269616C2D6E756D62657220202011
:0E4BE6002025750A63757272656E742D666CFB
:0E4BF4006967687420202025750A6C6F672D94
:0E4C0200666F726D6174202020202020202516
:034C1000750A0022
:0E4C1300736F6674776172652D7665727369D2
:074C21006F6E2025730A00ED
:0E4C280053796E746178206572726F720A00A3
:024C3600F8057F
:024C3800524CDC
:024C3A002E2B1F
:024C3C00594CD1
:024C3E00170558
:024C4000614CC5
:024C4200660505
:024C4400764CAC
:024C46008C05DB
:064C4800854C0000000095
:044C4E00636D64002E
:074C52003F0048656C700093
:084C590054005461736B7300F9
:0E4C610045203C30206F66662C2031206F6E9F
:074C6F003E004563686F0081
:0E4C7600722065626F6F74005265626F6F741A
:014C8400002F
:0A4C8500760056657273696F6E00C9
:0C081B00123AAF786BE2F58208E2F58338
:0E08270008E2F5F008E2123763743AC0E0E42C
:0A083500C0E07435C0E074F1C0E0CB
:0C083F00786BE2F58208E2F58308E2F530
:0E084B00F008E21225E0E58124FCF5817582BB
:07085900001216AC023AAEDA
:0708600090F16F121FBF129F
:06086700081B90F16F0276
:02086D00201D4C
:0E086F0090F148E0FAA3E0FBA3E0FCA3E0FD5B
:0E087D0090F167E0FEA3E0FFA3E0F8A3E0F92E
:0E088B00C002C003C004C0058E828F8388F0B7
:0E089900E9122FC4AA82AB83ACF0FDE58124E6
:0E08A700FCF58190F152EAF0A3EBF0A3ECF027
:0408B500A3EDF0229D
:0608B900780DE26001224F
:0C08BF00123AAF743AC0E0E4C0E07435B7
:0A08CB00C0E074F1C0E0786BE2F5C4
:0E08D5008208E2F58308E2F5F008E21225A998
:0E08E300E58124FCF58190F135E0FABA0102BE
:0208F100803C49
:0C08F30090F1357401F090F136E4F090C3
:0C08FF00F13774FAF0A3E4F0756D007599
:06090B006E09E4F56F9097
:06091100F13C1241C67A20
:040917008F7B4C8AFC
:04091B006D8B6E75FD
:06091F006F06E4F5709084
:06092500F13C124191902B
:04092B00F13BE4F0C8
:0B092F0090F136E0FABA1703020A212B
:03093A00BA0100FF
:07093D00500590F145E4F0C4
:03094400BA0200F4
:0E094700500E90F139E4F0A3F090F146E4F088
:02095500A3F00D
:03095700BA0300E0
:0E095A0050209000A6E493FB740193FC7402FD
:0E09680093FD740393FE90F148EBF0A3ECF0C6
:06097600A3EDF0A3EEF07A
:03097C00BA0400BA
:0C097F00501390F14C786BE2F0A308E2FA
:09098B00F0A308E2F0A308E2F079
:03099400BA0500A1
:07099700500590F150E4F05F
:03099E00BA060096
:0709A100500590F151E4F054
:0309A800BA08008A
:0809AB00500690F1567401F0B2
:0309B300BA09007E
:0A09B6005013756D00756E10E4F526
:0709C0006F90F157C0021215
:0409C70041C6D00253
:0309CB00BA0A0065
:0E09CE00502E90F13BE075F064A4FBE5F0FCC8
:0E09DC003395E0FDFE74762BFB74A13CFC7499
:0E09EA00063DFDE43EFE90F167EBF0A3ECF05D
:0609F800A3EDF0A3EEF0F8
:0309FE00BA0B0031
:090A0100500790F16BE4F0A3F042
:030A0A00BA0D0022
:090A0D00500790F16DE4F0A3F034
:0B0A160090F1367417F0780E7401F2B6
:0E0A210090F170E0FA604590F1677476F0A3F2
:0E0A2F0074A1F0A37406F0A3E4F09000A6E416
:0E0A3D0093FA740193FB740293FC740393FD0F
:0E0A4B0090F148EAF0A3EBF0A3ECF0A3EDF07D
:050A59007A8F7B4C8A3E
:040A5E006D8B6E75B9
:060A62006F06E4F5709040
:050A6800F13C12419178
:090A6D0012086F780D7401F222E9
:070A760090F16F121FBF0297
:020A7D0008B9B6
:090A7F00780E7401F290F16F028F
:020A8800201D2F
:070A8A00120A7690F16F02E1
:020A9100201D26
:0A0A9300743CC0E074F1C0E0E4C060
:0A0A9D00E07496C0E0744CC0E074F1
:0D0AA70080C0E012454DE58124FAF5812262
:080AB400756D00756E09E4F593
:050ABC006F90F17112C2
:070AC10041C612031C7A007C
:080AC8007806E2B40A02802660
:030AD000BA080061
:0C0AD30050138A030AEB2471F582E4340E
:090ADF00F1F5837806E2F08005D0
:050AE80078077401F223
:090AED00C002120233D00280D2D3
:060AF6007807E260012216
:050AFC00120A76756D81
:030B010071756E9D
:060B0400F1756F09E4F534
:050B0A007090F13C12A7
:050B0F004191020A7F84
:0E0B140090F167E0FAA3E0FBA3E0FCA3E0FD94
:0C0B2200C002C003C004C00574A6C0E0FF
:0C0B2E00744CC0E07480C0E012454DE53E
:060B3A008124F9F581227F
:090B400012042B7807E260012287
:070B4900120A7690F16778B3
:0C0B500002E2F0A308E2F0A308E2F0A328
:0A0B5C0008E2F012086F120A7F028F
:020B66003FBF8F
:0D0B680090F137E0FAA3E0FBC002C0037477
:0A0B7500B6C0E0744CC0E07480C00C
:0B0B7F00E012454DE58124FBF58122CA
:090B8A0012042B7807E26001223D
:070B9300120A7690F1377899
:0A0B9A0000E2F0A308E2F0020A7F77
:0C0BA40090F145E0FA7B00C002C0037431
:0A0BB000CEC0E0744CC0E07480C0B9
:0B0BBA00E012454DE58124FBF581228F
:090BC50012042B7807E260012202
:070BCE00120A767800E290A4
:060BD500F145F0020A7F69
:0D0BDB0090F16BE0FAA3E0FBC002C00374D0
:0A0BE800E8C0E0744CC0E07480C067
:0B0BF200E012454DE58124FBF5812257
:090BFD0012042B7807E2600122CA
:070C0600120A7690F16B78F1
:0A0C0D0000E2F0A308E2F0020A7F03
:0E0C170090F148E0FAA3E0FBA3E0FCA3E0FDAF
:0C0C2500C002C003C004C0057404C0E09D
:0C0C3100744DC0E07480C0E012454DE539
:060C3D008124F9F581227B
:090C430012042B7807E260012283
:070C4C00120A7690F14878CE
:0C0C530002E2F0A308E2F0A308E2F0A324
:090C5F0008E2F012086F020A7F9E
:0E0C680090F14CE0A3E0FBA3E0FCA3E0FD8BC9
:0E0C760002ECC313CA13CAC313CA13CAFBEDA0
:0E0C8400030354C04BFBED0303543FC002C0FA
:0A0C9200037414C0E0744DC0E07458
:0D0C9C0080C0E012454DE58124FBF581226A
:0C0CA9007868E2FA08E2C313CA13CAC359
:0E0CB50013CA13CAFB08E2030354C04BFBE250
:0C0CC3000303543F786CE2FC08E2C3130A
:0E0CCF00CC13CCC313CC13CCFD08E2030354AA
:0E0CDD00C04DFDE20303543FC002C003C0043B
:0E0CEB00C00512042BD005D004D003D002782F
:050CF90007E26001228A
:0E0CFE00C002C003C004C005121ACAE582D0AD
:0C0D0C0005D004D003D0026016742BC088
:0C0D1800E0744DC0E07480C0E012454D56
:070D240015811581158122E4
:0E0D2B00C3E49A74049B502FEA24FFFEEB34BD
:0C0D3900FFFF7800E2520608E25207EECD
:0C0D45004F601AC002C003745BC0E07471
:0C0D51004DC0E07480C0E012454DE5810B
:050D5D0024FBF58122DA
:0C0D62007800C3E2F5F0EC95F008E2F533
:0C0D6E00F0ED95F0501AC004C00574862A
:0B0D7A00C0E0744DC0E07480C0E012C7
:090D8500454DE58124FBF58122B6
:0C0D8E00120A767800E2FA08E2FBE4FCAE
:0E0D9A00EB2BCC33CC25E0CC33FDEA2A25E050
:0E0DA800FBEA232354034CFC7A0090F14CEA42
:0D0DB600F0A3EBF0A3ECF0A3EDF0020A7F38
:0C0DC30090F150E0FA7B00C002C0037405
:0A0DCF009CC0E0744DC0E07480C0C9
:0B0DD900E012454DE58124FBF581226E
:090DE40012042B7807E2600122E1
:070DED00120A767800E29083
:060DF400F150F0020A7F3D
:0C0DFA0090F156E0FA7B00C002C00374C8
:0A0E0600ADC0E0744DC0E07480C080
:0B0E1000E012454DE58124FBF5812236
:090E1B0012042B7807E2600122A9
:070E2400120A767800E2904B
:060E2B00F156F0020A7FFF
:0A0E310012031C7806E2FAC0021258
:060E3B000233D0027B002F
:0E0E4100EB75F006A4FCFD904DBF93CDA3937E
:090E4F00FEBD0005BE0002803268
:0C0E58008D828E83E493FDB50225EC240E
:0A0E6400BFFCE4344DFD8C828D8349
:0E0E6E00A3A3E493FCA3E493FDC004C0058C91
:0B0E7C00828D8312008BD005D0042271
:030E87000B80B726
:060E8A0078077402F22259
:020E90007A00E6
:0E0E9200EA75F006A4FBFC904DBF93CCA39331
:080EA000FDBC0004BD000122AD
:0E0EA80074012CFEE43DFF78808C828D8388DF
:0E0EB600F0C002C003C006C007124AFBAC82A7
:0E0EC400AD83D007D006D003EC2EFEED3FFF2D
:0E0ED2007C80EB904DBF93CBA393FD7880C046
:0C0EE00006C007C004C003C005C00074B9
:0A0EEC000DC0E0744EC0E07480C039
:0E0EF600E012454DE58124F7F581D0020A0295
:020F04000E924B
:0B0F0600120A8A90F136E0FA7B00909E
:0E0F1100F135E0FC7D00C002C003C004C00545
:0A0F1F007417C0E0744EC0E0748047
:0D0F2900C0E012454DE58124F9F5817A0004
:0E0F3600EA75F006A4FBFC904DBF93CCA3938C
:080F4400FDBC0004BD00012208
:0A0F4C00EB24BFFBE4344DFC8B8264
:0E0F56008C83A3A3A3A3E493FBA3E493FC4B1F
:0D0F64006013C002C003C0048B828C831296
:080F7100008BD004D003D00274
:030F79000A80BA31
:0D0F7C007A0090F16FC002121FBFD0027802
:080F89000EE2600912081B785A
:050F91000EE4F27A01FC
:0E0F960090F16FC00212201DD002EA60099097
:080FA4004E2E75F0800244DAC4
:090FAC00904E3475F0800244DA25
:060FB500904E440206EA22
:074C8F004E3043414C4C0084
:0E4C960043616C6C7369676E3A2022257322AD
:024CA4000A0004
:0E4CA6004672657175656E63793A20256C64FF
:024CB4000A00F4
:0E4CB6004D61696E206465706C6F793A20253F
:0A4CC40064206D65746572730A00C8
:0E4CCE0041706F6765652064656C61793A20FE
:0C4CDC002564207365636F6E64730A002A
:0E4CE80041706F676565206C6F636B6F75744C
:0E4CF6003A202564207365636F6E64730A00B4
:0E4D0400526164696F2063616C3A20256C6413
:024D12000A0095
:0E4D14004D617820666C69676874206C6F676B
:094D22003A202564206B420A00CE
:0E4D2B0053746F72616765206D75737420623A
:0E4D39006520656D707479206265666F726525
:0E4D4700206368616E67696E67206C6F67207D
:064D550073697A650A0093
:0E4D5B00466C69676874206C6F672073697A14
:0E4D690065206D757374206265206D756C7425
:0E4D770069706C65206F66202564206B420A0F
:014D8500002D
:0E4D8600466C69676874206C6F67206D6178F9
:084D9400202564206B420A0097
:0E4D9C0049676E697465206D6F64653A202565
:034DAA00640A0098
:0E4DAD00526164696F20656E61626C653A2028
:044DBB0025640A0061
:024DBF004C4E58
:024DC1008A0B5B
:024DC300680B7B
:024DC500674E37
:024DC700C50B1A
:024DC900A40B39
:024DCB00824E16
:024DCD00FD0BDC
:024DCF00DB0BFC
:024DD100A84EEA
:024DD300400B93
:024DD500140BBD
:024DD700C14ECB
:024DD900B40A1A
:024DDB00930A39
:024DDD00E04EA6
:024DDF001B0EA9
:024DE100FA0DC9
:024DE300114F6E
:024DE500430C7D
:024DE700170CA7
:024DE9003C4F3D
:024DEB00A90C11
:024DED00680C50
:024DEF005A4F19
:024DF100E40DCF
:024DF300C30DEE
:024DF500844FE9
:044DF700060F0000A3
:024DFB008B4FDC
:044DFD007C0F000027
:024E01009D4FC3
:0A4E0300900E000000000000000007
:0A4E0D00252D3230732025730A00B2
:0E4E1700436F6E6669672076657273696F6E11
:094E25003A2025642E25640A00E0
:064E2E005361766564008B
:0E4E34004E6F7468696E6720746F207361762C
:024E4200650009
:024E4400310E2D
:064E4600A44F0000000073
:0E4E4C006D203C6D65746572733E004D6169AA
:0D4E5A006E206465706C6F7920286D290052
:0E4E670064203C64656C61793E0041706F67A9
:0D4E750065652064656C6179202873290053
:0E4E82004C203C7365636F6E64733E0041709C
:0E4E90006F67656520646574656374206C6FE0
:0A4E9E00636B6F7574202873290000
:0E4EA80046203C667265713E0046726571756B
:0B4EB600656E637920286B487A2900A4
:0E4EC10063203C63616C6C3E0043616C6C735B
:0E4ECF0069676E2028382063686172206D616B
:034EDD0078290031
:0E4EE00065203C302064697361626C652C2093
:0E4EEE003120656E61626C653E00456E61624A
:0E4EFC006C652074656C656D6574727920615B
:074F0A006E642052444600D2
:0E4F110066203C63616C3E00526164696F2053
:0E4F1F0063616C6962202863616C203D207222
:0E4F2D00662F287874616C2F325E3136292988
:014F3B000075
:0E4F3C006C203C73697A653E00466C696768BC
:0E4F4A0074206C6F672073697A6520286B42B3
:024F580029002E
:0E4F5A0069203C30206475616C2C2031206190
:0E4F6800706F6765652C2032206D61696E3EAA
:0E4F76000049676E69746572206D6F64650096
:074F8400730053686F770012
:0E4F8B007700577269746520746F2065657039
:044F9900726F6D00C6
:074F9D003F0048656C700045
:0E4FA40063203C7661723E203C76616C756540
:0E4FB2003E0053657420636F6E6669672028A9
:0E4FC0003F20666F722068656C702C20732095
:094FCE00746F2073686F772900ED
:0A0FBB00C052E581F5522407F581CC
:0C0FC500AA82E583FB30E7047A007B0081
:0A0FD100A85208A603A8520808A6BB
:0C0FDB0002087600A85208E675F002A497
:0A0FE70024D7F582744F35F0F5832E
:0D0FF100E493FDA3E493FE3395E0FFFCA81C
:0C0FFE00520808E4C396FA74010896FB40
:09100A008A6DEBF56E3395E0F5FB
:0A1013006FF5708D828E838FF0EC74
:0C101D0012441AA85208080808A682080D
:0C102900A68308A6F008F6A85208E6040A
:0A10350075F002A424D7F582744F71
:0E103F0035F0F583E493FEA3E493FF3395E0D0
:0A104D00FAFBA8520808866D088619
:081057006EE63395E0F56FF53C
:0C105F00708E828F838AF0EB12441AAA74
:0C106B0082AB83ACF0FDE5522404F8EAEF
:0E10770026FAEB0836FBEC0836FCED0836FDD9
:0E10850074802AE43BFBE43CFCE43D8B828C4F
:0710930083855281D0522237
:0E4FD700DB3DE43B143A6338CE365135EA3305
:0E4FE500963253312030FB2EE32DD72CD62BE5
:0E4FF300DF2AF029082926284B277626A62536
:0E500100DB24152454239722DE212A21792056
:0E500F00CC1F221F7B1ED81D381D9A1C001CB2
:0E501D00681BD31A401AAF19211996180C18E7
:0E502B008417FF167B16F9157915FB147F14F8
:0E50390004148B1313139D122812B51143118A
:0E504700D3106410F60F890F1E0FB40E4B0E1F
:0E505500E30D7D0D170DB20C4F0CEC0B8B0B09
:0E5063002A0BCB0A6C0A0E0AB2095609FA088B
:0E507100A0084708EE0796073F07E9069306DA
:0E507F003E06EA0596054305F104A0044F0421
:0E508D00FF03AF0360031203C40277022A027E
:0E509B00DE0193014801FE00B4006A0022000D
:0E50A900D9FF91FF4AFF03FFBDFE77FE32FEE6
:0E50B700EDFDA8FD64FD20FDDDFC9AFC58FC1B
:0E50C50016FCD4FB93FB52FB12FBD2FA93FABB
:0650D30053FA14FAD6F9AD
:07109A001224BB780FE4F201
:0C10A100122412E58260F9780FC3E2F51A
:0C10AD00F0740795F040ED780FE275F04C
:0610B90003A49010BF73B8
:0710BF000210D702133C02EE
:0610C600111002115A0294
:0610CC00133C0211C402F6
:0510D20012510212A002
:0A10D7007814E2701C780F7402F226
:0D10E100123D88758201122F859000641267
:0A10EE002F34758202123AE3800BE2
:0B10F800780F7401F2758202123AE3D7
:0C1103007A0F7BFF8A828B83122A2F80D8
:01110F00914E
:0C1110007821C3E2F5F0741495F008E2B9
:0E111C00F5F0748063F08095F040030210A19E
:0A112A00780F7403F2783EE2FA0831
:0C113400E2FB7810EAF208EBF2121AB6A7
:0D11400090000A122F34758200122F857A5C
:0B114D000F7BFF8A828B83122A2F0287
:0211580010A1E4
:0C115A007825C3E294D808E26480947FFA
:0C11660050177821C3E2F5F0746495F096
:0D11720008E2F5F0748063F08095F04027EE
:0A117F00783E7910E3F5F0C3E29525
:0E118900F0FA09E3F5F008E295F0FBC374DC20
:0D1197009A74858BF063F08095F0400302A0
:0211A40010A198
:0A11A600780F7405F27812E22401BC
:0C11B000F208E23400F27A0F7BFF8A8222
:0811BC008B83122A2F0210A1FF
:0C11C40090F16BE0FAA3E0FB4A60357884
:0A11D0003E7910E3F5F0C3E295F05C
:0C11DA00FC09E3F5F008E295F0FD8A6DD9
:0C11E6008B6E900064C004C0051243B082
:0E11F200AA82AB83D005D004C3EC9AED9B50CB
:04120000030210A134
:091204007824E220E7030210A1A6
:0C120D007842C3E294E008E2648094AEF2
:0C1219005011782DC3E2946408E2648058
:07122500948040030210A1B8
:0E122C007582001234AD900064122F3475826A
:0A123A0001122F85780F7406F27A76
:0B1244000F7BFF8A828B83122A2F028F
:02124F0010A1EC
:0C12510090F137E0FAA3E0FB7821E2FC0A
:0D125D0008E2FDC3EA9CEB9D50030210A1C6
:0C126A007582011234AD783EE224E8F5F4
:081276000D08E23403F50E90AF
:0A127E00F1F3E0FAA3E0FB8A118B04
:04128800128A0F8B2C
:07128C0010780F7407F27ADD
:0B1293000F7BFF8A828B83122A2F0240
:02129E0010A19D
:0C12A00090F1F3E0FAA3E0FBC3EA950F25
:0C12AC00EB64808510F063F08095F0503A
:0512B800048A0F8B10F9
:0C12BD0090F1F3E0FAA3E0FBC3E5119A06
:0C12C900E51264808BF063F08095F0501B
:0512D500048A118B12D8
:0A12DA00783EE2C3950DFA08E29594
:0812E4000EFB30E7030210A12C
:0712EC00E511C3950FFAE5BF
:0A12F300129510FBC374049A748076
:0C12FD008BF063F08095F04016780F74C1
:0C13090008F27582001242927A0F7BFFFE
:071315008A828B83122A2F4C
:0B131C0090F1F3E0FAA3E0FB8A118BD4
:04132700128A0F8B8C
:07132B0010783EE224E8F512
:081332000D08E23403F50E0280
:02133A0010A100
:03133C000210A1FB
:09133F00780FE4F274D9C0E074E7
:0813480050C0E0749AC0E0748B
:0713500010C0E090F17A12D9
:0913570027CDE58124FCF581227B
:0750D900666C696768740052
:081360007823E2F56D08E2F5C7
:081368006EE23395E0F56FF52C
:0C1370007090028FE4F5F012441A8582A0
:06137C002385832485F0A7
:0413820025F52678AF
:0713860025E2F52708E2F55E
:08138D0028E23395E0F529F593
:031395002A85277F
:031398006D852838
:03139B006E852933
:03139E006F852A2E
:0C13A10070900003E4F5F012441AAC82D6
:0B13AD00AD83AAF0FBEC2523FCED351E
:0813B80024FDEA3525FAEB35AE
:0C13C00026FBEDC4CCC4540F6CCC540FC1
:0E13CC00CC6CCCFDEAC454F04DFDEBC4CAC499
:0E13DA00540F6ACA540FCA6ACA30E30244F0C4
:0C13E800FB7815E22CF208E23DF208E26E
:0A13F4003AF208E23BF285276D850E
:0313FE00286E85D1
:03140100296F85CB
:091404002A7090028FE4F5F01249
:0C140D00441AAA82AB83ACF0FD7819E20F
:0E1419002AF208E23BF208E23CF208E23DF261
:0114270022A2
:0A1428007817E2FA08E2FB7844E2CC
:0C143200C39AFA08E29BFB782BEAF20850
:0D143E00EBF2EB30E707C3E49AFAE49BFB06
:0E144B00C3747F9A74808BF063F08095F0502C
:05145900047A7F7B0016
:0C145E00782DE2FC08E2C4CCC4540F6CF2
:0B146A00CC540FCC6CCC30E30244F0FB
:0C147500FD782DE2C39CF208E29DF28A93
:081481006D8B6E8A828B8312D1
:0E14890043B0AA82E583FBC4CAC4540F6ACAEA
:0A149700540FCA6ACA30E30244F0A1
:0B14A100FB782DE22AF208E23BF27813
:0514AC000FE2B4060090
:0314B100400122D5
:0C14B4007842E22420FA08E234D1FBC3A5
:0E14C000E49A74808BF063F08095F0504BC37B
:0E14CE00E49A74818BF063F08095F050047AFC
:0314DC00007B0191
:0C14DF00782BE2FC08E2FDE23395E0FE11
:0C14EB00FFE4C39AFA74019BFB8A6DEBCE
:0814F700F56E3395E0F56FF589
:0C14FF00708C828D838EF0EF12441AAACC
:0C150B0082AB83ACF0FD782BEBF208EC17
:01151700F2E1
:0115180022B0
:07151900121428782BE2F503
:0A1520002B08E2F52CE23395E0F50C
:04152A002DF52E85E8
:03152E002B6D859D
:031531002C6E8598
:031534002D6F8593
:091537002E70900789E4F5F01212
:0C154000441AAE82AF83AAF0FB7815E2DB
:0E154C002EF208E23FF208E23AF208E23BF229
:04155A00852B6D85EB
:03155E002C6E856B
:031561002D6F8566
:091564002E7090B40FE4F5F012B2
:0C156D00441AAA82AB83ACF0FD7819E2AE
:0E1579002AF208E23BF208E23CF208E23DF200
:04158700852B6D85BE
:03158B002C6E853E
:03158E002D6F8539
:091591002E70908682E4F5F01240
:0C159A00441AAA82AB83ACF0FD781DE27D
:0E15A6002AF208E23BF208E23CF208E23DF2D3
:0115B4002214
:0715B50012136012151978F2
:0A15BC0017E2FA08E2FB7821EAF2D8
:0A15C60008EBF2781979230808E217
:0A15D000F308E209F3781D792508FD
:0E15DA0008E2F308E209F390F1F1E0FCA3E06F
:0C15E800FD7821C3E2F5F0EC95F008E27C
:0D15F400F5F0ED648063F08095F0500890F4
:07160100F1F1EAF0A3EBF0A8
:0E16080090F1F3E0FAA3E0FB3395E0FCFD78EF
:0A16160027E2C39AF52F08E29BF5C6
:0A1620003008E29CF53108E29DF568
:0A162A00327844E2FE08E2FFE233EA
:0A16340095E0FAFBEE252FFEEF35DE
:08163E0030FFEA3531FAEB350B
:0A16460032FB7827EEF208EFF208FD
:0C165000EAF208EBF27827E2243FFA08E7
:0E165C00E23400FB08E23400FC08E23400FD3A
:0E166A00EBA2E7CA33CA33CA5401FBEC2C4B87
:0E167800FBEDA2E7CC33CC33CC540130E002C2
:0216860044FE20
:0916880090F1F3EAF0A3EBF0226B
:03169100023AAE6C
:0E169400E58275F003A42480FAE435F0FB3300
:0A16A20095E0FC8A828B838CF02215
:0E16AC00AA8290F1F9E4F090F1F7E0FBA3E0E0
:0E16BA00FC90F1FAEBF0A3ECF08A8212169489
:0C16C800AA82AB83ACF0FD786BE22AFA3A
:0E16D40008E23BFB08E23CFC08E23DFD74032B
:0A16E200C0E0E4C0E074F9C0E07459
:0B16EC00F1C0E08A828B838CF0ED12CD
:0B16F70025E0E58124FCF581023AAEFD
:0C170200121694AA82AB83ACF0FD786B49
:0E170E00E22AFA08E23BFB08E23CFC08E23D5E
:0C171C00FD7403C0E0E4C0E074F9C0E01C
:0C17280074F1C0E08A828B838CF0ED121B
:0917340025A9E58124FCF58122C0
:04173D007A007B00B3
:03174100BB1000DA
:0E174400503A8B82C002C003121702D003D0AD
:0E1752000290F1F9E0FC701990F1FAE0FDA3AD
:0E176000E0FE90F1F7E0FFA3E0F8EDB507051D
:05176E00EEB5000122B0
:08177300EC60058A820216AC4D
:05177B000B8B0280C190
:03178000020860FC
:0917830090F14CE0F56DA3E0F5D6
:08178C006EA3E0F56FA3E0F588
:0A17940070786BE2F58208E2F5833D
:09179E0008E2F5F008E202434BF9
:0B17A700AA8290F14CE0F56DA3E0F584
:0817B2006EA3E0F56FA3E0F562
:0C17BA00707B007C007D008A828B838C99
:0517C600F0ED02441AE1
:0E17CB007A007B00C002C003121783AC82D0EC
:0517D90003D0027D00B9
:0E17DE00C3ED9C50418D82C002C003C004C008
:0E17EC0005121F36AE82AF83D005D004D003A5
:0E17FA00D002C3E49E74808FF063F08095F0FF
:0E1808005017EA4B600FC3EA9EEB64808FF02E
:0718160063F08095F050041F
:04181D008E028F03A5
:031821000D80BA7D
:051824008A828B832283
:0A182900C052E581F5522404F58158
:0E183300AA82C00212173DD0028A821217A7A5
:0C184100AA82AB83ACF0FDA85208A602FE
:0E184D0008A60308A60408A60590F14CE0FECC
:0C185B00A3E0FFA3E0FAA3E0FBA8520802
:0E186700EE26FEEF0836FFEA0836FAEB0836EA
:05187500FB8E048F054D
:0C187A00A85208C3E69C08E69D08E69A08
:0818860008E69B400302193D36
:02188E007E00DA
:03189000BE100087
:0E1893005069C004C005C002C0038E077A0071
:0C18A1007B007C00A85208EF26FFEA083C
:0E18AD0036FAEB0836FBEC0836FCC003C0042C
:0C18BB00C005C0067401C0E0E4C0E07489
:0A18C700FCC0E074F1C0E08F828ADB
:0E18D100838BF0EC1225A9AA82E58124FCF598
:0E18DF0081D006D005D004D003EAD003D00299
:0E18ED00D005D004600890F1FCE0FFBFFF03BF
:0318FB000E8092CA
:0518FE00BE1002803A5B
:0C190300A8520886820886830886F00837
:0E190F00E6C002C003C004C005123763D00555
:0A191D00D004D003D002A8520879CC
:0C19270067E326F609E30836F609E3083A
:0A19330036F609E30836F602187ACA
:06193D00855281D0522208
:021943007A1018
:0E1945008A031AEB60478A82C002121702D092
:0E1953000290F1F9E070EB90F1F7E0FAA3E0FA
:0E196100FB4A601D90F1FAE0FCA3E0FDECC330
:0E196F009AFAED9BFBC3E49A74808BF063F050
:05197D008095F0501000
:0E19820090F1FAE0FAA3E0FB90F1F7EAF0A38F
:02199000EBF07A
:0E19920090F1F7E0FAA3E0FB4A700990F1F73C
:0619A0007401F0E4A3F065
:0119A600221E
:0A19A700C052E581F5522404F581D9
:0B19B100120A8A1217CBAA82AB8390A7
:0E19BC00F1F7EAF0A3EBF0EA4B60240ABA0060
:0219CA00010B0F
:0E19CC0090F1F7EAF0A3EBF0C3E49A74808B7D
:0E19DA00F063F08095F0400990F1F77401F091
:0319E800E4A3F085
:0C19EB001219437833E4F208F208F20805
:0C19F700F2782FE4F208F208F208F21275
:0E1A03001783AA8290F1F7E0FBA3E0FC1BBB67
:031A1100FF011CB6
:0A1A14008A6D756E008B828C83C012
:0A1A1E0002124B2FAB82D0028B04A2
:0E1A28008C82C002C003C004121F36E5828506
:0E1A360083F0D004D003D00245F070548C82AF
:0C1A44001217A7AA82AB83ACF0FD782F2C
:0E1A5000EAF208EBF208ECF208EDF290F14C2D
:0C1A5E00A85208E0F6A3E008F6A3E00898
:0C1A6A00F6A3E008F6A85208E62AF608E9
:0C1A7600E63BF608E63CF608E63DF6A864
:0A1A820052087933E6F30809E6F391
:0A1A8C000809E6F30809E6F38011EB
:081A96000CC3EC9A40027C0035
:061A9E00ECB50302800319
:031AA400021A28FB
:0A1AA70090F1F7122A2F75820085D6
:051AB1005281D0522219
:0A1AB60090F1F67401F090F1F602D1
:021AC0002A2FCB
:081AC20090F1F6E4F002169128
:0E1ACA001217CBAA82AB83E4BA0004BB000162
:011AD8000409
:041AD900FAB401005A
:051ADD00E433F5822254
:0A1AE200782F7933E2F5F0E3B5F058
:0E1AEC001F08E2F5F009E3B5F01608E2F5F088
:0E1AFA0009E3B5F00D08E2F5F009E3B5F004DC
:041B080074018001E3
:011B0C00E4F4
:031B0D00F582223C
:0A1B1000C052858152058105810550
:0B1B1A0081121783AA82A852087600EF
:0B1B2500A85208C3E69A4003021BB35D
:0C1B3000A852088682C002121F36AC8248
:0C1B3C00AD83D002A8520808A60408A639
:0C1B480005A8520808E60846605AC002D2
:0C1B5400A85208E604F5821217A7AF8320
:0C1B6000AAF08F068A07A852088682C0EF
:0E1B6C0006C0071217A7AC83ADF0D007D00655
:0E1B7A008C028D04C002C006C007C002C00469
:0C1B8800A8520808E6C0E008E6C0E074BF
:0A1B9400E0C0E07450C0E07480C0AF
:0E1B9E00E012454DE58124F7F581D002D0021A
:071BAC00A8520806021B25E8
:0A1BB30074FBC0E07450C0E07480C1
:0C1BBD00C0E012454D1581158115818591
:051BC9005281D0522200
:0E1BCE007A017B00C002C00312031CD003D0BA
:0C1BDC00027806E2B42D0F7AFF7BFFC0F8
:0A1BE80002C003120233D003D00242
:0C1BF200C002C00312042BD003D0027804
:051BFE0007E260012276
:081C03007800E2F56D08E2F53E
:0C1C0B006E8A828B831243B0AC82AD83E2
:0E1C17008C028D03C002C003121783AC82D072
:0B1C250003D002EA4B60477D007E0008
:0E1C3000C3EE9C503EC0058E82C002C003C0B1
:0E1C3E0004C006121F36AF82AD83D006D0045C
:0E1C4C00D003D002EFB50206EDB5030280040E
:041C5A00D005801021
:0E1C5E00D0058D8212182990510175F0800278
:021C6C0044DA58
:051C6E000E8E0580BD93
:0A1C7300C002C0037408C0E0745101
:0E1C7D00C0E07480C0E012454DE58124FBF507
:021C8B008122B4
:0B1C8D0090F1F6E4F0783B7409F2904F
:061C9800511C1206EA7463
:081C9E0028C0E07451C0E0749D
:081CA600A5C0E0741DC0E09030
:0C1CAE00F1FD1227CDE58124FCF5812218
:0E50E000666C696768742025642073746172C1
:0D50EE007420257820656E642025780A0066
:0650FB00646F6E650A00FF
:075101004572617365640053
:0E5108004E6F207375636820666C696768746B
:065116003A2025640A00A6
:02511C00101B66
:02511E002C5112
:02512000CE1BA4
:06512200385100000000FE
:045128006C6F670041
:0C512C006C004C697374206C6F6773009A
:0E51380064203C666C696768742D6E756D624C
:0E51460065723E0044656C65746520666C6998
:045154006768740014
:071CBA00858233858334228B
:071CC100858235858336782A
:0A1CC8002F7933C3E3F5F0E295F045
:0E1CD20009E3F5F008E295F009E3F5F008E209
:0D1CE00095F009E3F5F008E295F0400A9058
:091CED00F1F6E0FA6003121AC2DC
:0C1CF60090F1F6E0FA603C7A357BFF7458
:0C1D020002C0E0E4C0E0C002C003782F83
:0E1D0E00E2F58208E2F58308E2F5F008E21241
:0C1D1C0025E0E58124FCF581782FE2240D
:0E1D280002F208E23400F208E23400F208E2AF
:031D36003400F284
:011D39002287
:0A1D3A00AA82AB83783CE225E02486
:0A1D440074F582E434F2F583EAF04E
:0A1D4E00A3EBF0783CE22401783C9E
:041D58005407F22218
:0D1D5C0090F1F7E0FAA3E0FB8A828B83127E
:0C1D69001CC17846E2F58208E2F5831206
:061D75001CC1783CE2FAFB
:0A1D7B00EA2A2474F582E434F2F53C
:0E1D850083E0FBA3E0FC4B600B8B828C83C0E1
:061D930002121CC1D00287
:0C1D9900EA045407FA783CE2B502D722B5
:071DA500754100123AAF1274
:061DAC0019A7753B097543
:071DB200330AE4F534E4F507
:041DB9003CF53DF5C3
:061DBD003EF53FFCFD8530
:071DC3001340C004C005122B
:071DCA00422C85823785835E
:051DD10038D005D0042C
:0C1DD6007F137BFF8F828B83C004C0054D
:0A1DE2001229F1D005D0048C428DC7
:011DEC0043B3
:071DED00E513B54002804A36
:0A1DF400E54075F00EA42449FA74CE
:0C1DFE00F435F0FE74022AFAE43EFE8A7E
:0E1E0A00828E83A3A3E0FAA3E0FE3395E0FBF3
:081E1800FFEA253CF53CEE3524
:051E20003DF53DEB352E
:051E25003EF53EEF3523
:041E2A003FF53F053C
:061E2E0042E4B54202058A
:011E3400436A
:091E3500E54004541FF54080AFA4
:051E3E00AC42AD439031
:0C1E4300F1F6E0FA6059E541700EC004B1
:0C1E4F00C005121D5CD005D004754101D7
:081E5B00780FE2B53B02803F65
:0C1E6300780FE2FA7B008A8274804BF555
:0D1E6F0083C004C005121CC1D005D004784A
:051E7C000FE2F53B75CB
:061E81003364E4F534E5D2
:0A1E87003B24FA400675330AE4F527
:011E9100341C
:0C1E92007408B53B0BC004C005121AC256
:041E9E00D005D00497
:0C1EA20090F1F6E0FA700FE541600BC013
:0A1EAE0004C005122AEED005D0048E
:0C1EB800C004C00512422C8582398583CD
:081EC4003AD005D004E53325F6
:051ECC0037FEE534358E
:081ED10038FFE539C39EFEE570
:091ED9003A9FFF30E703021DD619
:071EE200EC4D7003021DD658
:091EE9008C6DEDF56E3395E0F50A
:041EF2006FF5708593
:061EF6003C82853D83855E
:051EFC003EF0E53F127D
:0E1F01004488AE82AF83AAF0FB8E048F05E504
:0C1F0F004160098C828D83121CC1800788
:071F1B008C828D83121D3A38
:061F2200E4F53CF53DF57D
:061F28003EF53FFCFD85C3
:031F2E00393785BB
:031F31003A380239
:021F34001DD6B8
:0C1F36007402C0E0E4C0E07484C0E074F9
:0C1F4200F2C0E0900000E4F5F01225A9C8
:0E1F4E00E58124FCF58190F284E0FAA3E0FB2B
:0D1F5C00BAFF0ABBFF0790F284E4F0A3F087
:0C1F690090F284E0FAA3E08A82F5832263
:0A1F7500C052858152AA82AB83E0BE
:0C1F7F00FCA852181818E6B5040E758274
:0C1F8B0003C002C00312207FD003D0026C
:071F9700D21010AF02C210CE
:0B1F9E008A828B83E060047C00800DD1
:0C1FA9008A828B83A852181818E6F07C7E
:011FB500012A
:091FB600A21092AF8C82D05222DD
:0A1FBF00AA82AB83E0FC8515828541
:0C1FC9001683A3A3A3A3A3E0FDECB505C1
:0E1FD5000E758203C002C00312207FD003D01D
:011FE30002FB
:071FE400D21010AF02C21081
:0E1FEB008A828B83E060158A828B83C002C0DD
:071FF90003C0221229F1D000
:0720000022D003D00280E4AE
:0A200700851582851683A3A3A3A309
:0C201100A3E08A828B83F0A21092AF2221
:0A201D00AA82AB83E0FC85158285E2
:0C2027001683A3A3A3A3A3E0FDECB50562
:0320330002800E1A
:0E203600758203C002C00312207FD003D002C7
:07204400D21010AF02C21020
:0C204B008A828B83E4F08A828B83C0229F
:06205700122A2FD022A284
:04205D001092AF220C
:06206100AA827B007C0056
:082067008A051AED60118C05D9
:07206F001DEDFC60F38B0482
:082076001CECFB60F40080F893
:01207E00223F
:04207F00AA82C2AFC0
:0E208300758214C002122061D002EA30E61C01
:0E209100758202C002123ADA758228122061AE
:0E209F00758202123AE375820A122061D002A5
:0620AD00743F5AFB7C00A9
:0E20B300C3EC9B50CB758202C002C003C00478
:0D20C100123ADA75820A122061758202124D
:0E20CE003AE375820A122061D004D003D002DA
:0320DC000C80D4A1
:0C20DF00780FE290515893FA74075AFBF6
:0420EB00EA70012274
:0E20EF008B041BEC604CEA30E31BC002C00304
:0E20FD007414C0E0E4C0E0758202123B0B15C3
:09210B00811581D003D002801976
:0E211400C002C0037406C0E0E4C0E0758202A1
:0B212200123B0B15811581D003D00289
:0E212D00900006C002C003122AD9D003D002CF
:06213B00EAC313FA80AEB6
:06214100900024022AD9DF
:0E214700E582FA70197432C0E0E4C0E07582DF
:0E21550002123B0B15811581900014122AD93D
:022163008023D7
:0E2165008A031AEB601DC0027414C0E0E4C0CF
:0E217300E0758202123B0B158115819000145D
:07218100122AD9D00280DD13
:0621880090001E022AD99E
:0C218E00AA82E583FB30E7047A007B00A6
:02219A007C00C7
:0A219C008C050CED2486FDE434F2FE
:0A21A600FE756D0AE4F56E8A828B67
:0E21B00083C002C003C004C005C006124B2F3E
:0E21BE00AF82D006D005D004D003D0028D82AF
:0A21CC008E83EFF0756D0AE4F56EE6
:0E21D6008A828B83C004124B65AA82AB83D031
:0721E40004EA4B70B38C020A
:0A21EB001AEA2486F582E434F2F5C6
:0E21F50083E0F582C002122147D002EA70E8B2
:0122030022B8
:0D22040090F1F1E0FAA3E0FB8A828B8302E7
:02221100218E1C
:0C2213001234CBAA82BA01047A018002C6
:02221F007A0043
:032221008A82228C
:0E222400758200122213AA82758201C0021276
:0C2232002213AB82D002EB2B4AF5822273
:08223E00122224E582FA60235C
:0E2246008A031AEB604DC0027402C0E0E4C0CF
:0E225400E0758203123B0B1581158190000A84
:07226200122AD9D00280DD31
:022269007A05F4
:0E226B008A031AEB6028C0027402C0E0E4C0CF
:0E227900E0758203123B0B158115817402C0C3
:0E228700E0E4C0E0758201123B0B1581158169
:04229500D00280D221
:0E229900121AE2E582605890000A122AD97AE1
:0122A7000234
:0E22A8008A031AEB604AC002740AC0E0E4C068
:0E22B600E0758201123B0B15811581740AC080
:0E22C400E0E4C0E0758202123B0B158115812B
:0E22D200740AC0E0E4C0E0758203123B0B15F5
:0E22E000811581740AC0E0E4C0E0758202122C
:0A22EE003B0B15811581D00280B072
:0122F80022C3
:0722F900780FE2783DF212BC
:0923000020DF783DE2B4080B1265
:0A23090022049001F4122AD980E6A4
:09231300783DE2B4010312223E00
:0B231C00780FE2B4021D12223E7A325C
:0C2327008A031AEB60EF780FE2B402E9C1
:0C23330090000AC002122AD9D00280E8F3
:0A233F00783D790FE2F5F0E3B5F008
:0C234900AF7A0F7BFF8A828B831229F190
:0223550080E81E
:092357007462C0E07451C0E0742E
:08236000F9C0E07422C0E09016
:0C236800F2901227CDE58124FCF58122C3
:0A5158000302340C242C0B1A144C33
:075162007265706F727400AA
:0C2374007840E2FA08E2FBE23395E0FC5E
:0C238000FD784DE22AF208E23BF208E290
:0C238C003CF208E23DF2784BE22401F242
:0623980008E23400F2220D
:0C239E007850E23395E0E2A2E71318E269
:0C23AA0013FB18E213FA7846F208EBF27D
:0D23B6008A828B83120FBBE5828583F0784D
:0A23C30048F208E5F0F2784DE4F26C
:0C23CD0008F208F208F2784BE4F208F283
:0123D90022E1
:0C23DA00784BC308E29402500302237405
:0823E60012239E784AE4F22262
:0C23EE00784BC308E294025003022374F1
:0A23FA00784BC308E29404500C78FD
:0B2404004BE22401F208E23400F22257
:03240F0002239E07
:0C2412007A137BFF8A828B83122A2F7AB8
:0A241E001F7BFF8A828B831229F1D5
:06242800E51FB5130302DD
:02242E0024B0D8
:0A243000E51375F00EA42449FA74B8
:0C243A00F435F0FB8A828B83E0FCA3E009
:0C244600FD783EECF208EDF274022AFA78
:0E245200E43BFB8A828B83A3A3E0FAA3E0FBAA
:0C2460007840EAF208EBF28A828B8312CB
:0C246C000FBBAA82AB837842EAF208EBB7
:0C247800F27848D3E29AF4B3FAB308E219
:0B2484009BF4FB7844EAF208EBF278CE
:09248F004AE260051223DA800E16
:06249800780FE2B403001E
:05249E0050031223EEC3
:0324A3001215B55A
:0824A600E51304541FF51302B5
:0224AE002428E0
:0624B000784AE2B40100CD
:0524B600E433F5822271
:0A24BB00120A8A784BE4F208F27866
:0A24C5004DE4F208F208F208F27884
:0724CF0040E4F208F2851F52
:0724D60013784A7401F222A1
:0E24DD00AA82BA0A2490F309E0FBA3E0FCC037
:0A24EB0002C003C0047400C0E074D6
:0B24F50025C0E0C003C00475820D226A
:06250000D004D003D0025C
:0D25060090F309E0FBA3E0FCC003C00474E7
:0A25130021C0E07425C0E0C003C041
:04251D00048A822288
:05252100D004D00322EC
:0E25260090F30BE0FAA3E0FB4A600FC002C086
:0C253400038A828B8312008BD003D0023C
:012540002278
:02254100C2AF27
:0D25430090F307E0FAA3E0FB8A828B83127D
:0D255000008BAA82AB83BAFF0BBBFF089083
:07255D00F30E1229F180DFEB
:05256400D2AF8A8222C3
:0725690090F30DE0F5822262
:0A257000C052858152AA82AB83900D
:0B257A00F307EAF0A3EBF090F309E593
:0B2585005224FCF8E6F0A308E6F090FA
:0C259000F30BE55224FAF8E6F0A308E68D
:0C259C00F090F30D7401F0758200D05235
:0125A8002210
:0A25A900C052858152AA82AB83ACB8
:0C25B300F0FDE55224FAF8E6C0E008E66E
:0C25BF00C0E0E55224FCF8E6C0E008E6AD
:0E25CB00C0E08A828B838CF0ED123A1BE58112
:0725D90024FCF581D0522221
:0A25E000C052858152AA82AB83AC81
:0C25EA00F0FDE55224FAF8E6C0E008E637
:0C25F600C0E0E55224FCF8E6C0E008E676
:0E260200C0E08A828B838CF0ED1238BEE58139
:0726100024FCF581D05222E9
:0A261700C052E581F5522405F5815B
:092621001203D27807E260030203
:02262A0026DCAC
:05262C00A85208760031
:0A2631007800E2FB08E2FC7D00A83F
:0C263B00520808080808A60518A6041894
:0C264700A603187600A8520886077A0047
:0C2653007B007C00A8520808EF26FFEA7C
:0E265F000836FAEB0836FBEC0836FC7408C0AF
:0A266D00E0E4C0E0740FC0E074F375
:0E267700C0E08F828A838BF0EC1225A9AA8224
:0C268500E58124FCF581EA603CA85208C5
:0D26910086027B008A828B831202D27A00BF
:03269E00BA080077
:0E26A1005021758220C0021224DDD002EA24EE
:0A26AF000FF582E434F3F583E0F543
:0B26B90082C0021202E8D0020A80DAA0
:0626C40075820A1224DDFC
:0826CA00A85208B6F802800ACC
:0A26D200A85208740826F60226310B
:0626DC00855281D052225C
:0926E2001203D27807E260012224
:0C26EB007800E2FA08E2FB7C008C058B12
:0D26F700048A037A008A828B838CF0ED0246
:02270400376339
:0727060012031C905169123F
:07270D0004E3E582700122E4
:082714007A007B007C007D00CF
:0C271C00786BC3E2F5F0EA95F008E2F5F6
:0E272800F0EB95F008E2F5F0EC95F008E2F524
:0E273600F0ED95F0502D8A828B838CF0EDC073
:0E27440002C003C004C005123763D005D004E4
:0C275200D003D0027867E22AFA08E23BCC
:0B275E00FB08E23CFC08E23DFD80B3FC
:01276900224D
:0C276A00123AAF7863E2FA08E2FB08E2E2
:0D277600FC08E2FDC002C003C004C00574F1
:0A2783006EC0E07451C0E07480C025
:0C278D00E012454DE58124F9F5817867E4
:0E279900E2FA08E2FB08E2FC08E2FDC002C022
:0A27A70003C004C0057481C0E07493
:0C27B10051C0E07480C0E012454DE5818D
:0727BD0024F9F581023AB096
:0727C400123ACD90519A0278
:0227CB0006EA1C
:05516900446F497400D1
:0E516E0053746F726167652073697A653A2029
:05517C00256C640A002F
:0E51810053746F7261676520657261736520FB
:0B518F00756E69743A20256C640A00FC
:02519A006A2782
:02519C00AE5112
:02519E001726D2
:0251A000BD51FF
:0251A200E22603
:0251A400D251E6
:0251A6000627DA
:0651A800EA5100000000C6
:0E51AE00660053686F772073746F72616765D7
:0151BC0000F2
:0E51BD0065203C626C6F636B3E0044756D7044
:0751CB0020666C61736800AF
:0E51D2007A203C626C6F636B3E004572617325
:0A51E00065203C626C6F636B3E00BB
:0E51EA005A203C6B65793E004572617365206A
:0E51F800616C6C2E203C6B65793E2069732043
:0E520600646F6974207769746820442649003B
:0A27CD00C052858152AA82AB8374CA
:0C27D70010B5140E758201C002C0031280
:0627E300207FD003D002AC
:0227E9007C0171
:0527EB00EC60347D00EC
:0A27F000C3ED95145023ED2D248F46
:0C27FA00F582E434F3F583E0FEA3E0FF79
:0E2806008E828F83A3A3A3A3A3E0FEB50402DA
:0228140080033F
:032816000D80D75B
:06281900EDB5140280037E
:03281F000C80C961
:0E2822008A828B83A3A3A3A3A3ECF074062ADF
:0C283000F582E43BF583E55224FAF8E65B
:0E283C00F0A308E6F08A828B83E4F0A3F07428
:0C284A00082AFCE43BFDE55224FCF88663
:0E28560006088607C002C0038E028C828D83A6
:0E286400EAF0A3AC82AD838F068C828D83EEEA
:0E287200F0A3E4F0A37480F0A3AC82AD83D099
:0528800003D0027E0DF3
:0E2885008C828D83E4F0A3AC82AD83DEF38AF7
:0C289300828B83A3A3A3A37411F0D210C6
:05289F0010AF02C210A1
:0528A400E514251424D9
:0A28A9008FF582E434F3F583EAF0C2
:0A28B300A3EBF00514A21092AFD0C1
:0228BD005222A5
:0E28BF00C0E0C0A8C082C083C0F0C002C00349
:0E28CD00C004C005C006C007C000C001C0D0D6
:0A28DB0075D000C05274FFB5170756
:0728E500E51414F517802C27
:0A28EC00E5812471FA851582851636
:0C28F60083A3A3A3A3EAF074082515FB3C
:06290200E43516FC78909C
:0E2908008605088B828C83EDF0A3AB82AC8336
:02291600DAF0F5
:0B29180075818FE5186004D2AF8002CB
:02292300C2AF41
:02292500AA17EF
:052927000517E514B5E1
:05292C00170375170000
:05293100E51725172445
:0A2936008FF582E434F3F583E0F539
:0629400015A3E0F5168569
:0A2946001582851683E0FBA3E0FC78
:08295000BB0005BC000280443D
:0A295800851582851683A3A3E0FB1A
:0E296200A3E0FC4B6022C00212422CAB82AC00
:0A29700083D002851582851683A32B
:0E297A00A3E0FDA3E0FEEBC39DFBEC9EFC3052
:02298800E71254
:0A298A00EAB51799E5187095D2AF71
:08299400758701C2AF0229277B
:0A299C00851582851683A3A3A3A36B
:0C29A600E0FA748F2AF58174082515FBF7
:0629B200E43516FC7890EC
:0E29B8008B828C83E0FDA3AB82AC83A6050866
:0C29C600DAF0D052D0D0D001D000D00701
:0E29D200D006D005D004D003D002D0F0D083C0
:0C29E000D082D0E020E705C2AF0229EE53
:0229EC00D2AF68
:0329EE00D0E02214
:0A29F100AA82AB8385158285168348
:0C29FB00EAF0A3EBF01228BF85158285DE
:0B2A07001683E0FAA3E0FB4A601A858A
:0A2A12001582851683E4F0A3F08519
:0A2A1C001582851683A3A3E4F0A33E
:052A2600F075820122A1
:042A2B00758200228E
:062A2F00AA82AB837C00CB
:0A2A3500C3EC9514502CEC2C248FF8
:0C2A3F00F582E434F3F583E0FDA3E0FE33
:0E2A4B008D828E83E0FFA3E0F8EFB5020CE869
:0B2A5900B503088D828E83E4F0A3F02B
:032A64000C80CE15
:012A6700224C
:0A2A6800AA82AB83E519451A604904
:0A2A720074022515FCE43516FDC0C2
:0E2A7C0002C003C004C00512422CE58285830F
:0C2A8A00F0D005D004D003D0022519FEC6
:0A2A9600E51A35F0FF0EBE00010F37
:0E2AA0008C828D83EEF0A3EFF0EE4F700E856A
:0A2AAE001582851683A3A37401F0BE
:032AB800A3E4F0A4
:0C2ABB008A828B831229F1AA82E519455A
:072AC7001A600C85158285E1
:082ACE001683A3A3E4F0A3F0BA
:032AD6008A8222CF
:0B2AD900AA82AB83EA4B70037A01FB7A
:052AE4008A198B1A9015
:052AE900F3AF022A68B2
:072AEE00C2AF1514AA177511
:022AF50017FFC9
:0A2AF700C3EA95145029EA2A248F3F
:0B2B0100FBE434F3FCEA04FD25E024B3
:0A2B0C008FF582E434F3F583E0FE58
:0E2B1600A3E0FF8B828C83EEF0A3EFF08D0224
:022B240080D15E
:062B2600E4F515F51602AE
:022B2C0028BFC0
:082B2E0012422C85821B8583F5
:032B36001C7C0004
:072B3900C3EC9514400122DA
:0A2B4000EC2C248FF582E434F3F549
:0E2B4A0083E0FDA3E0FE74062DF582E43EF567
:0E2B580083E0FFA3E0F879808D828E83A3A333
:082B6600E0F51DA3E0F51EE5FA
:062B6E001D451E600FE58D
:052B74001DC3951BF5D7
:042B79001DE51E95A3
:052B7D001CF51E80069E
:062B8200751D0F751E27F2
:0E2B88008D828E83E0FAA3E0FB8D828E83A304
:0E2B9600A3A3A3A3E0FD7E00C004C007C000FF
:0A2BA400C001C01DC01EC002C00326
:0A2BAE00C005C0067414C0E07452A4
:0E2BB800C0E07480C0E012454DE58124F4F5C4
:072BC60081D0040C022B3941
:072BCD007517FFE4F515F593
:042BD400160228BFFE
:0E5214002532643A20776368616E20253038B9
:0E5222007820616C61726D2025356420257343
:025230000A0072
:0D2BD8007420C0E090F3B2123EA21581906F
:052BE5000001022AD9E5
:0A2BEA00E51314541F75F00EA42427
:0A2BF40049FA74F435F0FB8A828B75
:0E2BFE0083E0FCA3E0FD90F3B4ECF0A3EDF057
:0A2C0C0090F3B67402F090F3B7786D
:0C2C16000FE2F090F3B8E4F0A3F07402B9
:0E2C22002AFAE43BFB8A828B83A3A3E0FCA387
:0E2C3000E0FD90F3BAECF0A3EDF08A828B8306
:0E2C3E00A3A3A3A3E0FCA3E0FD90F3BCECF085
:0E2C4C00A3EDF074062AF582E43BF583E0FC6C
:0E2C5A00A3E0FD90F3BEECF0A3EDF074082AA9
:0E2C6800F582E43BF583E0FCA3E0FD90F3C0B1
:0E2C7600ECF0A3EDF0740A2AF582E43BF5833E
:0E2C8400E0FAA3E0FB90F3C2EAF0A3EBF090BD
:0B2C9200F3C47825E2F0A308E2F09004
:0B2C9D00F3C67823E2F0A308E2F090F9
:0B2CA800F3C87821E2F0A308E2F090EE
:0B2CB300F3CA7846E2F0A308E2F090BC
:0E2CBE00F3CCE4F0A3F090F3CEE4F0A3F0909A
:092CCC00F3D0E4F0A3F0022BD8D0
:0A2CD5007857E214F27857C3E2F5D5
:0B2CDF00F0748063F08095F05001223B
:0D2CEA0090F3B67404F090F3B7740AF09004
:0B2CF700F3B87858E2F0A308E2F09078
:0C2D0200F3BA7401F090F3BB7417F0906A
:0E2D0E00F145E0FA7B0090F3BCEAF0A3EBF095
:0E2D1C0090F137E0FAA3E0FB90F3BEEAF0A3DB
:0E2D2A00EBF090F14CE0A3E0FBA3E0FCA3E093
:0E2D3800FD8B02ECC313CA13CAC313CA13CA1D
:0E2D4600FBED030354C04BFBED0303543F9021
:0C2D5400F3C0EAF0A3EBF074072435F59F
:052D60006DE434F1F503
:062D65006E756F08E4F535
:052D6B007090F3C2129C
:052D700041917AF87B9F
:042D7500548A6D8B84
:062D79006E756F08E4F521
:052D7F007090F3CA1280
:062D840041917856E2784F
:052D8A0057F2022BD8F6
:0A2D8F00120A8A90F156E070031258
:022D99002AEE20
:0E2D9B0090F1F7E0FAA3E0FB4A700890F1F720
:052DA9001229F180ED8C
:0C2DAE007858EAF208EBF2121AE2E58213
:082DBA0060067858E4F208F20B
:0E2DC2009000A4E493FA740193FB90F3B2EA3C
:042DD000F0A3EBF091
:0C2DD4007852E2F5F008E245F07008903B
:072DE000F3B21229F180EDAE
:0C2DE70012422CAA82AB837854EAF20856
:0A2DF300EBF290F3B0EAF0A3EBF06E
:0C2DFD007852E2F5F008E245F060CC12DC
:0E2E0900422CE5828583F02410FA742735F000
:0E2E1700FB90F156E0FC20E13C12422CAC8214
:0C2E2500AD837854D3E29CF4B3FCB308F6
:0E2E3100E29DF4FD20E71D12422CAC82AD8321
:0A2E3F007852E22CFC08E23DFD7819
:0A2E490054ECF208EDF2122BEA122D
:022E53002CD57C
:072E55007854E2FA08E2FBE9
:0A2E5C0090F873E0FC7003022F00F1
:0B2E660090F156E0FC30E203022F0068
:0E2E7100C002C00312422CAC82AD83D003D04D
:0E2E7F000290F3B0E0FEA3E0FFECC39EFCED7A
:0E2E8D009FFD20E74DC002C00312422CE582DB
:0E2E9B008583F0D003D00290F3B024F4F074DD
:0C2EA9000135F0A3F0780FE2B40220C065
:0E2EB50002C003122224AC82D003D002ECFD36
:0E2EC300600F8D82C002C00312406ED003D09B
:032ED10002800B71
:0B2ED400C002C003124044D003D00233
:0E2EDF0090F3B0E0FCA3E0FDEAC39CFEEB9D87
:0E2EED00FFC3E49E74808FF063F08095F05078
:052EFB00048C028D03B0
:0E2F0000C002C00312422CAC82AD83D003D0BD
:0E2F0E0002EAC39CFAEB9DFBC3E49A74808B2D
:0B2F1C00F063F08095F04003022DFDF3
:052F27008A198B1A90CD
:062F2C00F3B2122A680254
:022F32002DFD73
:0C2F3400AA82AB837C007852EAF208EB22
:0A2F4000F28A6D8B6E9001F4C0045C
:0C2F4A00124322AA82AB83D0047856EA1E
:0E2F5600F2C374808AF063F08095F050027C24
:012F6400016B
:0C2F65007857ECF212422CAA82AB839049
:0C2F7100F3B0EAF0A3EBF07854EAF208A9
:082F7D00EBF290F3B2022A2FDF
:0D2F8500AA8290F873EAF0EA70030240A9F6
:0E2F920012422CE5828583F090F3B024F4F017
:072FA000740135F0A3F022DB
:092FA7007432C0E07452C0E07401
:082FB0008FC0E0742DC0E09019
:0C2FB800F3D21227CDE58124FCF5812224
:0A52320074656C656D657472790097
:015529000081
:0A2FC400C052858152C082C083C054
:0C2FCE00F0C0E0785AE4F208F208F208C3
:0A2FDA00F2785EE4F2785F7445F2CD
:0D2FE4000874AFF20874FCF20874FFF2A844
:0C2FF1005208E6248AFE08E6345EFF0861
:0C2FFD00E634F9FA08E634FFFBA852089D
:0E300900A60608A60708A60208A603EB30E7F5
:0A30170018785E7401F2A85208C395
:0E302100E496F608E496F608E496F608E496BF
:01302F00F6AA
:0C303000A85208860208860308860408DF
:02303C00860507
:0C303E00785FC3E2F5F0E495F008E2F5DD
:0E304A00F0E495F008E2F5F0E495F008E2F508
:0C305800F0748063F08095F0502C785FDD
:0E306400E2248AF208E2345EF208E234F9F265
:0C30720008E234FFF2785AE22401F20870
:0E307E00E23400F208E23400F208E23400F21C
:02308C0080B012
:0A308E00785FE55224FAF9E227F218
:0E30980008E20937F208E20937F208E20937C8
:0E30A600F21ABAFF091BBBFF051CBCFF011D7F
:0730B400ED20E70302303EAE
:0A30BB00785EE2601A785AE2D3F45E
:0E30C5003400F208E2F43400F208E2F43400C1
:0730D300F208E2F43400F200
:0A30DA00E55224FAF8795AE326FAC9
:0E30E40009E30836FB09E30836FC09E3083669
:0A30F2008A828B838CF0855281D016
:0230FC0052225E
:0430FE0075B6B022D1
:0A310200E51314541F75F00EA42409
:04310C0049F56D74A0
:06311000F435F0F56E75C8
:063116006F0EE4F57002EB
:02311C004191DF
:0C311E00C022C0E0C0F0C082C083C0022C
:0E312A00C003C004C005C006C007C000C0013D
:0C313800C0D075D000740F55B5FAE51F2B
:0A31440075F00EA42449FB74F43565
:0E314E00F0FC74022BFBE43CFC74022BFBE44F
:07315C003CFCBA00028014E4
:05316300BA0102801317
:05316800BA020280190B
:05316D00BA0302801FFF
:05317200BA0E308025BB
:043177007AB1802A7F
:0B317B0074062BFBE43CFC7AB2801FC2
:0B31860074082BFBE43CFC7AB38014BF
:0B31910074042BFBE43CFC7A3E800938
:09319C0074022BFBE43CFC7A00F8
:0E31A5008B828C83E5BAF08B828C83A3E5BB12
:0831B300F0EA60048AB68038DE
:0A31BB00E51F75F00EA42449FA7414
:0C31C500F435F0FBC002C00312422CAC39
:0E31D10082AD83D003D0028A828B83ECF0A300
:0A31DF00EDF0E51F04541FF51F7A00
:0A31E9001F7BFF8A828B83122A2FBE
:0E31F300D0D0D001D000D007D006D005D00437
:0D320100D003D002D083D082D0F0D0E0D036
:02320E0022326A
:0A321000C052E581F5522408F58153
:07321A0090F6091231029049
:0E322100F615E0FAA3E0FB90F613E0FCA3E044
:0C322F00FD90F611A852080808E0F6A374
:0C323B00E008F690F60FA85208E0F6A399
:0C324700E008F690F60DE5522405F8E0D2
:0C325300F6A3E008F690F60BE552240705
:0E325F00F8E0F6A3E008F690F609E0FEA3E022
:0C326D00FFC002C003C004C005A8520846
:0C3279000808E6C0E008E6C0E0A8520823
:0C328500E6C0E008E6C0E0E5522405F8D1
:0C329100E6C0E008E6C0E0E5522407F8C3
:0C329D00E6C0E008E6C0E0C006C0077410
:0A32A9003CC0E07452C0E07480C025
:0C32B300E012454DE58124EFF5818552C5
:0432BF0081D0522246
:0E32C30075F20FC28D43A8029052860206EAF1
:0E523C007469636B3A202535752061636365E4
:0E524A006C3A2025356420707265733A202579
:0E52580035642074656D703A2025356420623F
:0E5266006174743A202535642064726F677598
:0E527400653A20253564206D61696E3A20256B
:0452820035640A0085
:025286001032E4
:065288008E520000000040
:0E528E00610043757272656E742041444300E6
:0C32D100AA82AB837405B5440E7582021E
:0B32DD00C002C00312207FD003D0020B
:0832E800AC440544EC2CFD246C
:0A32F0003FF582E434F6F583EAF0BE
:0E32FA00A3EBF0EC701FF5D1C2C043B8017A0F
:06330800177BF68BD57A5D
:06330E00177BF68AD47A59
:063314001F7BF68BD37A4B
:05331A001F7BF68AD2C2
:03331F008C82227B
:0C332200AA828AF005F07B017C00800686
:06332E00EB2BFBEC33FC6D
:0E333400D5F0F7ADD67E00ED5203EE5204EB5D
:0D3342004C600A758202C00212207FD0028A
:0C334F00EAC40354F8FA2417F582E434B1
:06335B00F6F583AB45AC62
:0A336100468C05EDF0EA2417FAE4AB
:0C336B0034F6FD8A828D83A3EBF08A8289
:0A3377008D83A3A3AB47AC488C067E
:0E338100EEF08A828D83A3A3A3EBF08A828DE7
:0C338F0083A3A3A3A3E54AF08A828D83E8
:0C339B00A3A3A3A3A3E549F074062AF540
:0C33A70082E43DF583E54BF074072AF545
:0B33B30082E43DF5837408454CF022D5
:0A33BE00AA828AF005F07401800273
:0233C80025E0FE
:0E33CA00D5F0FBFBF4FC52D1EB55D6600D7430
:0C33D800804BF5D6000000000000000053
:0A33E400EA2A243FF582E434F6F5EE
:0E33EE0083E0FAA3E0FC8A828C83E4F08BD6A5
:0A33FC0000000000000000000022A5
:0A340600AA828AF005F0740180022A
:0234100025E0B5
:06341200D5F0FB42D722B9
:0A341800AA828AF005F07401800218
:0234220025E0A3
:0E342400D5F0FBFA74804AF5D6EAF452D122B4
:0C343200C022C0E0C0F0C082C083C00215
:0E343E00C003C004C005C006C007C000C00126
:0B344C00C0D075D0007A017B007C002E
:0C345700C3EC95445033EA55D16026C206
:0C346300C0EAF4F5D1EB2B243FF582E425
:0C346F0034F6F583E0FDA3E0FE8D828EB4
:0D347B00837401F08D828E83122A2F800849
:08348800EA2AFA0C8C0380C74C
:0E349000D0D0D001D000D007D006D005D00497
:0D349E00D003D002D083D082D0F0D0E0D097
:0234AB002232CB
:0C34AD00AA82C2AFEA75F003A42449F51E
:0C34B90082E434F6F5837401F090F649CB
:0634C500122A2FD2AF22F3
:0934CB00AA82D20010AF02C20077
:0E34D40090F64FC002123102D002EA75F003EA
:0A34E200A4FB2449F582E434F6F55A
:0A34EC0083E0FCEB2449FBE434F616
:0E34F600FD8B828D83A3E0FE8B828D83A3A3CA
:0C350400E0FBA20092AFEB7006EC600749
:03351000EE700456
:043513007582022299
:093517007BAC7C0DBA00028005BA
:05352000BA0114800A4D
:0A35250090F659E0FBA3E0FC8008DB
:08352F0090F65BE0FBA3E0FC59
:0E353700C3EB94E8EC64809483500475820327
:013545002263
:0E354600C374589B749B8CF063F08095F0501A
:05355400047582012254
:043559007582002255
:0C355D00E582FA75F003A4FB2449FCE4AD
:0C35690034F6FD8C828D83A3A37401F066
:0C35750090F150E0FC600ABC0102802FC5
:05358100BC0270804D4A
:05358600BA00028005FF
:05358B00BA016680108A
:0E359000D285900005C003122AD9D003C2854F
:02359E00805457
:0E35A000D284900005C003122AD9D003C28441
:0235AE00804457
:0E35B000BA0041D285900005C003122AD9C28C
:0D35BE00859000C8122AD9D2849000051211
:0835CB002AD9D003C28480213B
:0E35D300BA011ED285900005C003122AD9C28B
:0D35E100859000C8122AD9D28490000512EE
:0635EE002AD9D003C284BB
:0A35F400EB2449FBE434F6FA8B8265
:0735FE008A83A3A3E4F0227D
:03360500120A8A1C
:0836080090F6491229F17A0045
:0C361000EA24FE40F3EA75F003A4FB245A
:0A361C0049FCE434F6FD8C828D8336
:0A362600E06052EB2449FBE434F6A7
:06363000FC0BBB00010CC5
:0E3636008B828C83E0703EEA701890F145E0C4
:0E364400FB6011EB75F064A4F58285F083C085
:0636520002122AD9D00289
:0E3658008A82C00212355D9000C8122AD9D0B5
:0B36660002EA75F003A42449FBE434E1
:0A367100F6FC8B828C83A37401F039
:03367B000A809230
:07367E0012031C90529C1284
:0736850004E3E5827001225D
:0A368C0012031C7806E2B46D1090E2
:0D36960052A11204E3E58260067582010274
:0236A300355D93
:0A36A5007806E2B464109052A612F9
:0C36AF0004E3E582600675820002355DD0
:0636BB0078077402F22200
:0636C100C0528581521287
:0E36C70034CBE5822582FA9052AD93CAA393CC
:0C36D500FB7C80E55224FCF8860508868A
:0E36E100067F80C002C003C004C005C006C042
:0A36EF000774B5C0E07452C0E07427
:0D36F90080C0E012454DE58124F7F581D039
:0237060052224D
:0A37080074A6C0E07452C0E07582A0
:0C371200001236C11581158174A1C0E0C1
:0C371E007452C0E07582011236C11581A2
:03372A00158122E4
:0E372D00C28543FD2053F3DFC28443FD1053D9
:03373B00F3EF2287
:08373E0012372D74DAC0E074AB
:0837460052C0E07405C0E074FC
:07374E0036C0E090F65D12A9
:0C37550027CDE58124FCF5819052CE02C6
:0237610006EA76
:05529C00446F4974009D
:0552A1006D61696E0063
:0752A60064726F677565007B
:0252AD00E252CB
:0252AF00EA52C1
:0252B100F052B9
:0252B300F752B0
:0E52B50049676E697465723A2025367320537E
:0B52C30074617475733A2025730A00B3
:0252CE007E362A
:0252D000FC528E
:0252D20008379B
:0652D4003753000000004A
:0852DA0069676E6974657200DA
:0852E200756E6B6E6F776E00B4
:0652EA00726561647900A9
:0752F000616374697665003B
:0552F7006F70656E0000
:0E52FC0069203C6B65793E207B6D61696E7C9C
:0E530A0064726F6775657D0046697265206983
:0E531800676E697465722E203C6B65793E20CD
:0E532600697320646F6974207769746820448D
:0353340026490007
:0E5337007400546573742069676E6974657242
:015345000067
:0C0110007863E4F2087418F208E4F208C6
:0C011C00F27867E4F2087404F208E4F2E0
:0C01280008F2786BE4F2087414F208E4AA
:0B013400F208F2786FE4F2087404F2A5
:0A376300C052858152C082C083C0AD
:0A376D00F0C0E0A852087963C3E33E
:0E377700F5F0E695F009E3F5F008E695F009A7
:0E378500E3F5F008E695F009E3F5F008E695A7
:0A379300F05027A852087967E326DA
:0E379D00FE09E30836FF09E30836FA09E308DF
:0C37AB0036FB7863C3E29E08E29F08E250
:0637B7009A08E29B500697
:0637BD007582000237E8EE
:0C37C300A85208860274680826C313CAC6
:0C37CF0013CAFB8BAD8AACD21010AF0205
:0237DB00C2101A
:0B37DD0043AE0100A21092AF75820104
:0637E800855281D052223F
:0A37EE00C052858152AA82AB837C91
:0E37F800007D68EA2CFCEB3D8C02C313CA1363
:0A380600CAFBE55224FCF8864508D1
:0638100086467547AF7506
:0838160048DFE55224FAF886B0
:05381E004908864A750F
:063823004B12754C4285BA
:0C3829004D82C002C003123322D003D035
:0C383500028BAD8AAC854D821233BED2EE
:063841001010AF02C210DE
:0A38470043AE0200A21092AFD210AF
:0538510010AF02C210DF
:0B38560090F6D4E0FA700C90F6D4C09D
:05386100221229F1D044
:033866002280EDD0
:07386900A21092AFD0522221
:0A387000C052858152AA82AB83EAA0
:0D387A0030E01290F6D574FFF090F6D6A85D
:0838870052181818E6F0801039
:0B388F0090F6D5A852181818E6F0902B
:05389A00F6D674FFF0FA
:0C389F007402C0E0E4C0E074D5C0E07426
:0C38AB00F6C0E08A828B831237EEE581C4
:0738B70024FCF581D0522230
:0A38BE00C052858152AA82AB83E557
:0C38C800812404F581A85208A60208A67D
:0C38D40003E55224FCF88604088605A8D1
:0A38E00052080808A60408A605A86F
:0C38EA00520886060886077A007B0078EA
:0C38F60063C3E2F5F0EE95F008E2F5F097
:0E390200EF95F008E2F5F0EA95F008E2F5F036
:0A391000EB95F05024A85208E55290
:0E391A0024FAF9E726FA09E70836FB7E007F5B
:0C392800007863C3E29A08E29B08E29E6C
:0539340008E29F5006AF
:06393900758200023A1540
:0C393F00E55224FAF8E60846700675828E
:04394B0001023A1526
:0C394F00A85208E630E03A8C828D83E03C
:0C395B00FAA85208080874012CF6E43D9C
:0B39670008F6A852088603088604A892
:08397200520806B60002080627
:0C397A00C0028B828C831238701581E52E
:0A3986005224FAF816B6FF020816E4
:0C399000E55224FAF8740156FAFB7C00A2
:0C399C00E55224FAF8E6C39BF608E69C0E
:0C39A800F6E55224FAF8E60846602DC04F
:0C39B40002E55224FAF8E6C0E008E6C084
:0C39C000E0A852080808E6C0E008E6C0D5
:0C39CC00E0A8520886820886831237EEBD
:0839D800E58124FCF581D00219
:0A39E000EA602FA852080808E5521B
:0E39EA0024FAF9E726F58209E70836F583E0AE
:0A39F800FAA85208E55224FAF9E794
:0E3A020026F58209E70836F583C002123870F7
:023A100015811E
:033A1200758201B9
:063A1500855281D052220F
:0A3A1B00C052858152C082C083C0F2
:0A3A2500F0C0E0A852087963C3E383
:0E3A2F00F5F0E695F009E3F5F008E695F009EC
:0E3A3D00E3F5F008E695F009E3F5F008E695EC
:0C3A4B00F05030E55224FAF88606088698
:0C3A5700077A007B00A85208EE26FEEF64
:0C3A63000836FFEA0836FAEB0836FB785C
:0C3A6F0063C3E29E08E29F08E29A08E2AE
:033A7B009B500558
:053A7E007582008025A7
:0A3A8300A85208866D74680826F545
:073A8D006EE55224FAF886F1
:053A94006F088670E5DB
:0C3A99005224FCF88682088683124191BA
:033AA50075820126
:063AA800855281D052227C
:013AAE0022F5
:013AAF0022F4
:0C3AB000E4C0E07468C0E07446C0E0743C
:0C3ABC0053C0E07480C0E012454DE5816D
:053AC80024FBF5812242
:083ACD0090F6D41232D185827B
:053AD5004D75AB20223D
:0E5346005573696E6720696E7465726E616CD6
:0E53540020666C6173682C207374617274693A
:0E5362006E67206174203078253034780A00A0
:093ADA00AA827871E25A4290229E
:0C3AE300AA827871E25202EAF4529022AA
:0C3AEF00AA827871E2F4FBE590520378A3
:073AFB0071E25A4BF5902225
:093B0200AA827871E25A62902255
:0A3B0B00C052858152AA82C0021246
:0C3B15003ADAE55224FCF8868208868328
:0B3B2100122AD9D0028A82123AE3D0A7
:023B2C00522223
:0C3B2E00AA827871EAF2EAF4FB52F4EB90
:063B3A005290EA42FE2257
:0C3B4000758202123ADA7874E260369066
:073B4C00F726E07030756DF3
:033B530071756E1B
:053B5600F77874E2F5B0
:053B5B006F7570009081
:063B6000F72912419190CB
:073B6600F7267874E2F090ED
:0B3B6D00F727E0FA0A90F727EAF0784B
:073B780074E4F290F77112F2
:023B7F002A2FEB
:0E3B8100744CC0E090F725123EA215817582AB
:043B8F0002023AE311
:0E3B9300AA82AB83758201C002C003123ADA27
:0E3BA100D003744EC0E090F6D7123F19AA82EE
:0E3BAF0015811581758201C002123AE3D00221
:063BBD00EA7003F582220C
:0C3BC30090F724E0FA20E704758200224D
:083BCF0074072435F56DE434A0
:043BD700F1F56E7521
:063BDB006F08E4F5709094
:0A3BE100F71B1241EAE582601C7A2E
:043BEB00707B538A0E
:043BEF006D8B6E75F7
:063BF3006F07E4F570907D
:0D3BF900F13C1241EAE58260047582002271
:0E3C060090F6D8E0FABAFF1890F6D9E0FB78F5
:083C140075F290F6DAE0FC9075
:0A3C1C00F727F090F728EBF0805A2C
:0C3C2600EA605790F6D9E0FB7875E224C4
:083C320001FCEBB50402800760
:073C3A0090F869E0FB603F18
:0A3C410078737972E2F5F0E3B5F054
:093C4B0034740424D7F56DE4344F
:043C5400F6F56E8A89
:053C58006F7570009083
:063C5D00F7B1124191785D
:083C630073E4F290F6D8E0785A
:083C6B0072F290F6D9E0FA783C
:083C730075F290F728EAF090C9
:053C7B00F30E122A2FD8
:0B3C800090F869E4F090F6DAE0FA90AA
:0E3C8B00F727E0FBEAB5030B90F726E4F09074
:053C9900F725122A2F9F
:043C9E007582012208
:023CA200AA82F4
:0C3CA4007874E2B4401390F868E0FB6014
:0D3CB0000C90F771C0021229F1D00280E7DC
:0C3CBD0090F868E0FB60147874E2FB787B
:0A3CC9007404F2EB2471F582E43478
:053CD300F7F583EAF0A3
:013CD80022C9
:0B3CD90090F868E0FA700490FFFF22F2
:0A3CE40078737972E2F5F0E3B5F0B1
:053CEE000490FFFF221D
:0A3CF3007873E2FA787304F2EA2411
:0A3CFD00B1F582E434F7F583E0FA34
:073D07007B008A828B8322FE
:075370004E3043414C4C009C
:0E3D0E009000A4E493FA740193FB90F725EA69
:0D3D1C00F090F72674FFF090F8697401F044
:0E3D290090F868E0FA602B900000123B93E5E2
:0A3D37008260EF744424D7F56DE4B8
:053D410034F6F56E757B
:063D46006F08E4F5709027
:063D4C00F76912419178B5
:093D5200147401F2123B4080CE12
:033D5B00022AEE4B
:0E3D5E0090F868E0FA702290F8687401F07432
:083D6C0077C0E07453C0E0745D
:083D74000EC0E0743DC0E090B8
:0B3D7C00F7F11227CDE58124FCF58152
:013D87002219
:0C3D880090F868E0FA601B90F868E4F026
:0E3D940090F7F1E0FAA3E0FB4A600B123FBF8C
:083DA200900001122AD980EA09
:013DAA0022F6
:0C3DAB00AA82C002E4C0E0C0E074A2C024
:093DB700E0743CC0E0903CD9121C
:0E3DC0002570E58124FCF581D002EA60030243
:023DCE003D5E58
:013DD00022D0
:06537700736C6176650015
:0C3DD100C022C0E0C0F0C082C083C0026D
:0E3DDD00C003C004C005C006C007C000C0017E
:0E3DEB00C0D075D000539BFCE5E930E508120E
:073DF9003FBF53E9DF801416
:0E3E0000E5E930E40F90F86C7401F090F86C76
:063E0E00122A2F53E9EF18
:0E3E1400D0D0D001D000D007D006D005D00409
:0D3E2200D003D002D083D082D0F0D0E0D009
:023E2F0022323D
:023E31007A0015
:033E3300BA0E00C4
:0D3E36005018EA9053DB93FB7CDFEA049008
:0D3E430053DB93FD8B828C83F00A0A80E331
:013E5000224F
:093E510090DF3BE0FABA01012206
:0E3E5A0075E1041228BF90DF3BE0FABA01F2D6
:013E68002237
:0B3E6900AA82C002120A8A90F86E12B2
:0D3E74001FBF123E51D00290DF06E4F09017
:0D3E8100F152E0FBA3E0FCA3E0FDA3E09004
:0E3E8E00DF09EDF090DF0AECF090DF0BEBF0B7
:063E9C0090DF02EAF022B3
:0A3EA200C052858152AA82AB83A8AA
:0B3EAC00521818188682C002C00312D2
:0C3EB7003E69D003D00290F86CE4F0905B
:0A3EC300F86AE0FCA85218181886EF
:053ECD0049754A008A5E
:043ED200458B467561
:063ED60047D97548DF75B5
:083EDC004B13754C428C82125D
:093EE400332290F86AE0F5821225
:0B3EED0033BE75E103D21010AF02C21B
:013EF80010B9
:0B3EF90090F86CE0FA700C90F86CC0C0
:053F0400221229F1D09A
:033F09002280ED26
:083F0C00A21092AF90F86E12B2
:053F1400201DD0522227
:0A3F1900C052858152AA82AB83904A
:0C3F2300F86DE4F0A852181818E624FE0F
:0E3F2F00F582C002C003123E69D003D002909A
:0A3F3D00F86AE0FCA8521818188674
:053F470049754A0075F8
:063F4C0045D97546DF8A2D
:043F5200478B4875DC
:083F56004B13754C128C821212
:093F5E00332290F86AE0F58212AA
:0B3F670033BE75E102D21010AF02C2A1
:013F7200103E
:0E3F730090F86BE0FA701F90F86DE0FA70188D
:083F8100E55224FCF8861975D5
:063F89001A0090F86BC065
:073F8F0022122A68E582D02E
:033F96002260DACC
:0C3F9900A21092AF90F86BE0FA700C9050
:093FA500F86AE0F58212341812EA
:023FAE003E5182
:073FB00090F86E12201D9035
:083FB700F86BE0F582D0522204
:0A3FBF0090F86D7401F090F86B02A9
:023FC9002A2F9D
:0C3FCB0090F86DE4F075827D123E699064
:063FD700F86CE4F07A0032
:033FDD00BA0E0019
:0D3FE0005018EA9053CD93FB7CDFEA04906B
:0D3FED0053CD93FD8B828C83F00A0A80E394
:013FFA0022A4
:0D3FFB0090F86AE0F5821233BE75E103D242
:064008000110AF02C2012D
:0E400E0090F86CE0FA700F90F86DE0FA700810
:08401C0090F86C1229F180EA12
:0C402400A20192AF90F86CE0FA700C90D2
:09403000F86AE0F582123418125E
:024039003E51F6
:07403B00123E3190F86E0205
:02404200201D3F
:09404400123FCB90F86AE0FA7B10
:04404D00E97C538B2C
:04405100458C4675DF
:0640550047D97548DF7534
:06405B00497DE4F54A7501
:084061004B13754C028A821218
:054069003322023FFBC1
:0E406E00AA82C002123FCBD00290F86AE0FB9B
:0C407C007403C39AC42354E024EBFAE45C
:064088003453FC8A458C54
:05408E00467547D975DD
:0740930048DF754978E4F5F0
:05409A004A754B13758F
:08409F004C428B821233220215
:0240A7003FFBDD
:0A40A90090F86D7401F090F86C02BD
:0240B3002A2FB2
:0E40B500E582FA602190F86FE0FAA3E0FB4A82
:0E40C3007031123D887582FF123E6975E1036F
:0A40D10090F86F7401F0E4A3F022F0
:0E40DB0090F86FE0FAA3E0FB4A6010123E512D
:0740E90090F86E12201D90FB
:0640F000F86FE4F0A3F0FC
:0140F60022A7
:0C40F7007A02C00212031CD0027806E21C
:05410300B40A02800770
:0741080012042B7802E2FA19
:0E410F000AEA30E10A758201C0021240B5D002
:01411D00029F
:0A411E00BA0325C00274A3C0E074C8
:0C41280054C0E07480C0E012454D1581C9
:0E4134001581158112252612254175820A1269
:0441420024DDD002A6
:0A414600EA30E0067582000240B581
:01415000224C
:024151007A00F2
:03415300BA50005F
:0D4156005018EA90537D93FB7CDFEA049043
:0D416300537D93FD8B828C83F00A0A80E36C
:0A417000123E3190F86B7401F0125A
:0E417A0032D1E58290F86AF075E90075913057
:09418800439A019054BE0206EABC
:0E537D0027C028C029C02AC02BC02CC02DC0BC
:0E538B002EC0070608000DA30E110FA2101170
:0E53990006001B101A561CE91D0A1E001F1FDD
:0E53A70023812435250900D3019103240444F9
:0E53B5000500120713301418150016601703B8
:0A53C300180019002F00300031001F
:0E53CD000CD60D5E0E900F02111603000400A8
:0E53DB000CDA0DA30E110FA2113603240444A8
:0253E90055006D
:0E53EB000000000000000000000000000000B4
:0E53F900000000000000000000005555555552
:0E540700555555550000000000000000000043
:0E541500000000000000000000000000000089
:0E5423005555555555555555000000000000D3
:0E54310000000000000000000000000000006D
:0E543F000000000055555555555555550000B7
:0E544D00000000000000000000000000000051
:0E545B00000000000000000000000000000043
:0E546900000000000000000000000000000035
:0E547700000000000000000000000000000027
:0E548500000000000000000000000000000019
:0E54930000000000000000000000000000000B
:0254A100000009
:0E54A3004869742061206368617261637465FA
:0D54B1007220746F2073746F702E2E2E0009
:0254BE00F740B5
:0654C000C65400000000CC
:0E54C60043203C312073746172742C2030201E
:0E54D40073746F702C206E6F6E6520626F74A3
:0E54E200683E00526164696F206361727269F6
:0854F0006572207465737400FD
:0200A00002005C
:0200A200FDFF60
:0200A40000005A
:0400A600331B1200F6
:08419100AA82AB83AC6FAD7094
:094199008C068D071CBCFF011D02
:0A41A200EE4F601FAE6DAF6E8E820F
:0E41AC008F83E0F88A828B83F00ABA00010B41
:0A41BA0074012EF56DE43FF56E80F0
:0141C400D426
:0141C50022D7
:0841C600AA82AB83AC6EAD6F61
:0941CE008C068D071CBCFF011DCD
:0C41D700EE4F600E8A828B83E56DF00ACB
:0641E300BA00E80B80E5C4
:0141E90022B3
:0841EA00AA82AB83AC6FAD703B
:0941F2008C068D071CBCFF011DA9
:0C41FB00EE4F60298A828B83E0FEAF6DDE
:0C420700A86E8F828883E0F9EEC399FE58
:0542130060038E822211
:054218000ABA00010BD1
:0A421D0074012FF56DE438F56E8092
:01422700CACC
:044228007582002279
:03013F00755001F7
:05422C00D310AF01C337
:0A423100C0D0854E82854F83D0D0A7
:03423B0092AF221D
:0C423E00C022C0E0C0F0C082C083C002FB
:0E424A00C003C004C005C006C007C000C0010C
:0A425800C0D075D0007401254EF5AA
:054262004EE4354FF5AC
:044267004F0551E5C9
:05426B0050B55106757D
:0542700051001230FEB8
:0E427500D0D0D001D000D007D006D005D004A4
:0D428300D003D002D083D082D0F0D0E0D0A4
:024290002232D8
:05429200D310AF01C3D1
:0A429700C0D0858250755100D0D0D0
:0342A10092AF22B7
:0E42A40075DB7575DA3075E50475E60075E7B3
:0C42B2000075E200D2DED2B975E40622ED
:0342BE0053C6BF25
:0B42C100E5BE30E6FB43BE0453C6C060
:0842CC00E5C6543F600280F8D2
:0142D40022C7
:040000000200B73211
:03000B0002311EA1
:0100130032BA
:01001B0032B2
:0100230032AA
:01002B0032A2
:01003300329A
:01003B003292
