:0401AC00AA82AB83F5
:0E01B0008A828B83E493FCA3AA82AB83ECFDCE
:0E01BE00600F8D82C002C00312148BD003D0DC
:0301CC000280E1CD
:0101CF00220D
:0601D0009041010201ACA8
:0B01D600121576E582600690410512CC
:0201E10001AC6F
:0401E3007808E4F2C2
:0D01E7001214F6121524AA82BA0802800331
:0301F400BA7F16B9
:0C01F7007808E260EB121576E5826003E8
:030203001201D015
:070206007808E214F280DA2F
:03020D00BA151609
:0C0210007808E260D2121576E5826003E7
:03021C001201D0FC
:07021F007808E214F280EA06
:05022600BA0D027A0A86
:0E022B00BA0A0F121576E582603775820A1244
:04023900148B802F73
:06023D007808E2B42E0077
:0A02430050A27808E2FB780804F2EC
:0A024D00EB2434F582E434F0F5836D
:0E025700EAF0C002121576E582D00260838ABA
:070265008212148B0201E775
:0A026C007808E2FA780804F2EA24A8
:0A02760034F582E434F0F583740AD5
:0A028000F07808E2FA780804F2EAC8
:0A028A002434F582E434F0F583E437
:06029400F07809E4F222FB
:08029A007806740AF278097974
:0B02A20008C3E3F5F0E295F050177878
:0902AD0009E2FA780904F2EA24DE
:0A02B60034F582E434F0F583E0FA39
:0302C0007806F2CB
:0602C3007806E2F582223C
:0502C900AA82BA0A0040
:0A02CE00500874302AF58202148BE8
:0802D80074572AF58202148B11
:0E02E000121524AA82C3EA648094B0401174FF
:0E02EE00B98AF063F08095F04006EA24D0F55E
:0202FC0082225C
:0E02FE00C3EA648094E1401174E68AF063F074
:0B030C008095F04006EA24A9F582224B
:0E031700C3EA648094C1401174C68AF063F09A
:0B0325008095F04006EA24C9F5822212
:0903300078077401F275820022C5
:0E033900AA82AB838B82C002C00312034FD096
:0803470003D0028A8202034F79
:0E034F00E582FAC4540FFB740F5BF582C00206
:0D035D001202C9D002740F5AF5820202C9C3
:08036A007806E2B42002800CC9
:080372007806E2B409028004E0
:04037A007A00800283
:02037E007A0102
:030380008A82224C
:0C03830012036AE582600512029A80F401
:01038F00224B
:0E039000AA82C3EA648094B0401174B98AF066
:0D039E0063F08095F04006EA24D0F582223D
:0E03AB00C3EA648094E1401174E68AF063F0C6
:0B03B9008095F0400674A92AF582220E
:0E03C400C3EA648094C1401174C68AF063F0ED
:0B03D2008095F0400674C92AF58222D5
:0403DD007582FF2204
:0B03E1007800E4F208F21203837A00B7
:0303EC00BA020052
:0C03EF0050477806E2F582C0021203902D
:0C03FB00AB82D002EB30E70678077402FA
:02040700F222DF
:0C0409007800E2FC08E2C454F0CCC4CC43
:0E0415006CCC54F0CC6CFDEB3395E0FEEB426A
:0C04230004EE42057800ECF208EDF2C097
:09042F000212029AD0020A80B404
:0104380022A1
:0B0439007A017800E4F208F2C0021221
:040444000383D0025C
:0C0448007806E2F582C002120390AB823D
:0C045400D002EB20E7307800E2FC08E268
:0E046000C454F0CCC4CC6CCC54F0CC6CFDEB8E
:0C046E003395E0FEEB4204EE42057800FE
:0E047A00ECF208EDF27A00C00212029AD002F3
:0204880080BE34
:07048A00EA60047807EAF2C2
:010491002248
:0A049200C031E581F5312404F58145
:0C049C007A017802E4F208F208F208F29B
:0704A800C002120383D00221
:0B04AF007806C3E2648094B0500302A2
:0204BA00053308
:0C04BC007806C3E2F5F074B963F0809597
:0A04C800F040687802E2F55508E202
:0904D200F55608E2F55708E2F5C1
:0B04DB005890000AE4F5F01239F2A876
:0C04E6003108A68208A68308A6F008F6DC
:0C04F2007806E2FFE23395E0FBEF24D037
:0C04FE00FFEB34FFFB3395E0FCFDA83160
:0E050A0008EF26FFEB0836FBEC0836FCED0888
:0C05180036FD7802EFF208EBF208ECF27E
:0D05240008EDF27A00C00212029AD0020225
:0205310004AF15
:07053300EA60047807EAF218
:0A053A0078027900E2F308E209F309
:06054400853181D0312257
:04054A00AA82AB8353
:0C054E008A828B83E493FC60237806E231
:05055A00B50402800958
:09055F0078077402F27582002293
:050568000ABA00010BBE
:0D056D00C002C00312029AD003D00280D455
:04057A007582012263
:09057E001204397807E270467896
:0C0587000FC2D575F007E230E704B2D5D2
:02059300F4046E
:0E059500A430D50AF42401C5F0F43400C5F0FA
:0A05A30024AEFA74F335F0FB740681
:0C05AD002AF582E43BF5837800E2B400FC
:0A05B9000908E2B400047401800197
:0105C300E453
:0405C400FAB4010084
:0405C800E433FAF02E
:0105CC00220C
:0705CD0012038390410812A4
:0705D400054AE582700122D7
:0D05DB001214F690006412191575C90B90EA
:0B05E80000C812191575820802142BC0
:0D05F3009000A4E493C0E0740193C0E07494
:0A0600005CC0E07448C0E07480C0E4
:0A060A00E0744CC0E07448C0E074D6
:0A06140080C0E0740EC0E07441C025
:0E061E00E07480C0E0123AADE58124F5F5816C
:0A062C007444C0E07448C0E074801C
:0A063600C0E0744BC0E07441C0E066
:0E0640007480C0E0123AADE58124FAF5812203
:04064E00780BE4F24F
:0A065200780B790AC3E3F5F0E29596
:04065C00F040012247
:0A066000780BE225E02464F582E443
:0A066A0034F0F583E0FBA3E0FC7818
:030674000CE4F2A1
:0C067700780CE275F004A4FEAFF02BF547
:0E06830082EF3CF583E493FAA3E493FD4A7002
:040691000302071E3B
:0E069500EE2BFEEF3CFF8E828F83A3A3E49337
:0806A300F508A3E493F50985B5
:0A06AB000882850983C003C0041211
:0506B50001ACAE08AF2E
:0C06BA00097A808E828F838AF012405BE8
:0E06C600AA82D004D0038A057E000DBD00017B
:0106D4000E17
:0706D500ED2508F508EE35E4
:0806DC0009F509742DC39AFA17
:0E06E4008A051AED6014758220C002C003C0A2
:0C06F2000412148BD004D003D00280E668
:0A06FE00850882850983C003C0044B
:0E0708001201AC75820A12148BD004D0037853
:080716000CE22401F202067757
:09071E00780BE22401F2020652FC
:080727007807E2B4010280062C
:06072F007807E2B4020AA3
:070735009041601201AC7855
:03073C0007E4F2DD
:01073F002297
:0A074000AA82AB83780AE2B40B0032
:0E074A00400E758206C002C00312142BD003AD
:02075800D002CD
:0A075A00780AE2FC780A04F2EC2CA5
:0A0764002464F582E434F0F583EA22
:05076E00F0A3EBF022F6
:070773001201D612029A12D6
:09077A0003837806E2FAC00212C2
:09078300029AD002BA0D0280E7CF
:05078C00BA0A0280E240
:0A07910090F07AE4F0A3F0750A007E
:0A079B00780AC3E2F5F0E50A95F0D4
:0507A5004003020827DB
:0507AA00E50A250A2408
:0A07AF0064F582E434F0F583E0FC09
:0507B900A3E0FD7E003D
:0A07BE00EE75F004A4F50B85F00CB5
:0C07C8002CF582E50C3DF583E493FFA3C3
:0B07D400E493FB4F603DE50B2CFBE5C0
:0C07DF000C3DFF8B828F83A3A3E493FBEF
:0E07EB00A3E493FF8B828F83E493FBB5021B84
:0A07F900E50B2CF582E50C3DF583BD
:0E080300E493FBA3E493FF90F07AEBF0A3EFF5
:03081100F0800371
:030814000E80A7AC
:0C08170090F07AE0FBA3E0FC4B700505BC
:040823000A02079B23
:0708270090F13812136B90F1
:0E082E00F07AE0FAA3E0FB4A6011C002C003BA
:0D083C008A828B8312008BD003D0028005CE
:0508490078077402F2C3
:07084E0012072790F1381298
:0508550013C902077346
:07085A0090416E120740748B
:0808610086C0E07441C0E074A0
:0808690073C0E07407C0E090C9
:0C087100F07C121609E58124FCF58122C0
:04410100082008008A
:034105003E200059
:0641080065626F6F740098
:0E410E006D616E756661637475726572202056
:0E411C0020202025730A70726F647563742072
:0E412A0020202020202020202025730A7365ED
:0E4138007269616C2D6E756D626572202020BB
:054146002025750A00B0
:0E414B00736F6674776172652D7665727369A5
:074159006F6E2025730A00C0
:0E41600053796E746178206572726F720A0076
:02416E004E06FB
:024170008A4182
:024172006A19C8
:02417400914177
:024176007E05C4
:0241780099416B
:02417A00CD0571
:02417C00AE4152
:02417E00F30547
:06418000BD41000000003B
:04418600636D640001
:07418A003F0048656C700066
:0841910054005461736B7300CC
:0E41990045203C30206F66662C2031206F6E72
:0741A7003E004563686F0054
:0E41AE00722065626F6F74005265626F6F74ED
:0141BC000002
:0A41BD00760056657273696F6E009C
:0E087D0090F106E0FAA3E0FBA3E0FCA3E0FD8F
:0E088B0090F125E0FEA3E0FFA3E0F8A3E0F962
:0E089900C002C003C004C0058E828F8388F0A9
:0E08A700E9121A14AA82AB83ACF0FDE581249D
:0E08B500FCF58190F110EAF0A3EBF0A3ECF05B
:0408C300A3EDF0228F
:0608C700780DE260012241
:0A08CD0090F0F3E0FABA0102803C5B
:0C08D70090F0F37401F090F0F4E4F09065
:0C08E300F0F574FAF0A3E4F07555007510
:0608EF005609E4F55790E4
:0608F500F0FA122E6B7AEE
:0408FB00C77B418AEC
:0408FF00558B56754A
:060903005706E4F55890D0
:06090900F0FA122E3690F8
:04090F00F0F9E4F027
:0B09130090F0F4E0FABA17030209F7B5
:03091E00BA01001B
:07092100500590F103E4F022
:03092800BA020010
:0E092B00500E90F0F7E4F0A3F090F104E4F029
:02093900A3F029
:03093B00BA0300FC
:0E093E0050209000A6E493FB740193FC740219
:0E094C0093FD740393FE90F106EBF0A3ECF024
:06095A00A3EDF0A3EEF096
:03096000BA0500D5
:07096300500590F10EE4F0D5
:03096A00BA0600CA
:07096D00500590F10FE4F0CA
:03097400BA0800BE
:08097700500690F1147401F028
:03097F00BA0900B2
:0A0982005013755500755610E4F58A
:07098C005790F115C00212A3
:040993002E6BD002F5
:03099700BA0A0099
:0E099A00502E90F0F9E075F064A4FBE5F0FC3F
:0E09A8003395E0FDFE74762BFB74A13CFC74CD
:0E09B600063DFDE43EFE90F125EBF0A3ECF0D3
:0609C400A3EDF0A3EEF02C
:0309CA00BA0B0065
:0909CD00500790F129E4F0A3F0B9
:0309D600BA0D0057
:0909D900500790F12BE4F0A3F0AB
:0309E200BA140044
:0709E500500590F12DE4F034
:0B09EC0090F0F47417F0780E7401F224
:0909F70012087D780D7401F22252
:070A000090F12E12136B02AE
:020A070008C71E
:090A0900780E7401F290F12E0246
:020A120013C906
:070A1400120A0090F12E020E
:020A1B0013C9FD
:0A0A1D0074FAC0E074F0C0E0E4C019
:0A0A2700E074CEC0E07441C0E0743A
:0D0A310080C0E0123AADE58124FAF5812283
:080A3E00755500755609E4F539
:050A46005790F12F1292
:070A4B002E6B1203837A00F9
:080A52007806E2B40A028026D6
:030A5A00BA0800D7
:0C0A5D0050138A030AEB242FF582E434C6
:090A6900F1F5837806E2F0800546
:050A720078077401F299
:090A7700C00212029AD00280D2E2
:060A80007807E26001228C
:050A8600120A00755585
:030A8B002F75566E
:060A8E00F1755709E4F5C3
:050A94005890F0FA1279
:050A99002E36020A09DF
:0E0A9E0090F125E0FAA3E0FBA3E0FCA3E0FD4D
:0C0AAC00C002C003C004C00574DEC0E03E
:0C0AB8007441C0E07480C0E0123AADE56B
:060AC4008124F9F58122F6
:090ACA001204927807E260012297
:070AD300120A0090F12578E2
:0C0ADA0002E2F0A308E2F0A308E2F0A39F
:0A0AE60008E2F012087D120A09026E
:020AF000290ECD
:0E0AF20090F106E0FAA3E0FBA3E0FCA3E0FD18
:0C0B0000C002C003C004C00574EEC0E0D9
:0C0B0C007441C0E07480C0E0123AADE516
:060B18008124F9F58122A1
:090B1E001204927807E260012242
:070B2700120A0090F10678AC
:0C0B2E0002E2F0A308E2F0A308E2F0A34A
:090B3A0008E2F012087D020A092C
:0C0B430090F12DE0FA7B00C002C00374AA
:0A0B4F00FEC0E07441C0E07480C0F5
:0B0B5900E0123AADE58124FBF581229B
:090B64001204927807E2600122FC
:0C0B6D007800C3E2F5F0740295F008E295
:0C0B7900F5F0E495F0500678077401F2E6
:010B8500224D
:070B8600120A007800E29062
:070B8D00F12DF0120A09022C
:020B9400290E28
:0C0B960090F114E0FA7B00C002C0037470
:0A0BA20012C0E07442C0E07480C08D
:0B0BAC00E0123AADE58124FBF5812248
:090BB7001204927807E2600122A9
:070BC000120A007800E29028
:060BC700F114F0020A091E
:0A0BCD001203837806E2FAC0021258
:060BD700029AD0027B002F
:0E0BDD00EB75F006A4FCFD90422493CDA3938B
:090BEB00FEBD0005BE00028032CF
:0C0BF4008D828E83E493FDB50225EC2475
:0A0C000024FCE43442FD8C828D8355
:0E0C0A00A3A3E493FCA3E493FDC004C0058CF7
:0B0C1800828D8312008BD005D00422D7
:030C23000B80B78C
:060C260078077402F222BF
:020C2C007A004C
:0E0C2E00EA75F006A4FBFC90422493CCA3933D
:080C3C00FDBC0004BD00012213
:0E0C440074012CFEE43DFF78808C828D838845
:0E0C5200F0C002C003C006C00712405BAC82B7
:0E0C6000AD83D007D006D003EC2EFEED3FFF93
:0E0C6E007C80EB90422493CBA393FD7880C052
:0C0C7C0006C007C004C003C005C000741F
:0A0C880054C0E07442C0E07480C064
:0E0C9200E0123AADE58124F7F581D0020A02A6
:020CA0000C2E18
:0B0CA200120A1490F0F4E0FA7B0090BE
:0E0CAD00F0F3E0FC7D00C002C003C004C005EF
:0A0CBB00745EC0E07442C0E0748073
:0D0CC500C0E0123AADE58124F9F5817A0016
:0E0CD200EA75F006A4FBFC90422493CCA39399
:080CE000FDBC0004BD0001226F
:0A0CE800EB2424FBE43442FC8B8271
:0E0CF2008C83A3A3A3A3E493FBA3E493FC4B86
:0D0D00006013C002C003C0048B828C8312FC
:080D0D00008BD004D003D002DA
:030D15000A80BA97
:060D180090427502074045
:0741C7004E3043414C4C0057
:0E41CE0043616C6C7369676E3A202225732280
:0241DC000A00D7
:0E41DE004672657175656E63793A20256C64D2
:0241EC000A00C7
:0E41EE00526164696F2063616C3A20256C6435
:0241FC000A00B7
:0E41FE0054656C656D6574727920726174652C
:06420C003A2025640A00BF
:0E421200526164696F20656E61626C653A20CE
:0442200025640A0007
:024224007D42D9
:02422600CA0AC2
:024228009E0AEC
:02422A009642BA
:02422C003E0A48
:02422E001D0A67
:02423000B54295
:02423200B70BC8
:02423400960BE7
:02423600E6425E
:024238001E0B5B
:02423A00F20A86
:02423C0011432C
:02423E00640B0F
:02424000430B2E
:024242004043F7
:04424400A20C0000C8
:024248004743EA
:0A424A002C0C000000000000000032
:0A425400252D3230732025730A0077
:0E425E00436F6E6669672076657273696F6ED6
:09426C003A2025642E25640A00A5
:02427500CD0B6F
:064277004E4300000000B0
:0E427D0046203C667265713E004672657175A2
:0B428B00656E637920286B487A2900DB
:0E42960063203C63616C6C3E0043616C6C7392
:0E42A40069676E2028382063686172206D61A2
:0342B20078290068
:0E42B50065203C302064697361626C652C20CA
:0E42C3003120656E61626C653E00456E616281
:0E42D1006C652074656C656D65747279206192
:0742DF006E6420524446000A
:0E42E60066203C63616C3E00526164696F208B
:0E42F40063616C6962202863616C203D20725A
:0E430200662F287874616C2F325E31362929BF
:0143100000AC
:0E43110054203C726174653E0054656C656D0D
:0E431F006574727920726174652028303D3318
:0E432D00382E342C20313D392E362C20323DD6
:05433B00322E342900C0
:07434000730053686F770062
:074347003F0048656C7000A7
:0E434E0063203C7661723E203C76616C7565A2
:0E435C003E0053657420636F6E66696720280B
:0E436A003F20666F722068656C702C207320F7
:09437800746F2073686F7729004F
:0A0D1E00C031858131C082C083E539
:0C0D2800812408F581A83108740626FC1F
:0E0D3400E40836FD8C828D83E0FE30E4047FFF
:030D42006C800AB8
:080D4500EE30E5047F75800229
:020D4D007F65C0
:0E0D4F0053060F7A00EF3395E0FBC004C00599
:0C0D5D00C006C002C007C0037481C0E0E3
:0C0D69007443C0E07480C0E0123AADE5B5
:0E0D75008124F9F581D005D0048C828D83E0B5
:070D8300FA20E403020FC691
:0C0D8A00A83108740F26F582E40836F545
:0C0D960083A831080808E0F6A3E008F686
:0C0DA200A83108740B26F582E40836F531
:0C0DAE0083E5312405F8E0F6A3E008F628
:0C0DBA00A3E008F6A3E008F6A8310874D6
:0E0DC6000726F582E40836F583E0FAA3E0FB89
:0C0DD400A3E0FEA3E0FFC004C005A831AE
:0C0DE000080808E6C0E008E6C0E0E531C5
:0E0DEC002405F8E6C0E008E6C0E008E6C0E036
:0D0DFA0008E6C0E0C002C003C006C00774D8
:0A0E07008EC0E07443C0E07480C0A8
:0E0E1100E0123AADE58124F3F581D005D0045E
:0E0E1F008C828D83E0FA30E658C004C005A82E
:0C0E2D0031088682088683A3A3E0FA7BCC
:0C0E390000A831088682088683A3E0FE32
:0C0E45007F00A831088682088683E0FC4C
:0E0E51007D00C004C005C002C003C006C0077B
:0A0E5F00C004C00574A8C0E074438D
:0E0E6900C0E07480C0E0123AADE58124F7F5D8
:090E770081D005D004D005D0049F
:0C0E8000A831088682088683A3A3A3A3E0
:0C0E8C00A3E0FA7B00A8310886820886EB
:0C0E980083A3A3A3A3E0FEE5312405F82A
:0C0EA400A606087600A8310886820886A1
:0E0EB00083A3A3A3E0FE7F00C004C005C00220
:0C0EBE00C003E5312405F8E6C0E008E6BA
:0B0ECA00C0E0C006C00774BEC0E074AA
:0C0ED50043C0E07480C0E0123AADE5813B
:0C0EE10024F7F581A83108741426F5826E
:0E0EED00E40836F583E075F002A4FAABF0C01D
:0A0EFB0002C00374D4C0E07443C0C9
:0E0F0500E07480C0E0123AADE58124FBF58176
:0E0F1300D005D0048C828D83E0FC20E7030221
:020F21000FC6F9
:0C0F2300A83108741326F582E40836F5A6
:0C0F2F0083E0FAE4CA25E0CA33FBA831D5
:0E0F3B0008741126F582E40836F583E0FCA365
:0C0F4900E0FDA83108741526F582E408CC
:0C0F550036F583E5312405F8E0F6A3E052
:0C0F610008F6A83108741926F582E4088F
:0C0F6D0036F583A831080808E0F6A3E080
:0C0F790008F6A83108741726F582E40879
:0E0F850036F583E0FEA3E0FFC002C003C00407
:0C0F9300C005E5312405F8E6C0E008E6E2
:0C0F9F00C0E0A831080808E6C0E008E641
:0B0FAB00C0E0C006C00774DDC0E074A9
:0C0FB60043C0E07480C0E0123AADE58159
:040FC20024F3F5819E
:060FC600853181D03122CB
:0A0FCC00C031E581F5312404F58100
:0C0FD600AA82AB83E0FCA83108A604A8A6
:080FE2003108E670030210CE95
:0C0FEA0074012AFCE43BFFA831080876E3
:070FF600008C058F067F004F
:0C0FFD00A83108C3EF9650168D828E8339
:08100900E06005A831080806AB
:0A10110074022DFDE43EFE0F80E2A4
:0C101B00A831080886077D00C002C00351
:0A102700C007C0057403C0E0744464
:0E103100C0E07480C0E0123AADE58124FBF50A
:0D103F0081D003D00274012AFCE43BFFA81D
:0B104C0031080876008C038F057E0041
:0C105700A83108C3EE96506F8B828D8389
:0E106300E0FF605DC0068B828D83A3E0FEA8D7
:0A10710031080808A606087600A85A
:0C107B0031080886047A007E00C003C023
:0C10870005C006A831080808E6C0E00813
:0E109300E6C0E0C004C002C007C006C004C032
:0A10A10002740BC0E07444C0E07458
:0E10AB0080C0E0123AADE58124F5F581D00653
:0B10B900D005D003A831080806D006BF
:0A10C40074022BFBE43DFD0E808951
:0610CE00853181D03122C2
:0D4381006720256320675F6E202564200003
:0E438E00675F6E7320256C6420675F65772083
:0C439C00256C6420675F61202564200010
:0E43A800675F5920256420675F4D2025642043
:0843B600675F4420256420002C
:0E43BE00675F6820256420675F6D20256420FE
:0843CC00675F732025642000E7
:0943D400675F6864202564200085
:0E43DD00675F686520256420675F7665202590
:0E43EB006420675F7620256420675F672025C9
:0A43F9006420675F63202564200044
:08440300735F6E2025642000A8
:0E440B00735F76256420256420735F6325644B
:054419002025642000D5
:0710D400E50D600312290E77
:0910DB00E50E6005750D00800CA6
:0610E400E5106005851017
:0310EA000D800373
:0310ED00850F0D5F
:0B10F0007A0D7BFF8A828B8302186B55
:0A10FB00E4B50D0D7A0D7BFF8A822B
:071105008B8312182D80EF0F
:09110C00E50D24DF5003750D20F0
:0A1115007402250DFAE51175F022B1
:0A111F00A42439F58274F135F0F5CF
:0E11290083E4C0E0C002122828AA82158115B6
:0A11370081EA60C0E511045407F5D9
:0A114100117A117BFF8A828B831262
:04114B00186B80ACF1
:0C114F007A117BFF8A828B8312182D74AA
:0E115B000AC0E0E4C0E0758201122273158123
:04116900158180E28A
:02116D00AA11C5
:0A116F00E51070117B107CFF8B82ED
:0B1179008C83C00212182DD00280EB06
:09118400EAB51115E51060117BBC
:0C118D00117CFF8B828C83C00212182D95
:04119900D00280E719
:0A119D00E51060CEEA75F022A424EC
:0411A70039F5127490
:0A11AB00F135F0F513EA045407FAD9
:0711B500E4B50D0302128BEB
:0911BC0090F138C00212136B74AB
:0A11C5002EC0E07444C0E07480C046
:0D11CF00E0123AAD158115811581740225DD
:0B11DC000DC4540F90441E93F58212C6
:0911E700148B7402250D540F90C5
:0E11F000441E93F58212148BD0027D5A7E00AD
:0C11FE00AF0D780074022FFFE438F88E6B
:0E120A00017B00C3E99FEB648088F063F080F5
:0B12180095F05042EE2512F582E435FF
:0C12230013F583E0FB2DFDEBC4540F908D
:0E122F00441E93F582C002C003C005C0061223
:0E123D00148BD006D005D003740F5B90441EB6
:0E124B0093F582C005C00612148BD006D005A4
:05125900D0020E80A090
:0E125E00EDC4540F90441E93F582C002C005EB
:0E126C0012148BD005740F5D90441E93F58212
:0A127A0012148B75820A12148B9077
:07128400F1381213C9D0027A
:0A128B00C0021233C5D00202116F39
:0612950085820F0210D457
:05129B00050E0210D455
:0512A000150E0210D440
:0712A5001204397800E2F5A4
:0A12AC00107A107BFF8A828B8312F8
:0B12B600186B7A117BFF8A828B831279
:0512C100186B0210D4BF
:0712C600904435120740744B
:0812CD003DC0E07444C0E07470
:0812D5006DC0E07411C0E0904F
:0C12DD00F2C0121609E58124FCF58174B2
:0812E90049C0E07444C0E07448
:0812F100FBC0E07410C0E090A6
:0C12F900F337121609E58124FCF581741E
:0813050055C0E07444C0E0741F
:08130D004FC0E07411C0E09034
:0C131500F249121609E58124FCF5812242
:0E441E003031323334353637383961626364F9
:02442C006566C3
:07442E0054454C454D2000F0
:02443500A512CE
:06443700634400000000D8
:0C443D006D6F6E69746F725F70757400B3
:0C4449006D6F6E69746F725F67657400C0
:0E4455006D6F6E69746F725F626C696E6B00E2
:0E4463006D203C30206F66662C2031206F6C7F
:0E447100642C203230207374643E0053657456
:0E447F0020726164696F206D6F6E69746F72D8
:04448D00696E6700ED
:0A132100C031858131AA82AB83E060
:0C132B00FCA831181818E6B5040E7582F5
:0C13370003C002C00312142BD003D0022C
:07134300D21010AF02C2102E
:0B134A008A828B83E060047C00800D31
:0C1355008A828B83A831181818E6F07CFF
:01136100018A
:09136200A21092AF8C82D031225E
:0A136B00AA82AB83E0FC85158285A1
:0C1375001683A3A3A3A3A3E0FDECB50521
:0E1381000E758203C002C00312142BD003D0DD
:01138F00025B
:07139000D21010AF02C210E1
:0E1397008A828B83E060158A828B83C002C03D
:0713A50003C02212182DD035
:0713AC0022D003D00280E40F
:0A13B300851582851683A3A3A3A36A
:0C13BD00A3E08A828B83F0A21092AF2282
:0A13C900AA82AB83E0FC8515828543
:0C13D3001683A3A3A3A3A3E0FDECB505C3
:0313DF0002800E7B
:0E13E200758203C002C00312142BD003D00288
:0713F000D21010AF02C21081
:0C13F7008A828B83E4F08A828B83C02200
:0614030012186BD022A2BA
:041409001092AF226C
:06140D00AA827B007C00B6
:081413008A051AED60118C0539
:07141B001DEDFC60F38B04E2
:081422001CECFB60F40080F8F3
:01142A00229F
:04142B00AA82C2AF20
:0E142F00758214C00212140DD002EA30E61CC1
:0E143D00758201C00212224275822812140D1F
:0E144B0075820112224B75820A12140DD00216
:06145900743F5AFB7C0009
:0E145F00C3EC9B50CB758201C002C003C004D9
:0D146D0012224275820A12140D75820112BE
:0E147A00224B75820A12140DD004D003D0024A
:031488000C80D401
:03449100AF4480B5
:03449400B74480AA
:03449700BC4480A2
:03449A00C044809B
:03449D00C6448092
:0344A000CB44808A
:0344A300D1448081
:0344A600D8448077
:0344A900DD44806F
:0344AC00E4448065
:0844AF007374617274757000F2
:0544B70069646C650062
:0444BC0070616400C7
:0644C000626F6F737400CF
:0544C600666173740043
:0644CB00636F61737400D1
:0744D10064726F677565005E
:0544D8006D61696E003A
:0744DD006C616E6465640070
:0844E400696E76616C696400E9
:0C148B00AA82BA0A35780FE275F007A4B7
:0A14970024AEFBE434F3FC8B828CDE
:0E14A10083A3A3E0FBA3E0FCC002C003C004D1
:0A14AF0074BFC0E07414C0E0C00375
:0614B900C00475820D2243
:0614BF00D004D003D002AE
:0A14C500780FE275F007A424AEFBD7
:0C14CF00E434F3FC8B828C83A3A3E0FBCD
:0C14DB00A3E0FCC003C00474F1C0E07486
:0A14E70014C0E0C003C0048A822292
:0514F100D004D003222D
:0A14F600780FE275F007A424AEFAA7
:0C150000E434F3FB8A828B83A3A3A3A333
:0E150C00E0FAA3E0FB4A600FC002C0038A822F
:09151A008B8312008BD003D00278
:0115230022A5
:06152400C2AF780FE2FAED
:0B152A00EA75F007A424AEF582E4345B
:0C153500F3F583E0FBA3E0FCC0028B8216
:0E1541008C8312008BAB82AC83D002BBFF1EEA
:0C154F00BCFF1B0A7810E2B502027A0013
:0C155B00780FE2B502C990F3BCC0021288
:06156700182DD00280BD2A
:09156D00780FEAF2D2AF8B822262
:0A157600780FE275F007A424AEFA26
:0C158000E434F3FB74062AF582E43BF52A
:05158C0083E0F582225E
:0A159100C031858131AA82AB837856
:0C159B0010E2B4020E758207C002C0030B
:0715A70012142BD003D00247
:0A15AE007810E275F007A4FC24AEEB
:0C15B800F582E434F3F583EAF0A3EBF0D5
:0A15C400EC24AEFCE434F3FA8C8250
:0C15CE008A83A3A3E53124FCF8E6F0A317
:0C15DA0008E6F08C828A83A3A3A3A3E59B
:0C15E6003124FAF8E6F0A308E6F07406E1
:0C15F2002CF582E43AF5837401F07810C7
:0A15FE00E2FA781004F28A82D0317C
:0116080022BF
:0A160900C031858131AA82AB8374E1
:0C16130010B5140E758201C002C0031255
:06161F00142BD003D002E1
:021625007C0146
:05162700EC60347D00C1
:0A162C00C3ED95145023ED2D24BDED
:0C163600F582E434F3F583E0FEA3E0FF4E
:0E1642008E828F83A3A3A3A3A3E0FEB50402B0
:02165000800315
:031652000D80D731
:06165500EDB51402800354
:03165B000C80C937
:0E165E008A828B83A3A3A3A3A3ECF074062AB5
:0C166C00F582E43BF583E53124FAF8E652
:0E167800F0A308E6F08A828B83E4F0A3F074FE
:0C168600082AFCE43BFDE53124FCF8865A
:0E16920006088607C002C0038E028C828D837C
:0E16A000EAF0A3AC82AD838F068C828D83EEC0
:0E16AE00F0A3E4F0A37480F0A3AC82AD83D06F
:0516BC0003D0027E0DC9
:0E16C1008C828D83E4F0A3AC82AD83DEF38ACD
:0C16CF00828B83A3A3A3A37411F0D2109C
:0516DB0010AF02C21077
:0516E000E514251424AF
:0A16E500BDF582E434F3F583EAF06A
:0A16EF00A3EBF00514A21092AFD097
:0216F90031229C
:0E16FB00C0E0C0A8C082C083C0F0C002C0031F
:0E170900C004C005C006C007C000C001C0D0AB
:0A17170075D000C03174FFB517074C
:07172100E51414F517802CFC
:0A172800E5812471FA85158285160B
:0C17320083A3A3A3A3EAF074082515FB11
:06173E00E43516FC789072
:0E1744008605088B828C83EDF0A3AB82AC830C
:02175200DAF0CB
:0B17540075818FE5186004D2AF8002A1
:02175F00C2AF17
:02176100AA17C5
:051763000517E514B5B7
:051768001703751700D6
:05176D00E5172517241B
:0A177200BDF582E434F3F583E0F5E1
:06177C0015A3E0F516853F
:0A1782001582851683E0FBA3E0FC4E
:08178C00BB0005BC0002804413
:0A179400851582851683A3A3E0FBF0
:0E179E00A3E0FC4B6022C002122ED1AB82AC45
:0A17AC0083D002851582851683A301
:0E17B600A3E0FDA3E0FEEBC39DFBEC9EFC3028
:0217C400E7122A
:0A17C600EAB51799E5187095D2AF47
:0817D000758701C2AF02176327
:0A17D800851582851683A3A3A3A341
:0C17E200E0FA748F2AF58174082515FBCD
:0617EE00E43516FC7890C2
:0E17F4008B828C83E0FDA3AB82AC83A605083C
:0C180200DAF0D031D0D0D001D000D007F7
:0E180E00D006D005D004D003D002D0F0D08395
:0C181C00D082D0E020E705C2AF02182AFD
:02182800D2AF3D
:03182A00D0E022E9
:0A182D00AA82AB838515828516831D
:0C183700EAF0A3EBF01216FB8515828589
:0B1843001683E0FAA3E0FB4A601A8560
:0A184E001582851683E4F0A3F085EF
:0A1858001582851683A3A3E4F0A314
:05186200F07582012277
:041867007582002264
:06186B00AA82AB837C00A1
:0A187100C3EC9514502CEC2C24BDA0
:0C187B00F582E434F3F583E0FDA3E0FE09
:0E1887008D828E83E0FFA3E0F8EFB5020CE83F
:0B189500B503088D828E83E4F0A3F001
:0318A0000C80CEEB
:0118A3002222
:0A18A400AA82AB83E519451A6049DA
:0A18AE0074022515FCE43516FDC098
:0E18B80002C003C004C005122ED1E582858354
:0C18C600F0D005D004D003D0022519FE9C
:0A18D200E51A35F0FF0EBE00010F0D
:0E18DC008C828D83EEF0A3EFF0EE4F700E8540
:0A18EA001582851683A3A37401F094
:0318F400A3E4F07A
:0C18F7008A828B8312182DAA82E5194505
:071903001A600C85158285B6
:08190A001683A3A3E4F0A3F08F
:031912008A8222A4
:0B191500AA82AB83EA4B70037A01FB4F
:051920008A198B1A90EA
:05192500F3DD0218A42F
:07192A00C2AF1514AA1775E6
:0219310017FF9E
:0A193300C3EA95145029EA2A24BDE6
:0B193D00FBE434F3FCEA04FD25E02489
:0A194800BDF582E434F3F583E0FE00
:0E195200A3E0FF8B828C83EEF0A3EFF08D02FA
:0219600080D134
:06196200E4F515F5160284
:0219680016FB6C
:08196A00122ED185821B85833A
:031972001C7C00DA
:07197500C3EC9514400122B0
:0A197C00EC2C24BDF582E434F3F5F1
:0E19860083E0FDA3E0FE74062DF582E43EF53D
:0E19940083E0FFA3E0F879808D828E83A3A309
:0819A200E0F51DA3E0F51EE5D0
:0619AA001D451E600FE563
:0519B0001DC3951BF5AD
:0419B5001DE51E9579
:0519B9001CF51E800674
:0619BE00751D0F751E27C8
:0E19C4008D828E83E0FAA3E0FB8D828E83A3DA
:0E19D200A3A3A3A3E0FD7E00C004C007C000D5
:0A19E000C001C01DC01EC002C003FC
:0A19EA00C005C00674ECC0E07444B0
:0E19F400C0E07480C0E0123AADE58124F4F545
:071A020081D0040C021975EC
:071A09007517FFE4F515F568
:041A1000160216FBA9
:0E44EC002532643A20776368616E20253038EF
:0E44FA007820616C61726D2025356420257379
:024508000A00A7
:0A1A1400C031858131C082C083C05B
:0C1A1E00F0C0E07811E4F208F208F208D1
:0A1A2A00F27815E4F278167445F224
:0D1A34000874AFF20874FCF20874FFF2A809
:0C1A41003108E6248AFE08E6345EFF0847
:0C1A4D00E634F9FA08E634FFFBA8310883
:0E1A5900A60608A60708A60208A603EB30E7BB
:0A1A67001878157401F2A83108C3C5
:0E1A7100E496F608E496F608E496F608E49685
:011A7F00F670
:0C1A8000A83108860208860308860408C6
:021A8C008605CD
:0C1A8E007816C3E2F5F0E495F008E2F5EC
:0E1A9A00F0E495F008E2F5F0E495F008E2F5CE
:0C1AA800F0748063F08095F0502C7816EC
:0E1AB400E2248AF208E2345EF208E234F9F22B
:0C1AC20008E234FFF27811E22401F2087F
:0E1ACE00E23400F208E23400F208E23400F2E2
:021ADC0080B0D8
:0A1ADE007816E53124FAF9E227F248
:0E1AE80008E20937F208E20937F208E209378E
:0E1AF600F21ABAFF091BBBFF051CBCFF011D45
:071B0400ED20E703021A8E39
:0A1B0B007815E2601A7811E2D3F4B5
:0E1B15003400F208E2F43400F208E2F4340086
:071B2300F208E2F43400F2C5
:0A1B2A00E53124FAF87911E326FAF8
:0E1B340009E30836FB09E30836FC09E308362E
:0A1B42008A828B838CF0853181D0FC
:021B4C00312244
:0A1B4E00C031858131E582FAF4FB15
:0C1B5800E5905203A831181818E652025C
:091B6400EA4BF5900000D031229B
:0A1B6D00AA8243902043FE207B086B
:081B77007C00EA30E7027C204B
:0E1B7F00EA2AFA74104CFDC002C003C004C074
:0D1B8D0005758230121B4E158175823012D5
:0E1B9A001B4E1581D003D002DBD353FEDF2299
:041BA8007A007B083C
:0E1BAC00EA2AFAC002C0037410C0E07582106D
:0E1BBA00121B4E1581D003D00230950343025A
:011BC800011B
:0E1BC900C002C003E4C0E0758210121B4E156E
:0A1BD70081D003D002DBCE8A822207
:0E1BE100AA82758255C002121B6DD0028A8244
:061BEF00121B6D021BA891
:0A1BF500C031858131AA8275825645
:0D1BFF00C002121B6DD0028A82121B6DA85D
:0A1C0C00311818188682121B6D12A1
:051C16001BA8D03122E3
:0A1C1B00C031858131AA827582571D
:0D1C2500C002121B6DD0028A82121B6DA836
:0A1C3200311818188682121B6DE5A8
:0A1C3C003124FCF88682121B6D12A1
:051C46001BA8D03122B3
:0E1C4B00AA82AB83758200C002C003121BE1A7
:0C1C5900E582781AF274D0C0E07582E5D4
:0C1C6500121BF5AC821581781BECF274A8
:0E1C710082C0E07582E5121BF5AC8215817809
:0B1C7F001CECF27483C0E07582E512DB
:0C1C8A001BF5AC821581781DECF274840F
:0D1C9600C0E07582E5121BF5AC8215817867
:0B1CA3001EECF27485C0E07582E512B3
:0C1CAE001BF5AC821581D003D002781F1A
:0E1CBA00ECF28A048B02C004C0027582901204
:071CC8001C1B158115812290
:0C1CCF00781CE2C0E07482C0E0758275F1
:0C1CDB00121C1B15811581781DE2C0E071
:0E1CE7007483C0E0758275121C1B1581158177
:0C1CF500781EE2C0E07484C0E0758275C7
:0C1D0100121C1B15811581781FE2C0E048
:0E1D0D007485C0E0758275121C1B158115814E
:0C1D1B00781BE2C0E074D0C0E075827557
:0C1D2700121C1B15811581781AE2C0E027
:091D3300758274121BF515812262
:0E1D3C00AA82C002758274121BF51581758291
:0A1D4A00F0121BE17582A3021BE1F9
:0C1D54007582E0121BE17582A3021BE106
:0E1D600053F4C743F62043901843FE1853FE79
:021D6E00DF2272
:021D70007A14E3
:041D720000DAFD2274
:0C1D7600AA82C002121D70D002C01F8A99
:071D820082121B4E158122A5
:0C1D8900AA82C002121D60751F3875820E
:0C1D950038121D76D00274204AFB8B1F10
:0E1DA100758238C002C003121D7690000A122F
:0E1DAF0019157430C0E0758238121B4E158174
:0B1DBD00D0038B1F758238121D767555
:0C1DC8001F30758238121D76D00274287E
:0C1DD4004AF51F758238121D7690000A37
:031DE000021915D0
:061DE300758200021D895B
:061DE900758210021D8945
:0A1DEF001203837806E2B40A012211
:091DF9001204397807E2700A783F
:091E020000E2F582121B6D80E480
:011E0B0022B4
:091E0C001204397807E26001229A
:0C1E15007800E2FA08E2FBC3E49A7401D2
:091E21009B500678077402F222BE
:041E2A007C007D00BB
:0E1E2E00C3EC9AED9B5042EC4D601BEC540748
:0E1E3C00701675820AC002C003C004C00512F1
:0A1E4A00148BD005D004D003D002A1
:0E1E5400C002C003C004C005121BA812034F39
:0E1E620075822012148BD005D004D003D0025C
:071E70000CBC00BA0D80B7A5
:061E770075820A02148BC3
:0C1E7D001204397800E2FA08E2FBC0020F
:0C1E8900C003120439D003D0027800E23C
:0A1E9500FC08E2FD7807E26001227C
:0E1E9F008C828D83C002C003121C4BD003D076
:031EAD00027C00B4
:091EB0008A058B061ABAFF011B1A
:0E1EB900ED4E602E8C050CED540770127582F4
:0E1EC7000AC002C003C00412148BD004D00362
:021ED500D00239
:0E1ED700C002C003C004121D5412034FD004F9
:061EE500D003D00280C50D
:091EEB00121CCF75820A02148B4F
:0C1EF4001204397800E2FA08E2FBC00298
:0C1F0000C003120439D003D0027800E2C4
:0A1F0C00FC08E2FD7807E260012204
:0E1F16008C828D83C002C003121C4BD003D0FE
:011F240002BA
:091F25008A048B051ABAFF011BA6
:0E1F2E00EC4D6032C002C0031202E0E582C436
:0E1F3C0054F0FCC0041202E0AD82D004D003C9
:0B1F4A00D002ED42047807E2600122A3
:0E1F55008C82C002C003121D3CD003D002805B
:011F6300C1BC
:031F6400021CCF8D
:061F670090450A0207404C
:02450A00E31DAF
:02450C00264542
:02450E000C1E81
:0245100035452F
:024512007D1E0C
:02451400484518
:02451600F41E91
:024518007145EB
:02451A00EF1D93
:02451C009B45BD
:02451E00E91D95
:06452000B145000000009F
:0E4526004400456E61626C65206465627567D5
:014534000086
:0E45350047203C636F756E743E00476574202E
:054543006461746100D9
:0E45480049203C636F756E743E203C616464D4
:0E455600723E00496E707574203C636F756E86
:0D456400743E206174203C616464723E006E
:0E4571004F203C636F756E743E203C616464A5
:0E457F00723E004F7574707574203C636F754A
:0E458D006E743E206174203C616464723E00D6
:0E459B0050203C627974653E202E2E2E00507A
:0845A900757420646174610067
:0845B1005200526573657400AD
:041F6D0075B6B02273
:0A1F7100E52314541F25E025E024A9
:051F7B00DEF555E43421
:041F8000F3F55675AA
:061F84005704E4F55802C9
:021F8A002E36F1
:0C1F8C00C022C0E0C0F0C082C083C002D0
:0E1F9800C003C004C005C006C007C000C001E1
:0C1FA600C0D075D000E5B5E52325E0258E
:0A1FB200E024DEFAE434F3FB7402CD
:0E1FBC002AFAE43BFB8A828B83E5BAF08A8224
:0C1FCA008B83A3E5BBF0E52325E025E0B8
:0A1FD60024DEFAE434F3FBC002C07D
:0E1FE00003122ED1AC82AD83D003D0028A82D0
:0C1FEE008B83ECF0A3EDF0E52304541FFE
:0A1FFA00F5237A237BFF8A828B8394
:0E20040012186BD0D0D001D000D007D006D07B
:0E20120005D004D003D002D083D082D0F0D00D
:04202000E0D02232B8
:0720240090F45E121F7190A1
:0E202B00F460E0FAA3E0FB90F45EE0FCA3E0BA
:0C203900FDC002C003C004C00574B9C0A3
:0C204500E07445C0E07480C0E0123AADC9
:07205100E58124F9F581226D
:0E20580075F201C28D43A8029045CD020740EB
:0E45B9007469636B3A20253575206261747455
:0645C700202535640A0006
:0245CD002420A8
:0645CF00D54500000000CC
:0E45D500610043757272656E742041444300AC
:0C206600AA82AB837405B5240E758202BB
:0B207200C002C00312142BD003D002E8
:08207D00AC240524EC2CFD2429
:0A2085008AF582E434F4F583EAF0F2
:0E208F00A3EBF0EC701FF5D1C2C043B8017A8C
:06209D00627BF48BD57A92
:0620A300627BF48AD47A8E
:0620A9006A7BF48BD37A80
:0520AF006A7BF48AD2F7
:0320B4008C8222F9
:0C20B700AA828AF005F07B017C00800604
:0620C300EB2BFBEC33FCEB
:0E20C900D5F0F7ADD67E00ED5203EE5204EBDB
:0D20D7004C600A758202C00212142BD00268
:0C20E400EAC40354F8FA2462F582E434E4
:0620F000F4F583AB25AC02
:0A20F600268C05EDF0EA2462FAE4FE
:0C21000034F4FD8A828D83A3EBF08A8208
:0A210C008D83A3A3AB27AC288C063B
:0E211600EEF08A828D83A3A3A3EBF08A828D64
:0C21240083A3A3A3A3E52AF08A828D8385
:0C213000A3A3A3A3A3E529F074062AF5DD
:0C213C0082E43DF583E52BF074072AF5E2
:0B21480082E43DF5837408452CF02272
:0A215300AA828AF005F074018002F0
:02215D0025E07B
:0E215F00D5F0FBFBF4FC52D1EB55D6600D74AD
:0C216D00804BF5D60000000000000000D0
:0A217900EA2A248AF582E434F4F522
:0E21830083E0FAA3E0FC8A828C83E4F08BD622
:0A2191000000000000000000002222
:0A219B00AA828AF005F074018002A8
:0221A50025E033
:0621A700D5F0FB42D72237
:0A21AD00AA828AF005F07401800296
:0221B70025E021
:0E21B900D5F0FBFA74804AF5D6EAF452D12232
:0C21C700C022C0E0C0F0C082C083C00293
:0E21D300C003C004C005C006C007C000C001A4
:0B21E100C0D075D0007A017B007C00AC
:0C21EC00C3EC95245033EA55D16026C2A4
:0C21F800C0EAF4F5D1EB2B248AF582E458
:0C22040034F4F583E0FDA3E0FE8D828E33
:0D221000837401F08D828E8312186B80089C
:08221D00EA2AFA0C8C0380C7C9
:0E222500D0D0D001D000D007D006D005D00414
:0D223300D003D002D083D082D0F0D0E0D014
:02224000223248
:09224200AA827820E25A4290229F
:0C224B00AA827820E25202EAF4529022AB
:0C225700AA827820E2F4FBE590520378A4
:0722630020E25A4BF5902226
:09226A00AA827820E25A62902257
:0A227300C031858131AA82C0021239
:0C227D002242E53124FCF88682088683AA
:0B228900121915D0028A8212224BD0DD
:022294003122F5
:0C229600AA827820EAF2EAF4FB52F4EB92
:0622A2005290EA42FE2208
:0C22A8007582011222427823E260369019
:0722B400F4E3E07030755502
:0322BB002E755627
:0522BE00F57823E2F5B4
:0522C300577558009062
:0622C800F4E6122E369030
:0722CE00F4E37823E2F09035
:0B22D500F4E4E0FA0A90F4E4EAF07888
:0722E00023E4F290F52E1239
:0222E700186B72
:0E22E900744CC0E090F4E21227B115817582AA
:0422F7000102224B73
:0E22FB00AA82C002744EC0E090F4941228280B
:0C230900AA8215811581EA7003F582227A
:0C23150090F4E1E0FA20E7047582002259
:08232100740724F3F555E434C0
:04232900F0F5567500
:06232D005708E4F558908A
:0A233300F4D8122E8FE582601C7AA8
:04233D00E37B458A6F
:04234100558B5675ED
:062345005707E4F5589073
:0D234B00F0FA122E8FE582600475820022E8
:0E23580090F495E0FABAFF1890F496E0FB7846
:0823660024F290F497E0FC90D2
:0A236E00F4E4F090F4E5EBF0805A7F
:0C237800EA605790F496E0FB7824E22421
:0823840001FCEBB50402800727
:07238C0090F626E0FB603F24
:0A23930078227921E2F5F0E3B5F0BD
:09239D003474042494F555E43471
:0423A600F4F5568A6A
:0523AA0057755800907A
:0623AF00F56E122E3678D7
:0823B50022E4F290F495E078B7
:0823BD0021F290F496E0FA7899
:0823C50024F290F4E5EAF09027
:0523CD00F3BC12186BC7
:0B23D20090F626E4F090F497E0FA90FB
:0E23DD00F4E4E0FBEAB5030B90F4E3E4F090C7
:0523EB00F4E212186B82
:0423F00075820122CF
:0C23F4007823E2600D90F627E0FA600606
:0624000090F62702186BA4
:0124060022B3
:02240700AA82A7
:0C2409007823E2B4401690F625E0FB605A
:0A2415000FC0021223F490F52E12FE
:06241F00182DD00280E43C
:0C24250090F625E0FB60147823E2FB78C1
:0A2431002304F2EB242EF582E434BC
:05243B00F5F583EAF055
:012440002279
:0B24410090F625E0FA700490FFFF22E7
:0A244C0078227921E2F5F0E3B5F003
:052456000490FFFF22CD
:0A245B007822E2FA782204F2EA2463
:0A2465006EF582E434F5F583E0FA29
:07246F007B008A828B8322AF
:0745E3004E3043414C4C0037
:0E247600122441AA82AB838A048B05BAFF228E
:0E248400BBFF1F90F625E0FA601890F627E0E7
:09249200FA600690F62712186B9F
:07249B001214F690F3BC12CD
:0424A200182D80D0A1
:0524A6008C828D8322F1
:0E24AB0090F625E0FA6016122476AA82AB8322
:0824B900BAFF05BBFF0280EA37
:0724C1008A8212148B80E3F4
:0324C80002192ACC
:0E24CB0090F69F740AF0E4A3F0122ED1E58281
:0C24D9008583F090F6A1F0A3E5F0F0225E
:0E24E50090F69FE0FAA3E0FBBA0A31BB002E8E
:0E24F300122ED1AA82AB8390F6A1E0FCA3E0EA
:0E250100FDEAC39CFAEB9DFBC374C89A74807C
:0E250F008BF063F08095F0500990F69F746495
:04251D00F0E4A3F053
:012521002297
:0D252200120A149000A4E493FA740193903F
:0B252F00F4E2EAF090F4E374FFF01215
:0E253A002ED1E5828583F090F6A1F0A3E5F0A6
:0A254800F090F69F740AF0E4A3F08F
:0A25520090F625E0FA70030225DE82
:08255C00740724F3F555E43483
:04256400F0F55675C3
:062568005708E4F558904D
:06256E00F526122E3612C4
:0925740022A890F4E3E0600312D8
:02257D0024CB6D
:0E257F001224E590F12DE0FAE4CA25E0CA33FB
:0A258D00FB8AF005F090000A800BB5
:0B259700E5822582F582E58333F583A1
:0C25A200D5F0F21222FBE58260A678233F
:0925AE00E2600690F4E3E0609B9A
:0925B70090F495E060031224CBBE
:0B25C00090F6277401F090F69FE0F504
:0625CB0019A3E0F51A90CF
:0625D100F6271218A49089
:0725D700F627E4F002255293
:0325DE0002192AB5
:0B25E10090F6257401F07823E4F2125C
:0625EC0003831214F61235
:0725F200129B74EAC0E074C3
:0825F90045C0E07422C0E0744B
:0726010025C0E090F5AE12C8
:0C2608001609E58124FCF58174F1C0E0A6
:092614007445C0E074ABC0E07431
:07261D0024C0E090F6281232
:082624001609E58124FCF58193
:0C262C00121524AA828A03BA7E02800CD8
:05263800BB0D027B0A4E
:07263D008B8212240780E8E4
:022644007A001A
:0B2646007823E2700690F4E3E06015DA
:0E265100C3EA6480948A500D90000AC0021201
:07265F001915D0020A80E00A
:0526660090F625E4F0F0
:0E266B0090F628E0FAA3E0FB4A700B90F5AE63
:08267900E0FAA3E0FB4A601146
:0726810012290E90F3BC12B8
:0A268800186B90000112191580D99B
:032692000212A091
:0E26950090F6A8E0FA3395E0FBC002C0037493
:0A26A300F6C0E07445C0E07480C08A
:0B26AD00E0123AADE58124FBF581222C
:0626B800904600020740FD
:0745EA006D6173746572003E
:0545F1006563686F0026
:0A45F600525353493A2025640A008D
:02460000E125B2
:024602000C4664
:024604009526F9
:0646060022460000000046
:0E460C00700052656D6F7465207061636B65A0
:08461A0074206C696E6B2E0028
:0E46220073005265706F7274207369676E6169
:0C4630006C20737472656E6774682E0055
:0C26BE00C022C0E0C0F0C082C083C00297
:0E26CA00C003C004C005C006C007C000C001A8
:0E26D800C0D075D000539BFCE5E930E5081238
:0726E600290E53E9DF801407
:0E26ED00E5E930E40F90F6A57401F090F6A533
:0626FB0012186B53E9EF19
:0E270100D0D0D001D000D007D006D005D00433
:0D270F00D003D002D083D082D0F0D0E0D033
:02271C00223267
:02271E007A003F
:03272000BA0A00F2
:0D2723005018EA90469A93FB7CDFEA049080
:0D273000469A93FD8B828C83F00A0A80E3A9
:01273D002279
:09273E0090DF3BE0FABA01012230
:0E27470075E1041216FB90DF3BE0FABA01F2D6
:012755002261
:0B275600AA82C002120A1490F6A7121B
:0D276100136B12273ED00290DF06E4F090CB
:0D276E00F110E0FBA3E0FCA3E0FDA3E09070
:0E277B00DF09EDF090DF0AECF090DF0BEBF0E1
:0D27890090DF02EAF090F12DE025E0FA90DB
:0C27960046A49390DF0CF0EA24A4FAE4BF
:0B27A2003446FB8A828B83A3E49390F3
:0427AD00DF11F02226
:0A27B100C031858131AA82AB83A8F4
:0B27BB00311818188682C002C00312FB
:0C27C6002756D003D00290F6A5E4F09056
:0A27D200F6A3E0FCA83118181886E1
:0527DC0029752A008AA6
:0427E100258B2675A9
:0627E50027D97528DF75FD
:0827EB002B13752C428C8212A5
:0927F30020B790F6A3E0F5821274
:0B27FC00215375E103D21010AF02C2A0
:0128070010C0
:0B28080090F6A5E0FA700C90F6A5C059
:052813002212182DD077
:032818002280ED2E
:08281B00A21092AF90F6A71283
:0528230013C9D03122B1
:0A282800C031858131AA82AB839094
:0C283200F6A6E4F0A831181818E624FE01
:0E283E00F582C002C003122756D003D00290CC
:0A284C00F6A3E0FCA8311818188666
:0528560029752A007540
:06285B0025D97526DF8A75
:04286100278B287524
:0A2865002B13752C128C82C002C0E8
:0B286F00031220B790F6A3E0F58212E0
:0C287A002153D003D00275E102D21010EF
:04288600AF02C210CB
:0E288A0090F6A4E0FC702790F6A6E0FC70200B
:08289800E53124FCF8861975F6
:0A28A0001A0090F6A4C002C003C0A5
:0728AA00221218A4E582D000
:0728B10022D003D00260D227
:0C28B800A21092AF90F6A4E0FC70139008
:0928C400F6A3E0F5821221AD1229
:0928CD00273E90F6A8E4F08029F2
:0C28D600A83118181886047D00EC24FEC0
:0E28E200FCED34FFFDEC2AF582ED3BF583E0C2
:0E28F000A2E713FA3395E0FBEA24B690F6A8AF
:0128FE00F0E9
:0728FF0090F6A71213C99027
:08290600F6A4E0F582D03122B5
:0A290E0090F6A67401F090F6A40202
:02291800186B3A
:0C291A0090F6A6E4F075827D122756901E
:06292600F6A5E4F07A00C2
:03292C00BA0E00E0
:0D292F005018EA90468C93FB7CDFEA049080
:0D293C00468C93FD8B828C83F00A0A80E3A9
:01294900226B
:0D294A0090F6A3E0F58212215375E103D24F
:062957000010AF02C200F7
:0E295D0090F6A5E0FA700F90F6A6E0FA70086A
:08296B0090F6A512182D80EA78
:0C297300A20092AF90F6A5E0FA700C9064
:09297F00F6A3E0F5821221AD126D
:02298800273EE8
:07298A0012271E90F6A702C0
:0229910013C968
:0929930012291A90F6A3E0FA7B68
:04299C00AA7C468B40
:0429A000258C2675E7
:0629A40027D97528DF753C
:0629AA00297DE4F52A7509
:0829B0002B13752C028A821220
:0529B80020B702294ACE
:0E29BD00AA82C00212291AD00290F6A3E0FBF3
:0C29CB007403C39AC42354E024ACFAE463
:0629D7003446FC8A258C49
:0529DD00267527D975E5
:0729E20028DF752978E4F5F8
:0529E9002A752B137597
:0829EE002C428B821220B7027B
:0229F600294A6C
:0A29F80090F6A67401F090F6A50217
:022A0200186B4F
:0E2A0400E582FA602190F6A9E0FAA3E0FB4A11
:0E2A1200703412129B7582FF12275675E10375
:0A2A200090F6A97401F0E4A3F0227F
:0E2A2A0090F6A9E0FAA3E0FB4A601312273EE3
:072A380090F6A71213C990EC
:092A3F00F6A9E4F0A3F00212A0D4
:012A4800226B
:0C2A49007A02C002120383D0027806E279
:052A5500B40A02800735
:072A5A001204927802E2FA77
:0E2A61000AEA30E10A758201C002122A04D08E
:012A6F000264
:0A2A7000BA0325C0027464C0E074CC
:0C2A7A0047C0E07480C0E0123AAD158146
:0E2A8600158115811214F612152475820A129C
:042A9400148BD002CD
:0A2A9800EA30E006758200022A040D
:012AA2002211
:082AA3001204397800E2FA7810
:052AAB0007E2600122BA
:0E2AB000C002120439D0028A827583DFE0FB77
:0E2ABE007C008A057E00C002C003C004C00573
:0A2ACC00C006747FC0E07447C0E04C
:0E2AD6007480C0E0123AADE58124F9F581D09C
:0C2AE400027807E2702B8A827583DF788D
:0C2AF00000E2F08A827583DFE0FA7B00D0
:0A2AFC00C002C0037489C0E07447F3
:0E2B0600C0E07480C0E0123AADE58124FBF51A
:012B1400813F
:092B15007807E4F27490C0E0744A
:0C2B1E0047C0E07480C0E0123AAD1581A1
:052B2A00158115812258
:022B2F007A002A
:032B3100BA500097
:0D2B34005018EA90463C93FB7CDFEA0490C9
:0D2B4100463C93FD8B828C83F00A0A80E3F2
:0A2B4E0012271E90F6A47401F01285
:0E2B58002066E58290F6A3F075E900759130D5
:092B6600439A01904792020740D6
:0E463C0027C028C029C02AC02BC02CC02DC00A
:0E464A002EC0070608000DA30E110FA21011BE
:0E46580006001B101A561CE91D0A1E001F1F2B
:0E46660023812435250900D301910324044447
:0E467400050012071330141815001660170306
:0A468200180019002F00300031006D
:0E468C000CD60D5E0E900F02111603000400F6
:0A469A000DA30E110FA20324044427
:0646A400DA36F816F600FC
:0246AA005500B9
:0E46AC00000000000000000000000000000000
:0E46BA0000000000000000000000555555559E
:0E46C800555555550000000000000000000090
:0E46D6000000000000000000000000000000D6
:0E46E400555555555555555500000000000020
:0E46F2000000000000000000000000000000BA
:0E470000000000005555555555555555000003
:0E470E0000000000000000000000000000009D
:0E471C0000000000000000000000000000008F
:0E472A00000000000000000000000000000081
:0E473800000000000000000000000000000073
:0E474600000000000000000000000000000065
:0E475400000000000000000000000000000057
:02476200000055
:0E476400486974206120636861726163746546
:0D4772007220746F2073746F702E2E2E0055
:0A477F0052465B25785D2025780086
:07478900202D3E20257800E1
:024790000A001D
:02479200492AB2
:024794009E473E
:02479600A32A54
:06479800D0470000000004
:0E479E0043203C312073746172742C20302053
:0E47AC0073746F702C206E6F6E6520626F74D8
:0E47BA00683E00526164696F2063617272692B
:0847C800657220746573740032
:0E47D00056203C6F66667365743E203C766131
:0E47DE006C75653E0053657420726164696FEE
:0A47EC00207265676973746572003E
:0200A00002005C
:0200A200FDFF60
:0200A40000005A
:0400A600331B1200F6
:0C2B6F00C022C0E0C0F0C082C083C002E1
:0E2B7B00C003C004C005C006C007C000C001F2
:0E2B8900C0D075D00090F6ADE0FA7B000ABA1D
:032B970000010B2F
:0E2B9A0053021F7B0090F6AEE0FC7D00EAB512
:082BA8000406EBB50502801CD8
:0A2BB00090F6ADE024AFF582E434A6
:0C2BBA00F6F583E5F9F090F6ADE0045468
:062BC6001FFA90F6ADF0CD
:072BCC0090F6AD12186B90AA
:062BD300F3BC12186B9028
:0E2BD900F6ADE0FA7B0090F6AEE0FC7D00EA7F
:0E2BE700C39CFAEB9D53021F7B00C3EA9418B7
:092BF500EB648094804002D2835D
:0E2BFE00D0D0D001D000D007D006D005D00432
:0D2C0C00D003D002D083D082D0F0D0E0D031
:022C1900223265
:0E2C1B0090F6CFE0FA90F6D0E0FBEAB50301A8
:012C29002288
:0E2C2A0090F6F1E0FA702290F6F17401F0904D
:092C3800F6D0E024D1F582E43469
:0C2C4100F6F583E0F5F990F6D0E00454BD
:062C4D001FFA90F6D0F022
:012C5300225E
:0C2C5400C022C0E0C0F0C082C083C002FB
:0E2C6000C003C004C005C006C007C000C0010C
:0D2C6E00C0D075D000C2EA90F6F1E4F0127B
:062C7B002C1B90F6CF12A5
:0E2C8100186BD0D0D001D000D007D006D005FF
:0E2C8F00D004D003D002D083D082D0F0D0E0A9
:032C9D00D0223210
:052CA000D310AF01C3D9
:022CA500C0D09D
:0E2CA70090F6ADE0FA90F6AEE0FBEAB5030859
:082CB50090F6AD12182D80EA23
:0A2CBD0090F6AEE024AFF582E43497
:0C2CC700F6F583E0FA90F6AEE004541F2E
:0C2CD30090F6AEF090F6ADE0FB7C0090B7
:0E2CDF00F6AEE0FD7E00EBC39DFBEC9E5303C2
:0E2CED001F7C00C3EB9408EC648094804002CE
:022CFB00C28392
:072CFD008A82D0D092AF22C1
:0E2D040090F6ADE0FA90F6AEE0FBEAB50304FF
:042D120090FFFF220D
:0A2D160090F6AEE024AFF582E4343D
:0C2D2000F6F583E0FA90F6AEE004541FD4
:0C2D2C0090F6AEF090F6ADE0FB7C00905D
:0E2D3800F6AEE0FD7E00EBC39DFBEC9E530368
:0E2D46001F7C00C3EB9408EC64809480400274
:022D5400C28338
:072D56007B008A828B8322BF
:052D5D00D310AF01C31B
:042D6200C0D0AA82B1
:0C2D660090F6CFE0FB7C000BBB00010CE2
:0E2D720053031F7C0090F6D0E0FD7E00EBB511
:0E2D80000510ECB5060C90F6CFC00212182D0F
:042D8E00D00280D41B
:0A2D920090F6CFE024D1F582E4347E
:0C2D9C00F6F583EAF090F6CFE004541F37
:0C2DA80090F6CFF0122C1BD0D092AF227E
:052DB400D310AF01C3C4
:022DB900C0D088
:0E2DBB0090F6CFE0FA90F6D0E0FBEAB5030206
:022DC900800880
:082DCB0090F6CF12182D80E8EC
:052DD300D0D092AF22F8
:0E2DD800AA82C002122DB4D002EA24FB5001E0
:012DE60022CA
:0E2DE70043FB80EA2AFA9047F693F5FAEA24B5
:0A2DF500F6FAE43447FB8A828B8370
:062DFF00A3E493F5FC22A1
:0E2E050053F1FDAAFF743F5AF5F0744045F0FA
:0E2E1300F5FF43F330C28343FD0843F304434D
:0E2E21008F0475F8C0758200122DD875FBC2A3
:072E2F0043A808439A0822A2
:0A47F600A307A308A3093B0B3B0C2B
:082E3600AA82AB83AC57AD5832
:092E3E008C068D071CBCFF011D70
:0A2E4700EE4F601FAE55AF568E82AD
:0E2E51008F83E0F88A828B83F00ABA00010BAF
:0A2E5F0074012EF555E43FF556808E
:012E6900D494
:012E6A002245
:082E6B00AA82AB83AC56AD57FF
:092E73008C068D071CBCFF011D3B
:0C2E7C00EE4F600E8A828B83E555F00A51
:062E8800BA00E80B80E532
:012E8E002221
:082E8F00AA82AB83AC57AD58D9
:092E97008C068D071CBCFF011D17
:0C2EA000EE4F60298A828B83E0FEAF5564
:0C2EAC00A8568F828883E0F9EEC399FEDF
:052EB80060038E822280
:052EBD000ABA00010B40
:0A2EC20074012FF555E438F5568031
:012ECC00CA3B
:042ECD0075820022E8
:0301A600752F01B1
:052ED100D310AF01C3A6
:0A2ED600C0D0852D82852E83D0D058
:032EE00092AF228C
:0C2EE300C022C0E0C0F0C082C083C0026A
:0E2EEF00C003C004C005C006C007C000C0017B
:0A2EFD00C0D075D0007401252DF53A
:052F07002DE4352EF55C
:042F0C002E0530E579
:052F10002FB53006752D
:052F15003000121F6DE9
:0E2F1A00D0D0D001D000D007D006D005D00412
:0D2F2800D003D002D083D082D0F0D0E0D012
:022F3500223246
:052F3700D310AF01C33F
:0A2F3C00C0D085822F753000D0D080
:032F460092AF2225
:0E2F490075DB7575DA3075E50475E60075E721
:0C2F57000075E200D2DED2B975E406225B
:042F63007A007B0075
:052F67001ABAFF011B76
:072F6C00EA4B60030080F452
:012F7300223B
:0E2F740053BEFBAAC674BF5AF5F0744045F078
:022F8200F5C692
:0B2F8400E5BE30E5FB122F6353C6BF13
:0B2F8F00E5BE30E6FB43BE0453C6C0A5
:082F9A00E5C6543F600280F817
:012FA200220C
:0D2FA30090DE077421F090DE097410F090AC
:062FB000DE0B7404F022A8
:0C2FB600C022C0E0C0F0C082C083C00296
:0E2FC200C003C004C005C006C007C000C001A7
:0D2FD000C0D075D000C2E890DE02E0FA78B3
:0A2FDD0027E24AF27827E25401606F
:072FE7000690F6F212186BD0
:0B2FEE007827E25420600690F769127B
:022FF900186B53
:0E2FFB0090DE04E0FA30E40690F3BC12186B8E
:0B30090090DE06E0FA30E203122FA375
:0E301400D0D0D001D000D007D006D005D00417
:0D302200D003D002D083D082D0F0D0E0D017
:02302F0022324B
:0E30310090DE0EE4F090DE11E0FA30E10122B4
:0A303F00782DE2FB24DF50027B2015
:073049007A02BB20028006A1
:063050007A0A7829E4F27F
:06305600782DE2C39BF29D
:0C305C008B041BEC6028782AE2FC08E2E0
:0E306800FD08E2FE8C828D838EF0124073FF15
:0C307600782A74012CF2E43D08F208EE08
:08308200F290DE20EFF080D295
:0B308A0090DE0EE4F090DE11EAF02270
:08309500AA82AC837BAA7D0036
:0E309D008B828D83E493FE60408B828D83A333
:0E30AB00E493FFB504278A071AEF7021BC02D8
:0C30B9000E8B828D83A3A3E493FF782D7F
:0330C500F2800492
:0430C800782DEEF27F
:0C30CC00782AEBF208EDF2087480F22282
:0E30D8008B828D83E493FE2BFBE43DFD80B7DD
:0130E60022C7
:0C30E70090DE0EE4F090DE16E0FA783087
:0930F300C3E29A50047830E2FABD
:0630FC007830E2C39AF2F5
:0C3102008A031AEB601D7831E2FB08E242
:0C310E00FC90DE20E0FD8B828C83F078CA
:0B311A003174012BF2E43C08F280DD70
:013125002287
:0A312600AA82782DE2FB782D04F256
:07313000EB242EF8EAF22265
:0C313700AA8278287401F290DE00EAF011
:013143002269
:0D31440090DE0E7405F090DE107408F0901F
:0D315100DE12E04401F090DE0E7404F090F8
:0C315E00DE137408F090DE157401F022FE
:07316A007831746DF2087466
:08317100F7F278307408F21245
:0831790030E77830E26001222A
:0A318100782A742EF208E4F20874B4
:0C318B0060F2782DE4F290F76DE0FA7429
:0B319700605AFB6009BB200302325F9E
:0331A20002328F67
:0831A50053021FBA0002800F63
:0631AD00BA010302322604
:0631B300BA0203023248DB
:0331B90002328F50
:0C31BC0090F76EE0FA6017BA050280215F
:0531C800BA0602802B95
:0531CD00BA0802803881
:0531D200BA0902803E75
:0331D70002328F32
:0D31DA007582001231267582001231260226
:0231E700328F25
:0D31E90090F76FE0FAA3E08A8212313702FE
:0231F600328F16
:0D31F80090F76FE0FAA3E0FB8A828B831250
:05320500309502328F3C
:09320A007833E2F582123126024C
:02321300328FF8
:0C32150090F76FE0FAA3E07833EAF212C1
:05322100314402328F70
:0C32260090F76EE0FA6005BA0A5F800EB7
:0E323200758200123126758200123126804FFF
:0832400075820012312680475F
:0932480090F76EE0FA6002803E8E
:0E3251007582001231267582001231268030FF
:0A325F0090F76EE0FABA2002800535
:05326900BA21238010D2
:08326E0078307407F278317426
:08327600FDF20874F7F280116B
:08327E00782D7407F2782A7420
:09328600FDF20874F7F208E4F20D
:0B328F0090DE0EE4F0782DE26027785E
:0B329A00297401F290DE117440F090E6
:0C32A500F773E0FAA3E0FB782DE2FC7D5B
:0C32B10000C3EA9CEB9D5004782DEAF26B
:0332BD00023031AB
:0A32C0007830E2600C78297402F205
:0732CA0090DE117440F022B8
:0C32D10090F773E0FAA3E0FB4A600C7871
:0B32DD00297403F290DE117460F022EF
:0B32E8007829E4F290DE117448F02217
:0432F3007829E4F260
:0732F700D20110AF02C20179
:0A32FE007827E2540160087827E207
:0533080054FEF28008F4
:08330D0090F6F212182D80E980
:0C331500A20192AF90DE0EE4F090DE11F9
:0C332100E0FA30E40A90DE117480F078CD
:03332D0029E4F29E
:0C333000EA30E20990DE11E4F07829E4B4
:01333C00F29E
:0C333D007829E2B4010BEA20E107C0028D
:05334900123031D0023A
:0C334E00EA30E0A57829E2B40002800813
:08335A007829E2B40297800516
:0533620012316A8090A9
:0C3367001230E790DE0EE4F07830E270E7
:0C3373000D7829E4F290DE117448F0029D
:02337F0032F723
:0933810090DE117440F00232F7F5
:0E338A0090DE0E7405F090DE11E0FA30E008DF
:0833980090F76912182D80EA7C
:0133A000220A
:0E33A10090DE0E7405F090DE11E04401F09015
:0C33AF00F769E0FAA3E0FB7825EAF208D9
:0A33BB00EBF290F769E4F0A3F022B2
:0533C500D310AF01C3AD
:0933CA00C0D07828E270028020D6
:0C33D30090F769E0FAA3E0FB4A700F7865
:0C33DF0025E2B4400708E2B400028002BE
:0233EB0080065A
:0633ED0012338A1233A125
:0533F300D0D092AF22D2
:0533F800D310AF01C37A
:0B33FD00C0D0AA827828E2700280296C
:0D340800C00212338AD00290DE2AEAF09052
:0E341500F769E02401F0A3E03400F090F769BD
:0E342300E0FAA3E0FBBA4006BB00031233A19F
:05343100D0D092AF2293
:0E34360090F76BE0FAA3E0FB4A704290DE0EC6
:0E3444007404F090DE14E0FA20E00490FFFF24
:013452002257
:0E34530090DE17E0FB7A0090DE16E0FC7D00B4
:0E3461004202ED420390F76BEAF0A3EBF0EAB3
:0E346F004B701190DE0E7404F090DE14E054E9
:06347D00FEF090FFFF22AB
:0D34830090F76BE024FFFAA3E034FFFB900C
:0D349000F76BEAF0A3EBF090DE28E0FA9075
:0E349D00F76BE0FBA3E0FC4B700E90DE0E74AC
:0A34AB0004F090DE14E0FB54FEF084
:0734B5007B008A828B832259
:0234BC00C2AF9D
:0E34BE00123436AA82AB838A048B05BAFF0B48
:0B34CC00BBFF0890F3BC12182D80E736
:0534D700D2AF8C82223F
:0D34DC0043BE80123144122FA3439A029088
:0D34E900DE06E4F090DE04F090DE02F0223A
:0E34F60090DE07E4F090DE09F090DE0BF0535C
:0E3504009AFD90DE06E4F090DE04F090DE0208
:05351200F053BE7F2212
:083517001234DC7400C0E07402
:08351F0048C0E074F3C0E07441
:0735270032C0E090F6F21241
:0C352E001609E58124FCF58174C5C0E09D
:09353A007433C0E074F8C0E074C1
:0735430033C0E090343612A2
:09354A001591E58124FCF58122B4
:04480000757362006A
:0748730000C2010000000873
:02355300C2AF05
:0E355500122D04AA82AB838A048B05BAFF1DD7
:0A356300BBFF1A751901E4F51A9078
:0E356D00F6AD1218A4AA828A047D00EC4D600F
:05357B00D97CFF7DFF7B
:07358000D2AF8C828D832283
:043587007A007B004B
:0E358B00C003123553AC82AD83D0038C068D85
:0935990007BCFF05BDFF028026FE
:0335A200BB10005B
:0C35A50050138B040B8B02EC2476F58293
:0935B100E434F7F5838E04ECF01C
:0835BA00BE0D05BF00028006F2
:0635C200BE0AC6BF00C3F3
:0235C8008B0274
:0335CA00BB100033
:0C35CD0050118B040BEC2476F582E434E2
:0735D900F7F583E4F080EA3E
:0335E0008A8222BA
:0835E300123587E58270F92220
:0C35EB00AA82C2D575F007E53230E70473
:0435F700B2D5F40451
:0E35FB00A430D50AF42401C5F0F43400C5F064
:0A36090024AEFB74F335F0FC7406E8
:0A3613002BF582E43CF583EAF02277
:09361D00122D5D90000102191547
:05362600123587755507
:03362B00047556CD
:05362E0048755780758E
:063633005802E4F5599075
:0E363900F77675F00012390DE5828583F045B5
:07364700F0700475820122FE
:04364E007555077532
:0336520056487562
:073655005780755805E4F5EC
:08365C005990F77675F0001299
:0E366400390DE5828583F045F070047582FF14
:013672002235
:0936730090F776E070ADF58222BB
:04367C00AA82AB83F0
:0E3680008A828B83E493FCA3AA82AB83ECFDC9
:0E368E00600F8D82C002C00312361DD003D023
:03369C000280E1C8
:01369F002208
:0E36A000AA82AB83C002C0031235E3D003D070
:0B36AE00028A828B8312367C023626D3
:0C36B9007A3B7B007C4090480DC002C0B2
:0E36C50003C00412367CD004D003D0021ABA1F
:0336D300FF011BD9
:0E36D6008A828B838CF0E412398C1ABAFF01C1
:0136E4001BCA
:0E36E5008A828B838CF0740D12398C9000A4B5
:0736F300E493FD740193FE56
:0536FA001ABAFF011BDC
:0A36FF0075550AE4F5568D828E839E
:0E370900C002C003C004C005C00612408FAF4E
:0E37170082D006D005D004D003D00274302F2B
:0C3725008A828B838CF012398C75550A57
:0C373100E4F5568D828E83C002C003C0F8
:0E373D00041240C5AF82A883D004D003D0028E
:08374B008F058806EF4870A706
:0E3753008A828B838CF0124073FDA3AA82AB96
:0E37610083EDFE60138E82C002C003C004120E
:0A376F00361DD004D003D00280DA2A
:03377900023626EF
:07377C00122DD8122DB490AC
:0637830048191236A09067
:0E37890048251236A0AA82BA010475820122D8
:043797007582002215
:07379B00D20210AF02C202CE
:0D37A20030970A90F775E4F0438C0280091F
:0937AF0090F7757401F0538CFDD4
:0537B800A20292AF2205
:0637BD0090012C12191509
:0E37C30075820312377CE582701E900064123E
:0D37D100191575820212377CE582600690A2
:0537DE0048291236A08D
:0837E30090006412191580D852
:0737EB0090482F1236A09058
:0637F20048351236A0125A
:0637F80036B990483B12B7
:0B37FE0036A01235E3E4C0E0C0E07428
:083809005DC0E0742DC0E090E9
:073811002D041215918582C0
:0B38180032E58124FCF581758200126E
:0538230035EB12379B9C
:0B38280090F775E0FA700890F7751239
:04383300182D80F1DB
:0E38370090F775E0FA60EA7402C0E0E4C0E0C9
:0E3845007582021222731581158190012C12DA
:04385300191580E0E3
:0C385700C022C0E0C0F0C082C083C002EC
:0E386300C003C004C005C006C007C000C001FD
:0D387100C0D075D000C2EBE58A30E7091227
:06387E00379B90F7751264
:02388400186BBF
:0E388600758A00D0D0D001D000D007D006D077
:0E38940005D004D003D002D083D082D0F0D073
:0438A200E0D022321E
:0E38A600122E05758202122DD8C29643FE40E6
:0D38B40053FE7F43F680439A10438D8074CD
:0838C10041C0E07448C0E0744E
:0838C900BDC0E07437C0E090BF
:0C38D100F786121609E58124FCF581221F
:034804004F4B0017
:064807004552524F520021
:0C480D0041544E3D54656C6542542D0032
:0C4819000D415445300D415451300D004C
:0448250041540D00ED
:0648290041544C340D0067
:06482F00415445300D006C
:06483500415443310D0067
:06483B00415451310D0053
:034841006274009E
:0400000002014D327A
:03000B00021F8C45
:0100130032BA
:03001B00022B6F46
:0100230032AA
:01002B0032A2
:03003300022FB6E3
:01003B003292
:030043000221C7D0
:03004B00022EE39F
:01005300327A
:01005B003272
:01006300326A
:01006B003262
:03007300022C5408
:03007B00023857F1
:030083000226BE94
:0301A900020086CB
:050086001238DD80FED0
:0D38DD00122F74758203122296758201125B
:0638EA002242122F4912D8
:0638F000085A1235171200
:0638F60012C6122B2F1276
:0638FC0026B8122058124C
:0639020038A6121F671237
:053908000D18021A0970
:08484400312E382E3500000072
:0E484C00616C7475736D657472756D2E6F728C
:02485A006700F5
:0C485C0054656C6542542D76312E3000FE
:0E00AA001201100102000020FEFF0E000001F6
:0E00B8000102030109024300020100C03209E7
:0E00C6000400000102020100052400100105E3
:0E00D400240101010424020205240600010794
:0E00E2000581030800FF09040100020A000066
:0E00F0000007050402400000070585024000DD
:0E00FE000004030904200361006C0074007507
:0E010C000073006D0065007400720075006DD8
:0E011A00002E006F007200670018035400658D
:0E012800006C006500420054002D007600318E
:0E013600002E0030000E03300030003000308C
:0601440000300031000054
:0A390D00AA82AB83ACF0E5584559DF
:0639170070049000002284
:05391D00AD55AE56AFF0
:0439220057A858A9A1
:013926005947
:0539270018B8FF0119B2
:0E392C00E84960368A828B838CF0124073F576
:0C393A005A6029C000C0018D828E838F6E
:0A394600F0124073F8B55A02800633
:06395000D001D000801040
:09395600D001D0000ABA00010BF7
:07395F000DBD00C40E80C184
:0E3966008A828B838CF0124073FA3395E0FB5B
:0E3974008D828E838FF0124073FD3395E0FC40
:0A398200EAC39DF582EB9CF5832259
:06017C00E478FEF6D8FD58
:08015A007907E94400601B7AFB
:050162000190487378D4
:03016700FD759390
:0A016A00F7E493F2A308B8000205C1
:0801740093D9F4DAF27593FF50
:0E398C0020F71030F6118883A88220F507F688
:05399A00A88375830005
:01399F002205
:0339A000F280F7BB
:0239A300F02210
:0839A500E555455660467A0124
:0739AD00E55525E0F555E5A5
:0939B40056334012F556E58295E8
:0A39BD0055E583955640030A80E6A5
:0339C700C3E556FF
:0739CA0013F556E55513F556
:0139D10055A0
:0A39D200C3E5829555F5F0E58395F5
:0839DC00564005F58385F082D9
:0739E400C3E55613F556E59B
:0639EB005513F555DAE169
:0139F10022B3
:0C39F200AAF0FBE5828555F0A4FCADF0C6
:0C39FE00E5838555F0A42DFDE435F0FEB6
:0C3A0A00E5828556F0A42DFDE5F03EFE9F
:0C3A1600E433FFEA8555F0A42EFEE5F035
:0C3A22003FFFE5838556F0A42EFEE5F082
:0C3A2E003FFFE5828557F0A42EFEE5F076
:0B3A3A003FFFEB8555F0A42FFFEA854D
:0A3A450056F0A42FFFE5838557F02B
:0C3A4F00A42FFFE5828558F0A42F8EF014
:053A5B008D838C822226
:080182007834E84400600A79BA
:03018A000075936A
:06018D00F0E4F309D8FCC8
:0801930078C9E84407600C790B
:0B019B000890F034E4F0A3D8FCD9FA7F
:053A60007A10E4FBFCFC
:0E3A6500E58225E0F582E58333F583EB33FB44
:0A3A7300EC33FCEB9555F5F0EC95F3
:093A7D00564006FCABF043820147
:033A8600DADD2264
:02008B00E4731C
:063A8900C03185813112FD
:053A8F00148BD0312270
:083A940085824B85834C85F00F
:053A9C004DE4F548F5C2
:043AA10049F54A8514
:033AA5003B4E9005
:053AA8003A89023B6DAC
:063AAD00C031858131E506
:073AB3003124FBF54EE4F5A0
:043ABA0048F549F58D
:073ABE004AE53124FBF88604
:063AC5004B08864C088648
:053ACB004D903A891244
:053AD0003B6DD0312226
:073AD500AA82C03EC03FC001
:063ADC004074ECC0E07430
:063AE2003AC0E0C03CC048
:043AE8003D8A82226F
:0A3AEC001581158115810546E4B52A
:043AF6004602054738
:013AFA0022A9
:0E3AFB00AA8274302AFA24C6500A74072AFAE6
:063B09003003034302201B
:053B0F008A82023AD594
:0E3B1400E582FAC4540FF582C002123AFBD0CB
:093B220002740F5AF582023AFB0D
:063B2B00858255AB41ACA0
:043B310042AD43AEB0
:043B350044AF4575DF
:023B3900562014
:0E3B3B00EF2FFFEE235401FA4207EB2BFBECB9
:0C3B490033FCED33FDEE33FEC3EF955569
:0A3B55004008EFC39555FF4303013C
:063B5F00D556D98B418C04
:043B6500428D438EBC
:043B6900448F45221E
:073B6D0085823C85833D8544
:033B7400483E8543
:033B7700493F853E
:043B7A004A40E4F5E4
:033B7E0046F547C2
:053B8100AA4BAB4CACA7
:0C3B86004D8A828B838CF0124073FD741A
:093B9200012AF54BE43BF54C8CD3
:083B9B004DEDFA7003024054E5
:053BA300BA25028003B9
:033BA80002404C8C
:053BAB00C204C205C2C6
:043BB00006C207C280
:043BB40008C209C278
:043BB8000AC20B75BD
:083BBC004F007550007DFFAEC3
:043BC4004BAF4CAB0C
:013BC8004DAF
:0E3BC9008E828F838BF0124073FAA3AE82AF10
:063BD700838E4B8F4C8B26
:0B3BDD004DBA25078A82123AD5809964
:053BE8008A04BC30005E
:0D3BED00402A8A04EC24C64023BDFF13E5E6
:0B3BFA005075F00AA4FCEA24D02CF562
:073C05005070C1D20580BD23
:0D3C0C00ED75F00AA4FCEA24D02CFD80B078
:0A3C1900BA2E07BDFFAA7D0080A6A9
:053C23008A04BC6100F1
:0D3C2800400E8A04EC248540075302DFD2D1
:033C350003800207
:023C3800C203C5
:053C3A00BA20028055D4
:053C3F00BA2B02804BCE
:053C4400BA2D028041D1
:053C4900BA4202804BAD
:053C4E00BA43028050A2
:063C5300BA4403023DFE2D
:063C5900BA4603023E140E
:063C5F00BA4903023DFE1C
:053C6500BA4C0280349E
:063C6A00BA4F03023E0503
:063C7000BA5003023D956D
:053C7600BA5302804C6E
:063C7B00BA5503023E0AE7
:063C8100BA5803023E0FD9
:033C8700023E18E2
:053C8A00D204023BC959
:053C8F00D206023BC952
:053C9400D207023BC94C
:053C9900D209023BC945
:053C9E00D20A023BC93F
:083CA30030090AE54E14F8880F
:053CAB004E8602800FAF
:0A3CB000E54E24FEF8884E86030856
:053CBA008604188B02D6
:083CBF008A82123AD5023E216F
:0A3CC700E54E24FDF8884E86030840
:0A3CD100860408860618188B418C43
:043CDB00428E43854D
:063CDF004182854283854D
:0C3CE50043F0C00512405BAB82AC83D002
:063CF10005BDFF028B057A
:0A3CF70020042CC3EB95505026E585
:063D010050C39BF550AC1D
:013D0700506B
:0C3D08008C061C8C50EE6014758220C0EC
:0E3D140003C004C005123AD5D005D004D00378
:023D220080E43B
:023D24008C50C1
:023D26008D040A
:073D2800854182854283857D
:0C3D2F0043F0124073FDFA602F8C051C5D
:0E3D3B00C374808DF063F08095F050208A8272
:0C3D4900C003C004123AD5D004D003AD72
:043D550041AE42AF8A
:063D5900430DBD00010E48
:053D5F008D418E428F32
:033D64004380C1D8
:063D6700200403023E21CE
:093D6D00C3EB95504003023E2116
:073D7600E550C39BF550ACC2
:013D7D0050F5
:0B3D7E008C051C8C50ED7003023E1FF2
:0C3D8900758220C004123AD5D00480E9F5
:0A3D9500E54E24FDF8884E8605086F
:0A3D9F00860608860718188D418E6D
:043DA900428F43AD55
:043DAD0043BD800092
:063DB10040047A43801477
:033DB700BD6000EC
:063DBA0040047A50800B6A
:033DC000BD400003
:063DC30040047A49800271
:023DC9007A5826
:0E3DCB008A82C002123AD575823A123AD57534
:0E3DD9008230123AD5758278123AD5D002BAED
:043DE7004902800B02
:053DEB00BA5002800641
:063DF000854282123B1423
:083DF600854182123B14802379
:073DFE00D208754F0A801C7A
:053E0500754F08801755
:053E0A00754F0A801253
:053E0F00754F10800D4D
:043E1400D20B800944
:073E18008A82123AD58002F4
:023E1F008C50C5
:093E2100300B5AE54E24FCF88830
:0C3E2A004E8604088605088606088607F8
:083E36001818188C418D428E12
:043E3E00438F4475F5
:033E42004168755F
:033E45004248757B
:023E48004380B5
:043E4A0085415285D7
:033E4E0042538557
:053E510043547401253B
:073E560052FFE43553FCADFF
:043E5D00548F418CB1
:043E6100428D4385C6
:063E6500528285538385A3
:0A3E6B0054F0124073FCFA700302D9
:023E75003B818F
:073E77008A82123AD580CCCB
:073E7E00E54F7003023B81D8
:043E850075516030E3
:073E8900092BE54E14F88837
:0A3E90004EE6FD3395E0FEFFFC8DC9
:043E9A00418E428F84
:043E9E00438C4420ED
:0A3EA200085EAC417D007E007F0049
:053EAC008C418D428EE7
:053EB100438F44804C2A
:093EB600300A1FE54E24FCF888D7
:0C3EBF004E860408860508860608860763
:083ECB001818188C418D428E7D
:053ED300438F44802A2A
:0A3ED800E54E24FEF8884E8604082B
:0C3EE200860518ED3395E0FEFF8C418D45
:043EEE00428E438F2E
:053EF2004420080CACA7
:083EF70041AD427E007F008E08
:033EFF00438F44AA
:0A3F0200300822E54430E71BC3E459
:093F0C009541FCE49542FDE495A9
:073F150043FEE49544FF8C1C
:043F1C00418D428E03
:053F2000438F44800204
:023F2500C208D0
:063F2700D20CA8517C0041
:0A3F2D00754500854F82C004C000F6
:0B3F3700123B2BD000D004200C0DE545
:0A3F420045C4FDE6FE4DF618885157
:023F4C008002F1
:023F4E00A64586
:083F50000C8C03B20CE54145A5
:043F58004245434556
:083F5C004470CE88518C03E58E
:063F6400507003755001CE
:0A3F6A00200524200421EB04FCAD27
:013F740050FC
:0E3F7500C3EC9D5015758220C003C004C0052A
:0C3F8300123AD5D005D004D0031D80E612
:023F8F008D5053
:0C3F910030080E75822DC003123AD5D006
:053F9D00031550802314
:0C3FA200EB602030060E75822BC003126D
:083FAE003AD5D0031550800F35
:0C3FB60030070C758220C003123AD5D0F1
:033FC20003155094
:053FC500200424AC50B3
:0B3FCA008C051C8C50C3EB9D502B306D
:063FD50005047D308002AE
:023FDB007D2047
:0E3FDD008D82C003C004123AD5D004D00380F8
:013FEB00DEF7
:0A3FEC00C3EB95505008E550C39B4D
:043FF600F5508007FB
:053FFA0075500080027B
:023FFF008C50E4
:02400100A851C4
:0A4003008B041BEC6026B20C200CAD
:0B400D000A08E6C4540FFC8C45800735
:074018008604740F5CF545FE
:0C401F00854582C003C000123AFBD000AF
:04402B00D00380D46A
:06402F00200403023B81A6
:02403500AB508E
:094037008B041BEC7003023B81B9
:0C404000758220C003123AD5D00380EB3B
:08404C008A82123AD5023B8181
:0740540085468285478322A7
:0B4868003C4E4F20464C4F41543E0098
:04405B00AA82AB8307
:08405F001240736003A380F816
:0C406700C3E5829AF582E5839BF5832275
:03014D0075816059
:0A0150001240FDE582600302008604
:0E40730020F71430F6148883A88220F507E6A3
:06408100A88375830022F4
:03408700E280F7DD
:03408A00E493229A
:02408D00E0222F
:0E408F00C2D5E58330E70DD2D5E4C39582F5A6
:06409D0082E49583F58327
:0A40A300E55630E70BE4C39555F530
:0540AD0055E49556F5F5
:0140B20056B7
:0E40B3001239A530D50BE4C39582F582E49551
:0340C10083F58301
:0140C40022D9
:0E40C500C2D5E58330E70DD2D5E4C39582F570
:0640D30082E49583F583F1
:0A40D900E55630E70DB2D5E4C395BB
:0540E30055F555E495C0
:0340E80056F55634
:0E40EB00123A6030D50BE4C39582F582E4955D
:0340F90083F583C9
:0140FC0022A1
:0440FD0075820022A6
:00000001FF
