:0401BE00AA82AB83E3
:0E01C2008A828B83E493FCA3AA82AB83ECFDBC
:0E01D000600F8D82C002C003121690D003D0C3
:0301DE000280E1BB
:0101E10022FB
:0601E2009072150201BE3F
:0B01E80012177BE5826006907219126E
:0201F30001BE4B
:0401F5007808E4F2B0
:0D01F9001216FB121729AA82BA0802800311
:03020600BA7F16A6
:0C0209007808E260EB12177BE5826003CE
:030215001201E2F1
:070218007808E214F280DA1D
:03021F00BA1516F7
:0C0222007808E260D212177BE5826003CE
:03022E001201E2D8
:070231007808E214F280EAF4
:05023800BA0D027A0A74
:0E023D00BA0A0F12177BE582603775820A122B
:04024B001690802F5A
:06024F007808E2B42E0065
:0A02550050A27808E2FB780804F2DA
:0A025F00EB24E9F582E434F0F583A6
:0E026900EAF0C00212177BE582D00260838AA1
:07027700821216900201F94A
:0A027E007808E2FA780804F2EA2496
:0A028800E9F582E434F0F583740A0E
:0A029200F07808E2FA780804F2EAB6
:0A029C0024E9F582E434F0F583E470
:0602A600F07809E4F222E9
:0802AC007806740AF278097962
:0B02B40008C3E3F5F0E295F050177866
:0902BF0009E2FA780904F2EA24CC
:0A02C800E9F582E434F0F583E0FA72
:0302D2007806F2B9
:0602D5007806E2F582222A
:0502DB00AA82BA0A002E
:0A02E000500874302AF582021690CF
:0802EA0074572AF582021690F8
:0E02F200121729AA82C3EA648094B0401174E6
:0E030000B98AF063F08095F04006EA24D0F54B
:02030E00822249
:0E031000C3EA648094E1401174E68AF063F061
:0B031E008095F04006EA24A9F5822239
:0E032900C3EA648094C1401174C68AF063F088
:0B0337008095F04006EA24C9F5822200
:0903420078077401F275820022B3
:0E034B00AA82AB838B82C002C003120361D072
:0803590003D0028A8202036155
:0E036100E582FAC4540FFB740F5BF582C002F4
:0D036F001202DBD002740F5AF5820202DB8D
:08037C007806E2B42002800CB7
:080384007806E2B409028004CE
:04038C007A00800271
:020390007A01F0
:030392008A82223A
:0C03950012037CE58260051202AC80F4CB
:0103A1002239
:0E03A200AA82C3EA648094B0401174B98AF054
:0D03B00063F08095F04006EA24D0F582222B
:0E03BD00C3EA648094E1401174E68AF063F0B4
:0B03CB008095F0400674A92AF58222FC
:0E03D600C3EA648094C1401174C68AF063F0DB
:0B03E4008095F0400674C92AF58222C3
:0403EF007582FF22F2
:0B03F3007800E4F208F21203957A0093
:0303FE00BA020040
:0C04010050477806E2F582C0021203A208
:0C040D00AB82D002EB30E70678077402E7
:02041900F222CD
:0C041B007800E2FC08E2C454F0CCC4CC31
:0E0427006CCC54F0CC6CFDEB3395E0FEEB4258
:0C04350004EE42057800ECF208EDF2C085
:09044100021202ACD0020A80B4E0
:01044A00228F
:0B044B007A017800E4F208F2C002120F
:040456000395D00238
:0C045A007806E2F582C0021203A2AB8219
:0C046600D002EB20E7307800E2FC08E256
:0E047200C454F0CCC4CC6CCC54F0CC6CFDEB7C
:0C0480003395E0FEEB4204EE42057800EC
:0E048C00ECF208EDF27A00C0021202ACD002CF
:02049A0080BE22
:07049C00EA60047807EAF2B0
:0104A3002236
:0A04A400C054E581F5542404F581ED
:0C04AE007A017802E4F208F208F208F289
:0704BA00C002120395D002FD
:0B04C1007806C3E2648094B050030290
:0204CC000545E4
:0C04CE007806C3E2F5F074B963F0809585
:0A04DA00F040687802E2F57808E2CD
:0904E400F57908E2F57A08E2F569
:0B04ED007B90000AE4F5F0126A8EA874
:0C04F8005408A68208A68308A6F008F6A7
:0C0504007806E2FFE23395E0FBEF24D024
:0C051000FFEB34FFFB3395E0FCFDA8542A
:0E051C0008EF26FFEB0836FBEC0836FCED0876
:0C052A0036FD7802EFF208EBF208ECF26C
:0D05360008EDF27A00C0021202ACD0020201
:0205430004C1F1
:07054500EA60047807EAF206
:0A054C0078027900E2F308E209F3F7
:06055600855481D05422FF
:04055C00AA82AB8341
:0C0560008A828B83E493FC60237806E21F
:05056C00B50402800946
:0905710078077402F27582002281
:05057A000ABA00010BAC
:0D057F00C002C0031202ACD003D00280D431
:04058C007582012251
:0905900012044B7807E270467872
:0C0599000FC2D575F007E230E704B2D5C0
:0205A500F4045C
:0E05A700A430D50AF42401C5F0F43400C5F0E8
:0A05B50024ACFA74F235F0FB740672
:0C05BF002AF582E43BF5837800E2B400EA
:0A05CB000908E2B400047401800185
:0105D500E441
:0405D600FAB4010072
:0405DA00E433FAF01C
:0105DE0022FA
:0705DF0012039590721C123B
:0705E600055CE582700122B3
:0D05ED001216FB900064121D3E75C90B90A4
:0B05FA0000C8121D3E7582080215E4C7
:0E0605007401C0E0E4C0E090F3D9E0C0E0A3CF
:0E061300E0C0E09000A4E493C0E0740193C046
:0A062100E0746BC0E0747EC0E0746A
:0A062B0080C0E0745BC0E0747EC084
:0A063500E07480C0E07422C0E0749D
:0C063F0072C0E07480C0E0126BC1E58165
:0A064B0024F1F5817453C0E0747EC1
:0B065500C0E07480C0E07487C0E07457
:0C06600072C0E07480C0E0126BC1E58144
:05066C0024FAF58122D3
:04067100780BE4F22C
:0A067500780B790AC3E3F5F0E29573
:04067F00F040012224
:0A068300780BE225E02419F582E46B
:0A068D0034F1F583E0FBA3E0FC78F4
:030697000CE4F27E
:0C069A00780CE275F004A4FEAFF02BF524
:0E06A60082EF3CF583E493FAA3E493FD4A70DF
:0406B40003020741F5
:0E06B800EE2BFEEF3CFF8E828F83A3A3E49314
:0806C600F508A3E493F5098592
:0A06CE000882850983C003C00412EE
:0506D80001BEAE08AFF9
:0C06DD00097A808E828F838AF012716F80
:0E06E900AA82D004D0038A057E000DBD000158
:0106F7000EF4
:0706F800ED2508F508EE35C1
:0806FF0009F509742DC39AFAF4
:0E0707008A051AED6014758220C002C003C07E
:0C07150004121690D004D003D00280E63D
:0A072100850882850983C003C00427
:0E072B001201BE75820A121690D004D0037817
:080739000CE22401F202069A11
:09074100780BE22401F2020675B6
:08074A007807E2B40102800609
:060752007807E2B4020A80
:0707580090729C1201BE78B3
:03075F0007E4F2BA
:010762002274
:0A076300AA82AB83780AE2B40B000F
:0E076D00400E758206C002C0031215E4D003D0
:02077B00D002AA
:0A077D00780AE2FC780A04F2EC2C82
:0A0787002419F582E434F1F583EA49
:05079100F0A3EBF022D3
:070796001201E81202AC128F
:09079D0003957806E2FAC002128D
:0907A60002ACD002BA0D0280E79A
:0507AF00BA0A0280E21D
:0A07B40090F12FE4F0A3F0750A00A5
:0A07BE00780AC3E2F5F0E50A95F0B1
:0507C800400302084A95
:0507CD00E50A250A24E5
:0A07D20019F582E434F1F583E0FC30
:0507DC00A3E0FD7E001A
:0A07E100EE75F004A4F50B85F00C92
:0C07EB002CF582E50C3DF583E493FFA3A0
:0B07F700E493FB4F603DE50B2CFBE59D
:0C0802000C3DFF8B828F83A3A3E493FBCB
:0E080E00A3E493FF8B828F83E493FBB5021B60
:0A081C00E50B2CF582E50C3DF58399
:0E082600E493FBA3E493FF90F12FEBF0A3EF1C
:03083400F080034E
:030837000E80A789
:0C083A0090F12FE0FBA3E0FC4B700505E3
:040846000A0207BEDD
:0E084A0090F12FE0FAA3E0FB4A6011C002C05B
:0E085800038A828B8312008BD003D0028005AE
:0508660078077402F2A6
:06086B0012074A02079685
:070871009072AA12076374E4
:08087800C2C0E07472C0E0741C
:0808800096C0E07407C0E0908F
:0C088800F131121A32E58124FCF58122C6
:047215000820080045
:037219003E200014
:06721C0065626F6F740053
:0E7222006D616E756661637475726572202011
:0E72300020202025730A70726F64756374202D
:0E723E0020202020202020202025730A7365A8
:0E724C007269616C2D6E756D62657220202076
:0E725A002025750A63757272656E742D666C60
:0E7268006967687420202025750A6C6F672DF9
:0E727600666F726D617420202020202020257C
:03728400750A0088
:0E728700736F6674776172652D766572736938
:077295006F6E2025730A0053
:0E729C0053796E746178206572726F720A0009
:0272AA0071066B
:0272AC00C672A8
:0272AE00931D2E
:0272B000CD729D
:0272B200900545
:0272B400D57291
:0272B600DF05F2
:0272B800EA7278
:0272BA000506C7
:0672BC00F9720000000061
:0472C200636D640094
:0772C6003F0048656C7000F9
:0872CD0054005461736B73005F
:0E72D50045203C30206F66662C2031206F6E05
:0772E3003E004563686F00E7
:0E72EA00722065626F6F74005265626F6F7480
:0172F8000095
:0A72F900760056657273696F6E002F
:0C0894001268F178E3E2F58208E2F583D7
:0E08A00008E2F5F008E212665D743BC0E0E489
:0A08AE00C0E074A8C0E074F1C0E0DF
:0C08B80078E3E2F58208E2F58308E2F53F
:0E08C400F008E2121845E58124FCF5817582EA
:0708D200001229D90268F0B1
:0708D90090F1E31215241257
:0608E000089490F1E30210
:0208E600158279
:0E08E80090F1BBE0FAA3E0FBA3E0FCA3E0FD6F
:0E08F60090F1DAE0FEA3E0FFA3E0F8A3E0F942
:0E090400C002C003C004C0058E828F8388F03D
:0E091200E9123CD5AA82AB83ACF0FDE581244E
:0E092000FCF58190F1C5EAF0A3EBF0A3ECF03A
:04092E00A3EDF02223
:06093200780DE2600122D5
:0C0938001268F1743BC0E0E4C0E074A859
:0A094400C0E074F1C0E078E3E2F5D2
:0E094E008208E2F58308E2F5F008E212180EC6
:0E095C00E58124FCF58190F1A8E0FABA0102D1
:02096A00803CCF
:0C096C0090F1A87401F090F1A9E4F09063
:0C097800F1AA74FAF0A3E4F075780075A1
:060984007909E4F57A9008
:06098A00F1AF1251D07A1A
:04099000037B738AE8
:04099400788B79756E
:060998007A06E4F57B90F5
:06099E00F1AF12519B9025
:0409A400F1AEE4F0DC
:0B09A80090F1A9E0FABA1703020A95CB
:0309B300BA010086
:0709B600500590F1B8E4F0D8
:0309BD00BA02007B
:0E09C000500E90F1ACE4F0A3F090F1B9E4F029
:0209CE00A3F094
:0309D000BA030067
:0E09D30050209000A6E493FB740193FC740284
:0E09E10093FD740393FE90F1BBEBF0A3ECF0DA
:0609EF00A3EDF0A3EEF001
:0309F500BA040041
:0E09F800500E90F1BFE4F0A3F0A37403F0A33F
:020A0600E4F01A
:030A0800BA05002C
:070A0B00500590F1C3E4F077
:030A1200BA060021
:070A1500500590F1C4E4F06C
:030A1C00BA080015
:080A1F00500690F1C97401F0CA
:030A2700BA090009
:0A0A2A005013757800757910E4F59B
:070A34007A90F1CAC0021222
:040A3B0051D0D002C4
:030A3F00BA0A00F0
:0E0A4200502E90F1AEE075F064A4FBE5F0FCE0
:0E0A50003395E0FDFE74762BFB74A13CFC7424
:0E0A5E00063DFDE43EFE90F1DAEBF0A3ECF075
:060A6C00A3EDF0A3EEF083
:030A7200BA0B00BC
:090A7500500790F1DEE4F0A3F05B
:030A7E00BA0D00AE
:090A8100500790F1E0E4F0A3F04D
:0B0A8A0090F1A97417F0780E7401F2CF
:090A95001208E8780D7401F22248
:070A9E0090F1E312152402A0
:020AA500093214
:090AA700780E7401F290F1E302F3
:020AB0001582AD
:070AB200120A9E90F1E3021D
:020AB9001582A4
:0A0ABB0074AFC0E074F1C0E0E4C0C5
:0A0AC500E0740AC0E07473C0E0742E
:0D0ACF0080C0E0126BC1E58124FAF58122A0
:080ADC00757800757909E4F555
:050AE4007A90F1E4121C
:070AE90051D01203957A00C1
:080AF0007806E2B40A02802638
:030AF800BA080039
:0C0AFB0050138A030AEB24E4F582E43473
:090B0700F1F5837806E2F08005A7
:050B100078077401F2FA
:090B1500C0021202ACD00280D231
:060B1E007807E2600122ED
:050B2400120A9E757825
:030B2900E47579F7
:060B2C00F1757A09E4F501
:050B32007B90F1AF1201
:050B3700519B020AA71A
:0E0B3C0090F1DAE0FAA3E0FBA3E0FCA3E0FDF9
:0C0B4A00C002C003C004C005741AC0E063
:0C0B56007473C0E07480C0E0126BC1E555
:060B62008124F9F5812257
:090B68001204A47807E2600122E6
:070B7100120A9E90F1DA78F0
:0C0B780002E2F0A308E2F0A308E2F0A300
:0A0B840008E2F01208E8120AA702C6
:020B8E004DAE6A
:0D0B900090F1AAE0FAA3E0FBC002C00374DC
:0A0B9D002AC0E07473C0E07480C049
:0B0BA700E0126BC1E58124FBF5812208
:090BB2001204A47807E26001229C
:070BBB00120A9E90F1AA78D6
:0A0BC20000E2F0A308E2F0020AA727
:0E0BCC0090F1B9E0FAA3E0FB90F1ACE0FCA3DD
:0C0BDA00E0FDC002C003C004C00574426E
:0B0BE600C0E07473C0E07480C0E01237
:090BF1006BC1E58124F9F58122B4
:0A0BFA00C054E581F5542405F5818F
:0D0C0400AA82AB83ACF0C002C003C0047430
:0A0C11005DC0E07473C0E07480C0A1
:0E0C1B00E0126BC1E58124FAF5811216FB127E
:090C2900172990738275F0801206
:060C32006B4E1216FB9050
:090C3800738575F080126B4E12F9
:0C0C410016FB7A007D04A85408E4F608B5
:0B0C4D00F608F608F6E5542405F8A6AA
:010C58002378
:070C5900EA4D7003020CD606
:0C0C60007B237CFF8B828C83C002C005CC
:0B0C6C00121C56D005D0028A038D0434
:0B0C7700EB4C60DEE5542405F8E6B508
:040C8200230280D3F6
:0B0C8600E5542405F8E675F010A424E6
:0A0C910088FD74F535F0FE8D828EAB
:0E0C9B0083A3A3E0FDA3E0FE3395E0FFFAA8DB
:0C0CA9005408ED26F6EE0836F6EF08368B
:0C0CB500F6EA0836F6E5542405F8E604DB
:0C0CC100FAE5542405F8741F5AF61BBB1A
:030CCD00FF011C08
:060CD0008B028C0580A1DF
:0C0CD600A8540808860208E6C313CA13DD
:0E0CE200CAC313CA13CAFB08E6030354C04B6F
:0E0CF000FBE6A2E713A2E7133395E08A828B9E
:070CFE0083855481D05422CC
:090D05001204A47807E260012247
:0C0D0E007800E2F5F008E245F070249057
:0D0D1A00739475F080120BFAAA82AB8390DF
:0E0D2700739775F080C002C003120BFAAC8205
:080D3500AD83D003D00280273A
:0C0D3D007800E2FE08E2FF8E028F03C087
:0C0D490002C0031204A4D003D0027807FB
:040D5500E260012235
:0B0D59007800E2FE08E2FF8E048F0528
:0E0D6400C3EA9CEB64808DF063F08095F04054
:0C0D72001EC004C005C002C003749CC079
:0C0D7E00E07473C0E07480C0E0126BC130
:070D8A00E58124F9F5812247
:0E0D9100C002C003C004C005120A9ED005D0E7
:0E0D9F0004D003D00290F1ACEAF0A3EBF09088
:0A0DAD00F1B9ECF0A3EDF0020AA783
:0C0DB70090F1B8E0FA7B00C002C00374A9
:0A0DC300BEC0E07473C0E07480C08D
:0B0DCD00E0126BC1E58124FBF58122E0
:090DD8001204A47807E260012274
:070DE100120A9E7800E29067
:060DE800F1B8F0020AA7B9
:0D0DEE0090F1DEE0FAA3E0FBC002C0037448
:0A0DFB00D8C0E07473C0E07480C03B
:0B0E0500E0126BC1E58124FBF58122A7
:090E10001204A47807E26001223B
:070E1900120A9E90F1DE7841
:0A0E200000E2F0A308E2F0020AA7C6
:0E0E2A0090F1BBE0FAA3E0FBA3E0FCA3E0FD27
:0C0E3800C002C003C004C00574F4C0E098
:0C0E44007473C0E07480C0E0126BC1E564
:060E50008124F9F5812266
:090E56001204A47807E2600122F5
:070E5F00120A9E90F1BB781E
:0C0E660002E2F0A308E2F0A308E2F0A30F
:090E720008E2F01208E8020AA7E8
:0E0E7B0090F1BFE0A3E0FBA3E0FCA3E0FD8B41
:0E0E890002ECC313CA13CAC313CA13CAFBED8B
:0E0E9700030354C04BFBED0303543FC002C0E5
:0A0EA500037404C0E07474C0E0742C
:0D0EAF0080C0E0126BC1E58124FBF58122BB
:0C0EBC0078E0E2FA08E2C313CA13CAC3CC
:0E0EC80013CA13CAFB08E2030354C04BFBE23B
:0C0ED6000303543F78E4E2FC08E2C3137D
:0E0EE200CC13CCC313CC13CCFD08E203035495
:0E0EF000C04DFDE20303543FC002C003C00426
:0E0EFE00C0051204A4D005D004D003D00278A1
:050F0C0007E260012274
:0E0F1100C002C003C004C005122FA9E582D0A3
:0C0F1F0005D004D003D0026016741BC083
:0C0F2B00E07474C0E07480C0E0126BC180
:070F370015811581158122CF
:0E0F3E00C3E49A74049B502FEA24FFFEEB34A8
:0C0F4C00FFFF7800E2520608E25207EEB8
:0C0F58004F601AC002C003744BC0E0746C
:0C0F640074C0E07480C0E0126BC1E58135
:050F700024FBF58122C5
:0C0F75007800C3E2F5F0EC95F008E2F51E
:0C0F8100F0ED95F0501AC004C005747625
:0B0F8D00C0E07474C0E07480C0E0128B
:090F98006BC1E58124FBF5812207
:0C0FA100120A9E7800E2FA08E2FBE4FC71
:0E0FAD00EB2BCC33CC25E0CC33FDEA2A25E03B
:0E0FBB00FBEA232354034CFC7A0090F1BFEABA
:0D0FC900F0A3EBF0A3ECF0A3EDF0020AA7FB
:0C0FD60090F1C3E0FA7B00C002C003747D
:0A0FE2008CC0E07474C0E07480C09D
:0B0FEC00E0126BC1E58124FBF58122BF
:090FF7001204A47807E260012253
:07100000120A9E7800E29045
:06100700F1C3F0020AA78C
:0C100D0090F1C4E0FA7B00C002C0037444
:0A1019009DC0E07474C0E07480C054
:0B102300E0126BC1E58124FBF5812287
:09102E001204A47807E26001221B
:0C103700120A9E7800E25401F208E4F274
:0C10430090F1C4E0FA7B007800E2B502F6
:08104F000708E2B5030280323C
:0E10570090F1ACE0FAA3E0FB90F1B9E0FCA34D
:0E106500E0FD74FFC39CFC747F9DFD90F1AC18
:0E107300ECF0A3EDF074FFC39AFA747F9BFBC0
:0810810090F1B9EAF0A3EBF0D5
:081089007800E290F1C4F002CE
:021091000AA7AC
:0C10930090F1C9E0FA7B00C002C00374B9
:0A109F00B2C0E07474C0E07480C0B9
:0B10A900E0126BC1E58124FBF5812201
:0910B4001204A47807E260012295
:0710BD00120A9E7800E29088
:0610C400F1C9F0020AA7C9
:0A10CA001203957806E2FAC0021244
:0610D40002ACD0027B001B
:0E10DA00EB75F006A4FCFD9074C493CDA393B7
:0910E800FEBD0005BE00028032CD
:0C10F1008D828E83E493FDB50225EC2473
:0A10FD00C4FCE43474FD8C828D8382
:0E110700A3A3E493FCA3E493FDC004C0058CF5
:0B111500828D8312008BD005D00422D5
:031120000B80B78A
:0611230078077402F222BD
:021129007A004A
:0E112B00EA75F006A4FBFC9074C493CCA39369
:08113900FDBC0004BD00012211
:0E11410074012CFEE43DFF78808C828D838843
:0E114F00F0C002C003C006C00712716FAC8270
:0E115D00AD83D007D006D003EC2EFEED3FFF91
:0E116B007C80EB9074C493CBA393FD7880C07E
:0C11790006C007C004C003C005C000741D
:0A1185001EC0E07475C0E07480C065
:0E118F00E0126BC1E58124F7F581D0020A025F
:02119D00112B14
:0B119F00120AB290F1A9E0FA7B009068
:0E11AA00F1A8E0FC7D00C002C003C004C00537
:0A11B8007428C0E07475C0E0748074
:0D11C200C0E0126BC1E58124F9F5817A00CF
:0E11CF00EA75F006A4FBFC9074C493CCA393C5
:0811DD00FDBC0004BD0001226D
:0A11E500EB24C4FBE43474FC8B829D
:0E11EF008C83A3A3A3A3E493FBA3E493FC4B84
:0D11FD006013C002C003C0048B828C8312FB
:08120A00008BD004D003D002D8
:031212000A80BA95
:0D1215007A0090F1E3C002121524D0027897
:081222000EE260091208947845
:05122A000EE4F27A0160
:0E122F0090F1E3C002121582D002EA6009902D
:08123D00753F75F080026B4E55
:0912450090754575F080026B4EB6
:06124E00907555020763D4
:077303004E3043414C4C00E9
:0E730A0043616C6C7369676E3A202225732212
:027318000A0069
:0E731A004672657175656E63793A20256C6464
:027328000A0059
:0E732A004D61696E206465706C6F793A2025A4
:0A73380064206D65746572730A002D
:0E734200416363656C2063616C202B31673AF8
:0D735000202564202D31673A2025640A00B5
:0E735D004F7269656E7420616E74656E6E61AC
:0E736B0020257320616E64207072657373209C
:0973790061206B65792E2E2E00B7
:037382000D0A00F1
:0E73850043616C6962726174696E672E2E2E10
:0173930000F9
:0373940075700011
:05739700646F776E0039
:0E739C00496E76616C696420616363656C3ACA
:0E73AA00207570202825642920646F776E20DE
:0673B800282564290A00EB
:0E73BE0041706F6765652064656C61793A20E7
:0C73CC002564207365636F6E64730A0013
:0E73D80041706F676565206C6F636B6F757435
:0E73E6003A202564207365636F6E64730A009D
:0E73F400526164696F2063616C3A20256C64FD
:027402000A007E
:0E7404004D617820666C69676874206C6F6754
:097412003A202564206B420A00B7
:0E741B0053746F72616765206D757374206223
:0E7429006520656D707479206265666F72650E
:0E743700206368616E67696E67206C6F672066
:0674450073697A650A007C
:0E744B00466C69676874206C6F672073697AFD
:0E74590065206D757374206265206D756C740E
:0E74670069706C65206F66202564206B420AF8
:017475000016
:0E747600466C69676874206C6F67206D6178E2
:08748400202564206B420A0080
:0E748C0049676E697465206D6F64653A20254E
:03749A00640A0081
:0E749D00506164206F7269656E746174696F6E
:0774AB006E3A2025640A007F
:0E74B200526164696F20656E61626C653A20FC
:0474C00025640A0035
:0274C4005D75F4
:0274C600B20B07
:0274C800900B27
:0274CA007875D3
:0274CC00D80DD9
:0274CE00B70DF8
:0274D0009375B2
:0274D200100E9A
:0274D400EE0DBB
:0274D600B97586
:0274D800680B3F
:0274DA003C0B69
:0274DC00D27567
:0274DE00DC0AC6
:0274E000BB0AE5
:0274E200F17542
:0274E400B410E2
:0274E600931001
:0274E80022760A
:0274EA00560E3C
:0274EC002A0E66
:0274EE004D76D9
:0274F000050D88
:0274F200CC0BC1
:0274F4007276AE
:0274F6002E1056
:0274F8000D1075
:0274FA00A37677
:0274FC00BC0EC4
:0274FE007B0E03
:02750000C17652
:02750200F70F81
:02750400D60FA0
:02750600EB7622
:047508009F110000CF
:02750C00F27615
:04750E001512000052
:027512000477FC
:0A7514002911000000000000000033
:0A751E00252D3230732025730A007A
:0E752800436F6E6669672076657273696F6ED9
:097536003A2025642E25640A00A8
:06753F0053617665640053
:0E7545004E6F7468696E6720746F20736176F4
:027553006500D1
:02755500CA105A
:067557000B7700000000AC
:0E755D006D203C6D65746572733E004D616972
:0D756B006E206465706C6F7920286D29001A
:0E75780064203C64656C61793E0041706F6771
:0D75860065652064656C617920287329001B
:0E7593004C203C7365636F6E64733E00417064
:0E75A1006F67656520646574656374206C6FA8
:0A75AF00636B6F75742028732900C8
:0E75B90046203C667265713E00467265717533
:0B75C700656E637920286B487A29006C
:0E75D20063203C63616C6C3E0043616C6C7323
:0E75E00069676E2028382063686172206D6133
:0375EE00782900F9
:0E75F10065203C302064697361626C652C205B
:0E75FF003120656E61626C653E00456E616212
:0E760D006C652074656C656D65747279206122
:07761B006E6420524446009A
:0E76220066203C63616C3E00526164696F201B
:0E76300063616C6962202863616C203D2072EA
:0E763E00662F287874616C2F325E3136292950
:01764C00003D
:0E764D0061203C2B673E203C2D673E004163D0
:0E765B0063656C2063616C69622028302066D4
:097669006F72206175746F290035
:0E7672006F203C3020616E74656E6E61207575
:0E768000702C203120616E74656E6E61206486
:0E768E006F776E3E00506164206F7269656E0A
:07769C00746174696F6E0058
:0E76A3006C203C73697A653E00466C6967682E
:0E76B10074206C6F672073697A6520286B4225
:0276BF002900A0
:0E76C10069203C30206475616C2C2031206102
:0E76CF00706F6765652C2032206D61696E3E1C
:0E76DD000049676E69746572206D6F64650008
:0776EB00730053686F770084
:0E76F2007700577269746520746F20656570AB
:04770000726F6D0037
:077704003F0048656C7000B6
:0E770B0063203C7661723E203C76616C7565B1
:0E7719003E0053657420636F6E66696720281A
:0E7727003F20666F722068656C702C20732006
:09773500746F2073686F7729005E
:0A125400C054E581F5542407F5812C
:0C125E00AA82E583FB30E7047A007B00E5
:0A126A00A85408A603A8540808A61B
:0C12740002087600A85408E675F002A4F9
:0A128000243EF582747735F0F58303
:0D128A00E493FDA3E493FE3395E0FFFCA880
:0C129700540808E4C396FA74010896FBA2
:0912A3008A78EBF5793395E0F54A
:0A12AC007AF57B8D828E838FF0ECC3
:0C12B600126A8EA85408080808A68208D6
:0C12C200A68308A6F008F6A85408E6046D
:0A12CE0075F002A4243EF582747747
:0E12D80035F0F583E493FEA3E493FF3395E035
:0A12E600FAFBA85408088678088671
:0812F00079E63395E0F57AF58B
:0C12F8007B8E828F838AF0EB126A8EAA34
:0C13040082AB83ACF0FDE5542404F8EA51
:0E13100026FAEB0836FBEC0836FCED0836FD3D
:0E131E0074802AE43BFBE43CFCE43D8B828CB3
:07132C0083855481D0542297
:0E773E00DB3DE43B143A6338CE365135EA3376
:0E774C00963253312030FB2EE32DD72CD62B56
:0E775A00DF2AF029082926284B277626A625A7
:0E776800DB24152454239722DE212A217920C8
:0E777600CC1F221F7B1ED81D381D9A1C001C24
:0E778400681BD31A401AAF19211996180C1859
:0E7792008417FF167B16F9157915FB147F146A
:0E77A00004148B1313139D122812B5114311FC
:0E77AE00D3106410F60F890F1E0FB40E4B0E91
:0E77BC00E30D7D0D170DB20C4F0CEC0B8B0B7B
:0E77CA002A0BCB0A6C0A0E0AB2095609FA08FD
:0E77D800A0084708EE0796073F07E90693064C
:0E77E6003E06EA0596054305F104A0044F0493
:0E77F400FF03AF0360031203C40277022A02F0
:0E780200DE0193014801FE00B4006A0022007E
:0E781000D9FF91FF4AFF03FFBDFE77FE32FE57
:0E781E00EDFDA8FD64FD20FDDDFC9AFC58FC8C
:0E782C0016FCD4FB93FB52FB12FBD2FA93FA2C
:06783A0053FA14FAD6F91E
:021333007A003E
:0E13350090FB65E0FBFC700C90FB65C00212A3
:061343001C56D00280ECF4
:0E13490090FB66C002C004121524D004D0022E
:08135700EC30E01A75786775AF
:03135F0079FB75A2
:061362007A20E4F57B9007
:0D136800F1F5C002C00412519BD004D00268
:08137500EC30E11A7578877570
:03137D0079FB7584
:061380007A20E4F57B90E9
:0D138600F215C002C00412519BD004D00229
:0D13930090FB65E4F090FB66C002C0041200
:0D13A0001582D004D002EC20E0030214A25C
:0B13AD0090F1FAE0FB20E4030214A220
:0C13B80090F1EF7891E2F0A308E2F090D1
:0A13C400F1ED7447F090F208E0909C
:0813CE00F1F1F090F209E0904A
:0813D600F1F2F090F20AE09040
:0913DE00F1F3F090F1F4EBF09052
:0A13E700F1EDC002C004122AD490F8
:0E13F100F1ED744EF090F1FDE0FBA3E0FDA3E2
:0E13FF00E0FEA3E0FF90F1F1EBF0A3EDF0A310
:0C140D00EEF0A3EFF090F1ED122AD49065
:0E141900F1ED7457F090F201E0FBA3E0FDA3AB
:0E142700E0FEA3E0FF90F1F1EBF0A3EDF0A3E7
:0C143500EEF0A3EFF090F1ED122AD4903D
:0E144100F1ED7448F090F1FBE0FBA3E0FD90AC
:0E144F00F1F1EBF0A3EDF090F1F374FFF0A3D8
:0E145D00F090F1ED122AD4D004D002EA7037DC
:0E146B0090F1FAE0FB30E62F90F1ED7459F0AD
:0914790090F205E090F1F1F09011
:08148200F206E090F1F2F09097
:08148A00F207E090F1F3F0908D
:0A149200F1F4E4F090F1EDC0041253
:06149C002AD4AA82D0044C
:0714A200EC20E10302133509
:0B14A90090F21AE0FBFC700302133508
:0814B40090F1ED7456F07B008D
:0814BC00C3EB9C400302133551
:0A14C400EB2BFD241BF582E434F24B
:0E14CE00F583E0FE7F0090F1F1EEF0A3EFF069
:0A14DC00EE4F6024ED241BFDE43404
:0C14E600F2FE8D828E83A3E090F1F4F002
:0E14F20090F1EDC002C003C004122AD4D00451
:04150000D003D00242
:031504000B80B5A4
:091507007440C0E07478C0E07487
:0815100033C0E07413C0E09049
:0C151800F235121A32E58124FCF5812224
:0B7840006770735F7265706F727400F8
:0A152400AA82AB83E0FC850E8285ED
:0C152E000F83A3A3A3A3A3E0FDECB5056D
:0E153A000E758203C002C0031215E4D003D068
:0115480002A0
:07154900D21010AF02C21026
:0E1550008A828B83E060158A828B83C002C082
:07155E0003C022121C56D04D
:0715650022D003D00280E454
:0A156C00850E82850F83A3A3A3A3BD
:0C157600A3E08A828B83F0A21092AF22C7
:0A158200AA82AB83E0FC850E82858F
:0C158C000F83A3A3A3A3A3E0FDECB5050F
:0315980002800EC0
:0E159B00758203C002C0031215E4D003D00213
:0715A900D21010AF02C210C6
:0C15B0008A828B83E4F08A828B83C02245
:0615BC00121C94D022A2D3
:0415C2001092AF22B2
:0615C600AA827B007C00FC
:0815CC008A051AED60118C057F
:0715D4001DEDFC60F38B0428
:0815DB001CECFB60F40080F839
:0115E30022E5
:0415E400AA82C2AF66
:0C15E800758214C0021215C6D0027B05EB
:0E15F40075824BC002C003123FD975820112EE
:0C16020015C6758296123FD97582011240
:0E160E0015C6D003D002DBDE758200C00212CA
:0E161C003FD97582021215C6D002EA30E628C8
:0E162A00758201C0021248DF75824B123FD953
:0E1638007582281215C67582011248E8758267
:0C16460000123FD975820A1215C6D002AE
:06165200743F5AFB7C000E
:0E165800C3EC9B508B758201C002C003C0041E
:0D1666001248DF75825E123FD975820A12AC
:0C16730015C67582011248E8758200124D
:0E167F003FD975820A1215C6D004D003D002DE
:03168D000C80C806
:0C169000AA82BA0A35780FE275F007A4B0
:0A169C0024ACFBE434F2FC8B828CDA
:0E16A60083A3A3E0FBA3E0FCC002C003C004CA
:0A16B40074C4C0E07416C0E0C00367
:0616BE00C00475820D223C
:0616C400D004D003D002A7
:0A16CA00780FE275F007A424ACFBD2
:0C16D400E434F2FC8B828C83A3A3E0FBC7
:0C16E000A3E0FCC003C00474F6C0E0747A
:0A16EC0016C0E0C003C0048A822289
:0516F600D004D0032226
:0A16FB00780FE275F007A424ACFAA2
:0C170500E434F2FB8A828B83A3A3A3A32D
:0E171100E0FAA3E0FB4A600FC002C0038A8228
:09171F008B8312008BD003D00271
:01172800229E
:06172900C2AF780FE2FAE6
:0B172F00EA75F007A424ACF582E43456
:0C173A00F2F583E0FBA3E0FCC0028B8210
:0E1746008C8312008BAB82AC83D002BBFF1EE3
:0C175400BCFF1B0A7810E2B502027A000C
:0C176000780FE2B502C990F2BAC0021284
:06176C001C56D00280BDF6
:09177200780FEAF2D2AF8B82225B
:0A177B00780FE275F007A424ACFA21
:0C178500E434F2FB74062AF582E43BF524
:0517910083E0F5822257
:0A179600C054858154AA82AB837809
:0C17A00010E2B4020E758207C002C00304
:0717AC001215E4D003D00286
:0A17B3007810E275F007A4FC24ACE6
:0C17BD00F582E434F2F583EAF0A3EBF0CF
:0A17C900EC24ACFCE434F2FA8C824C
:0C17D3008A83A3A3E55424FCF8E6F0A3ED
:0C17DF0008E6F08C828A83A3A3A3A3E594
:0C17EB005424FAF8E6F0A308E6F07406B7
:0C17F7002CF582E43AF5837401F07810C0
:0A180300E2FA781004F28A82D05451
:01180D0022B8
:0A180E00C054858154AA82AB83AC5C
:0C181800F0FDE55424FAF8E6C0E008E614
:0C182400C0E0E55424FCF8E6C0E008E653
:0E183000C0E08A828B838CF0ED12680CE5819B
:07183E0024FCF581D05422C7
:0A184500C054858154AA82AB83AC25
:0C184F00F0FDE55424FAF8E6C0E008E6DD
:0C185B00C0E0E55424FCF8E6C0E008E61C
:0E186700C0E08A828B838CF0ED126725E5814C
:0718750024FCF581D0542290
:0A187C00C054E581F5542405F58100
:0918860012044B7807E260030232
:02188F001941FD
:05189100A854087600D8
:0A1896007800E2FB08E2FC7D00A8E8
:0C18A000540808080808A60518A604183B
:0C18AC00A603187600A8540886077A00EE
:0C18B8007B007C00A8540808EF26FFEA23
:0E18C4000836FAEB0836FBEC0836FC7408C058
:0A18D200E0E4C0E074BBC0E074F273
:0E18DC00C0E08F828A838BF0EC12180EAA8275
:0C18EA00E58124FCF581EA603CA854086C
:0D18F60086027B008A828B8312034B7A00EE
:03190300BA08001F
:0E1906005021758220C002121690D002EA24F1
:0A191400BBF582E434F2F583E0F540
:0B191E0082C002120361D0020A80DACE
:0619290075820A121690FF
:08192F00A85408B6F802800A72
:0A193700A85408740826F60218965A
:06194100855481D0542200
:0919470012044B7807E260012252
:0C1950007800E2FA08E2FB7C008C058BBA
:0D195C00048A037A008A828B838CF0ED02EE
:02196900665DB9
:07196B0012039590784B1266
:07197200055CE58270012213
:081979007A007B007C007D0078
:0C19810078E3C3E2F5F0EA95F008E2F527
:0E198D00F0EB95F008E2F5F0EC95F008E2F5CD
:0E199B00F0ED95F0502D8A828B838CF0EDC01C
:0E19A90002C003C004C00512665DD005D00464
:0C19B700D003D00278DFE22AFA08E23BFD
:0B19C300FB08E23CFC08E23DFD80B3A5
:0119CE0022F6
:0C19CF001268F178DBE2FA08E2FB08E2A3
:0D19DB00FC08E2FDC002C003C004C005749A
:0A19E80050C0E07478C0E07480C0C5
:0C19F200E0126BC1E58124F9F58178DF7B
:0E19FE00E2FA08E2FB08E2FC08E2FDC002C0CB
:0A1A0C0003C004C0057463C0E07459
:0C1A160078C0E07480C0E0126BC1E58174
:071A220024F9F581026900BF
:071A290012692D90787C0288
:021A300007634A
:05784B00446F497400C8
:0E78500053746F726167652073697A653A2020
:05785E00256C640A0026
:0E78630053746F7261676520657261736520F2
:0B787100756E69743A20256C640A00F3
:02787C00CF1922
:02787E00907800
:027880007C1872
:027882009F78ED
:027884004719A2
:02788600B478D4
:027888006B197A
:06788A00CC7800000000B4
:0E789000660053686F772073746F72616765CE
:01789E0000E9
:0E789F0065203C626C6F636B3E0044756D703B
:0778AD0020666C61736800A6
:0E78B4007A203C626C6F636B3E00457261731C
:0A78C20065203C626C6F636B3E00B2
:0E78CC005A203C6B65793E0045726173652061
:0E78DA00616C6C2E203C6B65793E206973203A
:0E78E800646F69742077697468204426490033
:0A1A3200C054858154AA82AB83746E
:0C1A3C0010B50D0E758201C002C003122F
:061A480015E4D003D002FA
:021A4E007C0119
:051A5000EC60347D0094
:0A1A5500C3ED950D5023ED2D243B49
:0C1A5F00F582E434F3F583E0FEA3E0FF21
:0E1A6B008E828F83A3A3A3A3A3E0FEB5040283
:021A79008003E8
:031A7B000D80D704
:061A7E00EDB50D0280032E
:031A84000C80C90A
:0E1A87008A828B83A3A3A3A3A3ECF074062A88
:0C1A9500F582E43BF583E55424FAF8E602
:0E1AA100F0A308E6F08A828B83E4F0A3F074D1
:0C1AAF00082AFCE43BFDE55424FCF8860A
:0E1ABB0006088607C002C0038E028C828D834F
:0E1AC900EAF0A3AC82AD838F068C828D83EE93
:0E1AD700F0A3E4F0A37480F0A3AC82AD83D042
:051AE50003D0027E0D9C
:0E1AEA008C828D83E4F0A3AC82AD83DEF38AA0
:0C1AF800828B83A3A3A3A37411F0D2106F
:051B040010AF02C21049
:051B0900E50D250D248F
:0A1B0E003BF582E434F3F583EAF0BE
:0A1B1800A3EBF0050DA21092AFD070
:021B220054224B
:0E1B2400C0E0C0A8C082C083C0F0C002C003F1
:0E1B3200C004C005C006C007C000C001C0D07E
:0A1B400075D000C05474FFB5100703
:071B4A00E50D14F510802CDD
:0A1B5100E5812471FA850E82850FEC
:0C1B5B0083A3A3A3A3EAF07408250EFBEB
:061B6700E4350FFC78904C
:0E1B6D008605088B828C83EDF0A3AB82AC83DF
:021B7B00DAF09E
:0B1B7D0075818FE5116004D2AF80027B
:021B8800C2AFEA
:021B8A00AA109F
:051B8C000510E50DB598
:051B91001003751000B7
:051B9600E510251024FC
:0A1B9B003BF582E434F3F583E0F536
:061BA5000EA3E0F50F8520
:0A1BAB000E82850F83E0FBA3E0FC2F
:081BB500BB0005BC00028044E6
:0A1BBD00850E82850F83A3A3E0FBD1
:0E1BC700A3E0FC4B6022C00212536AAB82AC5A
:0A1BD50083D002850E82850F83A3E2
:0E1BDF00A3E0FDA3E0FEEBC39DFBEC9EFC30FB
:021BED00E712FD
:0A1BEF00EAB51099E5117095D2AF28
:081BF900758701C2AF021B8CCD
:0A1C0100850E82850F83A3A3A3A321
:0C1C0B00E0FA748F2AF5817408250EFBA6
:061C1700E4350FFC78909B
:0E1C1D008B828C83E0FDA3AB82AC83A605080E
:0C1C2B00DAF0D054D0D0D001D000D007A7
:0E1C3700D006D005D004D003D002D0F0D08368
:0C1C4500D082D0E020E705C2AF021C53A3
:021C5100D2AF10
:031C5300D0E022BC
:0A1C5600AA82AB83850E82850F83FE
:0C1C6000EAF0A3EBF0121B24850E828535
:0B1C6C000F83E0FAA3E0FB4A601A853A
:0A1C77000E82850F83E4F0A3F085D0
:0A1C81000E82850F83A3A3E4F0A3F5
:051C8B00F0758201224A
:041C90007582002237
:061C9400AA82AB837C0074
:0A1C9A00C3EC950D502CEC2C243BFC
:0C1CA400F582E434F3F583E0FDA3E0FEDC
:0E1CB0008D828E83E0FFA3E0F8EFB5020CE812
:0B1CBE00B503088D828E83E4F0A3F0D4
:031CC9000C80CEBE
:011CCC0022F5
:0A1CCD00AA82AB83E51245136049BB
:0A1CD7007402250EFCE4350FFDC079
:0E1CE10002C003C004C00512536AE582858369
:0C1CEF00F0D005D004D003D0022512FE76
:0A1CFB00E51335F0FF0EBE00010FE7
:0E1D05008C828D83EEF0A3EFF0EE4F700E8512
:0A1D13000E82850F83A3A37401F074
:031D1D00A3E4F04C
:0C1D20008A828B83121C56AA82E51245B1
:071D2C0013600C850E828597
:081D33000F83A3A3E4F0A3F069
:031D3B008A822277
:0B1D3E00AA82AB83EA4B70037A01FB22
:051D49008A128B1390CB
:051D4E00F35B021CCD57
:071D5300C2AF150DAA1075C7
:021D5A0010FF78
:0A1D5C00C3EA950D5029EA2A243B42
:0B1D6600FBE434F3FCEA04FD25E0245C
:0A1D71003BF582E434F3F583E0FE55
:0E1D7B00A3E0FF8B828C83EEF0A3EFF08D02CD
:021D890080D107
:061D8B00E4F50EF50F0265
:021D91001B2411
:081D930012536A858214858356
:031D9B00157C00B4
:071D9E00C3EC950D4001228A
:0A1DA500EC2C243BF582E434F3F546
:0E1DAF0083E0FDA3E0FE74062DF582E43EF510
:0E1DBD0083E0FFA3E0F879808D828E83A3A3DC
:081DCB00E0F516A3E0F517E5B1
:061DD300164517600FE544
:051DD90016C39514F58E
:041DDE0016E517955A
:051DE20015F517800655
:061DE70075160F751727A9
:0E1DED008D828E83E0FAA3E0FB8D828E83A3AD
:0E1DFB00A3A3A3A3E0FD7E00C004C007C000A8
:0A1E0900C001C016C017C002C003DC
:0A1E1300C005C00674F6C0E0747844
:0E1E1D00C0E07480C0E0126BC1E58124F4F5D2
:071E2B0081D0040C021D9E92
:071E32007510FFE4F50EF549
:041E39000F021B2455
:0E78F6002532643A20776368616E20253038B1
:0E7904007820616C61726D202535642025733A
:027912000A0069
:071E3D001224D07811E4F239
:0C1E44001223A3E58260F97811C3E2F5D7
:0C1E5000F0740795F040ED7811E275F099
:061E5C0003A4901E627356
:071E6200021E7A0222590260
:061E69001F6B021FF202D4
:061E6F002065022089023B
:051E7500216E0221BDF9
:0E1E7A0090F1ACE0FAA3E0FB4A7003021F0CEB
:0E1E880090F1B9E0FCA3E0FD4C7003021F0CCA
:0C1E9600C004C0057827E2FE08E2A2E7C5
:0E1EA20013CE13CEA2E713CE13CEFFEAC39EDB
:0C1EB000FCEB9FFD7825C3E29C08E26477
:0E1EBC00808DF063F08095F0D005D004404298
:0C1ECA00EE2CFCEF3DFD7825C3E2F5F0A6
:0E1ED600EC95F008E2F5F0ED648063F0809585
:0C1EE400F040257823C3E2941808E26463
:0C1EF00080947C40177823C3E2F5F07466
:0E1EFC005895F008E2F5F0749B63F08095F0C5
:021F0A00500A7B
:0A1F0C0078117409F2124B4D804762
:0C1F16007816E27034EE2AFAEF3BFB78FC
:0C1F220025C3E29A08E264808BF063F0B3
:0B1F2E008095F0501C78117402F21234
:0C1F39005966758201123C9690006412FB
:0A1F45003BBF7582011248E8800ED0
:0C1F4F0078117401F2124B4D75820112E2
:021F5B0048E854
:0C1F5D007A117BFF8A828B83121C940295
:021F69001E4414
:0C1F6B007844C3E2F5F0741495F008E22D
:0C1F7700F5F0748063F08095F040347841
:0C1F830048C3E2F5F0744095F008E2F568
:0D1F8F00F0748163F08095F04003021E4461
:0C1F9C007846C3E2F5F0745095F008E2BE
:0E1FA800F5F0748063F08095F04003021E4453
:0A1FB60078117403F27817E2FA08BC
:0C1FC000E2FB7812EAF208EBF2122F9517
:0D1FCC0090000A123BBF758200123C9690F7
:091FD900FB657403F090FB651236
:0B1FE2001C947A117BFF8A828B831213
:051FED001C94021E44DB
:0C1FF2007848C3E294D808E26480947F31
:0C1FFE0050177844C3E2F5F0746495F0CD
:0D200A0008E2F5F0748063F08095F0402747
:0A20170078177912E3F5F0C3E295A3
:0E202100F0FA09E3F5F008E295F0FBC374DC79
:0D202F009A74858BF063F08095F0400302F9
:02203C001E4440
:09203E0078117404F27848E2F50F
:062047001E08E2F51F78FF
:0B204D0014E22401F208E23400F27AF1
:0B205800117BFF8A828B83121C940214
:022063001E4419
:0C2065007846C3E2948008E26480948F07
:0520710040030220F411
:0A20760078117405F27A117BFF8ADD
:09208000828B83121C94021E44A1
:0C20890090F1DEE0FAA3E0FB4A6035783D
:0A209500177912E3F5F0C3E295F0AD
:0C209F00FC09E3F5F008E295F0FD8A78FA
:0C20AB008B79900064C004C005126A2408
:0E20B700AA82AB83D005D004C3EC9AED9B50F7
:0420C50003021E44B0
:0C20C9007847E230E725758200124629B6
:0D20D500900064123BBF758201123C9678AA
:0A20E200117406F27A117BFF8A8266
:0820EC008B83121C94021E44B8
:0A20F400AA1EE51FA2E7CA33CA3393
:0E20FE00A2E7CA33CA33CA540330E10244FCDD
:0A210C00FBE51EC39AFAE51F9BFBDA
:0C2116007848E2FC08E2A2E7CC33CC33AE
:0E212200A2E7CC33CC33CC540330E10244FCB2
:0A213000FDEC2AF51EED3BF51FC380
:0A213A007440951E7481851FF06348
:09214400F08095F04003021E44F6
:0A214D007817E2FA08E2FB7812EAC4
:0A215700F208EBF278117403F27A3B
:0B216100117BFF8A828B83121C94020A
:02216C001E440F
:0C216E0090F1AAE0FAA3E0FB7844E2FC48
:0D217A0008E2FDC3EA9CEB9D5003021E44E9
:0C2187007582011246297817E224E8F561
:082193001808E23403F519906D
:0A219B00F3D5E0FAA3E0FB8A1C8BE9
:0421A5001D8A1A8BEA
:0721A9001B78117407F27AA4
:0B21B000117BFF8A828B83121C9402BB
:0221BB001E44C0
:0C21BD0090F3D5E0FAA3E0FBC3EA951A0A
:0C21C900EB6480851BF063F08095F05003
:0521D500048A1A8B1BB7
:0C21DA0090F3D5E0FAA3E0FBC3E51C9AEB
:0C21E600E51D64808BF063F08095F050E4
:0521F200048A1C8B1D96
:0A21F7007817E2C39518FA08E29584
:0822010019FB30E703021E4443
:07220900E51CC3951AFAE57C
:0A2210001D951BFBC374049A748033
:0C221A008BF063F08095F0401678117492
:0C22260008F27582001253D07A117BFF81
:072232008A828B83121C94C9
:0B22390090F3D5E0FAA3E0FB8A1C8BB9
:042244001D8A1A8B4A
:072248001B7817E224E8F502
:08224F001808E23403F519023E
:022257001E4423
:03225900021E441E
:09225C007811E4F27414C0E0747E
:0822650079C0E0743DC0E07493
:07226D001EC0E090F35C12BB
:092274001A32E58124FCF58122F7
:07791400666C6967687400EE
:0C227D00781FE2FA08E2FBE23395E0FC77
:0C228900FD7834E22AF208E23BF208E2A1
:0C2295003CF208E23DF27819E2FA08E29F
:0C22A100FBE23395E0FCFD7830E22AF20D
:0D22AD0008E23BF208E23CF208E23DF27864
:0B22BA002EE22401F208E23400F222C0
:0C22C5007837E23395E0E2A2E71318E25C
:0C22D10013FB18E2137825F208EBF278FA
:0A22DD0034E4F208F208F208F27887
:0C22E70033E23395E0E2A2E71318E213A3
:0C22F300FB18E213FA7821F208EBF28AE3
:0C22FF00828B83121254E5828583F078F4
:0A230B0023F208E5F0F27830E4F266
:0C23150008F208F208F2782EE4F208F258
:012321002299
:0C232200782EC308E29402500302227DD2
:0E232E0090F1B9E0FAA3E0FB90F1ACE0FCA363
:0C233C00E0FDEAC39CFAEB9DFB7827EA69
:0A234800F208EBF28A78EBF5793326
:0A23520095E0F57AF57B90D0147544
:0E235C00F0397401126AFCAA82AB83ACF0FD6A
:0C236A007829EAF208EBF208ECF208ED2A
:09237600F21222C5782DE4F222D6
:0C237F00782EC308E29402500302227D75
:0A238B00782EC308E29404500C7889
:0B2395002EE22401F208E23400F222E4
:0323A0000222C551
:0C23A3007A237BFF8A828B83121C947AC1
:0A23AF00437BFF8A828B83121C56C9
:0623B900E543B523030219
:0223BF0024C533
:0923C100E52375F010A42488F551
:0623CA002474F535F0F566
:0523D000258524828533
:0A23D5002583E0FCA3E0FD7817EC7F
:0B23DF00F208EDF274022524FCE43546
:0C23EA0025FD8C828D83A3A3E0FCA3E002
:0C23F600FD7819ECF208EDF28C828D836A
:0C240200121254AC82AD83781BECF2087F
:0C240E00EDF27823D3E29CF4B3FCB30899
:0C241A00E29DF4FD781DECF208EDF28567
:0A2426002482852583A3A3E0FCA314
:0E243000E0FD3395E08D078C06E4FDFC7402A0
:0A243E002524FAE43525FB740C2A6E
:0E244800F582E43BF583E0FAA3E0CA25E0CA82
:0724560033FB8A788B7975D6
:0A245D007A00757B008C828D838E5F
:0E246700F0EF1269BFAA82AB83ACF0FDEBC3AD
:0C24750013CA13CAFB781FEAF208EBF24E
:0C24810090F1C4E0600C781F74FFC39A57
:06248D00F2747F9B08F2CF
:09249300852482852583A3A3782A
:0A249C001FE2F0A308E2F0782DE241
:0724A6006005122322800EE5
:0624AD007811E2B4030007
:0524B300500312237F1D
:0324B8001228D116
:0824BB00E52304541FF5230280
:0224C30023B93B
:0624C500782DE2B40100D5
:0524CB00E433F582225C
:0A24D000120AB2782EE4F208F27846
:0A24DA0030E4F208F208F208F2788C
:0A24E40019E4F208F27834E4F2087B
:0C24EE00F208F208F2781FE4F208F28510
:0324FA0043237801
:0524FD002D7401F22224
:082502007846E2F57808E2F5E5
:08250A0079E23395E0F57AF562
:0C2512007B90028FE4F5F0126A8E858247
:06251E002685832785F0ED
:0425240028F52978F5
:0725280048E2F52A08E2F584
:08252F002BE23395E0F52CF5D9
:032537002D852AC5
:03253A0078852B76
:03253D0079852C71
:032540007A852D6C
:0C2543007B900003E4F5F0126A8EAC827D
:0B254F00AD83AAF0FBEC2526FCED3567
:08255A0027FDEA3528FAEB35F4
:0C25620029FBEDC4CCC4540F6CCC540F0A
:0E256E00CC6CCCFDEAC454F04DFDEBC4CAC4E5
:0E257C00540F6ACA540FCA6ACA30E30244F010
:0C258A00FB7838E22CF208E23DF208E297
:0A2596003AF208E23BF2852A78854C
:0325A0002B79850F
:0325A3002C7A850A
:0925A6002D7B90028FE4F5F01288
:0C25AF006A8EAA82AB83ACF0FD783CE29F
:0E25BB002AF208E23BF208E23CF208E23DF2AE
:0125C90022EF
:0A25CA00783AE2FA08E2FB781DE21D
:0C25D400C39AFA08E29BFB784EEAF2087A
:0825E000EBF27811E2B40600F1
:0325E8004001228D
:0C25EB00781BE22420FA08E234D1FB78CF
:0C25F70046E22480FC08E234F0FDC4231E
:0E260300CCC423541F6CCC541FCC6CCC30E4E0
:032611000244E0A0
:0E261400FDC374A09C74808DF063F08095F07F
:0626220050047CA07D00C5
:0E262800C3EA9CEB64808DF063F08095F05067
:05263600048C028D037D
:0E263B00C3E49A74808BF063F08095F0504BEE
:0E264900C3E49A74818BF063F08095F0500426
:042657007A007B0189
:0C265B00784EE2FC08E2FDE23395E0FE60
:0C266700FFE4C39AFA74019BFB8A78EB35
:08267300F5793395E0F57AF5E5
:0C267B007B8C828D838EF0EF126A8EAA99
:0C26870082AB83ACF0FD784EEBF208EC67
:01269300F254
:012694002223
:072695001225CA784EE2F5A0
:0A269C002E08E2F52FE23395E0F579
:0426A60030F5318555
:0326AA002E788502
:0326AD002F7985FD
:0326B000307A85F8
:0926B300317B900789E4F5F01277
:0C26BC006A8EAE82AF83AAF0FB7838E291
:0E26C8002EF208E23FF208E23AF208E23BF29C
:0426D600852E788550
:0326DA002F7985D0
:0326DD00307A85CB
:0926E000317B90B40FE4F5F01217
:0C26E9006A8EAA82AB83ACF0FD783CE264
:0E26F5002AF208E23BF208E23CF208E23DF273
:04270300852E788522
:032707002F7985A2
:03270A00307A859D
:09270D00317B908682E4F5F012A4
:0C2716006A8EAA82AB83ACF0FD7840E232
:0E2722002AF208E23BF208E23CF208E23DF245
:012730002286
:0C27310090F1ACE0FAA3E0FB781FD3E2CB
:0E273D009AF4B3FAB308E29BF4FB3395E0FC88
:09274B00FD7829E2F57808E2F5B9
:082754007908E2F57A08E2F5CC
:0C275C007B8A828B838CF0ED126A8EAABF
:0C27680082AB83ACF0FD7840D3E29AF421
:0E277400B3B308E29BF4B3B308E29CF4B3FCE9
:0C278200B308E29DF4FD7850ECF208ED85
:02278E00F22235
:072790001225CA122731785F
:072797004EE2F53208E2F505
:08279E0033E23395E0F534F558
:0327A60035853244
:0327A900788533FD
:0327AC00798534F8
:0327AF007A8535F3
:0C27B2007B900215E4F5F0126A8E85821F
:0627BE003685833785F02B
:0427C40038F5397833
:0727C80050E2F53A08E2F5CA
:0827CF003BE23395E0F53CF517
:0427D7003DE53A257D
:0727DB003AFEE53B33FFE588
:0A27E2003C33FAE53D33FBEE2EFE1A
:0C27EC00EF33FFEA33FAEB33FBEE253647
:0A27F800FEEF3537FFEA3538FAEB43
:0A2802003539FB7838E22EF208E2C7
:0C280C003FF208E23AF208E23BF28532AB
:032818007885338D
:03281B0079853488
:03281E007A853583
:0C2821007B900D9AE4F5F0126A8E85821F
:06282D003685833785F0BB
:0428330038F53985B6
:032837003A788567
:03283A003B798562
:03283D003C7A855D
:092840003D7B90026EE4F5F012FC
:0C2849006A8EAE82AF83AAF0FBEE25364B
:0A285500FEEF3537FFEA3538FAEBE5
:0A285F003539FB783CE22EF208E266
:0C2869003FF208E23AF208E23BF285324E
:0328750078853330
:032878007985342B
:03287B007A853526
:0C287E007B900068E4F5F0126A8E858201
:06288A003685833785F05E
:0428900038F5398559
:032894003A78850A
:032897003B798505
:03289A003C7A8500
:09289D003D7B90185AE4F5F0129D
:0C28A6006A8EAE82AF83AAF0FBEE2536EE
:0A28B200FEEF3537FFEA3538FAEB88
:0A28BC003539FB7840E22EF208E205
:0B28C6003FF208E23AF208E23BF22287
:0C28D1001225027811C3E2F5F0740595A1
:0828DD00F04005122790800372
:0328E50012269523
:0A28E800783AE2FA08E2FB7844EACD
:0A28F200F208EBF2783C7946080882
:0A28FC00E2F308E209F3784079489E
:0E2906000808E2F308E209F390F3D3E0FCA323
:0C291400E0FD7844C3E2F5F0EC95F0081B
:0E292000E2F5F0ED648063F08095F0500890D1
:07292E00F3D3EAF0A3EBF084
:0E29350090F3D5E0FAA3E0FB3395E0FCFD78CB
:0A2943004AE2C39AF53E08E29BF554
:0A294D003F08E29CF54008E29DF50A
:0A29570041781DE2FE08E2FFE233C2
:0A29610095E0FAFBEE253EFEEF358F
:08296B003FFFEA3540FAEB35AD
:0A29730041FB784AEEF208EFF2088B
:0C297D00EAF208EBF2784AE2243FFA0884
:0E298900E23400FB08E23400FC08E23400FDFA
:0E299700EBA2E7CA33CA33CA5401FBEC2C4B47
:0E29A500FBEDA2E7CC33CC33CC540130E00282
:0229B30044FEE0
:0929B50090F3D5EAF0A3EBF02247
:0329BE000268F0BC
:0E29C100E58275F003A42480FAE435F0FB33C0
:0A29CF0095E0FC8A828B838CF022D5
:0E29D900AA8290F3DBE4F090F3D9E0FBA3E0D8
:0E29E700FC90F3DCEBF0A3ECF08A821229C125
:0C29F500AA82AB83ACF0FD78E3E22AFA82
:0E2A010008E23BFB08E23CFC08E23DFD7403EA
:0A2A0F00C0E0E4C0E074DBC0E07436
:0B2A1900F3C0E08A828B838CF0ED128A
:0B2A24001845E58124FCF5810268F0F4
:0C2A2F001229C1AA82AB83ACF0FD78E351
:0E2A3B00E22AFA08E23BFB08E23CFC08E23D1E
:0C2A4900FD7403C0E0E4C0E074DBC0E0FA
:0C2A550074F3C0E08A828B838CF0ED12D9
:092A6100180EE58124FCF5812228
:042A6A007A007B0073
:032A6E00BB10009A
:0E2A7100503A8B82C002C003122A2FD003D02D
:0E2A7F000290F3DBE0FC701990F3DCE0FDA3A5
:0E2A8D00E0FE90F3D9E0FFA3E0F8EDB50705F9
:052A9B00EEB500012270
:082AA000EC60058A820229D9CD
:052AA8000B8B0280C150
:032AAD000208D943
:082AB000AA82AB837C5A7D0071
:032AB800BD080056
:0E2ABB0050118A828B83E0FEA3AA82AB83EEC9
:052AC9002CFC0D80EA69
:062ACE00C3E49CF5822226
:0E2AD400AA82AB837C0074012AFDE43BFE8DD8
:0E2AE200828E83E4F08A828B83C002C003C020
:0E2AF00004C005C006122AB0AF82D006D00581
:0E2AFE008D828E83EFF090F3D7121524D00452
:0A2B0C00D003D00278527956C3E3DB
:0E2B1600F5F0E295F009E3F5F008E295F0091C
:0E2B2400E3F5F008E295F009E3F5F008E2951C
:0E2B3200F0401690F3D8E0FD600FC002C00323
:0B2B4000C004122FA1D004D003D0026B
:0E2B4B0090F3D8E0FD603E7C01C0047408C029
:0C2B5900E0E4C0E0C002C0037852E2F5E6
:0E2B65008208E2F58308E2F5F008E212184556
:0C2B7300E58124FCF581D0047852E224B6
:0E2B7F0008F208E23400F208E23400F208E244
:032B8D003400F21F
:0D2B900090F3D7C004121582D0048C82226D
:0E2B9D0090F3DE122AB0E582600475820022F9
:042BAB00758201220C
:082BAF007ADE7BF37C007D005F
:032BB700BD080056
:0E2BBA00501B8A828B838CF0127187FEA3AAB7
:082BC80082AB83BEFF02800412
:042BD00075820022E8
:032BD4000D80E091
:042BD70075820122E0
:0E2BDB00AA82C002122C86AB82AC83ADF0FE43
:0C2BE9007408C0E0E4C0E074DEC0E074DA
:0B2BF500F3C0E08B828C838DF0EE12A9
:0E2C0000180EAB82E58124FCF581D002EB704A
:092C0E00128A03FC0BBB00010C4F
:0A2C1700C3E49BF582E49CF58322E0
:0E2C2100C002122BAFE582D0026004900000CA
:012C2F002282
:0E2C3000C002122B9DE582D002600A90F3DEF6
:072C3E00E0FBBB4602801120
:072C45007B000ABA00010B3D
:0A2C4C00C3E49AF582E49BF58322AD
:0C2C560090F3E4E0FAA3E08A82F5832208
:092C620090F1BFE0F578A3E0F564
:082C6B0079A3E0F57AA3E0F57E
:0A2C73007B78E3E2F58208E2F583C6
:092C7D0008E2F5F008E20269BF6B
:0B2C8600AA8290F1BFE0F578A3E0F512
:082C910079A3E0F57AA3E0F558
:0C2C99007B7B007C007D008A828B838C9A
:052CA500F0ED026A8E53
:0E2CAA007A007B00C002C003122C62AC82D004
:052CB80003D0027D00C5
:0E2CBD00C3ED9C50418D82C002C003C004C014
:0E2CCB0005122BDBAE82AF83D005D004D00300
:0E2CD900D002C3E49E74808FF063F08095F00B
:0E2CE7005017EA4B600FC3EA9EEB64808FF03B
:072CF50063F08095F050042C
:042CFC008E028F03B2
:032D00000D80BA89
:052D03008A828B83228F
:0A2D0800C054E581F5542404F58160
:0E2D1200AA82C002122A6AD0028A82122C867D
:0C2D2000AA82AB83ACF0FDA85408A60208
:0E2D2C0008A60308A60408A60590F1BFE0FE65
:0C2D3A00A3E0FFA3E0FAA3E0FBA854080C
:0E2D4600EE26FEEF0836FFEA0836FAEB0836F6
:052D5400FB8E048F0559
:0C2D5900A85408C3E69C08E69D08E69A12
:082D650008E69B4003022E1C4E
:022D6D007E00E6
:032D6F00BE100093
:0E2D72005069C004C005C002C0038E077A007D
:0C2D80007B007C00A85408EF26FFEA0846
:0E2D8C0036FAEB0836FBEC0836FCC003C00438
:0C2D9A00C005C0067401C0E0E4C0E07495
:0A2DA600E6C0E074F3C0E08F828AFB
:0E2DB000838BF0EC12180EAA82E58124FCF54C
:0E2DBE0081D006D005D004D003EAD003D002A5
:0E2DCC00D005D004600890F3E6E0FFBFFF03DF
:032DDA000E8092D6
:052DDD00BE1002803A67
:0C2DE200A8540886820886830886F00842
:0E2DEE00E6C002C003C004C00512665DD00539
:0A2DFC00D004D003D002A8540879D7
:0C2E0600DFE326F609E30836F609E308CE
:0A2E120036F609E30836F6022D59E2
:062E1C00855481D0542210
:022E22007A1024
:0E2E24008A031AEB60478A82C002122A2FD05E
:0E2E32000290F3DBE070EB90F3D9E0FAA3E03E
:0E2E4000FB4A601D90F3DCE0FCA3E0FDECC358
:0E2E4E009AFAED9BFBC3E49A74808BF063F05C
:052E5C008095F050100C
:0E2E610090F3DCE0FAA3E0FB90F3D9EAF0A3D3
:022E6F00EBF086
:0E2E710090F3D9E0FAA3E0FB4A700990F3D980
:062E7F007401F0E4A3F071
:012E8500222A
:0A2E8600C054E581F5542404F581E1
:0B2E9000120AB2122CAAAA82AB839097
:0E2E9B00F3D9EAF0A3EBF0EA4B60240ABA0088
:022EA900010B1B
:0E2EAB0090F3D9EAF0A3EBF0C3E49A74808BA5
:0E2EB900F063F08095F0400990F3D97401F0B9
:032EC700E4A3F091
:0C2ECA00122E227856E4F208F208F208FA
:0C2ED600F27852E4F208F208F208F2125E
:0E2EE2002C62AA8290F3D9E0FBA3E0FC1BBB9C
:032EF000FF011CC3
:0A2EF3008A787579008B828C83C009
:0A2EFD00021271A3AB82D0028B0415
:0E2F07008C82C002C003C004122BDBE5828561
:0E2F150083F0D004D003D00245F070548C82BB
:0C2F2300122C86AA82AB83ACF0FD785221
:0E2F2F00EAF208EBF208ECF208EDF290F1BFC6
:0C2F3D00A85408E0F6A3E008F6A3E008A2
:0C2F4900F6A3E008F6A85408E62AF608F3
:0C2F5500E63BF608E63CF608E63DF6A870
:0A2F610054087956E6F30809E6F378
:0A2F6B000809E6F30809E6F38011F7
:082F75000CC3EC9A40027C0041
:062F7D00ECB50302800325
:032F8300022F0713
:0A2F860090F3D9121C9475820085A7
:052F90005481D0542221
:0A2F950090F3D87401F090F3D80215
:022F9F001C9480
:082FA10090F3D8E4F00229BE10
:0E2FA900122CAAAA82AB83E4BA0004BB00017A
:012FB7000415
:042FB800FAB4010066
:052FBC00E433F5822260
:0A2FC10078527956E2F5F0E3B5F01E
:0E2FCB001F08E2F5F009E3B5F01608E2F5F094
:0E2FD90009E3B5F00D08E2F5F009E3B5F004E8
:042FE70074018001F0
:012FEB00E401
:032FEC00F5822249
:0A2FEF00C054858154058105810559
:0B2FF90081122C62AA82A85408760006
:0B300400A85408C3E69A400302309273
:0C300F00A854088682C002122BDBAC82A1
:0C301B00AD83D002A8540808A60408A643
:0C30270005A8540808E60846605AC002DC
:0C303300A85408E604F582122C86AF8336
:0C303F00AAF08F068A07A854088682C0F9
:0E304B0006C007122C86AC83ADF0D007D0066D
:0E3059008C028D04C002C006C007C002C00475
:0C306700A8540808E6C0E008E6C0E074C9
:0A3073001BC0E07479C0E07480C057
:0E307D00E0126BC1E58124F7F581D002D0028C
:07308B00A8540806023004FE
:0A3092007436C0E07479C0E0748069
:0C309C00C0E0126BC11581158115818503
:0530A8005481D0542208
:0E30AD007A017B00C002C003120395D003D04D
:0C30BB00027806E2B42D0F7AFF7BFFC004
:0A30C70002C0031202ACD003D002D5
:0C30D100C002C0031204A4D003D0027897
:0530DD0007E260012282
:0830E2007800E2F57808E2F540
:0C30EA00798A828B83126A24AC82AD8349
:0E30F6008C028D03C002C003122C62AC82D08B
:0B31040003D002EA4B60477D007E0014
:0E310F00C3EE9C503EC0058E82C002C003C0BD
:0E311D0004C006122BDBAF82AD83D006D004B7
:0E312B00D003D002EFB50206EDB5030280041A
:04313900D00580102D
:0E313D00D0058D82122D0890793C75F080022D
:02314B006B4EC9
:05314D000E8E0580BD9F
:0A315200C002C0037443C0E07479AA
:0E315C00C0E07480C0E0126BC1E58124FBF579
:02316A008122C0
:0B316C0090F3D8E4F0785E7409F29054
:0631770079571207637492
:08317D0063C0E07479C0E07446
:0831850099C0E07431C0E09034
:0C318D00F3E7121A32E58124FCF58122E0
:0E791B00666C6967687420256420737461725D
:0D7929007420257820656E642025780A0002
:06793600646F6E650A009B
:07793C0045726173656400F0
:0E7943004E6F207375636820666C6967687408
:067951003A2025640A0043
:02795700EF2F10
:0279590067794C
:02795B00AD304D
:06795D0073790000000038
:047963006C6F6700DE
:0C7967006C004C697374206C6F67730037
:0E79730064203C666C696768742D6E756D62E9
:0E79810065723E0044656C65746520666C6935
:04798F0067687400B1
:063199001268F1122E86FF
:0B319F0090F3D8E0FA700890F3D8120B
:0431AA001C5680F13E
:0A31AE0090F3DE7446F090F3E07831
:0B31B80017E2F0A308E2F090F3E278C9
:0C31C30025E2F0A308E2F090F3D9E0FA56
:0E31CF00A3E0FB90F3E4EAF0A3EBF090F3DE54
:0931DD00122AD4E52304541FF565
:0A31E6004275F010A42488F58274ED
:0C31F000F535F0F583E0FAA3E0FB8A045B
:0631FC008B05785EE4F291
:06320200E523B5420302C2
:0232080033CAC7
:0C320A00C002C003E54275F010A4FEAF46
:0A321600F02488F582EF34F5F5830B
:0E322000E0FAA3E0FB90F3E0EAF0A3EBF090FD
:0E322E00F3E0E0FAA3E0FBEAC39CEB9DD003C3
:08323C00D00230E7030232C9A1
:0C324400C002C00390F3DE7441F0EE24E1
:0A32500088FAEF34F5FB8A828B83C5
:0E325A00A3A3E0FAA3E0FB90F3E2EAF0A3EBFB
:0A326800F0EE2488FEEF34F5FF7449
:0E327200022EFEE43FFF8E828F83A3A3E0FABC
:0E328000A3E0FB90F3E4EAF0A3EBF090F3DEA2
:0C328E00C002C003122AD4D003D0027882
:0C329A005EC3E2F5F0740595F0D003D09F
:0E32A60002401190F3E0E0FEA3E0FF74012E61
:0632B400FCE43FFD800F69
:0E32BA0090F3E0E0FEA3E0FF740A2EFCE43F78
:0132C800FD08
:0E32C90090F3E0E0FEA3E0FFEEC39AFEEF9B61
:0732D700FF30E7030233C0E2
:0C32DE00C004C00590F3DE7454F0E5421B
:0C32EA0075F010A4FEAFF02488FCEF3457
:0C32F600F5FD74022CFCE43DFD8C828D83
:0E33020083A3A3A3A3E0FCA3E0FD90F3E2EC01
:0A331000F0A3EDF0EE2488FEEF3488
:0C331A00F5FF74022EFEE43FFF74062E47
:0E332600F582E43FF583E0FCA3E0FD90F3E4C4
:0D333400ECF0A3EDF090F3DEC004C0051234
:0D3341002AD4D005D00490F3DE7444F0E5EA
:0A334E004275F010A4FCADF02488D5
:0C335800FEED34F5FF74022EFEE43FFF92
:0E33640074082EF582E43FF583E0FEA3E0FF3F
:0C33720090F3E2EEF0A3EFF0EC2488FCF6
:0C337E00ED34F5FD74022CFCE43DFD7400
:0E338A000A2CF582E43DF583E0FCA3E0FD9003
:0E339800F3E4ECF0A3EDF090F3DEC004C0050A
:0E33A600122AD4D005D00490F3E0E0FCA3E09E
:0C33B400FD74202CFAE43DFBD005D00491
:0833C000E54204541FF542022E
:0233C8003202CF
:0A33CA007811795EE2F5F0E3B5F04A
:0333D4000280581C
:0833D7007811E2FE785EF2902D
:0933DF00F3DE7453F090F3E07882
:0C33E80017E2F0A308E2F07F0090F3E28F
:0D33F400EEF0A3EFF090F3E4E4F0A3F0900E
:0E340100F3DEC002C003C004C005122AD4D0FE
:0C340F0005D004D003D002785EE2B408BF
:0E341B0013C002C003C004C005122FA1D005CB
:06342900D004D003D00224
:0E342F0090000AC002C003C004C005121D3E7A
:08343D00D005D004D003D00239
:0A34450090F3D8E0FE6003023202AB
:0E344F0090F3D8C002C003C004C005121C5682
:0A345D00D005D004D003D00280DEB9
:0C3467007811E290799393FA74075AFBF5
:04347300EA700122D8
:0E3477008B041BEC604CEA30E31BC002C00368
:0E3485007414C0E0E4C0E075825E123FFA15D8
:09349300811581D003D0028019DB
:0E349C00C002C0037406C0E0E4C0E075825EAA
:0B34AA00123FFA15811581D003D002FB
:0E34B500900006C002C003121D3ED003D002DC
:0634C300EAC313FA80AE1B
:0634C900900024021D3EEC
:0E34CF00E582FA70197432C0E0E4C0E0758244
:0E34DD005E123FFA15811581900014121D3EFB
:0234EB0080233C
:0E34ED008A031AEB601DC0027414C0E0E4C034
:0E34FB00E075825E123FFA1581158190001473
:07350900121D3ED00280DD1F
:0635100090001E021D3EAA
:0C351600AA82E583FB30E7047A007B000A
:023522007C002B
:0A3524008C050CED245EFDE434F488
:0A352E00FE75780AE4F5798A828BB5
:0E35380083C002C003C004C005C0061271A308
:0E354600AF82D006D005D004D003D0028D8213
:0A3554008E83EFF075780AE4F57934
:0E355E008A828B83C0041271D9AA82AB83D0FB
:07356C0004EA4B70B38C026E
:0A3573001AEA245EF582E434F4F550
:0E357D0083E0F582C0021234CFD002EA70E87B
:01358B00221D
:0D358C0090F3D3E0FAA3E0FB8A828B830268
:023599003516E5
:07359B0090F468123E13904A
:0C35A200F470E0FAA3E0FB4A700D7C23FB
:0B35AE007DFF8C828D83121C5680E292
:0A35B9008A828B83126469023516C2
:0C35C300124647AA82BA01047A01800275
:0235CF007A0080
:0335D1008A8222C9
:0E35D4007582001235C3AA82758201C00212F0
:0C35E20035C3AB82D002EB2B4AF58222ED
:0835EE001235D4E582FA6023D6
:0E35F6008A031AEB604DC0027402C0E0E4C00C
:0E360400E075824B123FFA1581158190000A85
:07361200121D3ED00280DD15
:023619007A0530
:0E361B008A031AEB6028C0027402C0E0E4C00B
:0E362900E075824B123FFA158115817402C0C4
:0E363700E0E4C0E0758296123FFA158115811D
:04364500D00280D25D
:0E364900122FC1E582605890000A121D3E7AD1
:013657000270
:0E3658008A031AEB604AC002740AC0E0E4C0A4
:0E366600E0758296123FFA15811581740AC034
:0E367400E0E4C0E075825E123FFA1581158118
:0E368200740AC0E0E4C0E075824B123FFA15F6
:0E369000811581740AC0E0E4C0E075825E120C
:0A369E003FFA15811581D00280B0BB
:0136A80022FF
:0A36A9007811E2FA785FF2EA70058A
:0536B30012359B8003AD
:0336B80012346762
:0C36BB00785FE2B4080B12358C9001F42B
:0536C700121D3E80DD34
:0936CC00785FE2B401031235EE4F
:0B36D5007811E2B4021D1235EE7A32CB
:0C36E0008A031AEB60EF7811E2B402E9F3
:0C36EC0090000AC002121D3ED00280E8CF
:0A36F800785F7911E2F5F0E3B5F018
:0C370200A67A117BFF8A828B83121C5672
:02370E0080E851
:09371000749DC0E07479C0E074FE
:08371900A9C0E07436C0E09085
:0C372100F478121A32E58124FCF58122B4
:0A7993000302340C242C0B1A144CD0
:07799D007265706F72740047
:0D372D007420C0E090F4F1124C91158190D1
:05373A000001021D3E2C
:0A373F00E52314541F75F010A424B4
:0A37490088FA74F535F0FB8A828BD4
:0E37530083E0FCA3E0FD90F4F3ECF0A3EDF0B6
:0A37610090F4F57401F090F4F6788E
:0C376B0011E2F08A828B83A3A3E0FCA390
:0E377700E0FD90F4F7ECF0A3EDF074022AFAF6
:0E378500E43BFB8A828B83A3A3E0FCA3E0FD60
:0E37930090F4F9ECF0A3EDF08A828B83A3A3EF
:0E37A100A3A3E0FCA3E0FD90F4FBECF0A3ED8D
:0E37AF00F074062AF582E43BF583E0FCA3E00B
:0E37BD00FD90F4FDECF0A3EDF074082AF58207
:0E37CB00E43BF583E0FCA3E0FD90F4FFECF09E
:0E37D900A3EDF0740A2AF582E43BF583E0FAD2
:0E37E700A3E0FB90F501EAF0A3EBF090F503F0
:0C37F5007848E2F0A308E2F090F50578B7
:0B38010046E2F0A308E2F090F5077823
:0B380C0044E2F0A308E2F090F5097818
:0B38170021E2F0A308E2F090F50B782E
:0C38220025E2F0A308E2F090F1ACE0FA1F
:0E382E00A3E0FB90F50DEAF0A3EBF090F1B9EA
:0E383C00E0FAA3E0FB90F50FEAF0A3EBF00238
:02384A00372D18
:0A384C007865E214F27865C3E2F536
:0B385600F0748063F08095F0500122B8
:0D38610090F4F57404F090F4F6740BF09000
:0B386E00F4F77866E2F0A308E2F090A7
:0C387900F4F97401F090F4FA7417F09068
:0E388500F1B8E0FA7B0090F4FBEAF0A3EBF060
:0E38930090F1AAE0FAA3E0FB90F4FDEAF0A3A6
:0E38A100EBF090F1BFE0A3E0FBA3E0FCA3E09E
:0E38AF00FD8B02ECC313CA13CAC313CA13CA9B
:0E38BD00FBED030354C04BFBED0303543F909F
:0C38CB00F4FFEAF0A3EBF0740724A8F56A
:0538D70078E434F1F576
:0638DC0079757A08E4F59D
:0538E2007B90F50112CE
:0538E700519B7A537BA8
:0438EC007E8A788BCD
:0638F00079757A08E4F589
:0538F6007B90F50912B2
:0638FB00519B7864E278A5
:0539010065F202372D04
:0A3906007869E214F27869C3E2F573
:0E391000F0748063F08095F0403D90F4F57403
:0B391E0005F090FB66121524740524D0
:0539290067F578E434AD
:04392E00FBF57975B7
:063932007A1BE4F57B9016
:06393800F4F612519B9011
:0B393E00F4F37891E2F0A308E2F090AF
:06394900FB6612158278F6
:06394F0068E27869F20253
:02395500372D0C
:01395700224D
:0A395800786AE214F2786AC3E2F51F
:0E396200F0748063F08095F0403A90F4F574B4
:0939700006F090FB66121524908C
:0A397900FB8CE090F4F6F0740624D5
:0539830087F578E43433
:04398800FBF579755D
:06398C007A18E4F57B90BF
:06399200F4F712519B90B6
:06399800FB6612158278A7
:06399E0068E2786AF20203
:0239A400372DBD
:0139A60022FE
:0A39A700786CE214F2786CC3E2F5CC
:0E39B100F0748063F08095F0405090F4F5744F
:0E39BF0007F090FACFE0FAA3E090F4F6EAF0F9
:0939CD0090FAD3E090F4F7F090B9
:0839D600FAD4E090F4F8F0903F
:0639DE00FAED121524753C
:0339E40078D5751E
:0339E70079FA90DA
:0B39EA00FAD4E075F002A4F57A85F035
:0539F5007B90F4F912C3
:0639FA00519B90FAED1252
:063A00001582786BE278EC
:053A06006CF202372DF7
:013A0B002298
:0A3A0C00120AB290F1C9E070031233
:023A16001D533E
:0E3A180090F3D9E0FAA3E0FB4A700890F3D9CE
:053A2600121C5680EDAA
:0C3A2B007866EAF208EBF2122FC1E58287
:083A370060067866E4F208F273
:0E3A3F009000A4E493FA740193FB90F4F1EA72
:043A4D00F0A3EBF007
:0C3A51007860E2F5F008E245F0700890A3
:073A5D00F4F1121C5680ED8C
:0C3A640012536AAA82AB837862EAF2086F
:0A3A7000EBF290F4EFEAF0A3EBF0A4
:0C3A7A007860E2F5F008E245F060CC1244
:0E3A8600536AE5828583F02410FA742735F028
:0E3A9400FB90F1C9E0FC20E14A12536AAC82BB
:0C3AA200AD837862D3E29CF4B3FCB3085F
:0E3AAE00E29DF4FD20E72B12536AAC82AD833B
:0A3ABC007860E22CFC08E23DFD7882
:0A3AC60062ECF208EDF212373F78CF
:073AD00090E260031239A728
:073AD70012390612395812E2
:023ADE00384C62
:073AE0007862E2FA08E2FB44
:0A3AE70090FC23E0FC7003023B8B0F
:0B3AF10090F1C9E0FC30E203023B8BC7
:0E3AFC00C002C00312536AAC82AD83D003D067
:0E3B0A000290F4EFE0FEA3E0FFECC39EFCEDA2
:0E3B18009FFD20E74DC002C00312536AE582F4
:0E3B26008583F0D003D00290F4EF24F4F07405
:0C3B34000135F0A3F07811E2B40220C0CB
:0E3B400002C0031235D4AC82D003D002ECFDDB
:0E3B4E00600F8D82C002C003124E5DD003D006
:033B5C0002800BD9
:0B3B5F00C002C003124E33D003D0029E
:0E3B6A0090F4EFE0FCA3E0FDEAC39CFEEB9DAF
:0E3B7800FFC3E49E74808FF063F08095F050E0
:053B8600048C028D0318
:0E3B8B00C002C00312536AAC82AD83D003D0D7
:0E3B990002EAC39CFAEB9DFBC3E49A74808B96
:0B3BA700F063F08095F04003023A7AD2
:053BB2008A128B139044
:063BB700F4F1121CCD0226
:023BBD003A7A52
:0C3BBF00AA82AB837C007860EAF208EB7D
:0D3BCB00F290FAD3E0700690FAD37464F023
:0A3BD80090FAD3E0FD7E008A788B9E
:0C3BE200798D828E83C002C003C00412E3
:0D3BEE006996AD82AE83D004D003D002787A
:0C3BFB006BEDF2C374808DF063F08095D8
:053C0700F050027C01F9
:073C0C00786CECF28A788B62
:0B3C130079900064C002C003C00412DE
:0D3C1E006996AD82AE83D004D003D0027849
:0C3C2B0068EDF2C3EC64808DF063F08063
:053C370095F050010CA6
:0C3C3C007869ECF2C3EC64808DF063F05A
:063C48008095F050010C14
:073C4E00786AECF28A788B22
:0C3C5500799001F4C004126996AA82ABB9
:0C3C610083D0047864EAF2C3EC64808A2B
:093C6D00F063F08095F050010CA9
:0C3C76007865ECF212536AAA82AB8390CE
:0C3C8200F4EFEAF0A3EBF07862EAF2083D
:083C8E00EBF290F4F1021C942A
:0D3C9600AA8290FC23EAF0EA7003024E9827
:0E3CA30012536AE5828583F090F4EF24F4F06A
:073CB100740135F0A3F022BD
:093CB80074A4C0E07479C0E0744A
:083CC1000CC0E0743AC0E09071
:0C3CC900F511121A32E58124FCF581226D
:0A79A40074656C656D6574727900FE
:017E860000FB
:0A3CD500C054858154C082C083C032
:0C3CDF00F0C0E0786DE4F208F208F20892
:0A3CEB00F27871E4F278727445F289
:0D3CF5000874AFF20874FCF20874FFF2A826
:0C3D02005408E6248AFE08E6345EFF0840
:0C3D0E00E634F9FA08E634FFFBA854087C
:0E3D1A00A60608A60708A60208A603EB30E7D7
:0A3D28001878717401F2A85408C362
:0E3D3200E496F608E496F608E496F608E496A1
:013D4000F68C
:0C3D4100A85408860208860308860408BF
:023D4D008605E9
:0C3D4F007872C3E2F5F0E495F008E2F5AC
:0E3D5B00F0E495F008E2F5F0E495F008E2F5EA
:0C3D6900F0748063F08095F0502C7872AC
:0E3D7500E2248AF208E2345EF208E234F9F247
:0C3D830008E234FFF2786DE22401F2083F
:0E3D8F00E23400F208E23400F208E23400F2FE
:023D9D0080B0F4
:0A3D9F007872E55424FAF9E227F2E5
:0E3DA90008E20937F208E20937F208E20937AA
:0E3DB700F21ABAFF091BBBFF051CBCFF011D61
:073DC500ED20E703023D4F72
:0A3DCC007871E2601A786DE2D3F41A
:0E3DD6003400F208E2F43400F208E2F43400A3
:073DE400F208E2F43400F2E2
:0A3DEB00E55424FAF8796DE326FA96
:0E3DF50009E30836FB09E30836FC09E308364B
:0A3E03008A828B838CF0855481D0F5
:023E0D0054223D
:043E0F0075B6B222B0
:0A3E1300E52314541F75F010A424D9
:043E1D0088F5787438
:063E2100F535F0F579759E
:063E27007A10E4F57B02B5
:023E2D00519BA7
:0C3E2F00C022C0E0C0F0C082C083C0020E
:0E3E3B00C003C004C005C006C007C000C0011F
:0E3E4900C0D075D000740F55B5FABA0220E54E
:093E57004375F010A42488FB74EB
:0C3E6000F535F0FC74022BFBE43CFC7414
:0A3E6C000C2BFBE43CFC7A00802ADA
:053E7600BA0E027A0201
:0A3E7B00E54375F010A42488FD74DF
:0C3E8500F535F0FE74022DFDE43EFE8ACF
:0E3E910007E4CF25E0CF33F8EF2DFBE83EFC31
:013E9F000A18
:0E3EA0008B828C83E5BAF08B828C83A3E5BB0A
:043EAE00F0BA060060
:0A3EB200500FBA020575B63E8005F8
:053EBC0074B04AF5B6E8
:023EC100803847
:0A3EC300E54375F010A42488FA749A
:0C3ECD00F535F0FBC002C00312536AACD4
:0E3ED90082AD83D003D0028A828B83ECF0A3EB
:0A3EE700EDF0E54304541FF5437AA3
:0A3EF100437BFF8A828B83121C942E
:0E3EFB00D0D0D001D000D007D006D005D00422
:0D3F0900D003D002D083D082D0F0D0E0D021
:023F1600223255
:0A3F1800C054E581F5542408F5813A
:073F220090F788123E139096
:0E3F2900F794E0FAA3E0FB90F792E0FCA3E02F
:0C3F3700FD90F790A854080808E0F6A3DD
:0C3F4300E008F690F78EA85408E0F6A302
:0C3F4F00E008F690F78CE5542405F8E03B
:0C3F5B00F6A3E008F690F78AE55424076E
:0E3F6700F8E0F6A3E008F690F788E0FEA3E08D
:0C3F7500FFC002C003C004C005A854082F
:0C3F81000808E6C0E008E6C0E0A854080C
:0C3F8D00E6C0E008E6C0E0E5542405F8BA
:0C3F9900E6C0E008E6C0E0E5542407F8AC
:0C3FA500E6C0E008E6C0E0C006C00774FB
:0A3FB100AEC0E07479C0E07480C077
:0C3FBB00E0126BC1E58124EFF581855414
:043FC70081D054222F
:0E3FCB0075F23BC28D43A8029079F80207639D
:0E79AE007469636B3A2025357520616363654B
:0E79BC006C3A2025356420707265733A2025E0
:0E79CA0035642074656D703A202535642062A6
:0E79D8006174743A202535642064726F6775FF
:0E79E600653A20253564206D61696E3A2025D2
:0479F40035640A00EC
:0279F800183F36
:0679FA00007A000000000D
:0E7A0000610043757272656E7420414443004C
:0E3FD900E582FA7009C2A053F5FE75EB0022D6
:0E3FE700ABF574FE5BF5F0740145F0F5F58A5C
:053FF500ED75EBB222A6
:063FFA00C0548581541241
:0C4000003FD9E55424FCF8868208868332
:0A400C00121D3E758200123FD9D04C
:02401600542232
:0E401800C2A053F5FEAAF174EF5AF5F0741031
:0840260045F0F5F175EC1422E0
:0A402E00C054858154E582FAF4FBCA
:0C403800E5905203A854181818E6520234
:09404400EA4BF5900000D0542273
:0A404D00AA8243902043FE207B0866
:084057007C00EA30E7027C2046
:0E405F00EA2AFA74104CFDC002C003C004C06F
:0D406D000575823012402E158175823012CB
:0E407A00402E1581D003D002DBD353FEDF228F
:044088007A007B0837
:0E408C00EA2AFAC002C0037410C0E075821068
:0E409A0012402E1581D003D002309503430250
:0140A8000116
:0E40A900C002C003E4C0E075821012402E1564
:0A40B70081D003D002DBCE8A822202
:0E40C100AA82758255C00212404DD0028A823A
:0640CF0012404D02408882
:0A40D500C054858154AA82758256FA
:0D40DF00C00212404DD0028A8212404DA84E
:0A40EC0054181818868212404D1275
:0540F6004088D05422B7
:0A40FB00C054858154AA82758257D3
:0D410500C00212404DD0028A8212404DA827
:0A41120054181818868212404DE57B
:0A411C005424FCF8868212404D1274
:054126004088D0542286
:0E412B00AA82AB83758200C002C0031240C19D
:0C413900E5827876F274D0C0E07582E573
:0C4145001240D5AC8215817877ECF27442
:0E41510082C0E07582E51240D5AC82158178FF
:0B415F0078ECF27483C0E07582E5127A
:0C416A0040D5AC8215817879ECF27484A9
:0D417600C0E07582E51240D5AC821581785D
:0B4183007AECF27485C0E07582E51252
:0C418E0040D5AC821581D003D002787BB4
:0E419A00ECF28A048B02C004C00275829012FF
:0741A80040FB158115812287
:0C41AF007878E2C0E07482C0E075827590
:0C41BB001240FB158115817879E2C0E00C
:0E41C7007483C0E07582751240FB158115816E
:0C41D500787AE2C0E07484C0E075827566
:0C41E1001240FB15811581787BE2C0E0E4
:0E41ED007485C0E07582751240FB1581158146
:0C41FB007877E2C0E074D0C0E0758275F7
:0C4207001240FB158115817876E2C0E0C2
:094213007582741240D515812258
:0E421C00AA82C0027582741240D51581758287
:0A422A00F01240C17582A30240C1EA
:0C4234007582E01240C17582A30240C1F7
:0E42400053F4C743F62043901843FE1853FE74
:02424E00DF226D
:024250007A14DE
:0442520000DAFD226F
:0C425600AA82C002124250D002C0448A6A
:074262008212402E1581229B
:0C426900AA82C0021242407544387582DF
:0C42750038124256D00274204AFB8B44E1
:0E428100758238C002C00312425690000A1225
:0E428F001D3E7430C0E075823812402E15813D
:0B429D00D0038B447582381242567526
:0C42A8004430758238124256D00274284F
:0C42B4004AF54475823812425690000A08
:0342C000021D3E9E
:0642C30075820002426951
:0642C9007582100242693B
:0A42CF001203957806E2B40A0122FA
:0942D90012044B7807E2700A7828
:0942E20000E2F58212404D80E477
:0142EB0022B0
:0942EC0012044B7807E260012284
:0C42F5007800E2FA08E2FBC3E49A7401CE
:094301009B500678077402F222B9
:04430A007C007D00B6
:0E430E00C3EC9AED9B5042EC4D601BEC540743
:0E431C00701675820AC002C003C004C00512EC
:0A432A001690D005D004D003D00295
:0E433400C002C003C004C0051240881203611D
:0E434200758220121690D005D004D003D00250
:074350000CBC00BA0D80B7A0
:0643570075820A021690B7
:0C435D0012044B7800E2FA08E2FBC002F8
:0C436900C00312044BD003D0027800E225
:0A437500FC08E2FD7807E260012277
:0E437F008C828D83C002C00312412BD003D06C
:03438D00027C00AF
:094390008A058B061ABAFF011B15
:0E439900ED4E602E8C050CED540770127582EF
:0E43A7000AC002C003C004121690D004D00356
:0243B500D00234
:0E43B700C002C003C004124234120361D004DD
:0643C500D003D00280C508
:0943CB001241AF75820A0216903E
:0C43D40012044B7800E2FA08E2FBC00281
:0C43E000C00312044BD003D0027800E2AE
:0A43EC00FC08E2FD7807E260012200
:0E43F6008C828D83C002C00312412BD003D0F5
:0144040002B5
:094405008A048B051ABAFF011BA1
:0E440E00EC4D6032C002C0031202F2E582C41F
:0E441C0054F0FCC0041202F2AD82D004D003B2
:0B442A00D002ED42047807E26001229E
:0E4435008C82C002C00312421CD003D0028051
:01444300C1B7
:034444000241AF83
:06444700907A0E020763EB
:027A0E00C34271
:027A10002A7AD0
:027A1200EC4244
:027A1400397ABD
:027A16005D43CE
:027A18004C7AA6
:027A1A00D44353
:027A1C00757A79
:027A1E00CF4255
:027A20009F7A4B
:027A2200C94257
:067A2400B57A000000002D
:0E7A2A004400456E61626C652064656275679C
:017A3800004D
:0E7A390047203C636F756E743E0047657420F5
:057A47006461746100A0
:0E7A4C0049203C636F756E743E203C6164649B
:0E7A5A00723E00496E707574203C636F756E4D
:0D7A6800743E206174203C616464723E0035
:0E7A75004F203C636F756E743E203C6164646C
:0E7A8300723E004F7574707574203C636F7511
:0E7A91006E743E206174203C616464723E009D
:0E7A9F0050203C627974653E202E2E2E005041
:087AAD0075742064617461002E
:087AB500520052657365740074
:0C444D00AA82AB837405B5450E7582028F
:0B445900C002C0031215E4D003D00223
:08446400AC450545EC2CFD24DC
:0A446C00C0F582E434F7F583EAF0AE
:0E447600A3EBF0EC701FF5D1C2C043B8017A81
:06448400987BF78BD57A4E
:06448A00987BF78AD47A4A
:06449000A07BF78BD37A3C
:05449600A07BF78AD2B3
:03449B008C8222EE
:0C449E00AA828AF005F07B017C008006F9
:0644AA00EB2BFBEC33FCE0
:0E44B000D5F0F7ADD67E00ED5203EE5204EBD0
:0D44BE004C600A758202C0021215E4D002A3
:0C44CB00EAC40354F8FA2498F582E434A3
:0644D700F7F583AB46ACD3
:0A44DD00478C05EDF0EA2498FAE49C
:0C44E70034F7FD8A828D83A3EBF08A82FB
:0A44F3008D83A3A3AB48AC498C06EF
:0E44FD00EEF08A828D83A3A3A3EBF08A828D5A
:0C450B0083A3A3A3A3E54BF08A828D8359
:0C451700A3A3A3A3A3E54AF074062AF5B1
:0C45230082E43DF583E54CF074072AF5B6
